{
  "contractName": "Endorsement",
  "abi": [
    {
      "constant": true,
      "inputs": [
        {
          "name": "",
          "type": "uint256"
        }
      ],
      "name": "allParticipants",
      "outputs": [
        {
          "name": "",
          "type": "address"
        }
      ],
      "payable": false,
      "stateMutability": "view",
      "type": "function"
    },
    {
      "constant": true,
      "inputs": [
        {
          "name": "",
          "type": "uint256"
        }
      ],
      "name": "participants",
      "outputs": [
        {
          "name": "identifier",
          "type": "address"
        },
        {
          "name": "name",
          "type": "string"
        }
      ],
      "payable": false,
      "stateMutability": "view",
      "type": "function"
    },
    {
      "constant": true,
      "inputs": [
        {
          "name": "",
          "type": "uint256"
        }
      ],
      "name": "endorserAccts",
      "outputs": [
        {
          "name": "",
          "type": "address"
        }
      ],
      "payable": false,
      "stateMutability": "view",
      "type": "function"
    },
    {
      "constant": true,
      "inputs": [
        {
          "name": "",
          "type": "uint256"
        }
      ],
      "name": "endorseeAccts",
      "outputs": [
        {
          "name": "",
          "type": "address"
        }
      ],
      "payable": false,
      "stateMutability": "view",
      "type": "function"
    },
    {
      "inputs": [],
      "payable": false,
      "stateMutability": "nonpayable",
      "type": "constructor"
    },
    {
      "anonymous": false,
      "inputs": [
        {
          "indexed": false,
          "name": "_participant",
          "type": "address"
        },
        {
          "indexed": false,
          "name": "_name",
          "type": "string"
        }
      ],
      "name": "LogJoinNetwork",
      "type": "event"
    },
    {
      "anonymous": false,
      "inputs": [
        {
          "indexed": false,
          "name": "_endorser",
          "type": "address"
        },
        {
          "indexed": false,
          "name": "_endorsee",
          "type": "address"
        }
      ],
      "name": "LogEndorse",
      "type": "event"
    },
    {
      "constant": false,
      "inputs": [
        {
          "name": "_userName",
          "type": "string"
        }
      ],
      "name": "joinNetwork",
      "outputs": [],
      "payable": false,
      "stateMutability": "nonpayable",
      "type": "function"
    },
    {
      "constant": true,
      "inputs": [],
      "name": "getAllParticipants",
      "outputs": [
        {
          "name": "",
          "type": "address[]"
        }
      ],
      "payable": false,
      "stateMutability": "view",
      "type": "function"
    },
    {
      "constant": false,
      "inputs": [
        {
          "name": "_index",
          "type": "uint256"
        }
      ],
      "name": "endorse",
      "outputs": [],
      "payable": false,
      "stateMutability": "nonpayable",
      "type": "function"
    },
    {
      "constant": false,
      "inputs": [
        {
          "name": "_endorsee",
          "type": "address"
        }
      ],
      "name": "removeEndorsement",
      "outputs": [
        {
          "name": "",
          "type": "uint256"
        }
      ],
      "payable": false,
      "stateMutability": "nonpayable",
      "type": "function"
    },
    {
      "constant": true,
      "inputs": [
        {
          "name": "_endorsee",
          "type": "address"
        }
      ],
      "name": "computeReceivedPoints",
      "outputs": [
        {
          "name": "",
          "type": "uint256"
        }
      ],
      "payable": false,
      "stateMutability": "view",
      "type": "function"
    },
    {
      "constant": true,
      "inputs": [
        {
          "name": "_participant",
          "type": "address"
        }
      ],
      "name": "computeImpact",
      "outputs": [
        {
          "name": "",
          "type": "uint256"
        }
      ],
      "payable": false,
      "stateMutability": "view",
      "type": "function"
    },
    {
      "constant": true,
      "inputs": [
        {
          "name": "_participant",
          "type": "address"
        }
      ],
      "name": "getProfile",
      "outputs": [
        {
          "name": "",
          "type": "uint256"
        }
      ],
      "payable": false,
      "stateMutability": "view",
      "type": "function"
    },
    {
      "constant": true,
      "inputs": [],
      "name": "getEndorsers",
      "outputs": [
        {
          "name": "",
          "type": "address[]"
        }
      ],
      "payable": false,
      "stateMutability": "view",
      "type": "function"
    },
    {
      "constant": true,
      "inputs": [
        {
          "name": "_endorser",
          "type": "address"
        }
      ],
      "name": "getUsedPower",
      "outputs": [
        {
          "name": "",
          "type": "uint256"
        }
      ],
      "payable": false,
      "stateMutability": "view",
      "type": "function"
    },
    {
      "constant": true,
      "inputs": [
        {
          "name": "_endorser",
          "type": "address"
        }
      ],
      "name": "getGivenTo",
      "outputs": [
        {
          "name": "",
          "type": "address[]"
        }
      ],
      "payable": false,
      "stateMutability": "view",
      "type": "function"
    },
    {
      "constant": true,
      "inputs": [
        {
          "name": "_endorser",
          "type": "address"
        },
        {
          "name": "_endorsee",
          "type": "address"
        }
      ],
      "name": "gethasGivenTo",
      "outputs": [
        {
          "name": "",
          "type": "bool"
        }
      ],
      "payable": false,
      "stateMutability": "view",
      "type": "function"
    },
    {
      "constant": true,
      "inputs": [],
      "name": "getEndorsees",
      "outputs": [
        {
          "name": "",
          "type": "address[]"
        }
      ],
      "payable": false,
      "stateMutability": "view",
      "type": "function"
    },
    {
      "constant": true,
      "inputs": [
        {
          "name": "_endorsee",
          "type": "address"
        }
      ],
      "name": "getReceivedFrom",
      "outputs": [
        {
          "name": "",
          "type": "address[]"
        }
      ],
      "payable": false,
      "stateMutability": "view",
      "type": "function"
    },
    {
      "constant": true,
      "inputs": [
        {
          "name": "_endorser",
          "type": "address"
        },
        {
          "name": "_endorsee",
          "type": "address"
        }
      ],
      "name": "gethasReceivedFrom",
      "outputs": [
        {
          "name": "",
          "type": "bool"
        }
      ],
      "payable": false,
      "stateMutability": "view",
      "type": "function"
    }
  ],
  "bytecode": "0x6060604052341561000f57600080fd5b336000806101000a81548173ffffffffffffffffffffffffffffffffffffffff021916908373ffffffffffffffffffffffffffffffffffffffff160217905550611d538061005e6000396000f3006060604052600436106100fc576000357c0100000000000000000000000000000000000000000000000000000000900463ffffffff16806305e33dd0146101015780630f53a47014610164578063195ec9ee146101b15780631fcfe3eb1461021b57806320b2e1cf1461023e5780632dd59bd11461028b578063308d8032146102d857806335c1d349146103355780634c070ced1461042157806376f7534d146104af57806388e2eed5146104fc5780638eb467cd14610566578063c253c25c146105d6578063c386a95f14610640578063c4ec4b75146106a3578063d55a6ac4146106f0578063e2d7493214610753578063e4ff3df1146107c3575b600080fd5b341561010c57600080fd5b6101226004808035906020019091905050610851565b604051808273ffffffffffffffffffffffffffffffffffffffff1673ffffffffffffffffffffffffffffffffffffffff16815260200191505060405180910390f35b341561016f57600080fd5b61019b600480803573ffffffffffffffffffffffffffffffffffffffff16906020019091905050610890565b6040518082815260200191505060405180910390f35b34156101bc57600080fd5b6101c46108f1565b6040518080602001828103825283818151815260200191508051906020019060200280838360005b838110156102075780820151818401526020810190506101ec565b505050509050019250505060405180910390f35b341561022657600080fd5b61023c6004808035906020019091905050610985565b005b341561024957600080fd5b610275600480803573ffffffffffffffffffffffffffffffffffffffff16906020019091905050610d14565b6040518082815260200191505060405180910390f35b341561029657600080fd5b6102c2600480803573ffffffffffffffffffffffffffffffffffffffff16906020019091905050610f1a565b6040518082815260200191505060405180910390f35b34156102e357600080fd5b610333600480803590602001908201803590602001908080601f01602080910402602001604051908101604052809392919081815260200183838082843782019150505050505091905050610f66565b005b341561034057600080fd5b6103566004808035906020019091905050611226565b604051808373ffffffffffffffffffffffffffffffffffffffff1673ffffffffffffffffffffffffffffffffffffffff168152602001806020018281038252838181546001816001161561010002031660029004815260200191508054600181600116156101000203166002900480156104115780601f106103e657610100808354040283529160200191610411565b820191906000526020600020905b8154815290600101906020018083116103f457829003601f168201915b5050935050505060405180910390f35b341561042c57600080fd5b610458600480803573ffffffffffffffffffffffffffffffffffffffff16906020019091905050611278565b6040518080602001828103825283818151815260200191508051906020019060200280838360005b8381101561049b578082015181840152602081019050610480565b505050509050019250505060405180910390f35b34156104ba57600080fd5b6104e6600480803573ffffffffffffffffffffffffffffffffffffffff1690602001909190505061134e565b6040518082815260200191505060405180910390f35b341561050757600080fd5b61050f6113ea565b6040518080602001828103825283818151815260200191508051906020019060200280838360005b83811015610552578082015181840152602081019050610537565b505050509050019250505060405180910390f35b341561057157600080fd5b6105bc600480803573ffffffffffffffffffffffffffffffffffffffff1690602001909190803573ffffffffffffffffffffffffffffffffffffffff1690602001909190505061147e565b604051808215151515815260200191505060405180910390f35b34156105e157600080fd5b6105e9611515565b6040518080602001828103825283818151815260200191508051906020019060200280838360005b8381101561062c578082015181840152602081019050610611565b505050509050019250505060405180910390f35b341561064b57600080fd5b61066160048080359060200190919050506115a9565b604051808273ffffffffffffffffffffffffffffffffffffffff1673ffffffffffffffffffffffffffffffffffffffff16815260200191505060405180910390f35b34156106ae57600080fd5b6106da600480803573ffffffffffffffffffffffffffffffffffffffff169060200190919050506115e8565b6040518082815260200191505060405180910390f35b34156106fb57600080fd5b6107116004808035906020019091905050611733565b604051808273ffffffffffffffffffffffffffffffffffffffff1673ffffffffffffffffffffffffffffffffffffffff16815260200191505060405180910390f35b341561075e57600080fd5b6107a9600480803573ffffffffffffffffffffffffffffffffffffffff1690602001909190803573ffffffffffffffffffffffffffffffffffffffff16906020019091905050611772565b604051808215151515815260200191505060405180910390f35b34156107ce57600080fd5b6107fa600480803573ffffffffffffffffffffffffffffffffffffffff16906020019091905050611809565b6040518080602001828103825283818151815260200191508051906020019060200280838360005b8381101561083d578082015181840152602081019050610822565b505050509050019250505060405180910390f35b60088181548110151561086057fe5b90600052602060002090016000915054906101000a900473ffffffffffffffffffffffffffffffffffffffff1681565b600080600061089e846115e8565b9150600460008573ffffffffffffffffffffffffffffffffffffffff1673ffffffffffffffffffffffffffffffffffffffff16815260200190815260200160002060020154820290508092505050919050565b6108f9611b28565b600880548060200260200160405190810160405280929190818152602001828054801561097b57602002820191906000526020600020905b8160009054906101000a900473ffffffffffffffffffffffffffffffffffffffff1673ffffffffffffffffffffffffffffffffffffffff1681526020019060010190808311610931575b5050505050905090565b60008060018381548110151561099757fe5b906000526020600020906002020160000160009054906101000a900473ffffffffffffffffffffffffffffffffffffffff16915060008273ffffffffffffffffffffffffffffffffffffffff16141515156109f157600080fd5b3373ffffffffffffffffffffffffffffffffffffffff168273ffffffffffffffffffffffffffffffffffffffff1614151515610a2c57600080fd5b600360003373ffffffffffffffffffffffffffffffffffffffff1673ffffffffffffffffffffffffffffffffffffffff16815260200190815260200160002060009054906101000a900460ff161515610a8457600080fd5b600460003373ffffffffffffffffffffffffffffffffffffffff1673ffffffffffffffffffffffffffffffffffffffff16815260200190815260200160002090508060000160008154809291906001019190505550338160010160006101000a81548173ffffffffffffffffffffffffffffffffffffffff021916908373ffffffffffffffffffffffffffffffffffffffff1602179055508060020160008154809291906001019190505550610b416001826002015460096118df565b8160030181905550806004018054806001018281610b5f9190611b3c565b9160005260206000209001600084909190916101000a81548173ffffffffffffffffffffffffffffffffffffffff021916908373ffffffffffffffffffffffffffffffffffffffff1602179055505060018160050160008473ffffffffffffffffffffffffffffffffffffffff1673ffffffffffffffffffffffffffffffffffffffff16815260200190815260200160002060006101000a81548160ff021916908315150217905550600160058054806001018281610c1e9190611b3c565b9160005260206000209001600033909190916101000a81548173ffffffffffffffffffffffffffffffffffffffff021916908373ffffffffffffffffffffffffffffffffffffffff1602179055505050610c788233611918565b7f7845b8ad8806c20e29c9d7324b57431f98ecae390bcd677ed79d54fbc7d3dff33383604051808373ffffffffffffffffffffffffffffffffffffffff1673ffffffffffffffffffffffffffffffffffffffff1681526020018273ffffffffffffffffffffffffffffffffffffffff1673ffffffffffffffffffffffffffffffffffffffff1681526020019250505060405180910390a1505050565b6000806000600460003373ffffffffffffffffffffffffffffffffffffffff1673ffffffffffffffffffffffffffffffffffffffff1681526020019081526020016000209150600660008573ffffffffffffffffffffffffffffffffffffffff1673ffffffffffffffffffffffffffffffffffffffff16815260200190815260200160002090508160050160008573ffffffffffffffffffffffffffffffffffffffff1673ffffffffffffffffffffffffffffffffffffffff16815260200190815260200160002060009054906101000a900460ff1615610ece5760008260050160008673ffffffffffffffffffffffffffffffffffffffff1673ffffffffffffffffffffffffffffffffffffffff16815260200190815260200160002060006101000a81548160ff02191690831515021790555081600201600081548092919060019003919050555060008160040160003373ffffffffffffffffffffffffffffffffffffffff1673ffffffffffffffffffffffffffffffffffffffff16815260200190815260200160002060006101000a81548160ff0219169083151502179055508060020160008154809291906001900391905055505b600460003373ffffffffffffffffffffffffffffffffffffffff1673ffffffffffffffffffffffffffffffffffffffff1681526020019081526020016000206000015492505050919050565b6000600460008373ffffffffffffffffffffffffffffffffffffffff1673ffffffffffffffffffffffffffffffffffffffff168152602001908152602001600020600301549050919050565b610f6e611b68565b600360003373ffffffffffffffffffffffffffffffffffffffff1673ffffffffffffffffffffffffffffffffffffffff16815260200190815260200160002060009054906101000a900460ff16151515610fc757600080fd5b6001600360003373ffffffffffffffffffffffffffffffffffffffff1673ffffffffffffffffffffffffffffffffffffffff16815260200190815260200160002060006101000a81548160ff02191690831515021790555060408051908101604052803373ffffffffffffffffffffffffffffffffffffffff168152602001838152509050600180548060010182816110609190611b9e565b9160005260206000209060020201600083909190915060008201518160000160006101000a81548173ffffffffffffffffffffffffffffffffffffffff021916908373ffffffffffffffffffffffffffffffffffffffff16021790555060208201518160010190805190602001906110d9929190611bd0565b50505050600880548060010182816110f19190611b3c565b9160005260206000209001600033909190916101000a81548173ffffffffffffffffffffffffffffffffffffffff021916908373ffffffffffffffffffffffffffffffffffffffff160217905550507fe8f84471e30dd45724c20df4d0a852bf7aeb5c3fdb7328f231e08dac15b64f0a3383604051808373ffffffffffffffffffffffffffffffffffffffff1673ffffffffffffffffffffffffffffffffffffffff16815260200180602001828103825283818151815260200191508051906020019080838360005b838110156111d55780820151818401526020810190506111ba565b50505050905090810190601f1680156112025780820380516001836020036101000a031916815260200191505b50935050505060405180910390a16002600081548092919060010191905055505050565b60018181548110151561123557fe5b90600052602060002090600202016000915090508060000160009054906101000a900473ffffffffffffffffffffffffffffffffffffffff169080600101905082565b611280611b28565b600660008373ffffffffffffffffffffffffffffffffffffffff1673ffffffffffffffffffffffffffffffffffffffff16815260200190815260200160002060030180548060200260200160405190810160405280929190818152602001828054801561134257602002820191906000526020600020905b8160009054906101000a900473ffffffffffffffffffffffffffffffffffffffff1673ffffffffffffffffffffffffffffffffffffffff16815260200190600101908083116112f8575b50505050509050919050565b6000611358611b28565b60008061136485611278565b9250600090505b82518110156113df5760046000848381518110151561138657fe5b9060200190602002015173ffffffffffffffffffffffffffffffffffffffff1673ffffffffffffffffffffffffffffffffffffffff1681526020019081526020016000206003015482019150808060010191505061136b565b819350505050919050565b6113f2611b28565b600780548060200260200160405190810160405280929190818152602001828054801561147457602002820191906000526020600020905b8160009054906101000a900473ffffffffffffffffffffffffffffffffffffffff1673ffffffffffffffffffffffffffffffffffffffff168152602001906001019080831161142a575b5050505050905090565b6000600660008373ffffffffffffffffffffffffffffffffffffffff1673ffffffffffffffffffffffffffffffffffffffff16815260200190815260200160002060040160008473ffffffffffffffffffffffffffffffffffffffff1673ffffffffffffffffffffffffffffffffffffffff16815260200190815260200160002060009054906101000a900460ff16905092915050565b61151d611b28565b600580548060200260200160405190810160405280929190818152602001828054801561159f57602002820191906000526020600020905b8160009054906101000a900473ffffffffffffffffffffffffffffffffffffffff1673ffffffffffffffffffffffffffffffffffffffff1681526020019060010190808311611555575b5050505050905090565b6005818154811015156115b857fe5b90600052602060002090016000915054906101000a900473ffffffffffffffffffffffffffffffffffffffff1681565b600080600080600080600080600080600460008c73ffffffffffffffffffffffffffffffffffffffff1673ffffffffffffffffffffffffffffffffffffffff168152602001908152602001600020600201549850600660008c73ffffffffffffffffffffffffffffffffffffffff1673ffffffffffffffffffffffffffffffffffffffff16815260200190815260200160002060020154975061168a8b61134e565b96506001891115801561169e575060018811155b156116ac5760009550611722565b6116b68989611af0565b94506116c28989611b0c565b93506116d0858560096118df565b9250600460008c73ffffffffffffffffffffffffffffffffffffffff1673ffffffffffffffffffffffffffffffffffffffff168152602001908152602001600020600301549150869050808284020295505b859950505050505050505050919050565b60078181548110151561174257fe5b90600052602060002090016000915054906101000a900473ffffffffffffffffffffffffffffffffffffffff1681565b6000600460008473ffffffffffffffffffffffffffffffffffffffff1673ffffffffffffffffffffffffffffffffffffffff16815260200190815260200160002060050160008373ffffffffffffffffffffffffffffffffffffffff1673ffffffffffffffffffffffffffffffffffffffff16815260200190815260200160002060009054906101000a900460ff16905092915050565b611811611b28565b600460008373ffffffffffffffffffffffffffffffffffffffff1673ffffffffffffffffffffffffffffffffffffffff1681526020019081526020016000206004018054806020026020016040519081016040528092919081815260200182805480156118d357602002820191906000526020600020905b8160009054906101000a900473ffffffffffffffffffffffffffffffffffffffff1673ffffffffffffffffffffffffffffffffffffffff1681526020019060010190808311611889575b50505050509050919050565b600080600060018401600a0a86029150600a600586848115156118fe57fe5b040181151561190957fe5b04905080925050509392505050565b6000600660008473ffffffffffffffffffffffffffffffffffffffff1673ffffffffffffffffffffffffffffffffffffffff1681526020019081526020016000209050828160010160006101000a81548173ffffffffffffffffffffffffffffffffffffffff021916908373ffffffffffffffffffffffffffffffffffffffff160217905550806000016000815480929190600101919050555080600201600081548092919060010191905055508060030180548060010182816119dc9190611b3c565b9160005260206000209001600084909190916101000a81548173ffffffffffffffffffffffffffffffffffffffff021916908373ffffffffffffffffffffffffffffffffffffffff1602179055505060018160040160008473ffffffffffffffffffffffffffffffffffffffff1673ffffffffffffffffffffffffffffffffffffffff16815260200190815260200160002060006101000a81548160ff021916908315150217905550600160078054806001018281611a9b9190611b3c565b9160005260206000209001600086909190916101000a81548173ffffffffffffffffffffffffffffffffffffffff021916908373ffffffffffffffffffffffffffffffffffffffff1602179055505050505050565b600081831015611b0257829050611b06565b8190505b92915050565b600081831015611b1e57819050611b22565b8290505b92915050565b602060405190810160405280600081525090565b815481835581811511611b6357818360005260206000209182019101611b629190611c50565b5b505050565b6040805190810160405280600073ffffffffffffffffffffffffffffffffffffffff168152602001611b98611c75565b81525090565b815481835581811511611bcb57600202816002028360005260206000209182019101611bca9190611c89565b5b505050565b828054600181600116156101000203166002900490600052602060002090601f016020900481019282601f10611c1157805160ff1916838001178555611c3f565b82800160010185558215611c3f579182015b82811115611c3e578251825591602001919060010190611c23565b5b509050611c4c9190611c50565b5090565b611c7291905b80821115611c6e576000816000905550600101611c56565b5090565b90565b602060405190810160405280600081525090565b611cdc91905b80821115611cd857600080820160006101000a81549073ffffffffffffffffffffffffffffffffffffffff0219169055600182016000611ccf9190611cdf565b50600201611c8f565b5090565b90565b50805460018160011615610100020316600290046000825580601f10611d055750611d24565b601f016020900490600052602060002090810190611d239190611c50565b5b505600a165627a7a72305820958f1a3686e3417839cf50afe58231cfd365904416008b4e946ea516181fc3180029",
  "source": "pragma solidity ^0.4.18;\n\ncontract Endorsement {\n\n\taddress owner;\n    \n    struct Participant { \n        address identifier;\n        string name;\n    }\n    \n    struct Endorser {\n\t\tuint index;\n        address sender;\n        uint nEG;\n        uint usedPower;\n        address[] givenTo;\n        mapping(address => bool) hasGivenTo;\n    }\n\n\tstruct Endorsee { \n\t\tuint index;\n\t\taddress receiver;\n\t\tuint nER;\n\t\t//uint receivedPoints;\n\t\taddress[] receivedFrom;\n\t\tmapping(address => bool) hasReceivedFrom;\n\t}\n    \n    Participant [] public participants;\n\t\n\tuint numberOfParticipants;\n    \n    mapping(address => bool) joined;\n    \n    mapping (address => Endorser) endorsers;\n    address[] public endorserAccts;\n\n\tmapping (address => Endorsee ) endorsees;\n\taddress[] public endorseeAccts;\n\n\taddress[] public allParticipants;\n\n\n\t//mapping (address => uint) public receivedPoints;\n    \n\t// modifiers\n\tmodifier onlyOwner() { \n\t\trequire(msg.sender == owner );\n\t\t_;\n\t}\n\n\t//constructor\n\tfunction Endorsement() public { \n\t\t//EDSToken( );\n\t\towner = msg.sender;\n\t}\n\n\tevent LogJoinNetwork(address _participant, string _name);  \n\n\tevent LogEndorse(address _endorser, address _endorsee);\n\n\tfunction joinNetwork(string _userName) public{\n\t    require(!joined[msg.sender]);\n\t    joined[msg.sender] = true;\n\n\t    Participant memory newParticipant = Participant({\n\t        identifier: msg.sender,\n\t        name: _userName\n\t    });\n\t    participants.push(newParticipant);\n\t\tallParticipants.push(msg.sender);\n\n\t\tLogJoinNetwork(msg.sender, _userName);\n\n\t\tnumberOfParticipants++;\n\t}\n\n\tfunction getAllParticipants( ) public view returns(address []){\n\t\treturn allParticipants;\n\t}\n\t\n\tfunction endorse(uint _index) public { \n\t    address receiver = participants[_index].identifier;\n\t    \n\t    require(receiver != 0x0);\n\t    require(receiver != msg.sender);\n\t\trequire(joined[msg.sender]);\n\t    \n\t    Endorser storage endorser = endorsers[msg.sender];\n\t    \n\t\tendorser.index++;\n\t    endorser.sender = msg.sender;\n\t    endorser.nEG++;\n\t\t\n//\t\tif (endorser.nEG >1 ){ \n//\t\t\tendorser.usedPower = Division(1, endorser.nEG,9);\n//\t\t} else {\n//\t\t\tendorser.usedPower = 0;\n//\t\t}\n\t\t\n\t    endorser.usedPower =Division(1,endorser.nEG, 9);\n\t    endorser.givenTo.push(receiver);\n\t    endorser.hasGivenTo[receiver] = true;\n\t    \n\t    endorserAccts.push(msg.sender) - 1;\n\n\t\tupdateEndorsee(receiver, msg.sender);\n\n\t\tLogEndorse(msg.sender, receiver);\n\t    \n\t}\n\n\tfunction updateEndorsee(address _receiver, address _sender) internal { \n\t\tEndorsee storage endorsee = endorsees[_receiver];\n\t\tendorsee.receiver = _receiver;\n\t\tendorsee.index++;\n\t\tendorsee.nER++;\n\t\tendorsee.receivedFrom.push(_sender);\n\t\tendorsee.hasReceivedFrom[_sender] = true;\n\n\t\tendorseeAccts.push(_receiver) - 1;\n\t}\n\n\tfunction removeEndorsement(address _endorsee) public returns(uint) { \n\t\tEndorser storage endorser = endorsers[msg.sender];\n\t\tEndorsee storage endorsee = endorsees[_endorsee];\n\n\t\tif (endorser.hasGivenTo[_endorsee]) { \n\t\t\tendorser.hasGivenTo[_endorsee] = false;\n\t\t\tendorser.nEG--;\n\t\t\t//remove endorsee from endorser.givenTo array \n\t\t\t\n\t\t\tendorsee.hasReceivedFrom[msg.sender] = false;\n\t\t\tendorsee.nER--;\n\t\t\t//remove endorser address from endorsee.receivedFrom array\n\t\t}\n\t\treturn endorsers[msg.sender].index;\n\t}\n\n\tfunction computeReceivedPoints(address _endorsee) public view returns(uint) { \n\t\taddress [] memory receivedFrom = getReceivedFrom(_endorsee);\n\n\t\tuint receivedPoints;\n\n\t\tfor (uint i=0; i<receivedFrom.length; i++) { \n\t\t\treceivedPoints = receivedPoints + endorsers[receivedFrom[i]].usedPower;\n\t\t}\n\n\t\treturn receivedPoints;\n\t}\n\n\tfunction computeImpact(address _participant) public view returns (uint) { \n\t\tuint nEG = endorsers[_participant].nEG;\n\t\tuint nER = endorsees[_participant].nER;\n\t\tuint _RE = computeReceivedPoints(_participant);\n\t\tuint impact;\n\n\t\tif (nEG <=1 && nER <=1 ) { \n\t\t\timpact = 0;\n\t\t\t//return impact and exit here\n\t\t} else { \n\n\t\t\tuint minval = min(nEG,nER);\n\t\t\tuint maxval = max(nEG,nER);\n\n\t\t\tuint ratio = Division(minval, maxval,9);\n\t\t\tuint usedUpByParticipant = endorsers[_participant].usedPower;\n\t\t\tuint RE = _RE; \n\n\t\t\timpact = ratio * usedUpByParticipant * RE;\n\t\t}\n\t\treturn impact;\n\t}\n\n\tfunction getProfile(address _participant) public view returns (uint) { \n\t\t//get profile for specific address\n\t\tuint endorsementImpact = computeImpact(_participant);\n\t\tuint totalImpact = endorsementImpact * endorsers[_participant].nEG;\n\n\t\treturn totalImpact;\n\t}\n\t\n\tfunction getEndorsers() view public returns (address []) { \n\t    return endorserAccts;\n\t}\n\t\n\tfunction getUsedPower(address _endorser) view public returns(uint) {\n\t    return (endorsers[_endorser].usedPower);\n\t    \n\t}\n\t\n\tfunction getGivenTo(address _endorser) view public returns(address []) {\n\t    return (endorsers[_endorser].givenTo);\n\t    \n\t}\n\t\n\tfunction gethasGivenTo(address _endorser, address _endorsee) view public returns(bool) {\n\t    return (endorsers[_endorser].hasGivenTo[_endorsee]);\n\t    \n\t}\n\n\tfunction getEndorsees() view public returns (address []) { \n\t    return endorseeAccts;\n\t}\n\t\n\tfunction getReceivedFrom(address _endorsee) view public returns(address []) {\n\t    return (endorsees[_endorsee].receivedFrom);\n\t    \n\t}\n\t\n\tfunction gethasReceivedFrom(address _endorser, address _endorsee) view public returns(bool) {\n\t    return (endorsees[_endorsee].hasReceivedFrom[_endorser]);\n\t}\n\n\t\n\t//some helper  functions for calculations\n\tfunction Division( uint _numerator, uint _denominator, uint _precision) internal pure returns (uint _quotient) {\n\t\tuint numerator = _numerator * 10 ** (_precision + 1);\n\t\tuint quotient = ((numerator / _denominator) + 5  ) / 10;\n\n\t\treturn (quotient);\t\t\n\t}\n\n\tfunction max (uint x, uint y ) internal pure returns (uint) {\n\t\tif (x < y) {\n\t\t\treturn y;\n\t\t} else  {  \n\t\t\treturn x;\n\t\t}\n\t}\n\n\tfunction min (uint x, uint y ) internal pure returns (uint) { \n\t\tif (x < y) { \n\t\t\treturn x;\n\t\t} else {\n\t\t\treturn y;\n\t\t}\n\t}\n\n\n}\n\n\n\n\n\n\n\n\n\n\n\n\n\n\n\n\n\n\n\n\n\n\n\n\n\n",
  "sourcePath": "/home/sujata/Documents/Masters-Thesis/endorsements/contracts/Endorsement.sol",
  "compiler": {
    "name": "solc",
    "version": "0.4.19+commit.c4cbbb05.Emscripten.clang"
  },
  "schemaVersion": "2.0.0",
  "updatedAt": "2018-05-16T06:46:09.765Z"
}