{
  "contractName": "EDSToken",
  "abi": [
    {
      "constant": true,
      "inputs": [
        {
          "name": "",
          "type": "address"
        }
      ],
      "name": "EDSBalance",
      "outputs": [
        {
          "name": "",
          "type": "uint256"
        }
      ],
      "payable": false,
      "stateMutability": "view",
      "type": "function"
    },
    {
      "constant": true,
      "inputs": [],
      "name": "name",
      "outputs": [
        {
          "name": "",
          "type": "string"
        }
      ],
      "payable": false,
      "stateMutability": "view",
      "type": "function"
    },
    {
      "constant": true,
      "inputs": [],
      "name": "totalSupply",
      "outputs": [
        {
          "name": "",
          "type": "uint256"
        }
      ],
      "payable": false,
      "stateMutability": "view",
      "type": "function"
    },
    {
      "constant": true,
      "inputs": [],
      "name": "decimals",
      "outputs": [
        {
          "name": "",
          "type": "uint256"
        }
      ],
      "payable": false,
      "stateMutability": "view",
      "type": "function"
    },
    {
      "constant": true,
      "inputs": [],
      "name": "symbol",
      "outputs": [
        {
          "name": "",
          "type": "string"
        }
      ],
      "payable": false,
      "stateMutability": "view",
      "type": "function"
    },
    {
      "anonymous": false,
      "inputs": [
        {
          "indexed": true,
          "name": "from",
          "type": "address"
        },
        {
          "indexed": true,
          "name": "to",
          "type": "address"
        },
        {
          "indexed": false,
          "name": "value",
          "type": "uint256"
        }
      ],
      "name": "edstransfer",
      "type": "event"
    },
    {
      "anonymous": false,
      "inputs": [
        {
          "indexed": true,
          "name": "from",
          "type": "address"
        },
        {
          "indexed": false,
          "name": "value",
          "type": "uint256"
        }
      ],
      "name": "Burn",
      "type": "event"
    },
    {
      "constant": false,
      "inputs": [
        {
          "name": "initialSupply",
          "type": "uint256"
        },
        {
          "name": "tokenName",
          "type": "string"
        },
        {
          "name": "tokenSymbol",
          "type": "string"
        }
      ],
      "name": "myToken",
      "outputs": [],
      "payable": false,
      "stateMutability": "nonpayable",
      "type": "function"
    },
    {
      "constant": false,
      "inputs": [
        {
          "name": "_to",
          "type": "address"
        },
        {
          "name": "_value",
          "type": "uint256"
        }
      ],
      "name": "EDSTransfer",
      "outputs": [],
      "payable": false,
      "stateMutability": "nonpayable",
      "type": "function"
    }
  ],
  "bytecode": "0x6060604052341561000f57600080fd5b6106da8061001e6000396000f300606060405260043610610083576000357c0100000000000000000000000000000000000000000000000000000000900463ffffffff1680630410178d1461008857806306fdde03146100d557806318160ddd14610163578063313ce5671461018c578063435aef1e146101b557806395d89b41146101f7578063df0a14cf14610285575b600080fd5b341561009357600080fd5b6100bf600480803573ffffffffffffffffffffffffffffffffffffffff1690602001909190505061032e565b6040518082815260200191505060405180910390f35b34156100e057600080fd5b6100e8610346565b6040518080602001828103825283818151815260200191508051906020019080838360005b8381101561012857808201518184015260208101905061010d565b50505050905090810190601f1680156101555780820380516001836020036101000a031916815260200191505b509250505060405180910390f35b341561016e57600080fd5b6101766103e4565b6040518082815260200191505060405180910390f35b341561019757600080fd5b61019f6103ea565b6040518082815260200191505060405180910390f35b34156101c057600080fd5b6101f5600480803573ffffffffffffffffffffffffffffffffffffffff169060200190919080359060200190919050506103f0565b005b341561020257600080fd5b61020a6104dc565b6040518080602001828103825283818151815260200191508051906020019080838360005b8381101561024a57808201518184015260208101905061022f565b50505050905090810190601f1680156102775780820380516001836020036101000a031916815260200191505b509250505060405180910390f35b341561029057600080fd5b61032c600480803590602001909190803590602001908201803590602001908080601f0160208091040260200160405190810160405280939291908181526020018383808284378201915050505050509190803590602001908201803590602001908080601f0160208091040260200160405190810160405280939291908181526020018383808284378201915050505050509190505061057a565b005b60046020528060005260406000206000915090505481565b60008054600181600116156101000203166002900480601f0160208091040260200160405190810160405280929190818152602001828054600181600116156101000203166002900480156103dc5780601f106103b1576101008083540402835291602001916103dc565b820191906000526020600020905b8154815290600101906020018083116103bf57829003601f168201915b505050505081565b60035481565b60025481565b80600460003373ffffffffffffffffffffffffffffffffffffffff1673ffffffffffffffffffffffffffffffffffffffff168152602001908152602001600020541015151561043e57600080fd5b80600460003373ffffffffffffffffffffffffffffffffffffffff1673ffffffffffffffffffffffffffffffffffffffff1681526020019081526020016000206000828254039250508190555080600460008473ffffffffffffffffffffffffffffffffffffffff1673ffffffffffffffffffffffffffffffffffffffff168152602001908152602001600020600082825401925050819055505050565b60018054600181600116156101000203166002900480601f0160208091040260200160405190810160405280929190818152602001828054600181600116156101000203166002900480156105725780601f1061054757610100808354040283529160200191610572565b820191906000526020600020905b81548152906001019060200180831161055557829003601f168201915b505050505081565b6012600281905550600254600a0a8302600381905550600354600460003373ffffffffffffffffffffffffffffffffffffffff1673ffffffffffffffffffffffffffffffffffffffff1681526020019081526020016000208190555081600090805190602001906105ec929190610609565b508060019080519060200190610603929190610609565b50505050565b828054600181600116156101000203166002900490600052602060002090601f016020900481019282601f1061064a57805160ff1916838001178555610678565b82800160010185558215610678579182015b8281111561067757825182559160200191906001019061065c565b5b5090506106859190610689565b5090565b6106ab91905b808211156106a757600081600090555060010161068f565b5090565b905600a165627a7a723058204ece294fe192bc1b6ca0ef45d1989cd65062dc0fd49acb0d7ff816441cf61ea20029",
  "source": "pragma solidity ^0.4.18;\n\ncontract EDSToken {  \n\t//public variables of token\n\tstring public name;\n\tstring public symbol;\n\tuint public decimals;\n\n\tuint public totalSupply;\n\n\t\n\t//Create array with all the balances\n\tmapping(address => uint256 )  public EDSBalance;\n\n\t//public event to notify clients\n\tevent edstransfer (address indexed from, address indexed to, uint256 value );\n\n\n\tfunction myToken (uint256 initialSupply, string tokenName, string tokenSymbol ) public {\n\t\tdecimals = 18;\n\t\ttotalSupply = initialSupply * 10 ** uint256(decimals);\n\t\tEDSBalance[msg.sender] = totalSupply;\n\t\tname = tokenName;\n\t\tsymbol = tokenSymbol;\n\t}\n\n\n\tfunction EDSTransfer ( address _to, uint256 _value  ) public {\n\t\trequire (EDSBalance[msg.sender] >= _value);\n\t\tEDSBalance[msg.sender] -= _value;\n\t\tEDSBalance[ _to ] += _value;\n\t\n\t}\n\n//\tfunction withdrawEDS ( address _to ) public { \n//\t\trequire (EDSBalance[msg.sender] == 0);\n//\t\tEDSBalance[msg.sender] += 300;\n//\t}\n//\n\n\t//notify client about the amount burnt\n\tevent Burn ( address indexed from, uint256 value );\n\n}\n\n\n",
  "sourcePath": "/home/sujata/Documents/Masters-Thesis/endorsements/contracts/EDSToken.sol",
  "compiler": {
    "name": "solc",
    "version": "0.4.19+commit.c4cbbb05.Emscripten.clang"
  },
  "schemaVersion": "2.0.0",
  "updatedAt": "2018-04-14T17:46:21.870Z"
}