{
  "contractName": "EdsToken",
  "abi": [
    {
      "constant": true,
      "inputs": [],
      "name": "name",
      "outputs": [
        {
          "name": "",
          "type": "string"
        }
      ],
      "payable": false,
      "stateMutability": "view",
      "type": "function"
    },
    {
      "constant": true,
      "inputs": [],
      "name": "decimals",
      "outputs": [
        {
          "name": "",
          "type": "uint256"
        }
      ],
      "payable": false,
      "stateMutability": "view",
      "type": "function"
    },
    {
      "constant": true,
      "inputs": [],
      "name": "symbol",
      "outputs": [
        {
          "name": "",
          "type": "string"
        }
      ],
      "payable": false,
      "stateMutability": "view",
      "type": "function"
    },
    {
      "constant": true,
      "inputs": [
        {
          "name": "",
          "type": "address"
        }
      ],
      "name": "EdsBalance",
      "outputs": [
        {
          "name": "",
          "type": "uint256"
        }
      ],
      "payable": false,
      "stateMutability": "view",
      "type": "function"
    },
    {
      "inputs": [
        {
          "name": "_supply",
          "type": "uint256"
        },
        {
          "name": "_name",
          "type": "string"
        },
        {
          "name": "_symbol",
          "type": "string"
        },
        {
          "name": "_decimals",
          "type": "uint8"
        }
      ],
      "payable": false,
      "stateMutability": "nonpayable",
      "type": "constructor"
    },
    {
      "anonymous": false,
      "inputs": [
        {
          "indexed": true,
          "name": "from",
          "type": "address"
        },
        {
          "indexed": true,
          "name": "to",
          "type": "address"
        },
        {
          "indexed": false,
          "name": "value",
          "type": "uint256"
        }
      ],
      "name": "Transfer",
      "type": "event"
    },
    {
      "constant": false,
      "inputs": [
        {
          "name": "_to",
          "type": "address"
        },
        {
          "name": "_value",
          "type": "uint256"
        }
      ],
      "name": "transfer",
      "outputs": [],
      "payable": false,
      "stateMutability": "nonpayable",
      "type": "function"
    }
  ],
  "bytecode": "0x6060604052341561000f57600080fd5b60405161069f38038061069f8339810160405280805190602001909190805182019190602001805182019190602001805190602001909190505083600360003373ffffffffffffffffffffffffffffffffffffffff1673ffffffffffffffffffffffffffffffffffffffff1681526020019081526020016000208190555082600090805190602001906100a39291906100ce565b5081600190805190602001906100ba9291906100ce565b508060ff1660028190555050505050610173565b828054600181600116156101000203166002900490600052602060002090601f016020900481019282601f1061010f57805160ff191683800117855561013d565b8280016001018555821561013d579182015b8281111561013c578251825591602001919060010190610121565b5b50905061014a919061014e565b5090565b61017091905b8082111561016c576000816000905550600101610154565b5090565b90565b61051d806101826000396000f30060606040526004361061006d576000357c0100000000000000000000000000000000000000000000000000000000900463ffffffff16806306fdde0314610072578063313ce5671461010057806395d89b4114610129578063a9059cbb146101b7578063d924b173146101f9575b600080fd5b341561007d57600080fd5b610085610246565b6040518080602001828103825283818151815260200191508051906020019080838360005b838110156100c55780820151818401526020810190506100aa565b50505050905090810190601f1680156100f25780820380516001836020036101000a031916815260200191505b509250505060405180910390f35b341561010b57600080fd5b6101136102e4565b6040518082815260200191505060405180910390f35b341561013457600080fd5b61013c6102ea565b6040518080602001828103825283818151815260200191508051906020019080838360005b8381101561017c578082015181840152602081019050610161565b50505050905090810190601f1680156101a95780820380516001836020036101000a031916815260200191505b509250505060405180910390f35b34156101c257600080fd5b6101f7600480803573ffffffffffffffffffffffffffffffffffffffff16906020019091908035906020019091905050610388565b005b341561020457600080fd5b610230600480803573ffffffffffffffffffffffffffffffffffffffff169060200190919050506104d9565b6040518082815260200191505060405180910390f35b60008054600181600116156101000203166002900480601f0160208091040260200160405190810160405280929190818152602001828054600181600116156101000203166002900480156102dc5780601f106102b1576101008083540402835291602001916102dc565b820191906000526020600020905b8154815290600101906020018083116102bf57829003601f168201915b505050505081565b60025481565b60018054600181600116156101000203166002900480601f0160208091040260200160405190810160405280929190818152602001828054600181600116156101000203166002900480156103805780601f1061035557610100808354040283529160200191610380565b820191906000526020600020905b81548152906001019060200180831161036357829003601f168201915b505050505081565b80600360003373ffffffffffffffffffffffffffffffffffffffff1673ffffffffffffffffffffffffffffffffffffffff16815260200190815260200160002054101515156103d657600080fd5b80600360003373ffffffffffffffffffffffffffffffffffffffff1673ffffffffffffffffffffffffffffffffffffffff1681526020019081526020016000206000828254039250508190555080600360008473ffffffffffffffffffffffffffffffffffffffff1673ffffffffffffffffffffffffffffffffffffffff168152602001908152602001600020600082825401925050819055508173ffffffffffffffffffffffffffffffffffffffff163373ffffffffffffffffffffffffffffffffffffffff167fddf252ad1be2c89b69c2b068fc378daa952ba7f163c4a11628f55a4df523b3ef836040518082815260200191505060405180910390a35050565b600360205280600052604060002060009150905054815600a165627a7a72305820bae01e7b0ad867869d636054acf1826eb228c04cf4029aefa3102989eb0d8e050029",
  "source": "pragma solidity ^0.4.18;\n\ncontract EdsToken {  \n\t//public variables of token\n\tstring public name;\n\tstring public symbol;\n\tuint public decimals;\n\n\t\n\t//keep track of who owns how much eds token\n\tmapping(address => uint256 )  public EdsBalance;\n\t\n\t//initialize contract with initial supply token to creator of contract\n\tfunction EdsToken (uint256 _supply, string _name, string _symbol, uint8 _decimals ) { \n\t\tEdsBalance [ msg.sender ] = _supply;\n\t\tname = _name;\n\t\tsymbol = _symbol;\n\t\tdecimals = _decimals;\t\n\t}\n\n\n\n\tevent Transfer (address indexed from, address indexed to, uint256 value );\n\t\t\t\t\t\t  \n\n\t//Send coins\n\tfunction transfer ( address _to, uint256 _value )  {\n\t\trequire (EdsBalance[ msg.sender ] >= _value );\n\t\tEdsBalance[ msg.sender ] -= _value;\n\t\tEdsBalance[ _to ] += _value;\n\n\t\tTransfer ( msg.sender, _to, _value );\n\t}\n}\n\n",
  "sourcePath": "/home/sujata/Documents/Masters-Thesis/endorsements/contracts/EdsToken.sol",
  "compiler": {
    "name": "solc",
    "version": "0.4.19+commit.c4cbbb05.Emscripten.clang"
  },
  "schemaVersion": "2.0.0",
  "updatedAt": "2018-04-03T14:00:53.146Z"
}