{
  "contractName": "EDSToken",
  "abi": [
    {
      "constant": true,
      "inputs": [
        {
          "name": "",
          "type": "address"
        }
      ],
      "name": "EDSBalance",
      "outputs": [
        {
          "name": "",
          "type": "uint256"
        }
      ],
      "payable": false,
      "stateMutability": "view",
      "type": "function"
    },
    {
      "constant": true,
      "inputs": [],
      "name": "name",
      "outputs": [
        {
          "name": "",
          "type": "string"
        }
      ],
      "payable": false,
      "stateMutability": "view",
      "type": "function"
    },
    {
      "constant": true,
      "inputs": [],
      "name": "totalSupply",
      "outputs": [
        {
          "name": "",
          "type": "uint256"
        }
      ],
      "payable": false,
      "stateMutability": "view",
      "type": "function"
    },
    {
      "constant": true,
      "inputs": [],
      "name": "decimals",
      "outputs": [
        {
          "name": "",
          "type": "uint256"
        }
      ],
      "payable": false,
      "stateMutability": "view",
      "type": "function"
    },
    {
      "constant": true,
      "inputs": [],
      "name": "symbol",
      "outputs": [
        {
          "name": "",
          "type": "string"
        }
      ],
      "payable": false,
      "stateMutability": "view",
      "type": "function"
    },
    {
      "anonymous": false,
      "inputs": [
        {
          "indexed": true,
          "name": "from",
          "type": "address"
        },
        {
          "indexed": true,
          "name": "to",
          "type": "address"
        },
        {
          "indexed": false,
          "name": "value",
          "type": "uint256"
        }
      ],
      "name": "edstransfer",
      "type": "event"
    },
    {
      "anonymous": false,
      "inputs": [
        {
          "indexed": true,
          "name": "from",
          "type": "address"
        },
        {
          "indexed": false,
          "name": "value",
          "type": "uint256"
        }
      ],
      "name": "Burn",
      "type": "event"
    },
    {
      "constant": false,
      "inputs": [
        {
          "name": "initialSupply",
          "type": "uint256"
        },
        {
          "name": "tokenName",
          "type": "string"
        },
        {
          "name": "tokenSymbol",
          "type": "string"
        }
      ],
      "name": "myToken",
      "outputs": [],
      "payable": false,
      "stateMutability": "nonpayable",
      "type": "function"
    },
    {
      "constant": false,
      "inputs": [
        {
          "name": "_to",
          "type": "address"
        },
        {
          "name": "_value",
          "type": "uint256"
        }
      ],
      "name": "EDSTransfer",
      "outputs": [],
      "payable": false,
      "stateMutability": "nonpayable",
      "type": "function"
    },
    {
      "constant": false,
      "inputs": [
        {
          "name": "_to",
          "type": "address"
        }
      ],
      "name": "withdrawEDS",
      "outputs": [],
      "payable": false,
      "stateMutability": "nonpayable",
      "type": "function"
    }
  ],
  "bytecode": "0x6060604052341561000f57600080fd5b6107be8061001e6000396000f30060606040526004361061008e576000357c0100000000000000000000000000000000000000000000000000000000900463ffffffff1680630410178d1461009357806306fdde03146100e057806318160ddd1461016e578063313ce56714610197578063435aef1e146101c057806395d89b4114610202578063b34d802414610290578063df0a14cf146102c9575b600080fd5b341561009e57600080fd5b6100ca600480803573ffffffffffffffffffffffffffffffffffffffff16906020019091905050610372565b6040518082815260200191505060405180910390f35b34156100eb57600080fd5b6100f361038a565b6040518080602001828103825283818151815260200191508051906020019080838360005b83811015610133578082015181840152602081019050610118565b50505050905090810190601f1680156101605780820380516001836020036101000a031916815260200191505b509250505060405180910390f35b341561017957600080fd5b610181610428565b6040518082815260200191505060405180910390f35b34156101a257600080fd5b6101aa61042e565b6040518082815260200191505060405180910390f35b34156101cb57600080fd5b610200600480803573ffffffffffffffffffffffffffffffffffffffff16906020019091908035906020019091905050610434565b005b341561020d57600080fd5b610215610520565b6040518080602001828103825283818151815260200191508051906020019080838360005b8381101561025557808201518184015260208101905061023a565b50505050905090810190601f1680156102825780820380516001836020036101000a031916815260200191505b509250505060405180910390f35b341561029b57600080fd5b6102c7600480803573ffffffffffffffffffffffffffffffffffffffff169060200190919050506105be565b005b34156102d457600080fd5b610370600480803590602001909190803590602001908201803590602001908080601f0160208091040260200160405190810160405280939291908181526020018383808284378201915050505050509190803590602001908201803590602001908080601f0160208091040260200160405190810160405280939291908181526020018383808284378201915050505050509190505061065e565b005b60046020528060005260406000206000915090505481565b60008054600181600116156101000203166002900480601f0160208091040260200160405190810160405280929190818152602001828054600181600116156101000203166002900480156104205780601f106103f557610100808354040283529160200191610420565b820191906000526020600020905b81548152906001019060200180831161040357829003601f168201915b505050505081565b60035481565b60025481565b80600460003373ffffffffffffffffffffffffffffffffffffffff1673ffffffffffffffffffffffffffffffffffffffff168152602001908152602001600020541015151561048257600080fd5b80600460003373ffffffffffffffffffffffffffffffffffffffff1673ffffffffffffffffffffffffffffffffffffffff1681526020019081526020016000206000828254039250508190555080600460008473ffffffffffffffffffffffffffffffffffffffff1673ffffffffffffffffffffffffffffffffffffffff168152602001908152602001600020600082825401925050819055505050565b60018054600181600116156101000203166002900480601f0160208091040260200160405190810160405280929190818152602001828054600181600116156101000203166002900480156105b65780601f1061058b576101008083540402835291602001916105b6565b820191906000526020600020905b81548152906001019060200180831161059957829003601f168201915b505050505081565b6000600460003373ffffffffffffffffffffffffffffffffffffffff1673ffffffffffffffffffffffffffffffffffffffff1681526020019081526020016000205414151561060c57600080fd5b61012c600460003373ffffffffffffffffffffffffffffffffffffffff1673ffffffffffffffffffffffffffffffffffffffff1681526020019081526020016000206000828254019250508190555050565b6012600281905550600254600a0a8302600381905550600354600460003373ffffffffffffffffffffffffffffffffffffffff1673ffffffffffffffffffffffffffffffffffffffff1681526020019081526020016000208190555081600090805190602001906106d09291906106ed565b5080600190805190602001906106e79291906106ed565b50505050565b828054600181600116156101000203166002900490600052602060002090601f016020900481019282601f1061072e57805160ff191683800117855561075c565b8280016001018555821561075c579182015b8281111561075b578251825591602001919060010190610740565b5b509050610769919061076d565b5090565b61078f91905b8082111561078b576000816000905550600101610773565b5090565b905600a165627a7a723058209076caa9a9121512363cfa1a8d6619e939d4bf5b7343296dbc6440043a5ba4630029",
  "source": "pragma solidity ^0.4.18;\n\ncontract EDSToken {  \n\t//public variables of token\n\tstring public name;\n\tstring public symbol;\n\tuint public decimals;\n\n\tuint public totalSupply;\n\n\t\n\t//Create array with all the balances\n\tmapping(address => uint256 )  public EDSBalance;\n\n\t//public event to notify clients\n\tevent edstransfer (address indexed from, address indexed to, uint256 value );\n\n\n\tfunction myToken (uint256 initialSupply, string tokenName, string tokenSymbol ) public {\n\t\tdecimals = 18;\n\t\ttotalSupply = initialSupply * 10 ** uint256(decimals);\n\t\tEDSBalance[msg.sender] = totalSupply;\n\t\tname = tokenName;\n\t\tsymbol = tokenSymbol;\n\t}\n\n\n\tfunction EDSTransfer ( address _to, uint256 _value  ) public {\n\t\trequire (EDSBalance[msg.sender] >= _value);\n\t\tEDSBalance[msg.sender] -= _value;\n\t\tEDSBalance[ _to ] += _value;\n\t\n\t}\n\n\tfunction withdrawEDS ( address _to ) public { \n\t\trequire (EDSBalance[msg.sender] == 0);\n\t\tEDSBalance[msg.sender] += 300;\n\t}\n\n\n\t//notify client about the amount burnt\n\tevent Burn ( address indexed from, uint256 value );\n\n}\n\n\n",
  "sourcePath": "/home/sujata/Documents/Masters-Thesis/endorsements/contracts/EDSToken.sol",
  "compiler": {
    "name": "solc",
    "version": "0.4.19+commit.c4cbbb05.Emscripten.clang"
  },
  "schemaVersion": "2.0.0",
  "updatedAt": "2018-04-04T13:31:19.947Z"
}