{
  "contractName": "Endorsement",
  "abi": [
    {
      "constant": true,
      "inputs": [
        {
          "name": "",
          "type": "address"
        }
      ],
      "name": "EDSBalance",
      "outputs": [
        {
          "name": "",
          "type": "uint256"
        }
      ],
      "payable": false,
      "stateMutability": "view",
      "type": "function"
    },
    {
      "constant": true,
      "inputs": [],
      "name": "name",
      "outputs": [
        {
          "name": "",
          "type": "string"
        }
      ],
      "payable": false,
      "stateMutability": "view",
      "type": "function"
    },
    {
      "constant": true,
      "inputs": [
        {
          "name": "",
          "type": "address"
        }
      ],
      "name": "nEG",
      "outputs": [
        {
          "name": "",
          "type": "uint256"
        }
      ],
      "payable": false,
      "stateMutability": "view",
      "type": "function"
    },
    {
      "constant": true,
      "inputs": [],
      "name": "totalSupply",
      "outputs": [
        {
          "name": "",
          "type": "uint256"
        }
      ],
      "payable": false,
      "stateMutability": "view",
      "type": "function"
    },
    {
      "constant": true,
      "inputs": [],
      "name": "decimals",
      "outputs": [
        {
          "name": "",
          "type": "uint256"
        }
      ],
      "payable": false,
      "stateMutability": "view",
      "type": "function"
    },
    {
      "constant": true,
      "inputs": [
        {
          "name": "",
          "type": "address"
        }
      ],
      "name": "endorsees",
      "outputs": [
        {
          "name": "id",
          "type": "uint256"
        },
        {
          "name": "nameEndorser",
          "type": "string"
        },
        {
          "name": "endorsee",
          "type": "address"
        },
        {
          "name": "endorsers",
          "type": "address"
        }
      ],
      "payable": false,
      "stateMutability": "view",
      "type": "function"
    },
    {
      "constant": true,
      "inputs": [
        {
          "name": "",
          "type": "address"
        }
      ],
      "name": "endorsers",
      "outputs": [
        {
          "name": "endorsee",
          "type": "address"
        },
        {
          "name": "nameEndorsee",
          "type": "string"
        }
      ],
      "payable": false,
      "stateMutability": "view",
      "type": "function"
    },
    {
      "constant": false,
      "inputs": [
        {
          "name": "_to",
          "type": "address"
        },
        {
          "name": "_value",
          "type": "uint256"
        }
      ],
      "name": "EDSTransfer",
      "outputs": [],
      "payable": false,
      "stateMutability": "nonpayable",
      "type": "function"
    },
    {
      "constant": true,
      "inputs": [
        {
          "name": "",
          "type": "address"
        }
      ],
      "name": "trustScore",
      "outputs": [
        {
          "name": "",
          "type": "uint256"
        }
      ],
      "payable": false,
      "stateMutability": "view",
      "type": "function"
    },
    {
      "constant": true,
      "inputs": [],
      "name": "symbol",
      "outputs": [
        {
          "name": "",
          "type": "string"
        }
      ],
      "payable": false,
      "stateMutability": "view",
      "type": "function"
    },
    {
      "constant": true,
      "inputs": [
        {
          "name": "",
          "type": "uint256"
        }
      ],
      "name": "trust",
      "outputs": [
        {
          "name": "user",
          "type": "address"
        },
        {
          "name": "usedPower",
          "type": "uint256"
        },
        {
          "name": "impact",
          "type": "uint256"
        },
        {
          "name": "totalImpact",
          "type": "uint256"
        }
      ],
      "payable": false,
      "stateMutability": "view",
      "type": "function"
    },
    {
      "constant": true,
      "inputs": [
        {
          "name": "",
          "type": "address"
        }
      ],
      "name": "nER",
      "outputs": [
        {
          "name": "",
          "type": "uint256"
        }
      ],
      "payable": false,
      "stateMutability": "view",
      "type": "function"
    },
    {
      "constant": false,
      "inputs": [
        {
          "name": "initialSupply",
          "type": "uint256"
        },
        {
          "name": "tokenName",
          "type": "string"
        },
        {
          "name": "tokenSymbol",
          "type": "string"
        }
      ],
      "name": "myToken",
      "outputs": [],
      "payable": false,
      "stateMutability": "nonpayable",
      "type": "function"
    },
    {
      "inputs": [],
      "payable": false,
      "stateMutability": "nonpayable",
      "type": "constructor"
    },
    {
      "anonymous": false,
      "inputs": [
        {
          "indexed": true,
          "name": "from",
          "type": "address"
        },
        {
          "indexed": true,
          "name": "to",
          "type": "address"
        },
        {
          "indexed": false,
          "name": "value",
          "type": "uint256"
        }
      ],
      "name": "edstransfer",
      "type": "event"
    },
    {
      "anonymous": false,
      "inputs": [
        {
          "indexed": true,
          "name": "from",
          "type": "address"
        },
        {
          "indexed": false,
          "name": "value",
          "type": "uint256"
        }
      ],
      "name": "Burn",
      "type": "event"
    },
    {
      "constant": false,
      "inputs": [],
      "name": "kill",
      "outputs": [],
      "payable": false,
      "stateMutability": "nonpayable",
      "type": "function"
    },
    {
      "constant": false,
      "inputs": [
        {
          "name": "_endorsee",
          "type": "address"
        },
        {
          "name": "_name",
          "type": "string"
        }
      ],
      "name": "sendEndorsement",
      "outputs": [],
      "payable": false,
      "stateMutability": "nonpayable",
      "type": "function"
    },
    {
      "constant": false,
      "inputs": [
        {
          "name": "_user",
          "type": "address"
        }
      ],
      "name": "computeTrust",
      "outputs": [],
      "payable": false,
      "stateMutability": "nonpayable",
      "type": "function"
    }
  ],
  "bytecode": "0x606060405234156200001057600080fd5b33600560006101000a81548173ffffffffffffffffffffffffffffffffffffffff021916908373ffffffffffffffffffffffffffffffffffffffff160217905550620000e0637d2b75006040805190810160405280600381526020017f45445300000000000000000000000000000000000000000000000000000000008152506040805190810160405280600181526020017f2500000000000000000000000000000000000000000000000000000000000000815250620000e66401000000000262000fa8176401000000009004565b62000228565b6012600281905550600254600a0a8302600381905550600354600460003373ffffffffffffffffffffffffffffffffffffffff1673ffffffffffffffffffffffffffffffffffffffff1681526020019081526020016000208190555081600090805190602001906200015a92919062000179565b5080600190805190602001906200017392919062000179565b50505050565b828054600181600116156101000203166002900490600052602060002090601f016020900481019282601f10620001bc57805160ff1916838001178555620001ed565b82800160010185558215620001ed579182015b82811115620001ec578251825591602001919060010190620001cf565b5b509050620001fc919062000200565b5090565b6200022591905b808211156200022157600081600090555060010162000207565b5090565b90565b61118b80620002386000396000f3006060604052600436106100e6576000357c0100000000000000000000000000000000000000000000000000000000900463ffffffff1680630410178d146100eb57806306fdde031461013857806312f36148146101c657806318160ddd14610213578063313ce5671461023c57806331b3671d146102655780633515a20b146103a157806341c0e1b5146104a3578063435aef1e146104b8578063534a8465146104fa57806395d89b4114610547578063aa878c38146105d5578063ae100d0814610651578063c1443667146106c9578063df0a14cf14610716578063fff2c084146107bf575b600080fd5b34156100f657600080fd5b610122600480803573ffffffffffffffffffffffffffffffffffffffff169060200190919050506107f8565b6040518082815260200191505060405180910390f35b341561014357600080fd5b61014b610810565b6040518080602001828103825283818151815260200191508051906020019080838360005b8381101561018b578082015181840152602081019050610170565b50505050905090810190601f1680156101b85780820380516001836020036101000a031916815260200191505b509250505060405180910390f35b34156101d157600080fd5b6101fd600480803573ffffffffffffffffffffffffffffffffffffffff169060200190919050506108ae565b6040518082815260200191505060405180910390f35b341561021e57600080fd5b6102266108c6565b6040518082815260200191505060405180910390f35b341561024757600080fd5b61024f6108cc565b6040518082815260200191505060405180910390f35b341561027057600080fd5b61029c600480803573ffffffffffffffffffffffffffffffffffffffff169060200190919050506108d2565b60405180858152602001806020018473ffffffffffffffffffffffffffffffffffffffff1673ffffffffffffffffffffffffffffffffffffffff1681526020018373ffffffffffffffffffffffffffffffffffffffff1673ffffffffffffffffffffffffffffffffffffffff16815260200182810382528581815460018160011615610100020316600290048152602001915080546001816001161561010002031660029004801561038f5780601f106103645761010080835404028352916020019161038f565b820191906000526020600020905b81548152906001019060200180831161037257829003601f168201915b50509550505050505060405180910390f35b34156103ac57600080fd5b6103d8600480803573ffffffffffffffffffffffffffffffffffffffff16906020019091905050610941565b604051808373ffffffffffffffffffffffffffffffffffffffff1673ffffffffffffffffffffffffffffffffffffffff168152602001806020018281038252838181546001816001161561010002031660029004815260200191508054600181600116156101000203166002900480156104935780601f1061046857610100808354040283529160200191610493565b820191906000526020600020905b81548152906001019060200180831161047657829003601f168201915b5050935050505060405180910390f35b34156104ae57600080fd5b6104b6610984565b005b34156104c357600080fd5b6104f8600480803573ffffffffffffffffffffffffffffffffffffffff16906020019091908035906020019091905050610a1b565b005b341561050557600080fd5b610531600480803573ffffffffffffffffffffffffffffffffffffffff16906020019091905050610b07565b6040518082815260200191505060405180910390f35b341561055257600080fd5b61055a610b1f565b6040518080602001828103825283818151815260200191508051906020019080838360005b8381101561059a57808201518184015260208101905061057f565b50505050905090810190601f1680156105c75780820380516001836020036101000a031916815260200191505b509250505060405180910390f35b34156105e057600080fd5b61064f600480803573ffffffffffffffffffffffffffffffffffffffff1690602001909190803590602001908201803590602001908080601f01602080910402602001604051908101604052809392919081815260200183838082843782019150505050505091905050610bbd565b005b341561065c57600080fd5b6106726004808035906020019091905050610f31565b604051808573ffffffffffffffffffffffffffffffffffffffff1673ffffffffffffffffffffffffffffffffffffffff16815260200184815260200183815260200182815260200194505050505060405180910390f35b34156106d457600080fd5b610700600480803573ffffffffffffffffffffffffffffffffffffffff16906020019091905050610f90565b6040518082815260200191505060405180910390f35b341561072157600080fd5b6107bd600480803590602001909190803590602001908201803590602001908080601f0160208091040260200160405190810160405280939291908181526020018383808284378201915050505050509190803590602001908201803590602001908080601f01602080910402602001604051908101604052809392919081815260200183838082843782019150505050505091905050610fa8565b005b34156107ca57600080fd5b6107f6600480803573ffffffffffffffffffffffffffffffffffffffff16906020019091905050611037565b005b60046020528060005260406000206000915090505481565b60008054600181600116156101000203166002900480601f0160208091040260200160405190810160405280929190818152602001828054600181600116156101000203166002900480156108a65780601f1061087b576101008083540402835291602001916108a6565b820191906000526020600020905b81548152906001019060200180831161088957829003601f168201915b505050505081565b600c6020528060005260406000206000915090505481565b60035481565b60025481565b600b60205280600052604060002060009150905080600001549080600101908060020160009054906101000a900473ffffffffffffffffffffffffffffffffffffffff16908060030160009054906101000a900473ffffffffffffffffffffffffffffffffffffffff16905084565b600a6020528060005260406000206000915090508060000160009054906101000a900473ffffffffffffffffffffffffffffffffffffffff169080600101905082565b600560009054906101000a900473ffffffffffffffffffffffffffffffffffffffff1673ffffffffffffffffffffffffffffffffffffffff163373ffffffffffffffffffffffffffffffffffffffff161415156109e057600080fd5b600560009054906101000a900473ffffffffffffffffffffffffffffffffffffffff1673ffffffffffffffffffffffffffffffffffffffff16ff5b80600460003373ffffffffffffffffffffffffffffffffffffffff1673ffffffffffffffffffffffffffffffffffffffff1681526020019081526020016000205410151515610a6957600080fd5b80600460003373ffffffffffffffffffffffffffffffffffffffff1673ffffffffffffffffffffffffffffffffffffffff1681526020019081526020016000206000828254039250508190555080600460008473ffffffffffffffffffffffffffffffffffffffff1673ffffffffffffffffffffffffffffffffffffffff168152602001908152602001600020600082825401925050819055505050565b600e6020528060005260406000206000915090505481565b60018054600181600116156101000203166002900480601f016020809104026020016040519081016040528092919081815260200182805460018160011615610100020316600290048015610bb55780601f10610b8a57610100808354040283529160200191610bb5565b820191906000526020600020905b815481529060010190602001808311610b9857829003601f168201915b505050505081565b8173ffffffffffffffffffffffffffffffffffffffff163373ffffffffffffffffffffffffffffffffffffffff1614151515610bf857600080fd5b81600660006101000a81548173ffffffffffffffffffffffffffffffffffffffff021916908373ffffffffffffffffffffffffffffffffffffffff1602179055508060079080519060200190610c4f92919061103a565b506001600c60003373ffffffffffffffffffffffffffffffffffffffff1673ffffffffffffffffffffffffffffffffffffffff1681526020019081526020016000205401600c60003373ffffffffffffffffffffffffffffffffffffffff1673ffffffffffffffffffffffffffffffffffffffff168152602001908152602001600020819055506040805190810160405280600660009054906101000a900473ffffffffffffffffffffffffffffffffffffffff1673ffffffffffffffffffffffffffffffffffffffff16815260200160078054600181600116156101000203166002900480601f016020809104026020016040519081016040528092919081815260200182805460018160011615610100020316600290048015610db55780601f10610d8a57610100808354040283529160200191610db5565b820191906000526020600020905b815481529060010190602001808311610d9857829003601f168201915b5050505050815250600a60003373ffffffffffffffffffffffffffffffffffffffff1673ffffffffffffffffffffffffffffffffffffffff16815260200190815260200160002060008201518160000160006101000a81548173ffffffffffffffffffffffffffffffffffffffff021916908373ffffffffffffffffffffffffffffffffffffffff1602179055506020820151816001019080519060200190610e5f9291906110ba565b509050506001600d6000600660009054906101000a900473ffffffffffffffffffffffffffffffffffffffff1673ffffffffffffffffffffffffffffffffffffffff1673ffffffffffffffffffffffffffffffffffffffff1681526020019081526020016000205401600d6000600660009054906101000a900473ffffffffffffffffffffffffffffffffffffffff1673ffffffffffffffffffffffffffffffffffffffff1673ffffffffffffffffffffffffffffffffffffffff168152602001908152602001600020819055505050565b600981815481101515610f4057fe5b90600052602060002090600402016000915090508060000160009054906101000a900473ffffffffffffffffffffffffffffffffffffffff16908060010154908060020154908060030154905084565b600d6020528060005260406000206000915090505481565b6012600281905550600254600a0a8302600381905550600354600460003373ffffffffffffffffffffffffffffffffffffffff1673ffffffffffffffffffffffffffffffffffffffff16815260200190815260200160002081905550816000908051906020019061101a92919061103a565b50806001908051906020019061103192919061103a565b50505050565b50565b828054600181600116156101000203166002900490600052602060002090601f016020900481019282601f1061107b57805160ff19168380011785556110a9565b828001600101855582156110a9579182015b828111156110a857825182559160200191906001019061108d565b5b5090506110b6919061113a565b5090565b828054600181600116156101000203166002900490600052602060002090601f016020900481019282601f106110fb57805160ff1916838001178555611129565b82800160010185558215611129579182015b8281111561112857825182559160200191906001019061110d565b5b509050611136919061113a565b5090565b61115c91905b80821115611158576000816000905550600101611140565b5090565b905600a165627a7a72305820e50c01f3576e6ffe236e31d12c8f5ce853f49ed43c9a3b8d2531bca4dcdecb5c0029",
  "source": "pragma solidity ^0.4.18;\n\nimport \"./EDSToken.sol\";\n\ncontract Endorsement is EDSToken {\n\n\t//owner\n\taddress owner;\n\n\tstruct Endorser { \n\t\t//uint id;\n\t\taddress endorsee;\n\t\tstring nameEndorsee;\n\t\t//uint nER;\n//\t\tuint nEG;\n//\t\tuint nER;\n\t}\n\n\tstruct Endorsee { \n\t\tuint id;\n\t\tstring nameEndorser;\n\t\taddress endorsee;\n\t\taddress endorsers;\n//\t\tuint nEG;\n//\t\tuint nER;\n\t}\n\n\tstruct Trust { \n\t\taddress user;\n\t\tuint usedPower;\n\t\tuint impact;\n\t\tuint totalImpact;\n\t}\n\n\t//state variables\n\taddress endorsee;\n\tstring name;\n\tuint edsRecieved;\n\n\t//storage variables\n\tTrust [] public trust;\n\n\tmapping (address => Endorser ) public endorsers;\n\n\tmapping (address => Endorsee ) public endorsees;\n\n\tmapping (address => uint ) public nEG; //no. of eds given by a specific id\n\tmapping (address => uint ) public nER; //no. of eds received\n\tmapping (address => uint ) public trustScore; // total impact\n\n\t// modifiers\n\tmodifier onlyOwner( ) { \n\t\trequire(msg.sender == owner );\n\t\t_;\n\t}\n\n\n\t//constructor\n\tfunction Endorsement() public { \n\t\t//EDSToken( );\n\t\towner = msg.sender;\n\t\tmyToken(2100000000, \"EDS\", \"%\" );\n\n\t}\n\n\n\t//deactivate the contract\n\tfunction kill() public onlyOwner { \n\t\tselfdestruct(owner);\n\t}\n\n\t//EDSToken (2100000, \"EDS\", \"%\" );\n\n\n\t// send endorsement\n\tfunction sendEndorsement(address _endorsee, string _name) public { \n\t\t//cannot self endorse\n\t\trequire (msg.sender != _endorsee );\n\t\t\n\t\tendorsee = _endorsee;\n\t\tname = _name;\n\t\tnEG[ msg.sender ] = nEG[ msg.sender ] + 1 ;\n\t\tendorsers[msg.sender ] = Endorser({\n\t\t\tendorsee: endorsee,\n\t\t\tnameEndorsee: name\n\t\t\t//nER: \n\t\t});\n\n\t\t//EDSTransfer ( msg.sender, 100 );\n\t\tnER[endorsee ] = nER[endorsee ] + 1;\n\n\t}\n\n\t//compute trust score\n\tfunction computeTrust ( address _user ) { \n\n\n\t}\n\n\t\n\n}\n\n\n\n\n\n\n\n\n\n\n\n\n\n\n\n\n\n\n\n\n\n\n\n\n",
  "sourcePath": "/home/sujata/Documents/Masters-Thesis/endorsements/contracts/Endorsement.sol",
  "compiler": {
    "name": "solc",
    "version": "0.4.19+commit.c4cbbb05.Emscripten.clang"
  },
  "schemaVersion": "2.0.0",
  "updatedAt": "2018-04-03T17:24:45.677Z"
}