{
  "contractName": "Endorsement",
  "abi": [
    {
      "constant": true,
      "inputs": [
        {
          "name": "",
          "type": "address"
        }
      ],
      "name": "EDSBalance",
      "outputs": [
        {
          "name": "",
          "type": "uint256"
        }
      ],
      "payable": false,
      "stateMutability": "view",
      "type": "function"
    },
    {
      "constant": true,
      "inputs": [],
      "name": "name",
      "outputs": [
        {
          "name": "",
          "type": "string"
        }
      ],
      "payable": false,
      "stateMutability": "view",
      "type": "function"
    },
    {
      "constant": true,
      "inputs": [
        {
          "name": "",
          "type": "address"
        }
      ],
      "name": "nEG",
      "outputs": [
        {
          "name": "",
          "type": "uint256"
        }
      ],
      "payable": false,
      "stateMutability": "view",
      "type": "function"
    },
    {
      "constant": true,
      "inputs": [],
      "name": "totalSupply",
      "outputs": [
        {
          "name": "",
          "type": "uint256"
        }
      ],
      "payable": false,
      "stateMutability": "view",
      "type": "function"
    },
    {
      "constant": true,
      "inputs": [],
      "name": "decimals",
      "outputs": [
        {
          "name": "",
          "type": "uint256"
        }
      ],
      "payable": false,
      "stateMutability": "view",
      "type": "function"
    },
    {
      "constant": true,
      "inputs": [
        {
          "name": "",
          "type": "address"
        }
      ],
      "name": "endorsees",
      "outputs": [
        {
          "name": "endorser",
          "type": "address"
        }
      ],
      "payable": false,
      "stateMutability": "view",
      "type": "function"
    },
    {
      "constant": true,
      "inputs": [
        {
          "name": "",
          "type": "address"
        }
      ],
      "name": "endorsers",
      "outputs": [
        {
          "name": "endorsee",
          "type": "address"
        },
        {
          "name": "nameEndorsee",
          "type": "string"
        }
      ],
      "payable": false,
      "stateMutability": "view",
      "type": "function"
    },
    {
      "constant": true,
      "inputs": [
        {
          "name": "",
          "type": "uint256"
        }
      ],
      "name": "connections",
      "outputs": [
        {
          "name": "givenTo",
          "type": "address"
        },
        {
          "name": "receivedFrom",
          "type": "address"
        }
      ],
      "payable": false,
      "stateMutability": "view",
      "type": "function"
    },
    {
      "constant": false,
      "inputs": [
        {
          "name": "_to",
          "type": "address"
        },
        {
          "name": "_value",
          "type": "uint256"
        }
      ],
      "name": "EDSTransfer",
      "outputs": [],
      "payable": false,
      "stateMutability": "nonpayable",
      "type": "function"
    },
    {
      "constant": true,
      "inputs": [
        {
          "name": "",
          "type": "address"
        }
      ],
      "name": "trustScore",
      "outputs": [
        {
          "name": "",
          "type": "uint256"
        }
      ],
      "payable": false,
      "stateMutability": "view",
      "type": "function"
    },
    {
      "constant": true,
      "inputs": [],
      "name": "symbol",
      "outputs": [
        {
          "name": "",
          "type": "string"
        }
      ],
      "payable": false,
      "stateMutability": "view",
      "type": "function"
    },
    {
      "constant": true,
      "inputs": [
        {
          "name": "",
          "type": "uint256"
        }
      ],
      "name": "trust",
      "outputs": [
        {
          "name": "user",
          "type": "address"
        },
        {
          "name": "ratio",
          "type": "uint256"
        },
        {
          "name": "usedPower",
          "type": "uint256"
        },
        {
          "name": "receivedEDS",
          "type": "uint256"
        },
        {
          "name": "impact",
          "type": "uint256"
        },
        {
          "name": "totalImpact",
          "type": "uint256"
        }
      ],
      "payable": false,
      "stateMutability": "view",
      "type": "function"
    },
    {
      "constant": false,
      "inputs": [
        {
          "name": "_to",
          "type": "address"
        }
      ],
      "name": "withdrawEDS",
      "outputs": [],
      "payable": false,
      "stateMutability": "nonpayable",
      "type": "function"
    },
    {
      "constant": true,
      "inputs": [
        {
          "name": "",
          "type": "address"
        }
      ],
      "name": "nER",
      "outputs": [
        {
          "name": "",
          "type": "uint256"
        }
      ],
      "payable": false,
      "stateMutability": "view",
      "type": "function"
    },
    {
      "constant": false,
      "inputs": [
        {
          "name": "initialSupply",
          "type": "uint256"
        },
        {
          "name": "tokenName",
          "type": "string"
        },
        {
          "name": "tokenSymbol",
          "type": "string"
        }
      ],
      "name": "myToken",
      "outputs": [],
      "payable": false,
      "stateMutability": "nonpayable",
      "type": "function"
    },
    {
      "inputs": [],
      "payable": false,
      "stateMutability": "nonpayable",
      "type": "constructor"
    },
    {
      "anonymous": false,
      "inputs": [
        {
          "indexed": true,
          "name": "from",
          "type": "address"
        },
        {
          "indexed": true,
          "name": "to",
          "type": "address"
        },
        {
          "indexed": false,
          "name": "value",
          "type": "uint256"
        }
      ],
      "name": "edstransfer",
      "type": "event"
    },
    {
      "anonymous": false,
      "inputs": [
        {
          "indexed": true,
          "name": "from",
          "type": "address"
        },
        {
          "indexed": false,
          "name": "value",
          "type": "uint256"
        }
      ],
      "name": "Burn",
      "type": "event"
    },
    {
      "constant": false,
      "inputs": [],
      "name": "kill",
      "outputs": [],
      "payable": false,
      "stateMutability": "nonpayable",
      "type": "function"
    },
    {
      "constant": false,
      "inputs": [
        {
          "name": "_endorsee",
          "type": "address"
        },
        {
          "name": "_name",
          "type": "string"
        }
      ],
      "name": "sendEndorsement",
      "outputs": [],
      "payable": true,
      "stateMutability": "payable",
      "type": "function"
    },
    {
      "constant": false,
      "inputs": [
        {
          "name": "_user",
          "type": "address"
        }
      ],
      "name": "ReceivedEDS",
      "outputs": [
        {
          "name": "_RE",
          "type": "uint256"
        }
      ],
      "payable": false,
      "stateMutability": "nonpayable",
      "type": "function"
    },
    {
      "constant": true,
      "inputs": [
        {
          "name": "_numerator",
          "type": "uint256"
        },
        {
          "name": "_denominator",
          "type": "uint256"
        },
        {
          "name": "_precision",
          "type": "uint256"
        }
      ],
      "name": "Division",
      "outputs": [
        {
          "name": "_quotient",
          "type": "uint256"
        }
      ],
      "payable": false,
      "stateMutability": "view",
      "type": "function"
    },
    {
      "constant": true,
      "inputs": [
        {
          "name": "x",
          "type": "uint256"
        },
        {
          "name": "y",
          "type": "uint256"
        }
      ],
      "name": "max",
      "outputs": [
        {
          "name": "",
          "type": "uint256"
        }
      ],
      "payable": false,
      "stateMutability": "view",
      "type": "function"
    },
    {
      "constant": true,
      "inputs": [
        {
          "name": "x",
          "type": "uint256"
        },
        {
          "name": "y",
          "type": "uint256"
        }
      ],
      "name": "min",
      "outputs": [
        {
          "name": "",
          "type": "uint256"
        }
      ],
      "payable": false,
      "stateMutability": "view",
      "type": "function"
    },
    {
      "constant": false,
      "inputs": [
        {
          "name": "_user",
          "type": "address"
        }
      ],
      "name": "computeTrust",
      "outputs": [],
      "payable": false,
      "stateMutability": "nonpayable",
      "type": "function"
    }
  ],
  "bytecode": "0x606060405234156200001057600080fd5b33600560006101000a81548173ffffffffffffffffffffffffffffffffffffffff021916908373ffffffffffffffffffffffffffffffffffffffff160217905550620000e0637d2b75006040805190810160405280600381526020017f45445300000000000000000000000000000000000000000000000000000000008152506040805190810160405280600181526020017f2500000000000000000000000000000000000000000000000000000000000000815250620000e66401000000000262001360176401000000009004565b62000228565b6012600281905550600254600a0a8302600381905550600354600460003373ffffffffffffffffffffffffffffffffffffffff1673ffffffffffffffffffffffffffffffffffffffff1681526020019081526020016000208190555081600090805190602001906200015a92919062000179565b5080600190805190602001906200017392919062000179565b50505050565b828054600181600116156101000203166002900490600052602060002090601f016020900481019282601f10620001bc57805160ff1916838001178555620001ed565b82800160010185558215620001ed579182015b82811115620001ec578251825591602001919060010190620001cf565b5b509050620001fc919062000200565b5090565b6200022591905b808211156200022157600081600090555060010162000207565b5090565b90565b61162880620002386000396000f300606060405260043610610128576000357c0100000000000000000000000000000000000000000000000000000000900463ffffffff1680630410178d1461012d57806306fdde031461017a57806312f361481461020857806318160ddd14610255578063313ce5671461027e57806331b3671d146102a75780633515a20b146103205780633d06b9001461042257806341c0e1b5146104b8578063435aef1e146104cd578063534a84651461050f5780636d5433e61461055c5780637ae2b5c71461059c57806395d89b41146105dc5780639bff4dd41461066a578063aa878c38146106b7578063ae100d0814610728578063b34d8024146107ae578063c1443667146107e7578063d8ef84f714610834578063df0a14cf1461087d578063fff2c08414610926575b600080fd5b341561013857600080fd5b610164600480803573ffffffffffffffffffffffffffffffffffffffff1690602001909190505061095f565b6040518082815260200191505060405180910390f35b341561018557600080fd5b61018d610977565b6040518080602001828103825283818151815260200191508051906020019080838360005b838110156101cd5780820151818401526020810190506101b2565b50505050905090810190601f1680156101fa5780820380516001836020036101000a031916815260200191505b509250505060405180910390f35b341561021357600080fd5b61023f600480803573ffffffffffffffffffffffffffffffffffffffff16906020019091905050610a15565b6040518082815260200191505060405180910390f35b341561026057600080fd5b610268610a2d565b6040518082815260200191505060405180910390f35b341561028957600080fd5b610291610a33565b6040518082815260200191505060405180910390f35b34156102b257600080fd5b6102de600480803573ffffffffffffffffffffffffffffffffffffffff16906020019091905050610a39565b604051808273ffffffffffffffffffffffffffffffffffffffff1673ffffffffffffffffffffffffffffffffffffffff16815260200191505060405180910390f35b341561032b57600080fd5b610357600480803573ffffffffffffffffffffffffffffffffffffffff16906020019091905050610a77565b604051808373ffffffffffffffffffffffffffffffffffffffff1673ffffffffffffffffffffffffffffffffffffffff168152602001806020018281038252838181546001816001161561010002031660029004815260200191508054600181600116156101000203166002900480156104125780601f106103e757610100808354040283529160200191610412565b820191906000526020600020905b8154815290600101906020018083116103f557829003601f168201915b5050935050505060405180910390f35b341561042d57600080fd5b6104436004808035906020019091905050610aba565b604051808373ffffffffffffffffffffffffffffffffffffffff1673ffffffffffffffffffffffffffffffffffffffff1681526020018273ffffffffffffffffffffffffffffffffffffffff1673ffffffffffffffffffffffffffffffffffffffff1681526020019250505060405180910390f35b34156104c357600080fd5b6104cb610b2d565b005b34156104d857600080fd5b61050d600480803573ffffffffffffffffffffffffffffffffffffffff16906020019091908035906020019091905050610bc4565b005b341561051a57600080fd5b610546600480803573ffffffffffffffffffffffffffffffffffffffff16906020019091905050610cb0565b6040518082815260200191505060405180910390f35b341561056757600080fd5b6105866004808035906020019091908035906020019091905050610cc8565b6040518082815260200191505060405180910390f35b34156105a757600080fd5b6105c66004808035906020019091908035906020019091905050610ce4565b6040518082815260200191505060405180910390f35b34156105e757600080fd5b6105ef610d00565b6040518080602001828103825283818151815260200191508051906020019080838360005b8381101561062f578082015181840152602081019050610614565b50505050905090810190601f16801561065c5780820380516001836020036101000a031916815260200191505b509250505060405180910390f35b341561067557600080fd5b6106a1600480803573ffffffffffffffffffffffffffffffffffffffff16906020019091905050610d9e565b6040518082815260200191505060405180910390f35b610726600480803573ffffffffffffffffffffffffffffffffffffffff1690602001909190803590602001908201803590602001908080601f01602080910402602001604051908101604052809392919081815260200183838082843782019150505050505091905050610da5565b005b341561073357600080fd5b6107496004808035906020019091905050611204565b604051808773ffffffffffffffffffffffffffffffffffffffff1673ffffffffffffffffffffffffffffffffffffffff168152602001868152602001858152602001848152602001838152602001828152602001965050505050505060405180910390f35b34156107b957600080fd5b6107e5600480803573ffffffffffffffffffffffffffffffffffffffff1690602001909190505061126f565b005b34156107f257600080fd5b61081e600480803573ffffffffffffffffffffffffffffffffffffffff1690602001909190505061130f565b6040518082815260200191505060405180910390f35b341561083f57600080fd5b6108676004808035906020019091908035906020019091908035906020019091905050611327565b6040518082815260200191505060405180910390f35b341561088857600080fd5b610924600480803590602001909190803590602001908201803590602001908080601f0160208091040260200160405190810160405280939291908181526020018383808284378201915050505050509190803590602001908201803590602001908080601f01602080910402602001604051908101604052809392919081815260200183838082843782019150505050505091905050611360565b005b341561093157600080fd5b61095d600480803573ffffffffffffffffffffffffffffffffffffffff169060200190919050506113ef565b005b60046020528060005260406000206000915090505481565b60008054600181600116156101000203166002900480601f016020809104026020016040519081016040528092919081815260200182805460018160011615610100020316600290048015610a0d5780601f106109e257610100808354040283529160200191610a0d565b820191906000526020600020905b8154815290600101906020018083116109f057829003601f168201915b505050505081565b600c6020528060005260406000206000915090505481565b60035481565b60025481565b600b6020528060005260406000206000915090508060000160009054906101000a900473ffffffffffffffffffffffffffffffffffffffff16905081565b600a6020528060005260406000206000915090508060000160009054906101000a900473ffffffffffffffffffffffffffffffffffffffff169080600101905082565b600f81815481101515610ac957fe5b90600052602060002090600202016000915090508060000160009054906101000a900473ffffffffffffffffffffffffffffffffffffffff16908060010160009054906101000a900473ffffffffffffffffffffffffffffffffffffffff16905082565b600560009054906101000a900473ffffffffffffffffffffffffffffffffffffffff1673ffffffffffffffffffffffffffffffffffffffff163373ffffffffffffffffffffffffffffffffffffffff16141515610b8957600080fd5b600560009054906101000a900473ffffffffffffffffffffffffffffffffffffffff1673ffffffffffffffffffffffffffffffffffffffff16ff5b80600460003373ffffffffffffffffffffffffffffffffffffffff1673ffffffffffffffffffffffffffffffffffffffff1681526020019081526020016000205410151515610c1257600080fd5b80600460003373ffffffffffffffffffffffffffffffffffffffff1673ffffffffffffffffffffffffffffffffffffffff1681526020019081526020016000206000828254039250508190555080600460008473ffffffffffffffffffffffffffffffffffffffff1673ffffffffffffffffffffffffffffffffffffffff168152602001908152602001600020600082825401925050819055505050565b600e6020528060005260406000206000915090505481565b600081831015610cda57819050610cde565b8290505b92915050565b600081831015610cf657829050610cfa565b8190505b92915050565b60018054600181600116156101000203166002900480601f016020809104026020016040519081016040528092919081815260200182805460018160011615610100020316600290048015610d965780601f10610d6b57610100808354040283529160200191610d96565b820191906000526020600020905b815481529060010190602001808311610d7957829003601f168201915b505050505081565b6000919050565b6000610daf6113f2565b8373ffffffffffffffffffffffffffffffffffffffff163373ffffffffffffffffffffffffffffffffffffffff1614151515610dea57600080fd5b83600660006101000a81548173ffffffffffffffffffffffffffffffffffffffff021916908373ffffffffffffffffffffffffffffffffffffffff1602179055503391508260079080519060200190610e44929190611438565b506001600c60003373ffffffffffffffffffffffffffffffffffffffff1673ffffffffffffffffffffffffffffffffffffffff1681526020019081526020016000205401600c60003373ffffffffffffffffffffffffffffffffffffffff1673ffffffffffffffffffffffffffffffffffffffff168152602001908152602001600020819055506040805190810160405280600660009054906101000a900473ffffffffffffffffffffffffffffffffffffffff1673ffffffffffffffffffffffffffffffffffffffff16815260200160078054600181600116156101000203166002900480601f016020809104026020016040519081016040528092919081815260200182805460018160011615610100020316600290048015610faa5780601f10610f7f57610100808354040283529160200191610faa565b820191906000526020600020905b815481529060010190602001808311610f8d57829003601f168201915b5050505050815250600a60003373ffffffffffffffffffffffffffffffffffffffff1673ffffffffffffffffffffffffffffffffffffffff16815260200190815260200160002060008201518160000160006101000a81548173ffffffffffffffffffffffffffffffffffffffff021916908373ffffffffffffffffffffffffffffffffffffffff16021790555060208201518160010190805190602001906110549291906114b8565b509050506001600d60008673ffffffffffffffffffffffffffffffffffffffff1673ffffffffffffffffffffffffffffffffffffffff1681526020019081526020016000205401600d60008673ffffffffffffffffffffffffffffffffffffffff1673ffffffffffffffffffffffffffffffffffffffff168152602001908152602001600020819055506040805190810160405280600660009054906101000a900473ffffffffffffffffffffffffffffffffffffffff1673ffffffffffffffffffffffffffffffffffffffff1681526020018373ffffffffffffffffffffffffffffffffffffffff168152509050600f80548060010182816111579190611538565b9160005260206000209060020201600083909190915060008201518160000160006101000a81548173ffffffffffffffffffffffffffffffffffffffff021916908373ffffffffffffffffffffffffffffffffffffffff16021790555060208201518160010160006101000a81548173ffffffffffffffffffffffffffffffffffffffff021916908373ffffffffffffffffffffffffffffffffffffffff16021790555050505050505050565b60098181548110151561121357fe5b90600052602060002090600602016000915090508060000160009054906101000a900473ffffffffffffffffffffffffffffffffffffffff16908060010154908060020154908060030154908060040154908060050154905086565b6000600460003373ffffffffffffffffffffffffffffffffffffffff1673ffffffffffffffffffffffffffffffffffffffff168152602001908152602001600020541415156112bd57600080fd5b61012c600460003373ffffffffffffffffffffffffffffffffffffffff1673ffffffffffffffffffffffffffffffffffffffff1681526020019081526020016000206000828254019250508190555050565b600d6020528060005260406000206000915090505481565b600080600060018401600a0a86029150600a6005868481151561134657fe5b040181151561135157fe5b04905080925050509392505050565b6012600281905550600254600a0a8302600381905550600354600460003373ffffffffffffffffffffffffffffffffffffffff1673ffffffffffffffffffffffffffffffffffffffff1681526020019081526020016000208190555081600090805190602001906113d2929190611438565b5080600190805190602001906113e9929190611438565b50505050565b50565b6040805190810160405280600073ffffffffffffffffffffffffffffffffffffffff168152602001600073ffffffffffffffffffffffffffffffffffffffff1681525090565b828054600181600116156101000203166002900490600052602060002090601f016020900481019282601f1061147957805160ff19168380011785556114a7565b828001600101855582156114a7579182015b828111156114a657825182559160200191906001019061148b565b5b5090506114b4919061156a565b5090565b828054600181600116156101000203166002900490600052602060002090601f016020900481019282601f106114f957805160ff1916838001178555611527565b82800160010185558215611527579182015b8281111561152657825182559160200191906001019061150b565b5b509050611534919061156a565b5090565b81548183558181151161156557600202816002028360005260206000209182019101611564919061158f565b5b505050565b61158c91905b80821115611588576000816000905550600101611570565b5090565b90565b6115f991905b808211156115f557600080820160006101000a81549073ffffffffffffffffffffffffffffffffffffffff02191690556001820160006101000a81549073ffffffffffffffffffffffffffffffffffffffff021916905550600201611595565b5090565b905600a165627a7a72305820d18329bdf7e32200107906c8d66b94ff412f4416dcaec0a9d6b09fc195bc3d880029",
  "source": "pragma solidity ^0.4.18;\n\nimport \"./EDSToken.sol\";\n\ncontract Endorsement is EDSToken {\n\n\t//owner\n\taddress owner;\n\n\tstruct Endorser { \n\t\t//uint id;\n\t\taddress endorsee;\n\t\tstring nameEndorsee;\n\t//\tuint [] givenTo;\n\t}\n\n\tstruct Endorsee { \n\t\t//uint id;\n\t\t//string nameEndorser;\n\t\taddress endorser;\n\t//\tuint [] receivedFrom;\n\n\t}\n\n\tstruct Trust { \n\t\taddress user;\n\t\tuint ratio;\n\t\tuint usedPower;\n\t\tuint receivedEDS;\n\t\tuint impact;\n\t\tuint totalImpact;\n\t}\n\n\t//state variables\n\taddress endorsee;\n\tstring name;\n\tuint edsRecieved;\n\n\t//storage variables\n\tTrust [] public trust;\n\n\tmapping (address => Endorser ) public endorsers;\n\n\tmapping (address => Endorsee ) public endorsees;\n\n\tmapping (address => uint ) public nEG; //no. of eds given by a specific id\n\tmapping (address => uint ) public nER; //no. of eds received\n\tmapping (address => uint ) public trustScore; // total impact\n\n\t// modifiers\n\tmodifier onlyOwner( ) { \n\t\trequire(msg.sender == owner );\n\t\t_;\n\t}\n\n\n\t//constructor\n\tfunction Endorsement() public { \n\t\t//EDSToken( );\n\t\towner = msg.sender;\n\t\tmyToken(2100000000, \"EDS\", \"%\" );\n\n\t}\n\n\n\t//deactivate the contract\n\tfunction kill() public onlyOwner { \n\t\tselfdestruct(owner);\n\t}\n\n\t//EDSToken (2100000, \"EDS\", \"%\" );\n\n\tstruct TrackConnection { \n\t\taddress givenTo;\n\t\taddress receivedFrom;\n\t}\n\n\tTrackConnection [] public connections; \n\n//\tmapping (address => trackConnection ) To;\n//\tmapping (address => receivedFrom[] ) From; \n\n\n\t// send endorsement\n\tfunction sendEndorsement(address _endorsee, string _name) public payable { \n\t\t//cannot self endorse\n\t\trequire (msg.sender != _endorsee );\n\t\t\n\t\tendorsee = _endorsee;\n\t\taddress endorser = msg.sender;\n\t\tname = _name;\n\t\tnEG[ msg.sender ] = nEG[ msg.sender ] + 1 ;\n\n\t\tendorsers[msg.sender ] = Endorser({\n\t\t\tendorsee: endorsee,\n\t\t\tnameEndorsee: name\n\t\t});\n\n\t\tnER[ _endorsee] = nER[ _endorsee] + 1;\n\n\t\tTrackConnection memory newConnections = TrackConnection({\n\t\t\tgivenTo: endorsee,\n\t\t\treceivedFrom: endorser \n\t\t});\n\n\t\tconnections.push(newConnections );\n\t}\n\n\tfunction ReceivedEDS ( address _user) public returns (uint _RE ) {\n\t\t//for i in list  of endorsees of user, \n\t\t//get the used power of each of them and add all together.\n\n\n\t}\n\t\n\t//some helper functions for calculations\n\n\tfunction Division( uint _numerator, uint _denominator, uint _precision) public constant returns (uint _quotient) {\n\t\tuint numerator = _numerator * 10 ** (_precision + 1);\n\t\tuint quotient = ((numerator / _denominator) + 5  ) / 10;\n\n\t\treturn (quotient);\t\t\n\t}\n\n\tfunction max (uint x, uint y ) public constant returns (uint) {\n\t\tif (x < y) {\n\t\t\treturn y;\n\t\t} else  {  \n\t\t\treturn x;\n\t\t}\n\t}\n\n\tfunction min (uint x, uint y ) public constant returns (uint) { \n\t\tif (x < y) { \n\t\t\treturn x;\n\t\t} else {\n\t\t\treturn y;\n\t\t}\n\t}\n\n\t//compute trust score\n\t//supports decimal upto 9 place\n\t//can convert to decimal by dividing all values with 1e9 and get the exact score on \n\t//client side\n\tfunction computeTrust ( address _user ) { \n//\t\tuser = _user;\n//\t\tratio = Division( ( nEG[  _user] ), ( nER[ _user ] ), 9 );\n//\t\tusedPower = Division(1, (nEG[_user ]), 9 );\n//\t\treceivedEDS = ReceivedEDS( _user );\n\t//\ttotalImpact = ratio + up + RE;  \n\n\t}\n\n}\n\n\n\n\n\n\n\n\n\n\n\n\n\n\n\n\n\n\n\n\n\n\n\n\n",
  "sourcePath": "/home/sujata/Documents/Masters-Thesis/endorsements/contracts/Endorsement.sol",
  "compiler": {
    "name": "solc",
    "version": "0.4.19+commit.c4cbbb05.Emscripten.clang"
  },
  "schemaVersion": "2.0.0",
  "updatedAt": "2018-04-04T13:31:19.949Z"
}