{
  "contractName": "Endorsement",
  "abi": [
    {
      "constant": true,
      "inputs": [
        {
          "name": "",
          "type": "address"
        }
      ],
      "name": "EDSBalance",
      "outputs": [
        {
          "name": "",
          "type": "uint256"
        }
      ],
      "payable": false,
      "stateMutability": "view",
      "type": "function"
    },
    {
      "constant": true,
      "inputs": [],
      "name": "name",
      "outputs": [
        {
          "name": "",
          "type": "string"
        }
      ],
      "payable": false,
      "stateMutability": "view",
      "type": "function"
    },
    {
      "constant": true,
      "inputs": [
        {
          "name": "",
          "type": "address"
        }
      ],
      "name": "nEG",
      "outputs": [
        {
          "name": "",
          "type": "uint256"
        }
      ],
      "payable": false,
      "stateMutability": "view",
      "type": "function"
    },
    {
      "constant": true,
      "inputs": [],
      "name": "totalSupply",
      "outputs": [
        {
          "name": "",
          "type": "uint256"
        }
      ],
      "payable": false,
      "stateMutability": "view",
      "type": "function"
    },
    {
      "constant": true,
      "inputs": [],
      "name": "decimals",
      "outputs": [
        {
          "name": "",
          "type": "uint256"
        }
      ],
      "payable": false,
      "stateMutability": "view",
      "type": "function"
    },
    {
      "constant": false,
      "inputs": [
        {
          "name": "_to",
          "type": "address"
        },
        {
          "name": "_value",
          "type": "uint256"
        }
      ],
      "name": "EDSTransfer",
      "outputs": [],
      "payable": false,
      "stateMutability": "nonpayable",
      "type": "function"
    },
    {
      "constant": true,
      "inputs": [
        {
          "name": "",
          "type": "address"
        }
      ],
      "name": "usedPower",
      "outputs": [
        {
          "name": "",
          "type": "uint256"
        }
      ],
      "payable": false,
      "stateMutability": "view",
      "type": "function"
    },
    {
      "constant": true,
      "inputs": [],
      "name": "symbol",
      "outputs": [
        {
          "name": "",
          "type": "string"
        }
      ],
      "payable": false,
      "stateMutability": "view",
      "type": "function"
    },
    {
      "constant": true,
      "inputs": [
        {
          "name": "",
          "type": "address"
        }
      ],
      "name": "nER",
      "outputs": [
        {
          "name": "",
          "type": "uint256"
        }
      ],
      "payable": false,
      "stateMutability": "view",
      "type": "function"
    },
    {
      "constant": false,
      "inputs": [
        {
          "name": "initialSupply",
          "type": "uint256"
        },
        {
          "name": "tokenName",
          "type": "string"
        },
        {
          "name": "tokenSymbol",
          "type": "string"
        }
      ],
      "name": "myToken",
      "outputs": [],
      "payable": false,
      "stateMutability": "nonpayable",
      "type": "function"
    },
    {
      "inputs": [],
      "payable": false,
      "stateMutability": "nonpayable",
      "type": "constructor"
    },
    {
      "anonymous": false,
      "inputs": [
        {
          "indexed": true,
          "name": "from",
          "type": "address"
        },
        {
          "indexed": true,
          "name": "to",
          "type": "address"
        },
        {
          "indexed": false,
          "name": "value",
          "type": "uint256"
        }
      ],
      "name": "edstransfer",
      "type": "event"
    },
    {
      "anonymous": false,
      "inputs": [
        {
          "indexed": true,
          "name": "from",
          "type": "address"
        },
        {
          "indexed": false,
          "name": "value",
          "type": "uint256"
        }
      ],
      "name": "Burn",
      "type": "event"
    },
    {
      "constant": false,
      "inputs": [],
      "name": "kill",
      "outputs": [],
      "payable": false,
      "stateMutability": "nonpayable",
      "type": "function"
    },
    {
      "constant": false,
      "inputs": [
        {
          "name": "_endorsee",
          "type": "address"
        },
        {
          "name": "_name",
          "type": "string"
        }
      ],
      "name": "sendEndorsement",
      "outputs": [],
      "payable": true,
      "stateMutability": "payable",
      "type": "function"
    }
  ],
  "bytecode": "0x6060604052341561000f57600080fd5b33600560006101000a81548173ffffffffffffffffffffffffffffffffffffffff021916908373ffffffffffffffffffffffffffffffffffffffff1602179055506100dc637d2b75006040805190810160405280600381526020017f45445300000000000000000000000000000000000000000000000000000000008152506040805190810160405280600181526020017f25000000000000000000000000000000000000000000000000000000000000008152506100e1640100000000026109c1176401000000009004565b610215565b6012600281905550600254600a0a8302600381905550600354600460003373ffffffffffffffffffffffffffffffffffffffff1673ffffffffffffffffffffffffffffffffffffffff168152602001908152602001600020819055508160009080519060200190610153929190610170565b50806001908051906020019061016a929190610170565b50505050565b828054600181600116156101000203166002900490600052602060002090601f016020900481019282601f106101b157805160ff19168380011785556101df565b828001600101855582156101df579182015b828111156101de5782518255916020019190600101906101c3565b5b5090506101ec91906101f0565b5090565b61021291905b8082111561020e5760008160009055506001016101f6565b5090565b90565b610b5a806102246000396000f3006060604052600436106100ba576000357c0100000000000000000000000000000000000000000000000000000000900463ffffffff1680630410178d146100bf57806306fdde031461010c57806312f361481461019a57806318160ddd146101e7578063313ce5671461021057806341c0e1b514610239578063435aef1e1461024e578063641cf4bc1461029057806395d89b41146102dd578063aa878c381461036b578063c1443667146103dc578063df0a14cf14610429575b600080fd5b34156100ca57600080fd5b6100f6600480803573ffffffffffffffffffffffffffffffffffffffff169060200190919050506104d2565b6040518082815260200191505060405180910390f35b341561011757600080fd5b61011f6104ea565b6040518080602001828103825283818151815260200191508051906020019080838360005b8381101561015f578082015181840152602081019050610144565b50505050905090810190601f16801561018c5780820380516001836020036101000a031916815260200191505b509250505060405180910390f35b34156101a557600080fd5b6101d1600480803573ffffffffffffffffffffffffffffffffffffffff16906020019091905050610588565b6040518082815260200191505060405180910390f35b34156101f257600080fd5b6101fa6105a0565b6040518082815260200191505060405180910390f35b341561021b57600080fd5b6102236105a6565b6040518082815260200191505060405180910390f35b341561024457600080fd5b61024c6105ac565b005b341561025957600080fd5b61028e600480803573ffffffffffffffffffffffffffffffffffffffff16906020019091908035906020019091905050610643565b005b341561029b57600080fd5b6102c7600480803573ffffffffffffffffffffffffffffffffffffffff1690602001909190505061072f565b6040518082815260200191505060405180910390f35b34156102e857600080fd5b6102f0610747565b6040518080602001828103825283818151815260200191508051906020019080838360005b83811015610330578082015181840152602081019050610315565b50505050905090810190601f16801561035d5780820380516001836020036101000a031916815260200191505b509250505060405180910390f35b6103da600480803573ffffffffffffffffffffffffffffffffffffffff1690602001909190803590602001908201803590602001908080601f016020809104026020016040519081016040528093929190818152602001838380828437820191505050505050919050506107e5565b005b34156103e757600080fd5b610413600480803573ffffffffffffffffffffffffffffffffffffffff169060200190919050506109a9565b6040518082815260200191505060405180910390f35b341561043457600080fd5b6104d0600480803590602001909190803590602001908201803590602001908080601f0160208091040260200160405190810160405280939291908181526020018383808284378201915050505050509190803590602001908201803590602001908080601f016020809104026020016040519081016040528093929190818152602001838380828437820191505050505050919050506109c1565b005b60046020528060005260406000206000915090505481565b60008054600181600116156101000203166002900480601f0160208091040260200160405190810160405280929190818152602001828054600181600116156101000203166002900480156105805780601f1061055557610100808354040283529160200191610580565b820191906000526020600020905b81548152906001019060200180831161056357829003601f168201915b505050505081565b60086020528060005260406000206000915090505481565b60035481565b60025481565b600560009054906101000a900473ffffffffffffffffffffffffffffffffffffffff1673ffffffffffffffffffffffffffffffffffffffff163373ffffffffffffffffffffffffffffffffffffffff1614151561060857600080fd5b600560009054906101000a900473ffffffffffffffffffffffffffffffffffffffff1673ffffffffffffffffffffffffffffffffffffffff16ff5b80600460003373ffffffffffffffffffffffffffffffffffffffff1673ffffffffffffffffffffffffffffffffffffffff168152602001908152602001600020541015151561069157600080fd5b80600460003373ffffffffffffffffffffffffffffffffffffffff1673ffffffffffffffffffffffffffffffffffffffff1681526020019081526020016000206000828254039250508190555080600460008473ffffffffffffffffffffffffffffffffffffffff1673ffffffffffffffffffffffffffffffffffffffff168152602001908152602001600020600082825401925050819055505050565b600a6020528060005260406000206000915090505481565b60018054600181600116156101000203166002900480601f0160208091040260200160405190810160405280929190818152602001828054600181600116156101000203166002900480156107dd5780601f106107b2576101008083540402835291602001916107dd565b820191906000526020600020905b8154815290600101906020018083116107c057829003601f168201915b505050505081565b8173ffffffffffffffffffffffffffffffffffffffff163373ffffffffffffffffffffffffffffffffffffffff161415151561082057600080fd5b81600660006101000a81548173ffffffffffffffffffffffffffffffffffffffff021916908373ffffffffffffffffffffffffffffffffffffffff1602179055508060079080519060200190610877929190610a89565b50600960008373ffffffffffffffffffffffffffffffffffffffff1673ffffffffffffffffffffffffffffffffffffffff16815260200190815260200160002060008154809291906001019190505550600860003373ffffffffffffffffffffffffffffffffffffffff1673ffffffffffffffffffffffffffffffffffffffff168152602001908152602001600020600081548092919060010191905055506109626001600860003373ffffffffffffffffffffffffffffffffffffffff1673ffffffffffffffffffffffffffffffffffffffff168152602001908152602001600020546009610a50565b600a60003373ffffffffffffffffffffffffffffffffffffffff1673ffffffffffffffffffffffffffffffffffffffff168152602001908152602001600020819055505050565b60096020528060005260406000206000915090505481565b6012600281905550600254600a0a8302600381905550600354600460003373ffffffffffffffffffffffffffffffffffffffff1673ffffffffffffffffffffffffffffffffffffffff168152602001908152602001600020819055508160009080519060200190610a33929190610a89565b508060019080519060200190610a4a929190610a89565b50505050565b600080600060018401600a0a86029150600a60058684811515610a6f57fe5b0401811515610a7a57fe5b04905080925050509392505050565b828054600181600116156101000203166002900490600052602060002090601f016020900481019282601f10610aca57805160ff1916838001178555610af8565b82800160010185558215610af8579182015b82811115610af7578251825591602001919060010190610adc565b5b509050610b059190610b09565b5090565b610b2b91905b80821115610b27576000816000905550600101610b0f565b5090565b905600a165627a7a723058209ab14a53865974def3bc5d9e76581850a36eb2d65b6efe56228b668974849dad0029",
  "source": "pragma solidity ^0.4.18;\n\nimport \"./EDSToken.sol\";\n\ncontract Endorsement is EDSToken {\n\n\t//owner\n\taddress owner;\n\n//\tstruct Participants {\n//\t\tstring name;\n//\t\tmapping(address => uint) nEG;\n//\t\tmapping(address => uint) nER;\n//\t\tmapping(address => uint) usedPower;\n//\t\n//\t}\n//\n\n\taddress endorsee;\n\tstring name;\n\tmapping(address => uint) public nEG;\n\tmapping(address => uint) public nER;\n\tmapping(address => uint) public usedPower;\n\n\tstruct Trust { \n\t\taddress user;\n\t\tuint ratio;\n\t\tuint receivedEDS;\n\t\tuint impact;\n\t\tuint totalImpact;\n\t}\n\n\n\t// modifiers\n\tmodifier onlyOwner() { \n\t\trequire(msg.sender == owner );\n\t\t_;\n\t}\n\n\n\t//constructor\n\tfunction Endorsement() public { \n\t\t//EDSToken( );\n\t\towner = msg.sender;\n\t\tmyToken(2100000000, \"EDS\", \"%\" );\n\t}\n\n\t//deactivate the contract\n\tfunction kill() public onlyOwner { \n\t\tselfdestruct(owner);\n\t}\n\n\t// send endorsement\n\tfunction sendEndorsement(address _endorsee, string _name) public payable { \n\t\t//cannot self endorse\n\t\trequire (msg.sender != _endorsee );\n\t\t\n\t\tendorsee = _endorsee;\n\t\tname = _name;\n\t\t\n\t\tnER[_endorsee]++;\n\t\tnEG[ msg.sender ]++ ;\n\t\tusedPower[msg.sender] = Division(1, (nEG[msg.sender ]), 9);\n\n\t}\n\n//\tfunction ReceivedEDS ( address _user) public returns (uint _RE ) {\n\t\t//for i in list  of endorsees of user, \n\t\t//get the used power of each of them and add all together.\n\n\n//\t}\n\t\n\t//some helper functions for calculations\n\tfunction Division( uint _numerator, uint _denominator, uint _precision) internal pure returns (uint _quotient) {\n\t\tuint numerator = _numerator * 10 ** (_precision + 1);\n\t\tuint quotient = ((numerator / _denominator) + 5  ) / 10;\n\n\t\treturn (quotient);\t\t\n\t}\n\n\tfunction max (uint x, uint y ) internal pure returns (uint) {\n\t\tif (x < y) {\n\t\t\treturn y;\n\t\t} else  {  \n\t\t\treturn x;\n\t\t}\n\t}\n\n\tfunction min (uint x, uint y ) internal pure returns (uint) { \n\t\tif (x < y) { \n\t\t\treturn x;\n\t\t} else {\n\t\t\treturn y;\n\t\t}\n\t}\n\n\t//compute trust score\n\t//supports decimal upto 9 place\n\t//can convert to decimal by dividing all values with 1e9 and get the exact score on \n\t//client side\n//\tfunction computeTrust( address _user) public view returns (uint) { \n//\t\taddress user = _user;\n//\t\trequire (nEG[user] >= 1 );\n//\t\tuint temp1 = (min(nEG[user], nER[user]));\n//\t\tuint temp2 = (max(nEG[user], nER[user]));\n//\t\tuint ratio = Division( temp1, temp2, 9 );\n//\t\t\n//\t\tuint edsImpact = ratio * usedPower( user ) *  RE(user)\n//\n//\t\treturn ratio;\n\t\t//uint  \n\t\t\n\t\t//return usedPower;\n\t\t//ratio = Division( ( nEG[  _user] ), ( nER[ _user ] ), 9 );\n\t\t//usedPower = Division(1, (nEG[_user ]), 9 );\n\t\t//receivedEDS = ReceivedEDS( _user );\n\t\t//totalImpact = ratio  up  RE;  \n\n//\t}\n\n}\n\n\n\n\n\n\n\n\n\n\n\n\n\n\n\n\n\n\n\n\n\n\n\n\n",
  "sourcePath": "/home/sujata/Documents/Masters-Thesis/endorsements/contracts/Endorsement.sol",
  "compiler": {
    "name": "solc",
    "version": "0.4.19+commit.c4cbbb05.Emscripten.clang"
  },
  "schemaVersion": "2.0.0",
  "updatedAt": "2018-04-08T15:08:30.508Z"
}