{
  "contractName": "Endorsement",
  "abi": [
    {
      "constant": true,
      "inputs": [
        {
          "name": "",
          "type": "address"
        }
      ],
      "name": "nEG",
      "outputs": [
        {
          "name": "",
          "type": "uint256"
        }
      ],
      "payable": false,
      "stateMutability": "view",
      "type": "function"
    },
    {
      "constant": true,
      "inputs": [
        {
          "name": "",
          "type": "address"
        }
      ],
      "name": "endorsees",
      "outputs": [
        {
          "name": "id",
          "type": "uint256"
        },
        {
          "name": "nameEndorser",
          "type": "string"
        },
        {
          "name": "endorsee",
          "type": "address"
        },
        {
          "name": "endorsers",
          "type": "address"
        }
      ],
      "payable": false,
      "stateMutability": "view",
      "type": "function"
    },
    {
      "constant": true,
      "inputs": [
        {
          "name": "",
          "type": "address"
        }
      ],
      "name": "endorsers",
      "outputs": [
        {
          "name": "endorsee",
          "type": "address"
        },
        {
          "name": "nameEndorsee",
          "type": "string"
        }
      ],
      "payable": false,
      "stateMutability": "view",
      "type": "function"
    },
    {
      "constant": true,
      "inputs": [
        {
          "name": "",
          "type": "address"
        }
      ],
      "name": "trustScore",
      "outputs": [
        {
          "name": "",
          "type": "uint256"
        }
      ],
      "payable": false,
      "stateMutability": "view",
      "type": "function"
    },
    {
      "constant": true,
      "inputs": [
        {
          "name": "",
          "type": "address"
        }
      ],
      "name": "nER",
      "outputs": [
        {
          "name": "",
          "type": "uint256"
        }
      ],
      "payable": false,
      "stateMutability": "view",
      "type": "function"
    },
    {
      "inputs": [],
      "payable": false,
      "stateMutability": "nonpayable",
      "type": "constructor"
    },
    {
      "constant": false,
      "inputs": [],
      "name": "kill",
      "outputs": [],
      "payable": false,
      "stateMutability": "nonpayable",
      "type": "function"
    },
    {
      "constant": false,
      "inputs": [
        {
          "name": "_endorsee",
          "type": "address"
        },
        {
          "name": "_name",
          "type": "string"
        }
      ],
      "name": "sendEndorsement",
      "outputs": [],
      "payable": false,
      "stateMutability": "nonpayable",
      "type": "function"
    }
  ],
  "bytecode": "0x6060604052341561000f57600080fd5b336000806101000a81548173ffffffffffffffffffffffffffffffffffffffff021916908373ffffffffffffffffffffffffffffffffffffffff160217905550610a578061005e6000396000f300606060405260043610610083576000357c0100000000000000000000000000000000000000000000000000000000900463ffffffff16806312f361481461008857806331b3671d146100d55780633515a20b1461021157806341c0e1b514610313578063534a846514610328578063aa878c3814610375578063c1443667146103f1575b600080fd5b341561009357600080fd5b6100bf600480803573ffffffffffffffffffffffffffffffffffffffff1690602001909190505061043e565b6040518082815260200191505060405180910390f35b34156100e057600080fd5b61010c600480803573ffffffffffffffffffffffffffffffffffffffff16906020019091905050610456565b60405180858152602001806020018473ffffffffffffffffffffffffffffffffffffffff1673ffffffffffffffffffffffffffffffffffffffff1681526020018373ffffffffffffffffffffffffffffffffffffffff1673ffffffffffffffffffffffffffffffffffffffff1681526020018281038252858181546001816001161561010002031660029004815260200191508054600181600116156101000203166002900480156101ff5780601f106101d4576101008083540402835291602001916101ff565b820191906000526020600020905b8154815290600101906020018083116101e257829003601f168201915b50509550505050505060405180910390f35b341561021c57600080fd5b610248600480803573ffffffffffffffffffffffffffffffffffffffff169060200190919050506104c5565b604051808373ffffffffffffffffffffffffffffffffffffffff1673ffffffffffffffffffffffffffffffffffffffff168152602001806020018281038252838181546001816001161561010002031660029004815260200191508054600181600116156101000203166002900480156103035780601f106102d857610100808354040283529160200191610303565b820191906000526020600020905b8154815290600101906020018083116102e657829003601f168201915b5050935050505060405180910390f35b341561031e57600080fd5b610326610508565b005b341561033357600080fd5b61035f600480803573ffffffffffffffffffffffffffffffffffffffff1690602001909190505061059d565b6040518082815260200191505060405180910390f35b341561038057600080fd5b6103ef600480803573ffffffffffffffffffffffffffffffffffffffff1690602001909190803590602001908201803590602001908080601f016020809104026020016040519081016040528093929190818152602001838380828437820191505050505050919050506105b5565b005b34156103fc57600080fd5b610428600480803573ffffffffffffffffffffffffffffffffffffffff169060200190919050506108ee565b6040518082815260200191505060405180910390f35b60086020528060005260406000206000915090505481565b600760205280600052604060002060009150905080600001549080600101908060020160009054906101000a900473ffffffffffffffffffffffffffffffffffffffff16908060030160009054906101000a900473ffffffffffffffffffffffffffffffffffffffff16905084565b60066020528060005260406000206000915090508060000160009054906101000a900473ffffffffffffffffffffffffffffffffffffffff169080600101905082565b6000809054906101000a900473ffffffffffffffffffffffffffffffffffffffff1673ffffffffffffffffffffffffffffffffffffffff163373ffffffffffffffffffffffffffffffffffffffff1614151561056357600080fd5b6000809054906101000a900473ffffffffffffffffffffffffffffffffffffffff1673ffffffffffffffffffffffffffffffffffffffff16ff5b600a6020528060005260406000206000915090505481565b81600160006101000a81548173ffffffffffffffffffffffffffffffffffffffff021916908373ffffffffffffffffffffffffffffffffffffffff160217905550806002908051906020019061060c929190610906565b506001600860003373ffffffffffffffffffffffffffffffffffffffff1673ffffffffffffffffffffffffffffffffffffffff1681526020019081526020016000205401600860003373ffffffffffffffffffffffffffffffffffffffff1673ffffffffffffffffffffffffffffffffffffffff168152602001908152602001600020819055506040805190810160405280600160009054906101000a900473ffffffffffffffffffffffffffffffffffffffff1673ffffffffffffffffffffffffffffffffffffffff16815260200160028054600181600116156101000203166002900480601f0160208091040260200160405190810160405280929190818152602001828054600181600116156101000203166002900480156107725780601f1061074757610100808354040283529160200191610772565b820191906000526020600020905b81548152906001019060200180831161075557829003601f168201915b5050505050815250600660003373ffffffffffffffffffffffffffffffffffffffff1673ffffffffffffffffffffffffffffffffffffffff16815260200190815260200160002060008201518160000160006101000a81548173ffffffffffffffffffffffffffffffffffffffff021916908373ffffffffffffffffffffffffffffffffffffffff160217905550602082015181600101908051906020019061081c929190610986565b50905050600160096000600160009054906101000a900473ffffffffffffffffffffffffffffffffffffffff1673ffffffffffffffffffffffffffffffffffffffff1673ffffffffffffffffffffffffffffffffffffffff168152602001908152602001600020540160096000600160009054906101000a900473ffffffffffffffffffffffffffffffffffffffff1673ffffffffffffffffffffffffffffffffffffffff1673ffffffffffffffffffffffffffffffffffffffff168152602001908152602001600020819055505050565b60096020528060005260406000206000915090505481565b828054600181600116156101000203166002900490600052602060002090601f016020900481019282601f1061094757805160ff1916838001178555610975565b82800160010185558215610975579182015b82811115610974578251825591602001919060010190610959565b5b5090506109829190610a06565b5090565b828054600181600116156101000203166002900490600052602060002090601f016020900481019282601f106109c757805160ff19168380011785556109f5565b828001600101855582156109f5579182015b828111156109f45782518255916020019190600101906109d9565b5b509050610a029190610a06565b5090565b610a2891905b80821115610a24576000816000905550600101610a0c565b5090565b905600a165627a7a72305820bc75b68f7f25f77873ea4c6bea2881fa6000a1266b08a5acb2dac35bf9e3700f0029",
  "source": "pragma solidity ^0.4.18;\n\ncontract Endorsement {\n\n\t//owner\n\taddress owner;\n\n\tstruct Endorser { \n\t\t//uint id;\n\t\taddress endorsee;\n\t\tstring nameEndorsee;\n\t\t//uint nER;\n//\t\tuint nEG;\n//\t\tuint nER;\n\t}\n\n\tstruct Endorsee { \n\t\tuint id;\n\t\tstring nameEndorser;\n\t\taddress endorsee;\n\t\taddress endorsers;\n//\t\tuint nEG;\n//\t\tuint nER;\n\t}\n\n\t//state variables\n\taddress endorsee;\n\tstring name;\n\tuint impact;\n\tuint totalImpact;\n\tuint edsRecieved;\n\n\tmapping (address => Endorser ) public endorsers;\n\n\tmapping (address => Endorsee ) public endorsees;\n\n\tmapping (address => uint ) public nEG; //no. of eds given by a specific id\n\tmapping (address => uint ) public nER; //no. of eds received\n\tmapping (address => uint ) public trustScore; // total impact\n\n\t// modifiers\n\tmodifier onlyOwner( ) { \n\t\trequire(msg.sender == owner );\n\t\t_;\n\t}\n\n\t//constructor\n\tfunction Endorsement() public { \n\t\towner = msg.sender;\n\t}\n\n\t//deactivate the contract\n\tfunction kill() public onlyOwner { \n\t\tselfdestruct(owner);\n\t}\n\n\n\t// send endorsement\n\tfunction sendEndorsement(address _endorsee, string _name) { \n\t\tendorsee = _endorsee;\n\t\tname = _name;\n\t\tnEG[ msg.sender ] = nEG[ msg.sender ] + 1 ;\n\t\tendorsers[msg.sender ] = Endorser({\n\t\t\tendorsee: endorsee,\n\t\t\tnameEndorsee: name\n\t\t\t//nER: \n\t\t});\n\n\t\tnER[endorsee ] = nER[endorsee ] + 1;\n\n\n\n\t}\n}\n\n\n\n\n\n\n\n\n\n\n\n\n\n\n\n\n\n\n\n\n\n\n\n",
  "sourcePath": "/home/sujata/Documents/Masters-Thesis/endorsements/contracts/Endorsement.sol",
  "compiler": {
    "name": "solc",
    "version": "0.4.19+commit.c4cbbb05.Emscripten.clang"
  },
  "schemaVersion": "2.0.0",
  "updatedAt": "2018-04-02T14:07:33.948Z"
}