{
  "contractName": "Endorsement",
  "abi": [
    {
      "constant": true,
      "inputs": [
        {
          "name": "",
          "type": "address"
        }
      ],
      "name": "EDSBalance",
      "outputs": [
        {
          "name": "",
          "type": "uint256"
        }
      ],
      "payable": false,
      "stateMutability": "view",
      "type": "function"
    },
    {
      "constant": true,
      "inputs": [],
      "name": "name",
      "outputs": [
        {
          "name": "",
          "type": "string"
        }
      ],
      "payable": false,
      "stateMutability": "view",
      "type": "function"
    },
    {
      "constant": true,
      "inputs": [
        {
          "name": "",
          "type": "address"
        }
      ],
      "name": "nEG",
      "outputs": [
        {
          "name": "",
          "type": "uint256"
        }
      ],
      "payable": false,
      "stateMutability": "view",
      "type": "function"
    },
    {
      "constant": true,
      "inputs": [],
      "name": "totalSupply",
      "outputs": [
        {
          "name": "",
          "type": "uint256"
        }
      ],
      "payable": false,
      "stateMutability": "view",
      "type": "function"
    },
    {
      "constant": true,
      "inputs": [],
      "name": "decimals",
      "outputs": [
        {
          "name": "",
          "type": "uint256"
        }
      ],
      "payable": false,
      "stateMutability": "view",
      "type": "function"
    },
    {
      "constant": true,
      "inputs": [
        {
          "name": "",
          "type": "address"
        }
      ],
      "name": "endorsees",
      "outputs": [
        {
          "name": "endorser",
          "type": "address"
        }
      ],
      "payable": false,
      "stateMutability": "view",
      "type": "function"
    },
    {
      "constant": true,
      "inputs": [
        {
          "name": "",
          "type": "address"
        }
      ],
      "name": "endorsers",
      "outputs": [
        {
          "name": "endorsee",
          "type": "address"
        },
        {
          "name": "nameEndorsee",
          "type": "string"
        },
        {
          "name": "usedPower",
          "type": "uint256"
        },
        {
          "name": "nEG",
          "type": "uint256"
        }
      ],
      "payable": false,
      "stateMutability": "view",
      "type": "function"
    },
    {
      "constant": true,
      "inputs": [
        {
          "name": "",
          "type": "uint256"
        }
      ],
      "name": "connections",
      "outputs": [
        {
          "name": "receivedFrom",
          "type": "address"
        }
      ],
      "payable": false,
      "stateMutability": "view",
      "type": "function"
    },
    {
      "constant": false,
      "inputs": [
        {
          "name": "_to",
          "type": "address"
        },
        {
          "name": "_value",
          "type": "uint256"
        }
      ],
      "name": "EDSTransfer",
      "outputs": [],
      "payable": false,
      "stateMutability": "nonpayable",
      "type": "function"
    },
    {
      "constant": true,
      "inputs": [
        {
          "name": "",
          "type": "address"
        }
      ],
      "name": "usedPower",
      "outputs": [
        {
          "name": "",
          "type": "uint256"
        }
      ],
      "payable": false,
      "stateMutability": "view",
      "type": "function"
    },
    {
      "constant": true,
      "inputs": [],
      "name": "symbol",
      "outputs": [
        {
          "name": "",
          "type": "string"
        }
      ],
      "payable": false,
      "stateMutability": "view",
      "type": "function"
    },
    {
      "constant": true,
      "inputs": [
        {
          "name": "",
          "type": "uint256"
        }
      ],
      "name": "trust",
      "outputs": [
        {
          "name": "user",
          "type": "address"
        },
        {
          "name": "ratio",
          "type": "uint256"
        },
        {
          "name": "usedPower",
          "type": "uint256"
        },
        {
          "name": "receivedEDS",
          "type": "uint256"
        },
        {
          "name": "impact",
          "type": "uint256"
        },
        {
          "name": "totalImpact",
          "type": "uint256"
        }
      ],
      "payable": false,
      "stateMutability": "view",
      "type": "function"
    },
    {
      "constant": true,
      "inputs": [
        {
          "name": "",
          "type": "address"
        }
      ],
      "name": "nER",
      "outputs": [
        {
          "name": "",
          "type": "uint256"
        }
      ],
      "payable": false,
      "stateMutability": "view",
      "type": "function"
    },
    {
      "constant": false,
      "inputs": [
        {
          "name": "initialSupply",
          "type": "uint256"
        },
        {
          "name": "tokenName",
          "type": "string"
        },
        {
          "name": "tokenSymbol",
          "type": "string"
        }
      ],
      "name": "myToken",
      "outputs": [],
      "payable": false,
      "stateMutability": "nonpayable",
      "type": "function"
    },
    {
      "constant": true,
      "inputs": [
        {
          "name": "",
          "type": "address"
        }
      ],
      "name": "RE",
      "outputs": [
        {
          "name": "",
          "type": "uint256"
        }
      ],
      "payable": false,
      "stateMutability": "view",
      "type": "function"
    },
    {
      "inputs": [],
      "payable": false,
      "stateMutability": "nonpayable",
      "type": "constructor"
    },
    {
      "anonymous": false,
      "inputs": [
        {
          "indexed": true,
          "name": "from",
          "type": "address"
        },
        {
          "indexed": true,
          "name": "to",
          "type": "address"
        },
        {
          "indexed": false,
          "name": "value",
          "type": "uint256"
        }
      ],
      "name": "edstransfer",
      "type": "event"
    },
    {
      "anonymous": false,
      "inputs": [
        {
          "indexed": true,
          "name": "from",
          "type": "address"
        },
        {
          "indexed": false,
          "name": "value",
          "type": "uint256"
        }
      ],
      "name": "Burn",
      "type": "event"
    },
    {
      "constant": false,
      "inputs": [],
      "name": "kill",
      "outputs": [],
      "payable": false,
      "stateMutability": "nonpayable",
      "type": "function"
    },
    {
      "constant": false,
      "inputs": [
        {
          "name": "_endorsee",
          "type": "address"
        },
        {
          "name": "_name",
          "type": "string"
        }
      ],
      "name": "sendEndorsement",
      "outputs": [],
      "payable": true,
      "stateMutability": "payable",
      "type": "function"
    },
    {
      "constant": true,
      "inputs": [
        {
          "name": "_user",
          "type": "address"
        }
      ],
      "name": "receivedEndorsement",
      "outputs": [],
      "payable": false,
      "stateMutability": "view",
      "type": "function"
    },
    {
      "constant": true,
      "inputs": [
        {
          "name": "_user",
          "type": "address"
        }
      ],
      "name": "computeTrust",
      "outputs": [
        {
          "name": "",
          "type": "uint256"
        }
      ],
      "payable": false,
      "stateMutability": "view",
      "type": "function"
    }
  ],
  "bytecode": "0x606060405234156200001057600080fd5b33600560006101000a81548173ffffffffffffffffffffffffffffffffffffffff021916908373ffffffffffffffffffffffffffffffffffffffff160217905550620000e0637d2b75006040805190810160405280600381526020017f45445300000000000000000000000000000000000000000000000000000000008152506040805190810160405280600181526020017f2500000000000000000000000000000000000000000000000000000000000000815250620000e6640100000000026200120d176401000000009004565b62000228565b6012600281905550600254600a0a8302600381905550600354600460003373ffffffffffffffffffffffffffffffffffffffff1673ffffffffffffffffffffffffffffffffffffffff1681526020019081526020016000208190555081600090805190602001906200015a92919062000179565b5080600190805190602001906200017392919062000179565b50505050565b828054600181600116156101000203166002900490600052602060002090601f016020900481019282601f10620001bc57805160ff1916838001178555620001ed565b82800160010185558215620001ed579182015b82811115620001ec578251825591602001919060010190620001cf565b5b509050620001fc919062000200565b5090565b6200022591905b808211156200022157600081600090555060010162000207565b5090565b90565b6115fe80620002386000396000f300606060405260043610610107576000357c0100000000000000000000000000000000000000000000000000000000900463ffffffff1680630410178d1461010c57806306fdde031461015957806312f36148146101e757806318160ddd14610234578063188d5d6c1461025d578063313ce5671461029657806331b3671d146102bf5780633515a20b146103385780633d06b9001461044857806341c0e1b5146104ab578063435aef1e146104c0578063641cf4bc1461050257806395d89b411461054f578063aa878c38146105dd578063ae100d081461064e578063c1443667146106d4578063df0a14cf14610721578063fcea8889146107ca578063fff2c08414610817575b600080fd5b341561011757600080fd5b610143600480803573ffffffffffffffffffffffffffffffffffffffff16906020019091905050610864565b6040518082815260200191505060405180910390f35b341561016457600080fd5b61016c61087c565b6040518080602001828103825283818151815260200191508051906020019080838360005b838110156101ac578082015181840152602081019050610191565b50505050905090810190601f1680156101d95780820380516001836020036101000a031916815260200191505b509250505060405180910390f35b34156101f257600080fd5b61021e600480803573ffffffffffffffffffffffffffffffffffffffff1690602001909190505061091a565b6040518082815260200191505060405180910390f35b341561023f57600080fd5b610247610932565b6040518082815260200191505060405180910390f35b341561026857600080fd5b610294600480803573ffffffffffffffffffffffffffffffffffffffff16906020019091905050610938565b005b34156102a157600080fd5b6102a961093b565b6040518082815260200191505060405180910390f35b34156102ca57600080fd5b6102f6600480803573ffffffffffffffffffffffffffffffffffffffff16906020019091905050610941565b604051808273ffffffffffffffffffffffffffffffffffffffff1673ffffffffffffffffffffffffffffffffffffffff16815260200191505060405180910390f35b341561034357600080fd5b61036f600480803573ffffffffffffffffffffffffffffffffffffffff1690602001909190505061097f565b604051808573ffffffffffffffffffffffffffffffffffffffff1673ffffffffffffffffffffffffffffffffffffffff168152602001806020018481526020018381526020018281038252858181546001816001161561010002031660029004815260200191508054600181600116156101000203166002900480156104365780601f1061040b57610100808354040283529160200191610436565b820191906000526020600020905b81548152906001019060200180831161041957829003601f168201915b50509550505050505060405180910390f35b341561045357600080fd5b61046960048080359060200190919050506109ce565b604051808273ffffffffffffffffffffffffffffffffffffffff1673ffffffffffffffffffffffffffffffffffffffff16815260200191505060405180910390f35b34156104b657600080fd5b6104be610a18565b005b34156104cb57600080fd5b610500600480803573ffffffffffffffffffffffffffffffffffffffff16906020019091908035906020019091905050610aaf565b005b341561050d57600080fd5b610539600480803573ffffffffffffffffffffffffffffffffffffffff16906020019091905050610b9b565b6040518082815260200191505060405180910390f35b341561055a57600080fd5b610562610bb3565b6040518080602001828103825283818151815260200191508051906020019080838360005b838110156105a2578082015181840152602081019050610587565b50505050905090810190601f1680156105cf5780820380516001836020036101000a031916815260200191505b509250505060405180910390f35b61064c600480803573ffffffffffffffffffffffffffffffffffffffff1690602001909190803590602001908201803590602001908080601f01602080910402602001604051908101604052809392919081815260200183838082843782019150505050505091905050610c51565b005b341561065957600080fd5b61066f600480803590602001909190505061118a565b604051808773ffffffffffffffffffffffffffffffffffffffff1673ffffffffffffffffffffffffffffffffffffffff168152602001868152602001858152602001848152602001838152602001828152602001965050505050505060405180910390f35b34156106df57600080fd5b61070b600480803573ffffffffffffffffffffffffffffffffffffffff169060200190919050506111f5565b6040518082815260200191505060405180910390f35b341561072c57600080fd5b6107c8600480803590602001909190803590602001908201803590602001908080601f0160208091040260200160405190810160405280939291908181526020018383808284378201915050505050509190803590602001908201803590602001908080601f0160208091040260200160405190810160405280939291908181526020018383808284378201915050505050509190505061120d565b005b34156107d557600080fd5b610801600480803573ffffffffffffffffffffffffffffffffffffffff1690602001909190505061129c565b6040518082815260200191505060405180910390f35b341561082257600080fd5b61084e600480803573ffffffffffffffffffffffffffffffffffffffff169060200190919050506112b4565b6040518082815260200191505060405180910390f35b60046020528060005260406000206000915090505481565b60008054600181600116156101000203166002900480601f0160208091040260200160405190810160405280929190818152602001828054600181600116156101000203166002900480156109125780601f106108e757610100808354040283529160200191610912565b820191906000526020600020905b8154815290600101906020018083116108f557829003601f168201915b505050505081565b600c6020528060005260406000206000915090505481565b60035481565b50565b60025481565b600b6020528060005260406000206000915090508060000160009054906101000a900473ffffffffffffffffffffffffffffffffffffffff16905081565b600a6020528060005260406000206000915090508060000160009054906101000a900473ffffffffffffffffffffffffffffffffffffffff169080600101908060020154908060030154905084565b6010818154811015156109dd57fe5b90600052602060002090016000915090508060000160009054906101000a900473ffffffffffffffffffffffffffffffffffffffff16905081565b600560009054906101000a900473ffffffffffffffffffffffffffffffffffffffff1673ffffffffffffffffffffffffffffffffffffffff163373ffffffffffffffffffffffffffffffffffffffff16141515610a7457600080fd5b600560009054906101000a900473ffffffffffffffffffffffffffffffffffffffff1673ffffffffffffffffffffffffffffffffffffffff16ff5b80600460003373ffffffffffffffffffffffffffffffffffffffff1673ffffffffffffffffffffffffffffffffffffffff1681526020019081526020016000205410151515610afd57600080fd5b80600460003373ffffffffffffffffffffffffffffffffffffffff1673ffffffffffffffffffffffffffffffffffffffff1681526020019081526020016000206000828254039250508190555080600460008473ffffffffffffffffffffffffffffffffffffffff1673ffffffffffffffffffffffffffffffffffffffff168152602001908152602001600020600082825401925050819055505050565b600e6020528060005260406000206000915090505481565b60018054600181600116156101000203166002900480601f016020809104026020016040519081016040528092919081815260200182805460018160011615610100020316600290048015610c495780601f10610c1e57610100808354040283529160200191610c49565b820191906000526020600020905b815481529060010190602001808311610c2c57829003601f168201915b505050505081565b6000808373ffffffffffffffffffffffffffffffffffffffff163373ffffffffffffffffffffffffffffffffffffffff1614151515610c8f57600080fd5b83600660006101000a81548173ffffffffffffffffffffffffffffffffffffffff021916908373ffffffffffffffffffffffffffffffffffffffff1602179055503391508260079080519060200190610ce99291906114ad565b506001600c60003373ffffffffffffffffffffffffffffffffffffffff1673ffffffffffffffffffffffffffffffffffffffff1681526020019081526020016000205401600c60003373ffffffffffffffffffffffffffffffffffffffff1673ffffffffffffffffffffffffffffffffffffffff16815260200190815260200160002081905550610dbc6001600c60003373ffffffffffffffffffffffffffffffffffffffff1673ffffffffffffffffffffffffffffffffffffffff16815260200190815260200160002054600961143c565b600e60003373ffffffffffffffffffffffffffffffffffffffff1673ffffffffffffffffffffffffffffffffffffffff16815260200190815260200160002081905550610e4b6001600c60003373ffffffffffffffffffffffffffffffffffffffff1673ffffffffffffffffffffffffffffffffffffffff16815260200190815260200160002054600961143c565b9050608060405190810160405280600660009054906101000a900473ffffffffffffffffffffffffffffffffffffffff1673ffffffffffffffffffffffffffffffffffffffff16815260200160078054600181600116156101000203166002900480601f016020809104026020016040519081016040528092919081815260200182805460018160011615610100020316600290048015610f2d5780601f10610f0257610100808354040283529160200191610f2d565b820191906000526020600020905b815481529060010190602001808311610f1057829003601f168201915b50505050508152602001828152602001600c60003373ffffffffffffffffffffffffffffffffffffffff1673ffffffffffffffffffffffffffffffffffffffff16815260200190815260200160002054815250600a60003373ffffffffffffffffffffffffffffffffffffffff1673ffffffffffffffffffffffffffffffffffffffff16815260200190815260200160002060008201518160000160006101000a81548173ffffffffffffffffffffffffffffffffffffffff021916908373ffffffffffffffffffffffffffffffffffffffff160217905550602082015181600101908051906020019061102292919061152d565b5060408201518160020155606082015181600301559050506001600d60008673ffffffffffffffffffffffffffffffffffffffff1673ffffffffffffffffffffffffffffffffffffffff1681526020019081526020016000205401600d60008673ffffffffffffffffffffffffffffffffffffffff1673ffffffffffffffffffffffffffffffffffffffff16815260200190815260200160002081905550600e60003373ffffffffffffffffffffffffffffffffffffffff1673ffffffffffffffffffffffffffffffffffffffff16815260200190815260200160002054600f60008673ffffffffffffffffffffffffffffffffffffffff1673ffffffffffffffffffffffffffffffffffffffff1681526020019081526020016000205401600f60008673ffffffffffffffffffffffffffffffffffffffff1673ffffffffffffffffffffffffffffffffffffffff1681526020019081526020016000208190555050505050565b60098181548110151561119957fe5b90600052602060002090600602016000915090508060000160009054906101000a900473ffffffffffffffffffffffffffffffffffffffff16908060010154908060020154908060030154908060040154908060050154905086565b600d6020528060005260406000206000915090505481565b6012600281905550600254600a0a8302600381905550600354600460003373ffffffffffffffffffffffffffffffffffffffff1673ffffffffffffffffffffffffffffffffffffffff16815260200190815260200160002081905550816000908051906020019061127f9291906114ad565b5080600190805190602001906112969291906114ad565b50505050565b600f6020528060005260406000206000915090505481565b60008060008060008593506001600c60008673ffffffffffffffffffffffffffffffffffffffff1673ffffffffffffffffffffffffffffffffffffffff168152602001908152602001600020541015151561130e57600080fd5b611396600c60008673ffffffffffffffffffffffffffffffffffffffff1673ffffffffffffffffffffffffffffffffffffffff16815260200190815260200160002054600d60008773ffffffffffffffffffffffffffffffffffffffff1673ffffffffffffffffffffffffffffffffffffffff16815260200190815260200160002054611475565b9250611420600c60008673ffffffffffffffffffffffffffffffffffffffff1673ffffffffffffffffffffffffffffffffffffffff16815260200190815260200160002054600d60008773ffffffffffffffffffffffffffffffffffffffff1673ffffffffffffffffffffffffffffffffffffffff16815260200190815260200160002054611491565b915061142e8383600961143c565b905080945050505050919050565b600080600060018401600a0a86029150600a6005868481151561145b57fe5b040181151561146657fe5b04905080925050509392505050565b6000818310156114875782905061148b565b8190505b92915050565b6000818310156114a3578190506114a7565b8290505b92915050565b828054600181600116156101000203166002900490600052602060002090601f016020900481019282601f106114ee57805160ff191683800117855561151c565b8280016001018555821561151c579182015b8281111561151b578251825591602001919060010190611500565b5b50905061152991906115ad565b5090565b828054600181600116156101000203166002900490600052602060002090601f016020900481019282601f1061156e57805160ff191683800117855561159c565b8280016001018555821561159c579182015b8281111561159b578251825591602001919060010190611580565b5b5090506115a991906115ad565b5090565b6115cf91905b808211156115cb5760008160009055506001016115b3565b5090565b905600a165627a7a7230582018a8d901eccf4045e6e2d3410ae27b5189c944474e9f274106642c291de382b70029",
  "source": "pragma solidity ^0.4.18;\n\nimport \"./EDSToken.sol\";\n\ncontract Endorsement is EDSToken {\n\n\t//owner\n\taddress owner;\n\n\tstruct Endorser { \n\t\t//uint id;\n\t\taddress endorsee;\n\t\tstring nameEndorsee;\n\t\tuint usedPower;\n\t\tuint nEG;\n\t//\tuint [] givenTo;\n\t}\n\n\tstruct Endorsee { \n\t\t//uint id;\n\t\t//string nameEndorser;\n\t\taddress endorser;\n\t//\tuint [] receivedFrom;\n\n\t}\n\n\tstruct Trust { \n\t\taddress user;\n\t\tuint ratio;\n\t\tuint usedPower;\n\t\tuint receivedEDS;\n\t\tuint impact;\n\t\tuint totalImpact;\n\t}\n\n\t//state variables\n\taddress endorsee;\n\tstring name;\n\tuint edsRecieved;\n\n\t//storage variables\n\tTrust [] public trust;\n\n\tmapping (address => Endorser ) public endorsers;\n\n\tmapping (address => Endorsee ) public endorsees;\n\n\tmapping (address => uint ) public nEG; //no. of eds given by a specific id\n\tmapping (address => uint ) public nER; //no. of eds received\n\tmapping (address => uint ) public usedPower;\n\tmapping (address => uint ) public RE;\n\n\t// modifiers\n\tmodifier onlyOwner() { \n\t\trequire(msg.sender == owner );\n\t\t_;\n\t}\n\n\n\t//constructor\n\tfunction Endorsement() public { \n\t\t//EDSToken( );\n\t\towner = msg.sender;\n\t\tmyToken(2100000000, \"EDS\", \"%\" );\n\n\t}\n\n\n\t//deactivate the contract\n\tfunction kill() public onlyOwner { \n\t\tselfdestruct(owner);\n\t}\n\n\t//EDSToken (2100000, \"EDS\", \"%\" );\n\n\tstruct TrackConnection { \n\t\t//address givenTo;\n\t\taddress receivedFrom;\n\t}\n\n\tTrackConnection [] public connections; \n\n\tmapping (address => TrackConnection ) hasReceivedFrom; \n\t\n\t//mapping (address =>  ) endorsers;\n\n//\tmapping (address => trackConnection ) To;\n//\tmapping (address => receivedFrom[] ) From; \n\n\n\n\t// send endorsement\n\tfunction sendEndorsement(address _endorsee, string _name) public payable { \n\t\t//cannot self endorse\n\t\trequire (msg.sender != _endorsee );\n\t\t\n\t\tendorsee = _endorsee;\n\t\taddress endorser = msg.sender;\n\t\tname = _name;\n\t\tnEG[ msg.sender ] = nEG[ msg.sender ] + 1 ;\n\t\tusedPower[msg.sender] = Division(1, (nEG[msg.sender ]), 9);\n\t\tuint uP = Division(1, nEG[msg.sender],9 );\n\n\t\tendorsers[msg.sender ] = Endorser({\n\t\t\tendorsee: endorsee,\n\t\t\tnameEndorsee: name,\n\t\t\tusedPower: uP,\n\t\t\tnEG: nEG[msg.sender]\n\t\t});\n\n\t\tnER[ _endorsee] = nER[ _endorsee] + 1;\n\t\tRE[_endorsee] = RE[_endorsee] + usedPower[msg.sender];\n\n//\t\tTrackConnection memory newConnections = TrackConnection({\n//\t\t\tgivenTo: endorsee,\n//\t\t\treceivedFrom: endorser \n//\t\t});\n//\n//\t\tconnections.push(newConnections );\n\t}\n\n\tfunction receivedEndorsement( address _user ) public view { \n\t\t//usedPower(address from where _user has received + all addresses from where its received)\n\t\t//loop until the length of array and sum all elements\n\t\t//hasReceivedFrom \n\n\t}\n\n//\tfunction ReceivedEDS ( address _user) public returns (uint _RE ) {\n\t\t//for i in list  of endorsees of user, \n\t\t//get the used power of each of them and add all together.\n\n\n//\t}\n\t\n\t//some helper functions for calculations\n\n\tfunction Division( uint _numerator, uint _denominator, uint _precision) internal pure returns (uint _quotient) {\n\t\tuint numerator = _numerator * 10 ** (_precision + 1);\n\t\tuint quotient = ((numerator / _denominator) + 5  ) / 10;\n\n\t\treturn (quotient);\t\t\n\t}\n\n\tfunction max (uint x, uint y ) internal pure returns (uint) {\n\t\tif (x < y) {\n\t\t\treturn y;\n\t\t} else  {  \n\t\t\treturn x;\n\t\t}\n\t}\n\n\tfunction min (uint x, uint y ) internal pure returns (uint) { \n\t\tif (x < y) { \n\t\t\treturn x;\n\t\t} else {\n\t\t\treturn y;\n\t\t}\n\t}\n\n\t//compute trust score\n\t//supports decimal upto 9 place\n\t//can convert to decimal by dividing all values with 1e9 and get the exact score on \n\t//client side\n\tfunction computeTrust( address _user) public view returns (uint) { \n\t\taddress user = _user;\n\t\trequire (nEG[user] >= 1 );\n\t\tuint temp1 = (min(nEG[user], nER[user]));\n\t\tuint temp2 = (max(nEG[user], nER[user]));\n\t\tuint ratio = Division( temp1, temp2, 9 );\n\n\t\treturn ratio;\n\t\t//uint  \n\t\t\n\t\t//return usedPower;\n\t\t//ratio = Division( ( nEG[  _user] ), ( nER[ _user ] ), 9 );\n\t\t//usedPower = Division(1, (nEG[_user ]), 9 );\n\t\t//receivedEDS = ReceivedEDS( _user );\n\t\t//totalImpact = ratio  up  RE;  \n\n\t}\n\n}\n\n\n\n\n\n\n\n\n\n\n\n\n\n\n\n\n\n\n\n\n\n\n\n\n",
  "sourcePath": "/home/sujata/Documents/Masters-Thesis/endorsements/contracts/Endorsement.sol",
  "compiler": {
    "name": "solc",
    "version": "0.4.19+commit.c4cbbb05.Emscripten.clang"
  },
  "schemaVersion": "2.0.0",
  "updatedAt": "2018-04-05T13:03:03.209Z"
}