{
  "contractName": "Endorsement",
  "abi": [
    {
      "constant": true,
      "inputs": [
        {
          "name": "",
          "type": "address"
        }
      ],
      "name": "EDSBalance",
      "outputs": [
        {
          "name": "",
          "type": "uint256"
        }
      ],
      "payable": false,
      "stateMutability": "view",
      "type": "function"
    },
    {
      "constant": true,
      "inputs": [],
      "name": "name",
      "outputs": [
        {
          "name": "",
          "type": "string"
        }
      ],
      "payable": false,
      "stateMutability": "view",
      "type": "function"
    },
    {
      "constant": true,
      "inputs": [
        {
          "name": "",
          "type": "address"
        }
      ],
      "name": "nEG",
      "outputs": [
        {
          "name": "",
          "type": "uint256"
        }
      ],
      "payable": false,
      "stateMutability": "view",
      "type": "function"
    },
    {
      "constant": true,
      "inputs": [],
      "name": "totalSupply",
      "outputs": [
        {
          "name": "",
          "type": "uint256"
        }
      ],
      "payable": false,
      "stateMutability": "view",
      "type": "function"
    },
    {
      "constant": true,
      "inputs": [],
      "name": "decimals",
      "outputs": [
        {
          "name": "",
          "type": "uint256"
        }
      ],
      "payable": false,
      "stateMutability": "view",
      "type": "function"
    },
    {
      "constant": true,
      "inputs": [
        {
          "name": "",
          "type": "address"
        }
      ],
      "name": "endorsees",
      "outputs": [
        {
          "name": "id",
          "type": "uint256"
        },
        {
          "name": "nameEndorser",
          "type": "string"
        },
        {
          "name": "endorsee",
          "type": "address"
        },
        {
          "name": "endorsers",
          "type": "address"
        }
      ],
      "payable": false,
      "stateMutability": "view",
      "type": "function"
    },
    {
      "constant": true,
      "inputs": [
        {
          "name": "",
          "type": "address"
        }
      ],
      "name": "endorsers",
      "outputs": [
        {
          "name": "endorsee",
          "type": "address"
        },
        {
          "name": "nameEndorsee",
          "type": "string"
        }
      ],
      "payable": false,
      "stateMutability": "view",
      "type": "function"
    },
    {
      "constant": false,
      "inputs": [
        {
          "name": "_to",
          "type": "address"
        },
        {
          "name": "_value",
          "type": "uint256"
        }
      ],
      "name": "EDSTransfer",
      "outputs": [],
      "payable": false,
      "stateMutability": "nonpayable",
      "type": "function"
    },
    {
      "constant": true,
      "inputs": [
        {
          "name": "",
          "type": "address"
        }
      ],
      "name": "trustScore",
      "outputs": [
        {
          "name": "",
          "type": "uint256"
        }
      ],
      "payable": false,
      "stateMutability": "view",
      "type": "function"
    },
    {
      "constant": true,
      "inputs": [],
      "name": "symbol",
      "outputs": [
        {
          "name": "",
          "type": "string"
        }
      ],
      "payable": false,
      "stateMutability": "view",
      "type": "function"
    },
    {
      "constant": true,
      "inputs": [
        {
          "name": "",
          "type": "uint256"
        }
      ],
      "name": "trust",
      "outputs": [
        {
          "name": "user",
          "type": "address"
        },
        {
          "name": "usedPower",
          "type": "uint256"
        },
        {
          "name": "impact",
          "type": "uint256"
        },
        {
          "name": "totalImpact",
          "type": "uint256"
        }
      ],
      "payable": false,
      "stateMutability": "view",
      "type": "function"
    },
    {
      "constant": false,
      "inputs": [
        {
          "name": "_to",
          "type": "address"
        }
      ],
      "name": "withdrawEDS",
      "outputs": [],
      "payable": false,
      "stateMutability": "nonpayable",
      "type": "function"
    },
    {
      "constant": true,
      "inputs": [
        {
          "name": "",
          "type": "address"
        }
      ],
      "name": "nER",
      "outputs": [
        {
          "name": "",
          "type": "uint256"
        }
      ],
      "payable": false,
      "stateMutability": "view",
      "type": "function"
    },
    {
      "constant": false,
      "inputs": [
        {
          "name": "initialSupply",
          "type": "uint256"
        },
        {
          "name": "tokenName",
          "type": "string"
        },
        {
          "name": "tokenSymbol",
          "type": "string"
        }
      ],
      "name": "myToken",
      "outputs": [],
      "payable": false,
      "stateMutability": "nonpayable",
      "type": "function"
    },
    {
      "inputs": [],
      "payable": false,
      "stateMutability": "nonpayable",
      "type": "constructor"
    },
    {
      "anonymous": false,
      "inputs": [
        {
          "indexed": true,
          "name": "from",
          "type": "address"
        },
        {
          "indexed": true,
          "name": "to",
          "type": "address"
        },
        {
          "indexed": false,
          "name": "value",
          "type": "uint256"
        }
      ],
      "name": "edstransfer",
      "type": "event"
    },
    {
      "anonymous": false,
      "inputs": [
        {
          "indexed": true,
          "name": "from",
          "type": "address"
        },
        {
          "indexed": false,
          "name": "value",
          "type": "uint256"
        }
      ],
      "name": "Burn",
      "type": "event"
    },
    {
      "constant": false,
      "inputs": [],
      "name": "kill",
      "outputs": [],
      "payable": false,
      "stateMutability": "nonpayable",
      "type": "function"
    },
    {
      "constant": false,
      "inputs": [
        {
          "name": "_endorsee",
          "type": "address"
        },
        {
          "name": "_name",
          "type": "string"
        }
      ],
      "name": "sendEndorsement",
      "outputs": [],
      "payable": true,
      "stateMutability": "payable",
      "type": "function"
    },
    {
      "constant": true,
      "inputs": [
        {
          "name": "_numerator",
          "type": "uint256"
        },
        {
          "name": "_denominator",
          "type": "uint256"
        },
        {
          "name": "_precision",
          "type": "uint256"
        }
      ],
      "name": "Division",
      "outputs": [
        {
          "name": "_quotient",
          "type": "uint256"
        }
      ],
      "payable": false,
      "stateMutability": "view",
      "type": "function"
    },
    {
      "constant": false,
      "inputs": [
        {
          "name": "_user",
          "type": "address"
        }
      ],
      "name": "computeTrust",
      "outputs": [],
      "payable": false,
      "stateMutability": "nonpayable",
      "type": "function"
    }
  ],
  "bytecode": "0x606060405234156200001057600080fd5b33600560006101000a81548173ffffffffffffffffffffffffffffffffffffffff021916908373ffffffffffffffffffffffffffffffffffffffff160217905550620000e0637d2b75006040805190810160405280600381526020017f45445300000000000000000000000000000000000000000000000000000000008152506040805190810160405280600181526020017f2500000000000000000000000000000000000000000000000000000000000000815250620000e6640100000000026200110e176401000000009004565b62000228565b6012600281905550600254600a0a8302600381905550600354600460003373ffffffffffffffffffffffffffffffffffffffff1673ffffffffffffffffffffffffffffffffffffffff1681526020019081526020016000208190555081600090805190602001906200015a92919062000179565b5080600190805190602001906200017392919062000179565b50505050565b828054600181600116156101000203166002900490600052602060002090601f016020900481019282601f10620001bc57805160ff1916838001178555620001ed565b82800160010185558215620001ed579182015b82811115620001ec578251825591602001919060010190620001cf565b5b509050620001fc919062000200565b5090565b6200022591905b808211156200022157600081600090555060010162000207565b5090565b90565b6112f180620002386000396000f3006060604052600436106100fc576000357c0100000000000000000000000000000000000000000000000000000000900463ffffffff1680630410178d1461010157806306fdde031461014e57806312f36148146101dc57806318160ddd14610229578063313ce5671461025257806331b3671d1461027b5780633515a20b146103b757806341c0e1b5146104b9578063435aef1e146104ce578063534a84651461051057806395d89b411461055d578063aa878c38146105eb578063ae100d081461065c578063b34d8024146106d4578063c14436671461070d578063d8ef84f71461075a578063df0a14cf146107a3578063fff2c0841461084c575b600080fd5b341561010c57600080fd5b610138600480803573ffffffffffffffffffffffffffffffffffffffff16906020019091905050610885565b6040518082815260200191505060405180910390f35b341561015957600080fd5b61016161089d565b6040518080602001828103825283818151815260200191508051906020019080838360005b838110156101a1578082015181840152602081019050610186565b50505050905090810190601f1680156101ce5780820380516001836020036101000a031916815260200191505b509250505060405180910390f35b34156101e757600080fd5b610213600480803573ffffffffffffffffffffffffffffffffffffffff1690602001909190505061093b565b6040518082815260200191505060405180910390f35b341561023457600080fd5b61023c610953565b6040518082815260200191505060405180910390f35b341561025d57600080fd5b610265610959565b6040518082815260200191505060405180910390f35b341561028657600080fd5b6102b2600480803573ffffffffffffffffffffffffffffffffffffffff1690602001909190505061095f565b60405180858152602001806020018473ffffffffffffffffffffffffffffffffffffffff1673ffffffffffffffffffffffffffffffffffffffff1681526020018373ffffffffffffffffffffffffffffffffffffffff1673ffffffffffffffffffffffffffffffffffffffff1681526020018281038252858181546001816001161561010002031660029004815260200191508054600181600116156101000203166002900480156103a55780601f1061037a576101008083540402835291602001916103a5565b820191906000526020600020905b81548152906001019060200180831161038857829003601f168201915b50509550505050505060405180910390f35b34156103c257600080fd5b6103ee600480803573ffffffffffffffffffffffffffffffffffffffff169060200190919050506109ce565b604051808373ffffffffffffffffffffffffffffffffffffffff1673ffffffffffffffffffffffffffffffffffffffff168152602001806020018281038252838181546001816001161561010002031660029004815260200191508054600181600116156101000203166002900480156104a95780601f1061047e576101008083540402835291602001916104a9565b820191906000526020600020905b81548152906001019060200180831161048c57829003601f168201915b5050935050505060405180910390f35b34156104c457600080fd5b6104cc610a11565b005b34156104d957600080fd5b61050e600480803573ffffffffffffffffffffffffffffffffffffffff16906020019091908035906020019091905050610aa8565b005b341561051b57600080fd5b610547600480803573ffffffffffffffffffffffffffffffffffffffff16906020019091905050610b94565b6040518082815260200191505060405180910390f35b341561056857600080fd5b610570610bac565b6040518080602001828103825283818151815260200191508051906020019080838360005b838110156105b0578082015181840152602081019050610595565b50505050905090810190601f1680156105dd5780820380516001836020036101000a031916815260200191505b509250505060405180910390f35b61065a600480803573ffffffffffffffffffffffffffffffffffffffff1690602001909190803590602001908201803590602001908080601f01602080910402602001604051908101604052809392919081815260200183838082843782019150505050505091905050610c4a565b005b341561066757600080fd5b61067d6004808035906020019091905050610fbe565b604051808573ffffffffffffffffffffffffffffffffffffffff1673ffffffffffffffffffffffffffffffffffffffff16815260200184815260200183815260200182815260200194505050505060405180910390f35b34156106df57600080fd5b61070b600480803573ffffffffffffffffffffffffffffffffffffffff1690602001909190505061101d565b005b341561071857600080fd5b610744600480803573ffffffffffffffffffffffffffffffffffffffff169060200190919050506110bd565b6040518082815260200191505060405180910390f35b341561076557600080fd5b61078d60048080359060200190919080359060200190919080359060200190919050506110d5565b6040518082815260200191505060405180910390f35b34156107ae57600080fd5b61084a600480803590602001909190803590602001908201803590602001908080601f0160208091040260200160405190810160405280939291908181526020018383808284378201915050505050509190803590602001908201803590602001908080601f0160208091040260200160405190810160405280939291908181526020018383808284378201915050505050509190505061110e565b005b341561085757600080fd5b610883600480803573ffffffffffffffffffffffffffffffffffffffff1690602001909190505061119d565b005b60046020528060005260406000206000915090505481565b60008054600181600116156101000203166002900480601f0160208091040260200160405190810160405280929190818152602001828054600181600116156101000203166002900480156109335780601f1061090857610100808354040283529160200191610933565b820191906000526020600020905b81548152906001019060200180831161091657829003601f168201915b505050505081565b600c6020528060005260406000206000915090505481565b60035481565b60025481565b600b60205280600052604060002060009150905080600001549080600101908060020160009054906101000a900473ffffffffffffffffffffffffffffffffffffffff16908060030160009054906101000a900473ffffffffffffffffffffffffffffffffffffffff16905084565b600a6020528060005260406000206000915090508060000160009054906101000a900473ffffffffffffffffffffffffffffffffffffffff169080600101905082565b600560009054906101000a900473ffffffffffffffffffffffffffffffffffffffff1673ffffffffffffffffffffffffffffffffffffffff163373ffffffffffffffffffffffffffffffffffffffff16141515610a6d57600080fd5b600560009054906101000a900473ffffffffffffffffffffffffffffffffffffffff1673ffffffffffffffffffffffffffffffffffffffff16ff5b80600460003373ffffffffffffffffffffffffffffffffffffffff1673ffffffffffffffffffffffffffffffffffffffff1681526020019081526020016000205410151515610af657600080fd5b80600460003373ffffffffffffffffffffffffffffffffffffffff1673ffffffffffffffffffffffffffffffffffffffff1681526020019081526020016000206000828254039250508190555080600460008473ffffffffffffffffffffffffffffffffffffffff1673ffffffffffffffffffffffffffffffffffffffff168152602001908152602001600020600082825401925050819055505050565b600e6020528060005260406000206000915090505481565b60018054600181600116156101000203166002900480601f016020809104026020016040519081016040528092919081815260200182805460018160011615610100020316600290048015610c425780601f10610c1757610100808354040283529160200191610c42565b820191906000526020600020905b815481529060010190602001808311610c2557829003601f168201915b505050505081565b8173ffffffffffffffffffffffffffffffffffffffff163373ffffffffffffffffffffffffffffffffffffffff1614151515610c8557600080fd5b81600660006101000a81548173ffffffffffffffffffffffffffffffffffffffff021916908373ffffffffffffffffffffffffffffffffffffffff1602179055508060079080519060200190610cdc9291906111a0565b506001600c60003373ffffffffffffffffffffffffffffffffffffffff1673ffffffffffffffffffffffffffffffffffffffff1681526020019081526020016000205401600c60003373ffffffffffffffffffffffffffffffffffffffff1673ffffffffffffffffffffffffffffffffffffffff168152602001908152602001600020819055506040805190810160405280600660009054906101000a900473ffffffffffffffffffffffffffffffffffffffff1673ffffffffffffffffffffffffffffffffffffffff16815260200160078054600181600116156101000203166002900480601f016020809104026020016040519081016040528092919081815260200182805460018160011615610100020316600290048015610e425780601f10610e1757610100808354040283529160200191610e42565b820191906000526020600020905b815481529060010190602001808311610e2557829003601f168201915b5050505050815250600a60003373ffffffffffffffffffffffffffffffffffffffff1673ffffffffffffffffffffffffffffffffffffffff16815260200190815260200160002060008201518160000160006101000a81548173ffffffffffffffffffffffffffffffffffffffff021916908373ffffffffffffffffffffffffffffffffffffffff1602179055506020820151816001019080519060200190610eec929190611220565b509050506001600d6000600660009054906101000a900473ffffffffffffffffffffffffffffffffffffffff1673ffffffffffffffffffffffffffffffffffffffff1673ffffffffffffffffffffffffffffffffffffffff1681526020019081526020016000205401600d6000600660009054906101000a900473ffffffffffffffffffffffffffffffffffffffff1673ffffffffffffffffffffffffffffffffffffffff1673ffffffffffffffffffffffffffffffffffffffff168152602001908152602001600020819055505050565b600981815481101515610fcd57fe5b90600052602060002090600402016000915090508060000160009054906101000a900473ffffffffffffffffffffffffffffffffffffffff16908060010154908060020154908060030154905084565b6000600460003373ffffffffffffffffffffffffffffffffffffffff1673ffffffffffffffffffffffffffffffffffffffff1681526020019081526020016000205414151561106b57600080fd5b61012c600460003373ffffffffffffffffffffffffffffffffffffffff1673ffffffffffffffffffffffffffffffffffffffff1681526020019081526020016000206000828254019250508190555050565b600d6020528060005260406000206000915090505481565b600080600060018401600a0a86029150600a600586848115156110f457fe5b04018115156110ff57fe5b04905080925050509392505050565b6012600281905550600254600a0a8302600381905550600354600460003373ffffffffffffffffffffffffffffffffffffffff1673ffffffffffffffffffffffffffffffffffffffff1681526020019081526020016000208190555081600090805190602001906111809291906111a0565b5080600190805190602001906111979291906111a0565b50505050565b50565b828054600181600116156101000203166002900490600052602060002090601f016020900481019282601f106111e157805160ff191683800117855561120f565b8280016001018555821561120f579182015b8281111561120e5782518255916020019190600101906111f3565b5b50905061121c91906112a0565b5090565b828054600181600116156101000203166002900490600052602060002090601f016020900481019282601f1061126157805160ff191683800117855561128f565b8280016001018555821561128f579182015b8281111561128e578251825591602001919060010190611273565b5b50905061129c91906112a0565b5090565b6112c291905b808211156112be5760008160009055506001016112a6565b5090565b905600a165627a7a7230582007d9079d5a837ac97aa310920f02a606e8dcd0d5d3f089e37f9c2819da160b850029",
  "source": "pragma solidity ^0.4.18;\n\nimport \"./EDSToken.sol\";\n\ncontract Endorsement is EDSToken {\n\n\t//owner\n\taddress owner;\n\n\tstruct Endorser { \n\t\t//uint id;\n\t\taddress endorsee;\n\t\tstring nameEndorsee;\n\t\t//uint nER;\n//\t\tuint nEG;\n//\t\tuint nER;\n\t}\n\n\tstruct Endorsee { \n\t\tuint id;\n\t\tstring nameEndorser;\n\t\taddress endorsee;\n\t\taddress endorsers;\n//\t\tuint nEG;\n//\t\tuint nER;\n\t}\n\n\tstruct Trust { \n\t\taddress user;\n\t\tuint usedPower;\n\t\tuint impact;\n\t\tuint totalImpact;\n\t}\n\n\t//state variables\n\taddress endorsee;\n\tstring name;\n\tuint edsRecieved;\n\n\t//storage variables\n\tTrust [] public trust;\n\n\tmapping (address => Endorser ) public endorsers;\n\n\tmapping (address => Endorsee ) public endorsees;\n\n\tmapping (address => uint ) public nEG; //no. of eds given by a specific id\n\tmapping (address => uint ) public nER; //no. of eds received\n\tmapping (address => uint ) public trustScore; // total impact\n\n\t// modifiers\n\tmodifier onlyOwner( ) { \n\t\trequire(msg.sender == owner );\n\t\t_;\n\t}\n\n\n\t//constructor\n\tfunction Endorsement() public { \n\t\t//EDSToken( );\n\t\towner = msg.sender;\n\t\tmyToken(2100000000, \"EDS\", \"%\" );\n\n\t}\n\n\n\t//deactivate the contract\n\tfunction kill() public onlyOwner { \n\t\tselfdestruct(owner);\n\t}\n\n\t//EDSToken (2100000, \"EDS\", \"%\" );\n\n\n\t// send endorsement\n\tfunction sendEndorsement(address _endorsee, string _name) public payable { \n\t\t//cannot self endorse\n\t\trequire (msg.sender != _endorsee );\n\t\t\n\t\tendorsee = _endorsee;\n\t\tname = _name;\n\t\tnEG[ msg.sender ] = nEG[ msg.sender ] + 1 ;\n\n\t\tendorsers[msg.sender ] = Endorser({\n\t\t\tendorsee: endorsee,\n\t\t\tnameEndorsee: name\n\t\t\t//nER: \n\t\t});\n\n//\t\tif (nEG [msg.sender] == 1) { \n//\t\t\tEDSTransfer(msg.sender, 300 );\n//\t\t} \n\n\n\t\t//EDSTransfer ( msg.sender, 100 );\n\t\tnER[endorsee ] = nER[endorsee ] + 1;\n\n\t}\n\n\tfunction Division( uint _numerator, uint _denominator, uint _precision) public constant returns (uint _quotient) {\n\t\tuint numerator = _numerator * 10 ** (_precision + 1);\n\t\tuint quotient = ((numerator / _denominator) + 5  ) / 10;\n\n\t\treturn (quotient);\t\t\n\t}\n\n\t//compute trust score\n\tfunction computeTrust ( address _user ) { \n\t\t//nEG\n\t}\n\n}\n\n\n\n\n\n\n\n\n\n\n\n\n\n\n\n\n\n\n\n\n\n\n\n\n",
  "sourcePath": "/home/sujata/Documents/Masters-Thesis/endorsements/contracts/Endorsement.sol",
  "compiler": {
    "name": "solc",
    "version": "0.4.19+commit.c4cbbb05.Emscripten.clang"
  },
  "schemaVersion": "2.0.0",
  "updatedAt": "2018-04-04T11:00:54.854Z"
}