{
  "contractName": "Endorsement",
  "abi": [
    {
      "constant": true,
      "inputs": [
        {
          "name": "",
          "type": "uint256"
        }
      ],
      "name": "participants",
      "outputs": [
        {
          "name": "identifier",
          "type": "address"
        },
        {
          "name": "name",
          "type": "string"
        }
      ],
      "payable": false,
      "stateMutability": "view",
      "type": "function"
    },
    {
      "constant": true,
      "inputs": [
        {
          "name": "",
          "type": "uint256"
        }
      ],
      "name": "endorserAccts",
      "outputs": [
        {
          "name": "",
          "type": "address"
        }
      ],
      "payable": false,
      "stateMutability": "view",
      "type": "function"
    },
    {
      "constant": true,
      "inputs": [
        {
          "name": "",
          "type": "uint256"
        }
      ],
      "name": "endorseeAccts",
      "outputs": [
        {
          "name": "",
          "type": "address"
        }
      ],
      "payable": false,
      "stateMutability": "view",
      "type": "function"
    },
    {
      "inputs": [],
      "payable": false,
      "stateMutability": "nonpayable",
      "type": "constructor"
    },
    {
      "anonymous": false,
      "inputs": [
        {
          "indexed": false,
          "name": "_participant",
          "type": "address"
        },
        {
          "indexed": false,
          "name": "_name",
          "type": "string"
        }
      ],
      "name": "LogJoinNetwork",
      "type": "event"
    },
    {
      "anonymous": false,
      "inputs": [
        {
          "indexed": false,
          "name": "_endorser",
          "type": "address"
        },
        {
          "indexed": false,
          "name": "_endorsee",
          "type": "address"
        }
      ],
      "name": "LogEndorse",
      "type": "event"
    },
    {
      "constant": false,
      "inputs": [
        {
          "name": "_userName",
          "type": "string"
        }
      ],
      "name": "joinNetwork",
      "outputs": [],
      "payable": false,
      "stateMutability": "nonpayable",
      "type": "function"
    },
    {
      "constant": false,
      "inputs": [
        {
          "name": "_index",
          "type": "uint256"
        }
      ],
      "name": "endorse",
      "outputs": [],
      "payable": false,
      "stateMutability": "nonpayable",
      "type": "function"
    },
    {
      "constant": false,
      "inputs": [
        {
          "name": "_endorsee",
          "type": "address"
        }
      ],
      "name": "removeEndorsement",
      "outputs": [
        {
          "name": "",
          "type": "uint256"
        }
      ],
      "payable": false,
      "stateMutability": "nonpayable",
      "type": "function"
    },
    {
      "constant": true,
      "inputs": [
        {
          "name": "_endorsee",
          "type": "address"
        }
      ],
      "name": "computeReceivedPoints",
      "outputs": [
        {
          "name": "",
          "type": "uint256"
        }
      ],
      "payable": false,
      "stateMutability": "view",
      "type": "function"
    },
    {
      "constant": true,
      "inputs": [
        {
          "name": "_participant",
          "type": "address"
        }
      ],
      "name": "computeImpact",
      "outputs": [
        {
          "name": "",
          "type": "uint256"
        }
      ],
      "payable": false,
      "stateMutability": "view",
      "type": "function"
    },
    {
      "constant": true,
      "inputs": [
        {
          "name": "_participant",
          "type": "address"
        }
      ],
      "name": "getProfile",
      "outputs": [
        {
          "name": "",
          "type": "uint256"
        }
      ],
      "payable": false,
      "stateMutability": "view",
      "type": "function"
    },
    {
      "constant": true,
      "inputs": [],
      "name": "getEndorsers",
      "outputs": [
        {
          "name": "",
          "type": "address[]"
        }
      ],
      "payable": false,
      "stateMutability": "view",
      "type": "function"
    },
    {
      "constant": true,
      "inputs": [
        {
          "name": "_endorser",
          "type": "address"
        }
      ],
      "name": "getUsedPower",
      "outputs": [
        {
          "name": "",
          "type": "uint256"
        }
      ],
      "payable": false,
      "stateMutability": "view",
      "type": "function"
    },
    {
      "constant": true,
      "inputs": [
        {
          "name": "_endorser",
          "type": "address"
        }
      ],
      "name": "getGivenTo",
      "outputs": [
        {
          "name": "",
          "type": "address[]"
        }
      ],
      "payable": false,
      "stateMutability": "view",
      "type": "function"
    },
    {
      "constant": true,
      "inputs": [
        {
          "name": "_endorser",
          "type": "address"
        },
        {
          "name": "_endorsee",
          "type": "address"
        }
      ],
      "name": "gethasGivenTo",
      "outputs": [
        {
          "name": "",
          "type": "bool"
        }
      ],
      "payable": false,
      "stateMutability": "view",
      "type": "function"
    },
    {
      "constant": true,
      "inputs": [],
      "name": "getEndorsees",
      "outputs": [
        {
          "name": "",
          "type": "address[]"
        }
      ],
      "payable": false,
      "stateMutability": "view",
      "type": "function"
    },
    {
      "constant": true,
      "inputs": [
        {
          "name": "_endorsee",
          "type": "address"
        }
      ],
      "name": "getReceivedFrom",
      "outputs": [
        {
          "name": "",
          "type": "address[]"
        }
      ],
      "payable": false,
      "stateMutability": "view",
      "type": "function"
    },
    {
      "constant": true,
      "inputs": [
        {
          "name": "_endorser",
          "type": "address"
        },
        {
          "name": "_endorsee",
          "type": "address"
        }
      ],
      "name": "gethasReceivedFrom",
      "outputs": [
        {
          "name": "",
          "type": "bool"
        }
      ],
      "payable": false,
      "stateMutability": "view",
      "type": "function"
    }
  ],
  "bytecode": "0x6060604052341561000f57600080fd5b336000806101000a81548173ffffffffffffffffffffffffffffffffffffffff021916908373ffffffffffffffffffffffffffffffffffffffff160217905550611b3a8061005e6000396000f3006060604052600436106100e6576000357c0100000000000000000000000000000000000000000000000000000000900463ffffffff1680630f53a470146100eb5780631fcfe3eb1461013857806320b2e1cf1461015b5780632dd59bd1146101a8578063308d8032146101f557806335c1d349146102525780634c070ced1461033e57806376f7534d146103cc57806388e2eed5146104195780638eb467cd14610483578063c253c25c146104f3578063c386a95f1461055d578063c4ec4b75146105c0578063d55a6ac41461060d578063e2d7493214610670578063e4ff3df1146106e0575b600080fd5b34156100f657600080fd5b610122600480803573ffffffffffffffffffffffffffffffffffffffff1690602001909190505061076e565b6040518082815260200191505060405180910390f35b341561014357600080fd5b61015960048080359060200190919050506107cf565b005b341561016657600080fd5b610192600480803573ffffffffffffffffffffffffffffffffffffffff16906020019091905050610b5e565b6040518082815260200191505060405180910390f35b34156101b357600080fd5b6101df600480803573ffffffffffffffffffffffffffffffffffffffff16906020019091905050610d64565b6040518082815260200191505060405180910390f35b341561020057600080fd5b610250600480803590602001908201803590602001908080601f01602080910402602001604051908101604052809392919081815260200183838082843782019150505050505091905050610db0565b005b341561025d57600080fd5b610273600480803590602001909190505061100d565b604051808373ffffffffffffffffffffffffffffffffffffffff1673ffffffffffffffffffffffffffffffffffffffff1681526020018060200182810382528381815460018160011615610100020316600290048152602001915080546001816001161561010002031660029004801561032e5780601f106103035761010080835404028352916020019161032e565b820191906000526020600020905b81548152906001019060200180831161031157829003601f168201915b5050935050505060405180910390f35b341561034957600080fd5b610375600480803573ffffffffffffffffffffffffffffffffffffffff1690602001909190505061105f565b6040518080602001828103825283818151815260200191508051906020019060200280838360005b838110156103b857808201518184015260208101905061039d565b505050509050019250505060405180910390f35b34156103d757600080fd5b610403600480803573ffffffffffffffffffffffffffffffffffffffff16906020019091905050611135565b6040518082815260200191505060405180910390f35b341561042457600080fd5b61042c6111d1565b6040518080602001828103825283818151815260200191508051906020019060200280838360005b8381101561046f578082015181840152602081019050610454565b505050509050019250505060405180910390f35b341561048e57600080fd5b6104d9600480803573ffffffffffffffffffffffffffffffffffffffff1690602001909190803573ffffffffffffffffffffffffffffffffffffffff16906020019091905050611265565b604051808215151515815260200191505060405180910390f35b34156104fe57600080fd5b6105066112fc565b6040518080602001828103825283818151815260200191508051906020019060200280838360005b8381101561054957808201518184015260208101905061052e565b505050509050019250505060405180910390f35b341561056857600080fd5b61057e6004808035906020019091905050611390565b604051808273ffffffffffffffffffffffffffffffffffffffff1673ffffffffffffffffffffffffffffffffffffffff16815260200191505060405180910390f35b34156105cb57600080fd5b6105f7600480803573ffffffffffffffffffffffffffffffffffffffff169060200190919050506113cf565b6040518082815260200191505060405180910390f35b341561061857600080fd5b61062e600480803590602001909190505061151a565b604051808273ffffffffffffffffffffffffffffffffffffffff1673ffffffffffffffffffffffffffffffffffffffff16815260200191505060405180910390f35b341561067b57600080fd5b6106c6600480803573ffffffffffffffffffffffffffffffffffffffff1690602001909190803573ffffffffffffffffffffffffffffffffffffffff16906020019091905050611559565b604051808215151515815260200191505060405180910390f35b34156106eb57600080fd5b610717600480803573ffffffffffffffffffffffffffffffffffffffff169060200190919050506115f0565b6040518080602001828103825283818151815260200191508051906020019060200280838360005b8381101561075a57808201518184015260208101905061073f565b505050509050019250505060405180910390f35b600080600061077c846113cf565b9150600460008573ffffffffffffffffffffffffffffffffffffffff1673ffffffffffffffffffffffffffffffffffffffff16815260200190815260200160002060020154820290508092505050919050565b6000806001838154811015156107e157fe5b906000526020600020906002020160000160009054906101000a900473ffffffffffffffffffffffffffffffffffffffff16915060008273ffffffffffffffffffffffffffffffffffffffff161415151561083b57600080fd5b3373ffffffffffffffffffffffffffffffffffffffff168273ffffffffffffffffffffffffffffffffffffffff161415151561087657600080fd5b600360003373ffffffffffffffffffffffffffffffffffffffff1673ffffffffffffffffffffffffffffffffffffffff16815260200190815260200160002060009054906101000a900460ff1615156108ce57600080fd5b600460003373ffffffffffffffffffffffffffffffffffffffff1673ffffffffffffffffffffffffffffffffffffffff16815260200190815260200160002090508060000160008154809291906001019190505550338160010160006101000a81548173ffffffffffffffffffffffffffffffffffffffff021916908373ffffffffffffffffffffffffffffffffffffffff160217905550806002016000815480929190600101919050555061098b6001826002015460096116c6565b81600301819055508060040180548060010182816109a9919061190f565b9160005260206000209001600084909190916101000a81548173ffffffffffffffffffffffffffffffffffffffff021916908373ffffffffffffffffffffffffffffffffffffffff1602179055505060018160050160008473ffffffffffffffffffffffffffffffffffffffff1673ffffffffffffffffffffffffffffffffffffffff16815260200190815260200160002060006101000a81548160ff021916908315150217905550600160058054806001018281610a68919061190f565b9160005260206000209001600033909190916101000a81548173ffffffffffffffffffffffffffffffffffffffff021916908373ffffffffffffffffffffffffffffffffffffffff1602179055505050610ac282336116ff565b7f7845b8ad8806c20e29c9d7324b57431f98ecae390bcd677ed79d54fbc7d3dff33383604051808373ffffffffffffffffffffffffffffffffffffffff1673ffffffffffffffffffffffffffffffffffffffff1681526020018273ffffffffffffffffffffffffffffffffffffffff1673ffffffffffffffffffffffffffffffffffffffff1681526020019250505060405180910390a1505050565b6000806000600460003373ffffffffffffffffffffffffffffffffffffffff1673ffffffffffffffffffffffffffffffffffffffff1681526020019081526020016000209150600660008573ffffffffffffffffffffffffffffffffffffffff1673ffffffffffffffffffffffffffffffffffffffff16815260200190815260200160002090508160050160008573ffffffffffffffffffffffffffffffffffffffff1673ffffffffffffffffffffffffffffffffffffffff16815260200190815260200160002060009054906101000a900460ff1615610d185760008260050160008673ffffffffffffffffffffffffffffffffffffffff1673ffffffffffffffffffffffffffffffffffffffff16815260200190815260200160002060006101000a81548160ff02191690831515021790555081600201600081548092919060019003919050555060008160040160003373ffffffffffffffffffffffffffffffffffffffff1673ffffffffffffffffffffffffffffffffffffffff16815260200190815260200160002060006101000a81548160ff0219169083151502179055508060020160008154809291906001900391905055505b600460003373ffffffffffffffffffffffffffffffffffffffff1673ffffffffffffffffffffffffffffffffffffffff1681526020019081526020016000206000015492505050919050565b6000600460008373ffffffffffffffffffffffffffffffffffffffff1673ffffffffffffffffffffffffffffffffffffffff168152602001908152602001600020600301549050919050565b610db861193b565b600360003373ffffffffffffffffffffffffffffffffffffffff1673ffffffffffffffffffffffffffffffffffffffff16815260200190815260200160002060009054906101000a900460ff16151515610e1157600080fd5b6001600360003373ffffffffffffffffffffffffffffffffffffffff1673ffffffffffffffffffffffffffffffffffffffff16815260200190815260200160002060006101000a81548160ff02191690831515021790555060408051908101604052803373ffffffffffffffffffffffffffffffffffffffff16815260200183815250905060018054806001018281610eaa9190611971565b9160005260206000209060020201600083909190915060008201518160000160006101000a81548173ffffffffffffffffffffffffffffffffffffffff021916908373ffffffffffffffffffffffffffffffffffffffff1602179055506020820151816001019080519060200190610f239291906119a3565b505050507fe8f84471e30dd45724c20df4d0a852bf7aeb5c3fdb7328f231e08dac15b64f0a3383604051808373ffffffffffffffffffffffffffffffffffffffff1673ffffffffffffffffffffffffffffffffffffffff16815260200180602001828103825283818151815260200191508051906020019080838360005b83811015610fbc578082015181840152602081019050610fa1565b50505050905090810190601f168015610fe95780820380516001836020036101000a031916815260200191505b50935050505060405180910390a16002600081548092919060010191905055505050565b60018181548110151561101c57fe5b90600052602060002090600202016000915090508060000160009054906101000a900473ffffffffffffffffffffffffffffffffffffffff169080600101905082565b611067611a23565b600660008373ffffffffffffffffffffffffffffffffffffffff1673ffffffffffffffffffffffffffffffffffffffff16815260200190815260200160002060030180548060200260200160405190810160405280929190818152602001828054801561112957602002820191906000526020600020905b8160009054906101000a900473ffffffffffffffffffffffffffffffffffffffff1673ffffffffffffffffffffffffffffffffffffffff16815260200190600101908083116110df575b50505050509050919050565b600061113f611a23565b60008061114b8561105f565b9250600090505b82518110156111c65760046000848381518110151561116d57fe5b9060200190602002015173ffffffffffffffffffffffffffffffffffffffff1673ffffffffffffffffffffffffffffffffffffffff16815260200190815260200160002060030154820191508080600101915050611152565b819350505050919050565b6111d9611a23565b600780548060200260200160405190810160405280929190818152602001828054801561125b57602002820191906000526020600020905b8160009054906101000a900473ffffffffffffffffffffffffffffffffffffffff1673ffffffffffffffffffffffffffffffffffffffff1681526020019060010190808311611211575b5050505050905090565b6000600660008373ffffffffffffffffffffffffffffffffffffffff1673ffffffffffffffffffffffffffffffffffffffff16815260200190815260200160002060040160008473ffffffffffffffffffffffffffffffffffffffff1673ffffffffffffffffffffffffffffffffffffffff16815260200190815260200160002060009054906101000a900460ff16905092915050565b611304611a23565b600580548060200260200160405190810160405280929190818152602001828054801561138657602002820191906000526020600020905b8160009054906101000a900473ffffffffffffffffffffffffffffffffffffffff1673ffffffffffffffffffffffffffffffffffffffff168152602001906001019080831161133c575b5050505050905090565b60058181548110151561139f57fe5b90600052602060002090016000915054906101000a900473ffffffffffffffffffffffffffffffffffffffff1681565b600080600080600080600080600080600460008c73ffffffffffffffffffffffffffffffffffffffff1673ffffffffffffffffffffffffffffffffffffffff168152602001908152602001600020600201549850600660008c73ffffffffffffffffffffffffffffffffffffffff1673ffffffffffffffffffffffffffffffffffffffff1681526020019081526020016000206002015497506114718b611135565b965060018911158015611485575060018811155b156114935760009550611509565b61149d89896118d7565b94506114a989896118f3565b93506114b7858560096116c6565b9250600460008c73ffffffffffffffffffffffffffffffffffffffff1673ffffffffffffffffffffffffffffffffffffffff168152602001908152602001600020600301549150869050808284020295505b859950505050505050505050919050565b60078181548110151561152957fe5b90600052602060002090016000915054906101000a900473ffffffffffffffffffffffffffffffffffffffff1681565b6000600460008473ffffffffffffffffffffffffffffffffffffffff1673ffffffffffffffffffffffffffffffffffffffff16815260200190815260200160002060050160008373ffffffffffffffffffffffffffffffffffffffff1673ffffffffffffffffffffffffffffffffffffffff16815260200190815260200160002060009054906101000a900460ff16905092915050565b6115f8611a23565b600460008373ffffffffffffffffffffffffffffffffffffffff1673ffffffffffffffffffffffffffffffffffffffff1681526020019081526020016000206004018054806020026020016040519081016040528092919081815260200182805480156116ba57602002820191906000526020600020905b8160009054906101000a900473ffffffffffffffffffffffffffffffffffffffff1673ffffffffffffffffffffffffffffffffffffffff1681526020019060010190808311611670575b50505050509050919050565b600080600060018401600a0a86029150600a600586848115156116e557fe5b04018115156116f057fe5b04905080925050509392505050565b6000600660008473ffffffffffffffffffffffffffffffffffffffff1673ffffffffffffffffffffffffffffffffffffffff1681526020019081526020016000209050828160010160006101000a81548173ffffffffffffffffffffffffffffffffffffffff021916908373ffffffffffffffffffffffffffffffffffffffff160217905550806000016000815480929190600101919050555080600201600081548092919060010191905055508060030180548060010182816117c3919061190f565b9160005260206000209001600084909190916101000a81548173ffffffffffffffffffffffffffffffffffffffff021916908373ffffffffffffffffffffffffffffffffffffffff1602179055505060018160040160008473ffffffffffffffffffffffffffffffffffffffff1673ffffffffffffffffffffffffffffffffffffffff16815260200190815260200160002060006101000a81548160ff021916908315150217905550600160078054806001018281611882919061190f565b9160005260206000209001600086909190916101000a81548173ffffffffffffffffffffffffffffffffffffffff021916908373ffffffffffffffffffffffffffffffffffffffff1602179055505050505050565b6000818310156118e9578290506118ed565b8190505b92915050565b60008183101561190557819050611909565b8290505b92915050565b815481835581811511611936578183600052602060002091820191016119359190611a37565b5b505050565b6040805190810160405280600073ffffffffffffffffffffffffffffffffffffffff16815260200161196b611a5c565b81525090565b81548183558181151161199e5760020281600202836000526020600020918201910161199d9190611a70565b5b505050565b828054600181600116156101000203166002900490600052602060002090601f016020900481019282601f106119e457805160ff1916838001178555611a12565b82800160010185558215611a12579182015b82811115611a115782518255916020019190600101906119f6565b5b509050611a1f9190611a37565b5090565b602060405190810160405280600081525090565b611a5991905b80821115611a55576000816000905550600101611a3d565b5090565b90565b602060405190810160405280600081525090565b611ac391905b80821115611abf57600080820160006101000a81549073ffffffffffffffffffffffffffffffffffffffff0219169055600182016000611ab69190611ac6565b50600201611a76565b5090565b90565b50805460018160011615610100020316600290046000825580601f10611aec5750611b0b565b601f016020900490600052602060002090810190611b0a9190611a37565b5b505600a165627a7a72305820820baac15d2f3ca9af2f025650cb4979bb90a15448521cc1598c57b69042f32b0029",
  "source": "pragma solidity ^0.4.18;\n\ncontract Endorsement {\n\n\taddress owner;\n    \n    struct Participant { \n        address identifier;\n        string name;\n    }\n    \n    struct Endorser {\n\t\tuint index;\n        address sender;\n        uint nEG;\n        uint usedPower;\n        address[] givenTo;\n        mapping(address => bool) hasGivenTo;\n    }\n\n\tstruct Endorsee { \n\t\tuint index;\n\t\taddress receiver;\n\t\tuint nER;\n\t\t//uint receivedPoints;\n\t\taddress[] receivedFrom;\n\t\tmapping(address => bool) hasReceivedFrom;\n\t}\n    \n    Participant [] public participants;\n\t\n\tuint numberOfParticipants;\n    \n    mapping(address => bool) joined;\n    \n    mapping (address => Endorser) endorsers;\n    address[] public endorserAccts;\n\n\tmapping (address => Endorsee ) endorsees;\n\taddress[] public endorseeAccts;\n\n\n\t//mapping (address => uint) public receivedPoints;\n    \n\t// modifiers\n\tmodifier onlyOwner() { \n\t\trequire(msg.sender == owner );\n\t\t_;\n\t}\n\n\t//constructor\n\tfunction Endorsement() public { \n\t\t//EDSToken( );\n\t\towner = msg.sender;\n\t}\n\n\tevent LogJoinNetwork(address _participant, string _name);  \n\n\tevent LogEndorse(address _endorser, address _endorsee);\n\n\tfunction joinNetwork(string _userName) public{\n\t    require(!joined[msg.sender]);\n\t    joined[msg.sender] = true;\n\n\t    Participant memory newParticipant = Participant({\n\t        identifier: msg.sender,\n\t        name: _userName\n\t    });\n\t    participants.push(newParticipant);\n\n\t\tLogJoinNetwork(msg.sender, _userName);\n\n\t\tnumberOfParticipants++;\n\t}\n\t\n\tfunction endorse(uint _index) public { \n\t    address receiver = participants[_index].identifier;\n\t    \n\t    require(receiver != 0x0);\n\t    require(receiver != msg.sender);\n\t\trequire(joined[msg.sender]);\n\t    \n\t    Endorser storage endorser = endorsers[msg.sender];\n\t    \n\t\tendorser.index++;\n\t    endorser.sender = msg.sender;\n\t    endorser.nEG++;\n\t\t\n//\t\tif (endorser.nEG >1 ){ \n//\t\t\tendorser.usedPower = Division(1, endorser.nEG,9);\n//\t\t} else {\n//\t\t\tendorser.usedPower = 0;\n//\t\t}\n\t\t\n\t    endorser.usedPower =Division(1,endorser.nEG, 9);\n\t    endorser.givenTo.push(receiver);\n\t    endorser.hasGivenTo[receiver] = true;\n\t    \n\t    endorserAccts.push(msg.sender) - 1;\n\n\t\tupdateEndorsee(receiver, msg.sender);\n\n\t\tLogEndorse(msg.sender, receiver);\n\t    \n\t}\n\n\tfunction updateEndorsee(address _receiver, address _sender) internal { \n\t\tEndorsee storage endorsee = endorsees[_receiver];\n\t\tendorsee.receiver = _receiver;\n\t\tendorsee.index++;\n\t\tendorsee.nER++;\n\t\tendorsee.receivedFrom.push(_sender);\n\t\tendorsee.hasReceivedFrom[_sender] = true;\n\n\t\tendorseeAccts.push(_receiver) - 1;\n\t}\n\n\tfunction removeEndorsement(address _endorsee) public returns(uint) { \n\t\tEndorser storage endorser = endorsers[msg.sender];\n\t\tEndorsee storage endorsee = endorsees[_endorsee];\n\n\t\tif (endorser.hasGivenTo[_endorsee]) { \n\t\t\tendorser.hasGivenTo[_endorsee] = false;\n\t\t\tendorser.nEG--;\n\t\t\t//remove endorsee from endorser.givenTo array \n\t\t\t\n\t\t\tendorsee.hasReceivedFrom[msg.sender] = false;\n\t\t\tendorsee.nER--;\n\t\t\t//remove endorser address from endorsee.receivedFrom array\n\t\t}\n\t\treturn endorsers[msg.sender].index;\n\t}\n\n\tfunction computeReceivedPoints(address _endorsee) public view returns(uint) { \n\t\taddress [] memory receivedFrom = getReceivedFrom(_endorsee);\n\n\t\tuint receivedPoints;\n\n\t\tfor (uint i=0; i<receivedFrom.length; i++) { \n\t\t\treceivedPoints = receivedPoints + endorsers[receivedFrom[i]].usedPower;\n\t\t}\n\n\t\treturn receivedPoints;\n\t}\n\n\tfunction computeImpact(address _participant) public view returns (uint) { \n\t\tuint nEG = endorsers[_participant].nEG;\n\t\tuint nER = endorsees[_participant].nER;\n\t\tuint _RE = computeReceivedPoints(_participant);\n\t\tuint impact;\n\n\t\tif (nEG <=1 && nER <=1 ) { \n\t\t\timpact = 0;\n\t\t\t//return impact and exit here\n\t\t} else { \n\n\t\t\tuint minval = min(nEG,nER);\n\t\t\tuint maxval = max(nEG,nER);\n\n\t\t\tuint ratio = Division(minval, maxval,9);\n\t\t\tuint usedUpByParticipant = endorsers[_participant].usedPower;\n\t\t\tuint RE = _RE; \n\n\t\t\timpact = ratio * usedUpByParticipant * RE;\n\t\t}\n\t\treturn impact;\n\t}\n\n\n\tfunction getProfile(address _participant) public view returns (uint) { \n\t\t//get profile for specific address\n\t\tuint endorsementImpact = computeImpact(_participant);\n\t\tuint totalImpact = endorsementImpact * endorsers[_participant].nEG;\n\n\t\treturn totalImpact;\n\t}\n\t\n\tfunction getEndorsers() view public returns (address []) { \n\t    return endorserAccts;\n\t}\n\t\n\tfunction getUsedPower(address _endorser) view public returns(uint) {\n\t    return (endorsers[_endorser].usedPower);\n\t    \n\t}\n\t\n\tfunction getGivenTo(address _endorser) view public returns(address []) {\n\t    return (endorsers[_endorser].givenTo);\n\t    \n\t}\n\t\n\tfunction gethasGivenTo(address _endorser, address _endorsee) view public returns(bool) {\n\t    return (endorsers[_endorser].hasGivenTo[_endorsee]);\n\t    \n\t}\n\n\tfunction getEndorsees() view public returns (address []) { \n\t    return endorseeAccts;\n\t}\n\t\n\tfunction getReceivedFrom(address _endorsee) view public returns(address []) {\n\t    return (endorsees[_endorsee].receivedFrom);\n\t    \n\t}\n\t\n\tfunction gethasReceivedFrom(address _endorser, address _endorsee) view public returns(bool) {\n\t    return (endorsees[_endorsee].hasReceivedFrom[_endorser]);\n\t}\n\n\t\n\t//some helper  functions for calculations\n\tfunction Division( uint _numerator, uint _denominator, uint _precision) internal pure returns (uint _quotient) {\n\t\tuint numerator = _numerator * 10 ** (_precision + 1);\n\t\tuint quotient = ((numerator / _denominator) + 5  ) / 10;\n\n\t\treturn (quotient);\t\t\n\t}\n\n\tfunction max (uint x, uint y ) internal pure returns (uint) {\n\t\tif (x < y) {\n\t\t\treturn y;\n\t\t} else  {  \n\t\t\treturn x;\n\t\t}\n\t}\n\n\tfunction min (uint x, uint y ) internal pure returns (uint) { \n\t\tif (x < y) { \n\t\t\treturn x;\n\t\t} else {\n\t\t\treturn y;\n\t\t}\n\t}\n\n\n}\n\n\n\n\n\n\n\n\n\n\n\n\n\n\n\n\n\n\n\n\n\n\n\n\n\n",
  "sourcePath": "/home/sujata/Documents/Masters-Thesis/endorsements/contracts/Endorsement.sol",
  "compiler": {
    "name": "solc",
    "version": "0.4.19+commit.c4cbbb05.Emscripten.clang"
  },
  "schemaVersion": "2.0.0",
  "updatedAt": "2018-05-15T13:17:04.271Z"
}