{
  "contractName": "Endorsement",
  "abi": [
    {
      "constant": true,
      "inputs": [
        {
          "name": "",
          "type": "uint256"
        }
      ],
      "name": "participants",
      "outputs": [
        {
          "name": "identifier",
          "type": "address"
        },
        {
          "name": "name",
          "type": "string"
        }
      ],
      "payable": false,
      "stateMutability": "view",
      "type": "function"
    },
    {
      "constant": true,
      "inputs": [
        {
          "name": "",
          "type": "uint256"
        }
      ],
      "name": "endorserAccts",
      "outputs": [
        {
          "name": "",
          "type": "address"
        }
      ],
      "payable": false,
      "stateMutability": "view",
      "type": "function"
    },
    {
      "constant": true,
      "inputs": [
        {
          "name": "",
          "type": "uint256"
        }
      ],
      "name": "endorseeAccts",
      "outputs": [
        {
          "name": "",
          "type": "address"
        }
      ],
      "payable": false,
      "stateMutability": "view",
      "type": "function"
    },
    {
      "inputs": [],
      "payable": false,
      "stateMutability": "nonpayable",
      "type": "constructor"
    },
    {
      "constant": false,
      "inputs": [
        {
          "name": "_userName",
          "type": "string"
        }
      ],
      "name": "joinNetwork",
      "outputs": [],
      "payable": false,
      "stateMutability": "nonpayable",
      "type": "function"
    },
    {
      "constant": false,
      "inputs": [
        {
          "name": "_index",
          "type": "uint256"
        }
      ],
      "name": "endorse",
      "outputs": [],
      "payable": false,
      "stateMutability": "nonpayable",
      "type": "function"
    },
    {
      "constant": false,
      "inputs": [
        {
          "name": "_endorsee",
          "type": "address"
        }
      ],
      "name": "removeEndorsement",
      "outputs": [
        {
          "name": "",
          "type": "uint256"
        }
      ],
      "payable": false,
      "stateMutability": "nonpayable",
      "type": "function"
    },
    {
      "constant": true,
      "inputs": [
        {
          "name": "_endorsee",
          "type": "address"
        }
      ],
      "name": "computeReceivedPoints",
      "outputs": [
        {
          "name": "",
          "type": "uint256"
        }
      ],
      "payable": false,
      "stateMutability": "view",
      "type": "function"
    },
    {
      "constant": true,
      "inputs": [
        {
          "name": "_participant",
          "type": "address"
        }
      ],
      "name": "computeImpact",
      "outputs": [
        {
          "name": "",
          "type": "uint256"
        }
      ],
      "payable": false,
      "stateMutability": "view",
      "type": "function"
    },
    {
      "constant": true,
      "inputs": [],
      "name": "getEndorsers",
      "outputs": [
        {
          "name": "",
          "type": "address[]"
        }
      ],
      "payable": false,
      "stateMutability": "view",
      "type": "function"
    },
    {
      "constant": true,
      "inputs": [
        {
          "name": "_endorser",
          "type": "address"
        }
      ],
      "name": "getUsedPower",
      "outputs": [
        {
          "name": "",
          "type": "uint256"
        }
      ],
      "payable": false,
      "stateMutability": "view",
      "type": "function"
    },
    {
      "constant": true,
      "inputs": [
        {
          "name": "_endorser",
          "type": "address"
        }
      ],
      "name": "getGivenTo",
      "outputs": [
        {
          "name": "",
          "type": "address[]"
        }
      ],
      "payable": false,
      "stateMutability": "view",
      "type": "function"
    },
    {
      "constant": true,
      "inputs": [
        {
          "name": "_endorser",
          "type": "address"
        },
        {
          "name": "_endorsee",
          "type": "address"
        }
      ],
      "name": "gethasGivenTo",
      "outputs": [
        {
          "name": "",
          "type": "bool"
        }
      ],
      "payable": false,
      "stateMutability": "view",
      "type": "function"
    },
    {
      "constant": true,
      "inputs": [],
      "name": "getEndorsees",
      "outputs": [
        {
          "name": "",
          "type": "address[]"
        }
      ],
      "payable": false,
      "stateMutability": "view",
      "type": "function"
    },
    {
      "constant": true,
      "inputs": [
        {
          "name": "_endorsee",
          "type": "address"
        }
      ],
      "name": "getReceivedFrom",
      "outputs": [
        {
          "name": "",
          "type": "address[]"
        }
      ],
      "payable": false,
      "stateMutability": "view",
      "type": "function"
    },
    {
      "constant": true,
      "inputs": [
        {
          "name": "_endorser",
          "type": "address"
        },
        {
          "name": "_endorsee",
          "type": "address"
        }
      ],
      "name": "gethasReceivedFrom",
      "outputs": [
        {
          "name": "",
          "type": "bool"
        }
      ],
      "payable": false,
      "stateMutability": "view",
      "type": "function"
    }
  ],
  "bytecode": "0x6060604052341561000f57600080fd5b336000806101000a81548173ffffffffffffffffffffffffffffffffffffffff021916908373ffffffffffffffffffffffffffffffffffffffff1602179055506117b88061005e6000396000f3006060604052600436106100db576000357c0100000000000000000000000000000000000000000000000000000000900463ffffffff1680631fcfe3eb146100e057806320b2e1cf146101035780632dd59bd114610150578063308d80321461019d57806335c1d349146101fa5780634c070ced146102e657806376f7534d1461037457806388e2eed5146103c15780638eb467cd1461042b578063c253c25c1461049b578063c386a95f14610505578063c4ec4b7514610568578063d55a6ac4146105b5578063e2d7493214610618578063e4ff3df114610688575b600080fd5b34156100eb57600080fd5b6101016004808035906020019091905050610716565b005b341561010e57600080fd5b61013a600480803573ffffffffffffffffffffffffffffffffffffffff16906020019091905050610a0e565b6040518082815260200191505060405180910390f35b341561015b57600080fd5b610187600480803573ffffffffffffffffffffffffffffffffffffffff16906020019091905050610ae5565b6040518082815260200191505060405180910390f35b34156101a857600080fd5b6101f8600480803590602001908201803590602001908080601f01602080910402602001604051908101604052809392919081815260200183838082843782019150505050505091905050610b31565b005b341561020557600080fd5b61021b6004808035906020019091905050610cac565b604051808373ffffffffffffffffffffffffffffffffffffffff1673ffffffffffffffffffffffffffffffffffffffff168152602001806020018281038252838181546001816001161561010002031660029004815260200191508054600181600116156101000203166002900480156102d65780601f106102ab576101008083540402835291602001916102d6565b820191906000526020600020905b8154815290600101906020018083116102b957829003601f168201915b5050935050505060405180910390f35b34156102f157600080fd5b61031d600480803573ffffffffffffffffffffffffffffffffffffffff16906020019091905050610cfe565b6040518080602001828103825283818151815260200191508051906020019060200280838360005b83811015610360578082015181840152602081019050610345565b505050509050019250505060405180910390f35b341561037f57600080fd5b6103ab600480803573ffffffffffffffffffffffffffffffffffffffff16906020019091905050610dd4565b6040518082815260200191505060405180910390f35b34156103cc57600080fd5b6103d4610e70565b6040518080602001828103825283818151815260200191508051906020019060200280838360005b838110156104175780820151818401526020810190506103fc565b505050509050019250505060405180910390f35b341561043657600080fd5b610481600480803573ffffffffffffffffffffffffffffffffffffffff1690602001909190803573ffffffffffffffffffffffffffffffffffffffff16906020019091905050610f04565b604051808215151515815260200191505060405180910390f35b34156104a657600080fd5b6104ae610f9b565b6040518080602001828103825283818151815260200191508051906020019060200280838360005b838110156104f15780820151818401526020810190506104d6565b505050509050019250505060405180910390f35b341561051057600080fd5b610526600480803590602001909190505061102f565b604051808273ffffffffffffffffffffffffffffffffffffffff1673ffffffffffffffffffffffffffffffffffffffff16815260200191505060405180910390f35b341561057357600080fd5b61059f600480803573ffffffffffffffffffffffffffffffffffffffff1690602001909190505061106e565b6040518082815260200191505060405180910390f35b34156105c057600080fd5b6105d66004808035906020019091905050611198565b604051808273ffffffffffffffffffffffffffffffffffffffff1673ffffffffffffffffffffffffffffffffffffffff16815260200191505060405180910390f35b341561062357600080fd5b61066e600480803573ffffffffffffffffffffffffffffffffffffffff1690602001909190803573ffffffffffffffffffffffffffffffffffffffff169060200190919050506111d7565b604051808215151515815260200191505060405180910390f35b341561069357600080fd5b6106bf600480803573ffffffffffffffffffffffffffffffffffffffff1690602001909190505061126e565b6040518080602001828103825283818151815260200191508051906020019060200280838360005b838110156107025780820151818401526020810190506106e7565b505050509050019250505060405180910390f35b60008060018381548110151561072857fe5b906000526020600020906002020160000160009054906101000a900473ffffffffffffffffffffffffffffffffffffffff16915060008273ffffffffffffffffffffffffffffffffffffffff161415151561078257600080fd5b3373ffffffffffffffffffffffffffffffffffffffff168273ffffffffffffffffffffffffffffffffffffffff16141515156107bd57600080fd5b600260003373ffffffffffffffffffffffffffffffffffffffff1673ffffffffffffffffffffffffffffffffffffffff16815260200190815260200160002060009054906101000a900460ff16151561081557600080fd5b600360003373ffffffffffffffffffffffffffffffffffffffff1673ffffffffffffffffffffffffffffffffffffffff16815260200190815260200160002090508060000160008154809291906001019190505550338160010160006101000a81548173ffffffffffffffffffffffffffffffffffffffff021916908373ffffffffffffffffffffffffffffffffffffffff16021790555080600201600081548092919060010191905055506108d2600182600201546009611344565b81600301819055508060040180548060010182816108f0919061158d565b9160005260206000209001600084909190916101000a81548173ffffffffffffffffffffffffffffffffffffffff021916908373ffffffffffffffffffffffffffffffffffffffff1602179055505060018160050160008473ffffffffffffffffffffffffffffffffffffffff1673ffffffffffffffffffffffffffffffffffffffff16815260200190815260200160002060006101000a81548160ff0219169083151502179055506001600480548060010182816109af919061158d565b9160005260206000209001600033909190916101000a81548173ffffffffffffffffffffffffffffffffffffffff021916908373ffffffffffffffffffffffffffffffffffffffff1602179055505050610a09823361137d565b505050565b6000600360003373ffffffffffffffffffffffffffffffffffffffff1673ffffffffffffffffffffffffffffffffffffffff16815260200190815260200160002060050160008373ffffffffffffffffffffffffffffffffffffffff1673ffffffffffffffffffffffffffffffffffffffff16815260200190815260200160002060009054906101000a905050600360003373ffffffffffffffffffffffffffffffffffffffff1673ffffffffffffffffffffffffffffffffffffffff168152602001908152602001600020600001549050919050565b6000600360008373ffffffffffffffffffffffffffffffffffffffff1673ffffffffffffffffffffffffffffffffffffffff168152602001908152602001600020600301549050919050565b610b396115b9565b600260003373ffffffffffffffffffffffffffffffffffffffff1673ffffffffffffffffffffffffffffffffffffffff16815260200190815260200160002060009054906101000a900460ff16151515610b9257600080fd5b6001600260003373ffffffffffffffffffffffffffffffffffffffff1673ffffffffffffffffffffffffffffffffffffffff16815260200190815260200160002060006101000a81548160ff02191690831515021790555060408051908101604052803373ffffffffffffffffffffffffffffffffffffffff16815260200183815250905060018054806001018281610c2b91906115ef565b9160005260206000209060020201600083909190915060008201518160000160006101000a81548173ffffffffffffffffffffffffffffffffffffffff021916908373ffffffffffffffffffffffffffffffffffffffff1602179055506020820151816001019080519060200190610ca4929190611621565b505050505050565b600181815481101515610cbb57fe5b90600052602060002090600202016000915090508060000160009054906101000a900473ffffffffffffffffffffffffffffffffffffffff169080600101905082565b610d066116a1565b600560008373ffffffffffffffffffffffffffffffffffffffff1673ffffffffffffffffffffffffffffffffffffffff168152602001908152602001600020600301805480602002602001604051908101604052809291908181526020018280548015610dc857602002820191906000526020600020905b8160009054906101000a900473ffffffffffffffffffffffffffffffffffffffff1673ffffffffffffffffffffffffffffffffffffffff1681526020019060010190808311610d7e575b50505050509050919050565b6000610dde6116a1565b600080610dea85610cfe565b9250600090505b8251811015610e6557600360008483815181101515610e0c57fe5b9060200190602002015173ffffffffffffffffffffffffffffffffffffffff1673ffffffffffffffffffffffffffffffffffffffff16815260200190815260200160002060030154820191508080600101915050610df1565b819350505050919050565b610e786116a1565b6006805480602002602001604051908101604052809291908181526020018280548015610efa57602002820191906000526020600020905b8160009054906101000a900473ffffffffffffffffffffffffffffffffffffffff1673ffffffffffffffffffffffffffffffffffffffff1681526020019060010190808311610eb0575b5050505050905090565b6000600560008373ffffffffffffffffffffffffffffffffffffffff1673ffffffffffffffffffffffffffffffffffffffff16815260200190815260200160002060040160008473ffffffffffffffffffffffffffffffffffffffff1673ffffffffffffffffffffffffffffffffffffffff16815260200190815260200160002060009054906101000a900460ff16905092915050565b610fa36116a1565b600480548060200260200160405190810160405280929190818152602001828054801561102557602002820191906000526020600020905b8160009054906101000a900473ffffffffffffffffffffffffffffffffffffffff1673ffffffffffffffffffffffffffffffffffffffff1681526020019060010190808311610fdb575b5050505050905090565b60048181548110151561103e57fe5b90600052602060002090016000915054906101000a900473ffffffffffffffffffffffffffffffffffffffff1681565b600080600080600080600080600080600360008c73ffffffffffffffffffffffffffffffffffffffff1673ffffffffffffffffffffffffffffffffffffffff168152602001908152602001600020600201549850600560008c73ffffffffffffffffffffffffffffffffffffffff1673ffffffffffffffffffffffffffffffffffffffff1681526020019081526020016000206002015497506111108b610dd4565b965061111c8989611555565b95506111288989611571565b945061113686866009611344565b9350600360008c73ffffffffffffffffffffffffffffffffffffffff1673ffffffffffffffffffffffffffffffffffffffff16815260200190815260200160002060030154925086915081838502029050809950505050505050505050919050565b6006818154811015156111a757fe5b90600052602060002090016000915054906101000a900473ffffffffffffffffffffffffffffffffffffffff1681565b6000600360008473ffffffffffffffffffffffffffffffffffffffff1673ffffffffffffffffffffffffffffffffffffffff16815260200190815260200160002060050160008373ffffffffffffffffffffffffffffffffffffffff1673ffffffffffffffffffffffffffffffffffffffff16815260200190815260200160002060009054906101000a900460ff16905092915050565b6112766116a1565b600360008373ffffffffffffffffffffffffffffffffffffffff1673ffffffffffffffffffffffffffffffffffffffff16815260200190815260200160002060040180548060200260200160405190810160405280929190818152602001828054801561133857602002820191906000526020600020905b8160009054906101000a900473ffffffffffffffffffffffffffffffffffffffff1673ffffffffffffffffffffffffffffffffffffffff16815260200190600101908083116112ee575b50505050509050919050565b600080600060018401600a0a86029150600a6005868481151561136357fe5b040181151561136e57fe5b04905080925050509392505050565b6000600560008473ffffffffffffffffffffffffffffffffffffffff1673ffffffffffffffffffffffffffffffffffffffff1681526020019081526020016000209050828160010160006101000a81548173ffffffffffffffffffffffffffffffffffffffff021916908373ffffffffffffffffffffffffffffffffffffffff16021790555080600001600081548092919060010191905055508060020160008154809291906001019190505550806003018054806001018281611441919061158d565b9160005260206000209001600084909190916101000a81548173ffffffffffffffffffffffffffffffffffffffff021916908373ffffffffffffffffffffffffffffffffffffffff1602179055505060018160040160008473ffffffffffffffffffffffffffffffffffffffff1673ffffffffffffffffffffffffffffffffffffffff16815260200190815260200160002060006101000a81548160ff021916908315150217905550600160068054806001018281611500919061158d565b9160005260206000209001600086909190916101000a81548173ffffffffffffffffffffffffffffffffffffffff021916908373ffffffffffffffffffffffffffffffffffffffff1602179055505050505050565b6000818310156115675782905061156b565b8190505b92915050565b60008183101561158357819050611587565b8290505b92915050565b8154818355818115116115b4578183600052602060002091820191016115b391906116b5565b5b505050565b6040805190810160405280600073ffffffffffffffffffffffffffffffffffffffff1681526020016115e96116da565b81525090565b81548183558181151161161c5760020281600202836000526020600020918201910161161b91906116ee565b5b505050565b828054600181600116156101000203166002900490600052602060002090601f016020900481019282601f1061166257805160ff1916838001178555611690565b82800160010185558215611690579182015b8281111561168f578251825591602001919060010190611674565b5b50905061169d91906116b5565b5090565b602060405190810160405280600081525090565b6116d791905b808211156116d35760008160009055506001016116bb565b5090565b90565b602060405190810160405280600081525090565b61174191905b8082111561173d57600080820160006101000a81549073ffffffffffffffffffffffffffffffffffffffff02191690556001820160006117349190611744565b506002016116f4565b5090565b90565b50805460018160011615610100020316600290046000825580601f1061176a5750611789565b601f01602090049060005260206000209081019061178891906116b5565b5b505600a165627a7a72305820c67cc2ab310c9a3a9a5c9179db087232c2c42dc38b9974a92342c3d1545fb5df0029",
  "source": "pragma solidity ^0.4.18;\n\ncontract Endorsement {\n\n\taddress owner;\n    \n    struct Participant { \n        address identifier;\n        string name;\n    }\n    \n    struct Endorser {\n\t\tuint index;\n        address sender;\n        uint nEG;\n        uint usedPower;\n        address[] givenTo;\n        mapping(address => bool) hasGivenTo;\n    }\n\n\tstruct Endorsee { \n\t\tuint index;\n\t\taddress receiver;\n\t\tuint nER;\n\t\t//uint receivedPoints;\n\t\taddress[] receivedFrom;\n\t\tmapping(address => bool) hasReceivedFrom;\n\t}\n    \n    Participant [] public participants;\n    \n    mapping(address => bool) joined;\n    \n    mapping (address => Endorser) endorsers;\n    address[] public endorserAccts;\n\n\tmapping (address => Endorsee ) endorsees;\n\taddress[] public endorseeAccts;\n\n\n\t//mapping (address => uint) public receivedPoints;\n    \n\t// modifiers\n\tmodifier onlyOwner() { \n\t\trequire(msg.sender == owner );\n\t\t_;\n\t}\n\n\t//constructor\n\tfunction Endorsement() public { \n\t\t//EDSToken( );\n\t\towner = msg.sender;\n\t}\n\n\tfunction joinNetwork(string _userName) public{\n\t    require(!joined[msg.sender]);\n\t    joined[msg.sender] = true;\n\n\t    Participant memory newParticipant = Participant({\n\t        identifier: msg.sender,\n\t        name: _userName\n\t    });\n\t    participants.push(newParticipant);\n\t}\n\t\n\tfunction endorse(uint _index) public { \n\t    address receiver = participants[_index].identifier;\n\t    \n\t    require(receiver != 0x0);\n\t    require(receiver != msg.sender);\n\t\trequire(joined[msg.sender]);\n\t    \n\t    \n\t    Endorser storage endorser = endorsers[msg.sender];\n\t    \n\t\tendorser.index++;\n\t    endorser.sender = msg.sender;\n\t    endorser.nEG++;\n\t    endorser.usedPower =Division(1,endorser.nEG, 9);\n\t    endorser.givenTo.push(receiver);\n\t    endorser.hasGivenTo[receiver] = true;\n\t    \n\t    endorserAccts.push(msg.sender) - 1;\n\n\t\tupdateEndorsee(receiver, msg.sender);\n\t    \n\t}\n\n\tfunction updateEndorsee(address _receiver, address _sender) internal { \n\t\tEndorsee storage endorsee = endorsees[_receiver];\n\t\tendorsee.receiver = _receiver;\n\t\tendorsee.index++;\n\t\tendorsee.nER++;\n\t\tendorsee.receivedFrom.push(_sender);\n\t\tendorsee.hasReceivedFrom[_sender] = true;\n\n\t\tendorseeAccts.push(_receiver) - 1;\n\t}\n\n\tfunction removeEndorsement(address _endorsee) public returns(uint) { \n\t\tif (endorsers[msg.sender].hasGivenTo[_endorsee]) { \n\t\t\t//remove _endorsee from endorsers[msg.sender].givenTo\n\t\t\t//and .hasGivenTo, change bool to false\n\n\n\t\t\t//remove msg.sender key from endorsees[_receiver].receivedFrom\n\t\t\t//and .hasReceivedFrom , change bool to false\n\t\t}\n\t\treturn endorsers[msg.sender].index;\n\t\t\n\t}\n\n\tfunction computeReceivedPoints(address _endorsee) public view returns(uint) { \n\t\taddress [] memory receivedFrom = getReceivedFrom(_endorsee);\n\n\t\tuint receivedPoints;\n\n\t\tfor (uint i=0; i<receivedFrom.length; i++) { \n\t\t\treceivedPoints = receivedPoints + endorsers[receivedFrom[i]].usedPower;\n\t\t}\n\n\t\treturn receivedPoints;\n\t}\n\n\tfunction computeImpact(address _participant) public view returns (uint) { \n\t\tuint nEG = endorsers[_participant].nEG;\n\t\tuint nER = endorsees[_participant].nER;\n\t\tuint _RE = computeReceivedPoints(_participant);\n\n\t\tuint minVal = min(nEG,nER);\n\t\tuint maxVal = max(nEG,nER);\n\n\t\tuint ratio = Division(minVal, maxVal,9);\n\t\tuint usedUpByParticipant = endorsers[_participant].usedPower;\n\t\tuint RE = _RE; \n\n\t\tuint impact = ratio * usedUpByParticipant * RE;\n\n\t\treturn impact;\n\n\t}\n\t\n\tfunction getEndorsers() view public returns (address []) { \n\t    return endorserAccts;\n\t}\n\t\n\tfunction getUsedPower(address _endorser) view public returns(uint) {\n\t    return (endorsers[_endorser].usedPower);\n\t    \n\t}\n\t\n\tfunction getGivenTo(address _endorser) view public returns(address []) {\n\t    return (endorsers[_endorser].givenTo);\n\t    \n\t}\n\t\n\tfunction gethasGivenTo(address _endorser, address _endorsee) view public returns(bool) {\n\t    return (endorsers[_endorser].hasGivenTo[_endorsee]);\n\t    \n\t}\n\n\tfunction getEndorsees() view public returns (address []) { \n\t    return endorseeAccts;\n\t}\n\t\n\tfunction getReceivedFrom(address _endorsee) view public returns(address []) {\n\t    return (endorsees[_endorsee].receivedFrom);\n\t    \n\t}\n\t\n\tfunction gethasReceivedFrom(address _endorser, address _endorsee) view public returns(bool) {\n\t    return (endorsees[_endorsee].hasReceivedFrom[_endorser]);\n\t}\n\n\t\n\t//some helper  functions for calculations\n\tfunction Division( uint _numerator, uint _denominator, uint _precision) internal pure returns (uint _quotient) {\n\t\tuint numerator = _numerator * 10 ** (_precision + 1);\n\t\tuint quotient = ((numerator / _denominator) + 5  ) / 10;\n\n\t\treturn (quotient);\t\t\n\t}\n\n\tfunction max (uint x, uint y ) internal pure returns (uint) {\n\t\tif (x < y) {\n\t\t\treturn y;\n\t\t} else  {  \n\t\t\treturn x;\n\t\t}\n\t}\n\n\tfunction min (uint x, uint y ) internal pure returns (uint) { \n\t\tif (x < y) { \n\t\t\treturn x;\n\t\t} else {\n\t\t\treturn y;\n\t\t}\n\t}\n\n\n}\n\n\n\n\n\n\n\n\n\n\n\n\n\n\n\n\n\n\n\n\n\n\n\n\n\n",
  "sourcePath": "/home/sujata/Documents/Masters-Thesis/endorsements/contracts/Endorsement.sol",
  "compiler": {
    "name": "solc",
    "version": "0.4.19+commit.c4cbbb05.Emscripten.clang"
  },
  "schemaVersion": "2.0.0",
  "updatedAt": "2018-04-15T13:56:27.008Z"
}