{
  "contractName": "Graph",
  "abi": [
    {
      "constant": false,
      "inputs": [
        {
          "name": "_node",
          "type": "address"
        }
      ],
      "name": "netFlow",
      "outputs": [],
      "payable": false,
      "stateMutability": "nonpayable",
      "type": "function"
    }
  ],
  "bytecode": "0x6060604052341561000f57600080fd5b60a98061001d6000396000f300606060405260043610603f576000357c0100000000000000000000000000000000000000000000000000000000900463ffffffff168063dcc1b4e7146044575b600080fd5b3415604e57600080fd5b6078600480803573ffffffffffffffffffffffffffffffffffffffff16906020019091905050607a565b005b505600a165627a7a723058201ce2f1f622c6e6c5453534eff48894220f4432aedb817548a5c5dffa4378cab30029",
  "source": "pragma solidity ^0.4.18;\n\ncontract Graph {\n\tstruct nodes {\n\t\tuint inDegree;\n\t\tuint outDegree;\n\t\tuint neighbor;\n\t}\n\n\n\tfunction netFlow(address _node) {\n\t\n\t}\n\n}\n",
  "sourcePath": "/home/sujata/Documents/Masters-Thesis/endorsements/contracts/graph.sol",
  "compiler": {
    "name": "solc",
    "version": "0.4.19+commit.c4cbbb05.Emscripten.clang"
  },
  "schemaVersion": "2.0.0",
  "updatedAt": "2018-05-15T13:17:03.808Z"
}