{
  "contractName": "MarketPlace",
  "abi": [
    {
      "constant": true,
      "inputs": [
        {
          "name": "",
          "type": "uint256"
        }
      ],
      "name": "products",
      "outputs": [
        {
          "name": "id",
          "type": "uint256"
        },
        {
          "name": "seller",
          "type": "address"
        },
        {
          "name": "buyer",
          "type": "address"
        },
        {
          "name": "name",
          "type": "string"
        },
        {
          "name": "description",
          "type": "string"
        },
        {
          "name": "price",
          "type": "uint256"
        }
      ],
      "payable": false,
      "stateMutability": "view",
      "type": "function"
    },
    {
      "anonymous": false,
      "inputs": [
        {
          "indexed": true,
          "name": "_id",
          "type": "uint256"
        },
        {
          "indexed": true,
          "name": "_seller",
          "type": "address"
        },
        {
          "indexed": false,
          "name": "_name",
          "type": "string"
        },
        {
          "indexed": false,
          "name": "_price",
          "type": "uint256"
        }
      ],
      "name": "LogSellProduct",
      "type": "event"
    },
    {
      "anonymous": false,
      "inputs": [
        {
          "indexed": false,
          "name": "_productId",
          "type": "uint256"
        },
        {
          "indexed": true,
          "name": "_seller",
          "type": "address"
        },
        {
          "indexed": true,
          "name": "_buyer",
          "type": "address"
        },
        {
          "indexed": false,
          "name": "_name",
          "type": "string"
        },
        {
          "indexed": false,
          "name": "_price",
          "type": "uint256"
        }
      ],
      "name": "LogBuyProduct",
      "type": "event"
    },
    {
      "constant": false,
      "inputs": [
        {
          "name": "_name",
          "type": "string"
        },
        {
          "name": "_description",
          "type": "string"
        },
        {
          "name": "_price",
          "type": "uint256"
        }
      ],
      "name": "sellProduct",
      "outputs": [],
      "payable": false,
      "stateMutability": "nonpayable",
      "type": "function"
    },
    {
      "constant": true,
      "inputs": [],
      "name": "getNumberOfProducts",
      "outputs": [
        {
          "name": "",
          "type": "uint256"
        }
      ],
      "payable": false,
      "stateMutability": "view",
      "type": "function"
    },
    {
      "constant": true,
      "inputs": [],
      "name": "getProductsForSale",
      "outputs": [
        {
          "name": "",
          "type": "uint256[]"
        }
      ],
      "payable": false,
      "stateMutability": "view",
      "type": "function"
    },
    {
      "constant": false,
      "inputs": [
        {
          "name": "_productId",
          "type": "uint256"
        }
      ],
      "name": "buyProduct",
      "outputs": [],
      "payable": true,
      "stateMutability": "payable",
      "type": "function"
    }
  ],
  "bytecode": "0x6060604052341561000f57600080fd5b610bac8061001e6000396000f30060606040526004361061006c576000357c0100000000000000000000000000000000000000000000000000000000900463ffffffff168062e840bf146100715780633ffd81fb146100db5780637acc0b20146101045780637d33f01e146102ba5780638642269e14610363575b600080fd5b341561007c57600080fd5b61008461037b565b6040518080602001828103825283818151815260200191508051906020019060200280838360005b838110156100c75780820151818401526020810190506100ac565b505050509050019250505060405180910390f35b34156100e657600080fd5b6100ee6104e6565b6040518082815260200191505060405180910390f35b341561010f57600080fd5b61012560048080359060200190919050506104f0565b604051808781526020018673ffffffffffffffffffffffffffffffffffffffff1673ffffffffffffffffffffffffffffffffffffffff1681526020018573ffffffffffffffffffffffffffffffffffffffff1673ffffffffffffffffffffffffffffffffffffffff16815260200180602001806020018481526020018381038352868181546001816001161561010002031660029004815260200191508054600181600116156101000203166002900480156102225780601f106101f757610100808354040283529160200191610222565b820191906000526020600020905b81548152906001019060200180831161020557829003601f168201915b50508381038252858181546001816001161561010002031660029004815260200191508054600181600116156101000203166002900480156102a55780601f1061027a576101008083540402835291602001916102a5565b820191906000526020600020905b81548152906001019060200180831161028857829003601f168201915b50509850505050505050505060405180910390f35b34156102c557600080fd5b610361600480803590602001908201803590602001908080601f0160208091040260200160405190810160405280939291908181526020018383808284378201915050505050509190803590602001908201803590602001908080601f0160208091040260200160405190810160405280939291908181526020018383808284378201915050505050509190803590602001909190505061056a565b005b610379600480803590602001909190505061078f565b005b610383610ac7565b61038b610ac7565b600080610396610ac7565b60006001546040518059106103a85750595b9080825280602002602001820160405250945060009350600192505b6001548311151561046b57600080600085815260200190815260200160002060020160009054906101000a900473ffffffffffffffffffffffffffffffffffffffff1673ffffffffffffffffffffffffffffffffffffffff16141561045e5760008084815260200190815260200160002060000154858581518110151561044757fe5b906020019060200201818152505083806001019450505b82806001019350506103c4565b836040518059106104795750595b90808252806020026020018201604052509150600190505b83811115156104db5784818151811015156104a857fe5b9060200190602002015182828151811015156104c057fe5b90602001906020020181815250508080600101915050610491565b819550505050505090565b6000600154905090565b60006020528060005260406000206000915090508060000154908060010160009054906101000a900473ffffffffffffffffffffffffffffffffffffffff16908060020160009054906101000a900473ffffffffffffffffffffffffffffffffffffffff1690806003019080600401908060050154905086565b60016000815480929190600101919050555060c06040519081016040528060015481526020013373ffffffffffffffffffffffffffffffffffffffff168152602001600073ffffffffffffffffffffffffffffffffffffffff1681526020018481526020018381526020018281525060008060015481526020019081526020016000206000820151816000015560208201518160010160006101000a81548173ffffffffffffffffffffffffffffffffffffffff021916908373ffffffffffffffffffffffffffffffffffffffff16021790555060408201518160020160006101000a81548173ffffffffffffffffffffffffffffffffffffffff021916908373ffffffffffffffffffffffffffffffffffffffff16021790555060608201518160030190805190602001906106a1929190610adb565b5060808201518160040190805190602001906106be929190610adb565b5060a082015181600501559050503373ffffffffffffffffffffffffffffffffffffffff166001547f795615f1d4f0e4f6c975e0ede1605f9f7184b7c98e65cea686d1f25b502fa67e85846040518080602001838152602001828103825284818151815260200191508051906020019080838360005b8381101561074f578082015181840152602081019050610734565b50505050905090810190601f16801561077c5780820380516001836020036101000a031916815260200191505b50935050505060405180910390a3505050565b6000806001541115156107a157600080fd5b6000821180156107b357506001548211155b15156107be57600080fd5b600080838152602001908152602001600020905060008160020160009054906101000a900473ffffffffffffffffffffffffffffffffffffffff1673ffffffffffffffffffffffffffffffffffffffff1614151561081b57600080fd5b8060010160009054906101000a900473ffffffffffffffffffffffffffffffffffffffff1673ffffffffffffffffffffffffffffffffffffffff163373ffffffffffffffffffffffffffffffffffffffff161415151561087a57600080fd5b80600501543414151561088c57600080fd5b338160020160006101000a81548173ffffffffffffffffffffffffffffffffffffffff021916908373ffffffffffffffffffffffffffffffffffffffff16021790555060008160010160009054906101000a900473ffffffffffffffffffffffffffffffffffffffff1673ffffffffffffffffffffffffffffffffffffffff161415151561091957600080fd5b8060010160009054906101000a900473ffffffffffffffffffffffffffffffffffffffff1673ffffffffffffffffffffffffffffffffffffffff166108fc349081150290604051600060405180830381858888f19350505050151561097d57600080fd5b8060020160009054906101000a900473ffffffffffffffffffffffffffffffffffffffff1673ffffffffffffffffffffffffffffffffffffffff168160010160009054906101000a900473ffffffffffffffffffffffffffffffffffffffff1673ffffffffffffffffffffffffffffffffffffffff167f727072c44d97265938bf1a4def79b99cc438bb4f19a5842bc26d1beea4320099848460030185600501546040518084815260200180602001838152602001828103825284818154600181600116156101000203166002900481526020019150805460018160011615610100020316600290048015610ab35780601f10610a8857610100808354040283529160200191610ab3565b820191906000526020600020905b815481529060010190602001808311610a9657829003601f168201915b505094505050505060405180910390a35050565b602060405190810160405280600081525090565b828054600181600116156101000203166002900490600052602060002090601f016020900481019282601f10610b1c57805160ff1916838001178555610b4a565b82800160010185558215610b4a579182015b82811115610b49578251825591602001919060010190610b2e565b5b509050610b579190610b5b565b5090565b610b7d91905b80821115610b79576000816000905550600101610b61565b5090565b905600a165627a7a723058205ee4e9b96db89d71146140452d97a37702f424035856e0dac13ce2da915a93510029",
  "source": "pragma solidity ^0.4.18;\n\ncontract MarketPlace {\n\t\n\tstruct Product { \n\t\tuint id;\n\t\taddress seller;\n\t\taddress buyer;\n\t\tstring name;\n\t\tstring description;\n\t\tuint price;\n\t}\n\n\n\t//store list of products accessible through uint key\n\tmapping(uint => Product) public products;\n\tuint productCounter;\n\n\t//events - informative message stored in each ethereum block transaction log\n\t//trigger events from contract to notify watchers that something just happened\n\t//associated to address of contract that triggered it\n\n\tevent LogSellProduct(\n\t\tuint indexed _id,\n\t\taddress indexed _seller, \n\t\tstring _name, \n\t\tuint _price \n\t);\n\n\tevent LogBuyProduct(\n\t\tuint _productId,\n\t\taddress indexed _seller,\n\t\taddress indexed _buyer,\n\t\tstring _name,\n\t\tuint _price\n\t);\n\n\n\t// sell product\n\tfunction sellProduct(string _name, string _description, uint _price) public { \n\n\t\tproductCounter++;\n\n\t\t//storing the product\n\t\tproducts[productCounter] = Product ( \n\t\t\tproductCounter,\n\t\t\tmsg.sender,\n\t\t\t0x0,\n\t\t\t_name,\n\t\t\t_description,\n\t\t\t_price\t\t\t\t\t\t\t\t\t\t   \n\t\t);\n\t\t\n\t\tLogSellProduct(productCounter, msg.sender, _name, _price);\n\t}\n\n\t//get number of products\n\tfunction getNumberOfProducts(  ) public view returns (uint ) { \n\t\treturn productCounter;\n\t}\n\n\t//get product that has not been sold yet\n\tfunction getProductsForSale( ) public view returns (uint [] ) {\n\t\t//productIds cannot have more identifiers than number we have in contract\n\t\tuint [] memory productIds = new uint[] (productCounter);\n\n\t\tuint numberOfProductsForSale = 0;\n\n\t\tfor (uint i=1;i <= productCounter; i++ ) {  \n\t\t\tif(products[i].buyer == 0x0){\n\t\t\t\tproductIds[numberOfProductsForSale]  = products[i].id;\n\t\t\t\tnumberOfProductsForSale++;\n\t\t\t}\n\t\t}\n\n\t\t//copy productIds array into smaller for sale array\n\t\tuint[] memory forSale =  new uint[] (numberOfProductsForSale );\n\n\t\tfor(uint j=1; j<= numberOfProductsForSale; j++ ) {  \n\t\t\tforSale[j] = productIds[j];\n\t\t}\n\n\t\treturn forSale;\n\n\t}\n\n\n\tfunction buyProduct(uint _productId ) payable public { \n\t\t//at least one product exists\n\t\trequire(productCounter > 0  );\n\n\t\trequire(_productId > 0 && _productId <= productCounter);\n\n\t\t//retrieve product from mapping\n\t\tProduct storage product = products[_productId];\n\n\t\trequire(product.buyer == 0x0);\n\n\t\trequire(msg.sender != product.seller);\n\t\trequire(msg.value == product.price);\n\n\t\tproduct.buyer = msg.sender;\n\t\trequire(product.seller != 0x0);\n\t\tproduct.seller.transfer(msg.value);\n\n\t\tLogBuyProduct(_productId, product.seller, product.buyer, product.name, product.price );\n\t}\n}\n",
  "sourcePath": "/home/sujata/Documents/Masters-Thesis/endorsements/contracts/MarketPlace.sol",
  "compiler": {
    "name": "solc",
    "version": "0.4.19+commit.c4cbbb05.Emscripten.clang"
  },
  "schemaVersion": "2.0.0",
  "updatedAt": "2018-05-15T13:17:04.266Z"
}