{
  "contractName": "Endorsement",
  "abi": [
    {
      "constant": true,
      "inputs": [],
      "name": "getProductsForSale",
      "outputs": [
        {
          "name": "",
          "type": "uint256[]"
        }
      ],
      "payable": false,
      "stateMutability": "view",
      "type": "function"
    },
    {
      "constant": true,
      "inputs": [
        {
          "name": "",
          "type": "uint256"
        }
      ],
      "name": "allParticipants",
      "outputs": [
        {
          "name": "",
          "type": "address"
        }
      ],
      "payable": false,
      "stateMutability": "view",
      "type": "function"
    },
    {
      "constant": true,
      "inputs": [
        {
          "name": "",
          "type": "address"
        }
      ],
      "name": "prevLength",
      "outputs": [
        {
          "name": "",
          "type": "uint256"
        }
      ],
      "payable": false,
      "stateMutability": "view",
      "type": "function"
    },
    {
      "constant": false,
      "inputs": [
        {
          "name": "_productId",
          "type": "uint256"
        },
        {
          "name": "_rating",
          "type": "uint256"
        }
      ],
      "name": "leaveRating",
      "outputs": [],
      "payable": false,
      "stateMutability": "nonpayable",
      "type": "function"
    },
    {
      "constant": true,
      "inputs": [
        {
          "name": "",
          "type": "address"
        }
      ],
      "name": "receivedPoints",
      "outputs": [
        {
          "name": "",
          "type": "uint256"
        }
      ],
      "payable": false,
      "stateMutability": "view",
      "type": "function"
    },
    {
      "constant": true,
      "inputs": [
        {
          "name": "",
          "type": "uint256"
        }
      ],
      "name": "participants",
      "outputs": [
        {
          "name": "identifier",
          "type": "address"
        },
        {
          "name": "name",
          "type": "string"
        }
      ],
      "payable": false,
      "stateMutability": "view",
      "type": "function"
    },
    {
      "constant": true,
      "inputs": [],
      "name": "getNumberOfProducts",
      "outputs": [
        {
          "name": "",
          "type": "uint256"
        }
      ],
      "payable": false,
      "stateMutability": "view",
      "type": "function"
    },
    {
      "constant": false,
      "inputs": [],
      "name": "kill",
      "outputs": [],
      "payable": false,
      "stateMutability": "nonpayable",
      "type": "function"
    },
    {
      "constant": true,
      "inputs": [
        {
          "name": "",
          "type": "uint256"
        }
      ],
      "name": "products",
      "outputs": [
        {
          "name": "id",
          "type": "uint256"
        },
        {
          "name": "seller",
          "type": "address"
        },
        {
          "name": "buyer",
          "type": "address"
        },
        {
          "name": "name",
          "type": "string"
        },
        {
          "name": "description",
          "type": "string"
        },
        {
          "name": "price",
          "type": "uint256"
        }
      ],
      "payable": false,
      "stateMutability": "view",
      "type": "function"
    },
    {
      "constant": false,
      "inputs": [
        {
          "name": "_name",
          "type": "string"
        },
        {
          "name": "_description",
          "type": "string"
        },
        {
          "name": "_price",
          "type": "uint256"
        }
      ],
      "name": "sellProduct",
      "outputs": [],
      "payable": false,
      "stateMutability": "nonpayable",
      "type": "function"
    },
    {
      "constant": false,
      "inputs": [
        {
          "name": "_productId",
          "type": "uint256"
        }
      ],
      "name": "buyProduct",
      "outputs": [],
      "payable": true,
      "stateMutability": "payable",
      "type": "function"
    },
    {
      "constant": true,
      "inputs": [],
      "name": "owner",
      "outputs": [
        {
          "name": "",
          "type": "address"
        }
      ],
      "payable": false,
      "stateMutability": "view",
      "type": "function"
    },
    {
      "constant": true,
      "inputs": [
        {
          "name": "",
          "type": "address"
        }
      ],
      "name": "ratings",
      "outputs": [
        {
          "name": "",
          "type": "uint256"
        }
      ],
      "payable": false,
      "stateMutability": "view",
      "type": "function"
    },
    {
      "constant": false,
      "inputs": [
        {
          "name": "_productId",
          "type": "uint256"
        }
      ],
      "name": "flagSeller",
      "outputs": [],
      "payable": false,
      "stateMutability": "nonpayable",
      "type": "function"
    },
    {
      "constant": true,
      "inputs": [
        {
          "name": "",
          "type": "address"
        }
      ],
      "name": "flagCount",
      "outputs": [
        {
          "name": "",
          "type": "uint256"
        }
      ],
      "payable": false,
      "stateMutability": "view",
      "type": "function"
    },
    {
      "constant": true,
      "inputs": [
        {
          "name": "",
          "type": "uint256"
        }
      ],
      "name": "endorserAccts",
      "outputs": [
        {
          "name": "",
          "type": "address"
        }
      ],
      "payable": false,
      "stateMutability": "view",
      "type": "function"
    },
    {
      "constant": true,
      "inputs": [
        {
          "name": "",
          "type": "uint256"
        }
      ],
      "name": "endorseeAccts",
      "outputs": [
        {
          "name": "",
          "type": "address"
        }
      ],
      "payable": false,
      "stateMutability": "view",
      "type": "function"
    },
    {
      "constant": true,
      "inputs": [
        {
          "name": "",
          "type": "address"
        }
      ],
      "name": "flag",
      "outputs": [
        {
          "name": "",
          "type": "bool"
        }
      ],
      "payable": false,
      "stateMutability": "view",
      "type": "function"
    },
    {
      "constant": false,
      "inputs": [
        {
          "name": "_newOwner",
          "type": "address"
        }
      ],
      "name": "transferOwnership",
      "outputs": [],
      "payable": false,
      "stateMutability": "nonpayable",
      "type": "function"
    },
    {
      "inputs": [],
      "payable": false,
      "stateMutability": "nonpayable",
      "type": "constructor"
    },
    {
      "anonymous": false,
      "inputs": [
        {
          "indexed": false,
          "name": "_participant",
          "type": "address"
        },
        {
          "indexed": false,
          "name": "_name",
          "type": "string"
        }
      ],
      "name": "LogJoinNetwork",
      "type": "event"
    },
    {
      "anonymous": false,
      "inputs": [
        {
          "indexed": false,
          "name": "_endorser",
          "type": "address"
        },
        {
          "indexed": false,
          "name": "_endorsee",
          "type": "address"
        }
      ],
      "name": "LogEndorse",
      "type": "event"
    },
    {
      "anonymous": false,
      "inputs": [
        {
          "indexed": true,
          "name": "_id",
          "type": "uint256"
        },
        {
          "indexed": true,
          "name": "_seller",
          "type": "address"
        },
        {
          "indexed": false,
          "name": "_name",
          "type": "string"
        },
        {
          "indexed": false,
          "name": "_price",
          "type": "uint256"
        }
      ],
      "name": "LogSellProduct",
      "type": "event"
    },
    {
      "anonymous": false,
      "inputs": [
        {
          "indexed": false,
          "name": "_productId",
          "type": "uint256"
        },
        {
          "indexed": true,
          "name": "_seller",
          "type": "address"
        },
        {
          "indexed": true,
          "name": "_buyer",
          "type": "address"
        },
        {
          "indexed": false,
          "name": "_name",
          "type": "string"
        },
        {
          "indexed": false,
          "name": "_price",
          "type": "uint256"
        }
      ],
      "name": "LogBuyProduct",
      "type": "event"
    },
    {
      "anonymous": false,
      "inputs": [
        {
          "indexed": true,
          "name": "oldOwner",
          "type": "address"
        },
        {
          "indexed": true,
          "name": "newOwner",
          "type": "address"
        }
      ],
      "name": "ownershipTransfer",
      "type": "event"
    },
    {
      "constant": false,
      "inputs": [
        {
          "name": "_userName",
          "type": "string"
        }
      ],
      "name": "joinNetwork",
      "outputs": [],
      "payable": false,
      "stateMutability": "nonpayable",
      "type": "function"
    },
    {
      "constant": true,
      "inputs": [],
      "name": "getAllParticipants",
      "outputs": [
        {
          "name": "",
          "type": "address[]"
        }
      ],
      "payable": false,
      "stateMutability": "view",
      "type": "function"
    },
    {
      "constant": true,
      "inputs": [
        {
          "name": "_participant",
          "type": "address"
        }
      ],
      "name": "getParticipantIndex",
      "outputs": [
        {
          "name": "",
          "type": "uint256"
        }
      ],
      "payable": false,
      "stateMutability": "view",
      "type": "function"
    },
    {
      "constant": true,
      "inputs": [
        {
          "name": "_index",
          "type": "uint256"
        }
      ],
      "name": "getName",
      "outputs": [
        {
          "name": "",
          "type": "string"
        }
      ],
      "payable": false,
      "stateMutability": "view",
      "type": "function"
    },
    {
      "constant": false,
      "inputs": [
        {
          "name": "_participant",
          "type": "address"
        },
        {
          "name": "_name",
          "type": "string"
        }
      ],
      "name": "editProfile",
      "outputs": [],
      "payable": false,
      "stateMutability": "nonpayable",
      "type": "function"
    },
    {
      "constant": false,
      "inputs": [
        {
          "name": "_index",
          "type": "uint256"
        }
      ],
      "name": "endorse",
      "outputs": [],
      "payable": false,
      "stateMutability": "nonpayable",
      "type": "function"
    },
    {
      "constant": false,
      "inputs": [
        {
          "name": "_endorsee",
          "type": "address"
        }
      ],
      "name": "removeEndorsement",
      "outputs": [
        {
          "name": "",
          "type": "uint256"
        }
      ],
      "payable": false,
      "stateMutability": "nonpayable",
      "type": "function"
    },
    {
      "constant": true,
      "inputs": [
        {
          "name": "_endorsee",
          "type": "address"
        }
      ],
      "name": "computeReceivedPoints",
      "outputs": [
        {
          "name": "",
          "type": "uint256"
        }
      ],
      "payable": false,
      "stateMutability": "view",
      "type": "function"
    },
    {
      "constant": true,
      "inputs": [
        {
          "name": "_participant",
          "type": "address"
        }
      ],
      "name": "computeImpact",
      "outputs": [
        {
          "name": "",
          "type": "uint256"
        }
      ],
      "payable": false,
      "stateMutability": "view",
      "type": "function"
    },
    {
      "constant": false,
      "inputs": [
        {
          "name": "_participant",
          "type": "address"
        },
        {
          "name": "_impact",
          "type": "uint256"
        }
      ],
      "name": "transactionFeedBack",
      "outputs": [
        {
          "name": "",
          "type": "uint256"
        }
      ],
      "payable": false,
      "stateMutability": "nonpayable",
      "type": "function"
    },
    {
      "constant": true,
      "inputs": [
        {
          "name": "_participant",
          "type": "address"
        }
      ],
      "name": "getProfile",
      "outputs": [
        {
          "name": "",
          "type": "uint256"
        },
        {
          "name": "",
          "type": "uint256"
        },
        {
          "name": "",
          "type": "address[]"
        },
        {
          "name": "",
          "type": "uint256"
        },
        {
          "name": "",
          "type": "uint256"
        },
        {
          "name": "",
          "type": "address[]"
        }
      ],
      "payable": false,
      "stateMutability": "view",
      "type": "function"
    },
    {
      "constant": true,
      "inputs": [
        {
          "name": "_participant",
          "type": "address"
        }
      ],
      "name": "getConnections",
      "outputs": [
        {
          "name": "",
          "type": "address[]"
        },
        {
          "name": "",
          "type": "address[]"
        }
      ],
      "payable": false,
      "stateMutability": "view",
      "type": "function"
    },
    {
      "constant": true,
      "inputs": [],
      "name": "getCount",
      "outputs": [
        {
          "name": "",
          "type": "uint256"
        }
      ],
      "payable": false,
      "stateMutability": "view",
      "type": "function"
    },
    {
      "constant": true,
      "inputs": [],
      "name": "getEndorsers",
      "outputs": [
        {
          "name": "",
          "type": "address[]"
        }
      ],
      "payable": false,
      "stateMutability": "view",
      "type": "function"
    },
    {
      "constant": true,
      "inputs": [
        {
          "name": "_endorser",
          "type": "address"
        }
      ],
      "name": "getUsedPower",
      "outputs": [
        {
          "name": "",
          "type": "uint256"
        }
      ],
      "payable": false,
      "stateMutability": "view",
      "type": "function"
    },
    {
      "constant": true,
      "inputs": [
        {
          "name": "_endorser",
          "type": "address"
        }
      ],
      "name": "getGivenTo",
      "outputs": [
        {
          "name": "",
          "type": "address[]"
        }
      ],
      "payable": false,
      "stateMutability": "view",
      "type": "function"
    },
    {
      "constant": true,
      "inputs": [
        {
          "name": "_endorser",
          "type": "address"
        }
      ],
      "name": "getGivenToCount",
      "outputs": [
        {
          "name": "",
          "type": "uint256"
        }
      ],
      "payable": false,
      "stateMutability": "view",
      "type": "function"
    },
    {
      "constant": true,
      "inputs": [
        {
          "name": "_endorser",
          "type": "address"
        },
        {
          "name": "_endorsee",
          "type": "address"
        }
      ],
      "name": "gethasGivenTo",
      "outputs": [
        {
          "name": "",
          "type": "bool"
        }
      ],
      "payable": false,
      "stateMutability": "view",
      "type": "function"
    },
    {
      "constant": true,
      "inputs": [],
      "name": "getEndorsees",
      "outputs": [
        {
          "name": "",
          "type": "address[]"
        }
      ],
      "payable": false,
      "stateMutability": "view",
      "type": "function"
    },
    {
      "constant": true,
      "inputs": [
        {
          "name": "_endorsee",
          "type": "address"
        }
      ],
      "name": "getReceivedFrom",
      "outputs": [
        {
          "name": "",
          "type": "address[]"
        }
      ],
      "payable": false,
      "stateMutability": "view",
      "type": "function"
    },
    {
      "constant": true,
      "inputs": [
        {
          "name": "_endorsee",
          "type": "address"
        }
      ],
      "name": "getReceivedFromCount",
      "outputs": [
        {
          "name": "",
          "type": "uint256"
        }
      ],
      "payable": false,
      "stateMutability": "view",
      "type": "function"
    },
    {
      "constant": true,
      "inputs": [
        {
          "name": "_endorser",
          "type": "address"
        },
        {
          "name": "_endorsee",
          "type": "address"
        }
      ],
      "name": "gethasReceivedFrom",
      "outputs": [
        {
          "name": "",
          "type": "bool"
        }
      ],
      "payable": false,
      "stateMutability": "view",
      "type": "function"
    }
  ],
  "bytecode": "0x6060604052341561000f57600080fd5b336000806101000a81548173ffffffffffffffffffffffffffffffffffffffff021916908373ffffffffffffffffffffffffffffffffffffffff16021790555033600760006101000a81548173ffffffffffffffffffffffffffffffffffffffff021916908373ffffffffffffffffffffffffffffffffffffffff160217905550613eed8061009f6000396000f3006060604052600436106101f8576000357c0100000000000000000000000000000000000000000000000000000000900463ffffffff168062e840bf146101fd57806305e33dd01461026757806309bcae2a146102ca5780630f53a47014610317578063195ec9ee146104095780631fcfe3eb1461047357806320b2e1cf1461049657806321818ca6146104e35780632aec9dde1461050f5780632dd59bd11461055c578063308d8032146105a957806335679fb21461060657806335c1d349146106535780633ffd81fb1461073f57806341c0e1b51461076857806346552e611461077d5780634c070ced146108535780636b8ff574146108e15780636ba160501461097d57806376f7534d146109ca5780637acc0b2014610a175780637d33f01e14610bcd5780638642269e14610c7657806388e2eed514610c8e5780638da5cb5b14610cf85780638eb467cd14610d4d578063932afd1714610dbd5780639e01dfbb14610e39578063a30ba26c14610e86578063a87d942c14610edc578063ad2f41e814610f05578063c253c25c14610f28578063c25d95db14610f92578063c386a95f14610fdf578063c4ec4b7514611042578063d55a6ac41461108f578063dabc1de4146110f2578063e2d7493214611143578063e4ff3df1146111b3578063f25cb44714611241578063f2fde38b1461128e575b600080fd5b341561020857600080fd5b6102106112c7565b6040518080602001828103825283818151815260200191508051906020019060200280838360005b83811015610253578082015181840152602081019050610238565b505050509050019250505060405180910390f35b341561027257600080fd5b6102886004808035906020019091905050611434565b604051808273ffffffffffffffffffffffffffffffffffffffff1673ffffffffffffffffffffffffffffffffffffffff16815260200191505060405180910390f35b34156102d557600080fd5b610301600480803573ffffffffffffffffffffffffffffffffffffffff16906020019091905050611473565b6040518082815260200191505060405180910390f35b341561032257600080fd5b61034e600480803573ffffffffffffffffffffffffffffffffffffffff1690602001909190505061148b565b604051808781526020018681526020018060200185815260200184815260200180602001838103835287818151815260200191508051906020019060200280838360005b838110156103ad578082015181840152602081019050610392565b50505050905001838103825284818151815260200191508051906020019060200280838360005b838110156103ef5780820151818401526020810190506103d4565b505050509050019850505050505050505060405180910390f35b341561041457600080fd5b61041c61173d565b6040518080602001828103825283818151815260200191508051906020019060200280838360005b8381101561045f578082015181840152602081019050610444565b505050509050019250505060405180910390f35b341561047e57600080fd5b61049460048080359060200190919050506117d1565b005b34156104a157600080fd5b6104cd600480803573ffffffffffffffffffffffffffffffffffffffff16906020019091905050611b6f565b6040518082815260200191505060405180910390f35b34156104ee57600080fd5b61050d6004808035906020019091908035906020019091905050611dcd565b005b341561051a57600080fd5b610546600480803573ffffffffffffffffffffffffffffffffffffffff16906020019091905050611f49565b6040518082815260200191505060405180910390f35b341561056757600080fd5b610593600480803573ffffffffffffffffffffffffffffffffffffffff16906020019091905050611f98565b6040518082815260200191505060405180910390f35b34156105b457600080fd5b610604600480803590602001908201803590602001908080601f01602080910402602001604051908101604052809392919081815260200183838082843782019150505050505091905050611fe4565b005b341561061157600080fd5b61063d600480803573ffffffffffffffffffffffffffffffffffffffff169060200190919050506122fc565b6040518082815260200191505060405180910390f35b341561065e57600080fd5b6106746004808035906020019091905050612314565b604051808373ffffffffffffffffffffffffffffffffffffffff1673ffffffffffffffffffffffffffffffffffffffff1681526020018060200182810382528381815460018160011615610100020316600290048152602001915080546001816001161561010002031660029004801561072f5780601f106107045761010080835404028352916020019161072f565b820191906000526020600020905b81548152906001019060200180831161071257829003601f168201915b5050935050505060405180910390f35b341561074a57600080fd5b610752612366565b6040518082815260200191505060405180910390f35b341561077357600080fd5b61077b612370565b005b341561078857600080fd5b6107b4600480803573ffffffffffffffffffffffffffffffffffffffff16906020019091905050612406565b604051808060200180602001838103835285818151815260200191508051906020019060200280838360005b838110156107fb5780820151818401526020810190506107e0565b50505050905001838103825284818151815260200191508051906020019060200280838360005b8381101561083d578082015181840152602081019050610822565b5050505090500194505050505060405180910390f35b341561085e57600080fd5b61088a600480803573ffffffffffffffffffffffffffffffffffffffff16906020019091905050612616565b6040518080602001828103825283818151815260200191508051906020019060200280838360005b838110156108cd5780820151818401526020810190506108b2565b505050509050019250505060405180910390f35b34156108ec57600080fd5b61090260048080359060200190919050506126ec565b6040518080602001828103825283818151815260200191508051906020019080838360005b83811015610942578082015181840152602081019050610927565b50505050905090810190601f16801561096f5780820380516001836020036101000a031916815260200191505b509250505060405180910390f35b341561098857600080fd5b6109b4600480803573ffffffffffffffffffffffffffffffffffffffff169060200190919050506127ba565b6040518082815260200191505060405180910390f35b34156109d557600080fd5b610a01600480803573ffffffffffffffffffffffffffffffffffffffff16906020019091905050612808565b6040518082815260200191505060405180910390f35b3415610a2257600080fd5b610a386004808035906020019091905050612a0b565b604051808781526020018673ffffffffffffffffffffffffffffffffffffffff1673ffffffffffffffffffffffffffffffffffffffff1681526020018573ffffffffffffffffffffffffffffffffffffffff1673ffffffffffffffffffffffffffffffffffffffff1681526020018060200180602001848152602001838103835286818154600181600116156101000203166002900481526020019150805460018160011615610100020316600290048015610b355780601f10610b0a57610100808354040283529160200191610b35565b820191906000526020600020905b815481529060010190602001808311610b1857829003601f168201915b5050838103825285818154600181600116156101000203166002900481526020019150805460018160011615610100020316600290048015610bb85780601f10610b8d57610100808354040283529160200191610bb8565b820191906000526020600020905b815481529060010190602001808311610b9b57829003601f168201915b50509850505050505050505060405180910390f35b3415610bd857600080fd5b610c74600480803590602001908201803590602001908080601f0160208091040260200160405190810160405280939291908181526020018383808284378201915050505050509190803590602001908201803590602001908080601f01602080910402602001604051908101604052809392919081815260200183838082843782019150505050505091908035906020019091905050612a85565b005b610c8c6004808035906020019091905050612cab565b005b3415610c9957600080fd5b610ca1612fe4565b6040518080602001828103825283818151815260200191508051906020019060200280838360005b83811015610ce4578082015181840152602081019050610cc9565b505050509050019250505060405180910390f35b3415610d0357600080fd5b610d0b613078565b604051808273ffffffffffffffffffffffffffffffffffffffff1673ffffffffffffffffffffffffffffffffffffffff16815260200191505060405180910390f35b3415610d5857600080fd5b610da3600480803573ffffffffffffffffffffffffffffffffffffffff1690602001909190803573ffffffffffffffffffffffffffffffffffffffff1690602001909190505061309d565b604051808215151515815260200191505060405180910390f35b3415610dc857600080fd5b610e37600480803573ffffffffffffffffffffffffffffffffffffffff1690602001909190803590602001908201803590602001908080601f01602080910402602001604051908101604052809392919081815260200183838082843782019150505050505091905050613134565b005b3415610e4457600080fd5b610e70600480803573ffffffffffffffffffffffffffffffffffffffff169060200190919050506131c3565b6040518082815260200191505060405180910390f35b3415610e9157600080fd5b610ec6600480803573ffffffffffffffffffffffffffffffffffffffff169060200190919080359060200190919050506131db565b6040518082815260200191505060405180910390f35b3415610ee757600080fd5b610eef613251565b6040518082815260200191505060405180910390f35b3415610f1057600080fd5b610f26600480803590602001909190505061325b565b005b3415610f3357600080fd5b610f3b6133f0565b6040518080602001828103825283818151815260200191508051906020019060200280838360005b83811015610f7e578082015181840152602081019050610f63565b505050509050019250505060405180910390f35b3415610f9d57600080fd5b610fc9600480803573ffffffffffffffffffffffffffffffffffffffff16906020019091905050613484565b6040518082815260200191505060405180910390f35b3415610fea57600080fd5b611000600480803590602001909190505061349c565b604051808273ffffffffffffffffffffffffffffffffffffffff1673ffffffffffffffffffffffffffffffffffffffff16815260200191505060405180910390f35b341561104d57600080fd5b611079600480803573ffffffffffffffffffffffffffffffffffffffff169060200190919050506134db565b6040518082815260200191505060405180910390f35b341561109a57600080fd5b6110b0600480803590602001909190505061368e565b604051808273ffffffffffffffffffffffffffffffffffffffff1673ffffffffffffffffffffffffffffffffffffffff16815260200191505060405180910390f35b34156110fd57600080fd5b611129600480803573ffffffffffffffffffffffffffffffffffffffff169060200190919050506136cd565b604051808215151515815260200191505060405180910390f35b341561114e57600080fd5b611199600480803573ffffffffffffffffffffffffffffffffffffffff1690602001909190803573ffffffffffffffffffffffffffffffffffffffff169060200190919050506136ed565b604051808215151515815260200191505060405180910390f35b34156111be57600080fd5b6111ea600480803573ffffffffffffffffffffffffffffffffffffffff16906020019091905050613784565b6040518080602001828103825283818151815260200191508051906020019060200280838360005b8381101561122d578082015181840152602081019050611212565b505050509050019250505060405180910390f35b341561124c57600080fd5b611278600480803573ffffffffffffffffffffffffffffffffffffffff1690602001909190505061385a565b6040518082815260200191505060405180910390f35b341561129957600080fd5b6112c5600480803573ffffffffffffffffffffffffffffffffffffffff169060200190919050506138a9565b005b6112cf613c1a565b6112d7613c1a565b6000806112e2613c1a565b60006003546040518059106112f45750595b9080825280602002602001820160405250945060009350600192505b600354831115156113b95760006002600085815260200190815260200160002060020160009054906101000a900473ffffffffffffffffffffffffffffffffffffffff1673ffffffffffffffffffffffffffffffffffffffff1614156113ac576002600084815260200190815260200160002060000154858581518110151561139557fe5b906020019060200201818152505083806001019450505b8280600101935050611310565b836040518059106113c75750595b90808252806020026020018201604052509150600190505b83811115156114295784818151811015156113f657fe5b90602001906020020151828281518110151561140e57fe5b906020019060200201818152505080806001019150506113df565b819550505050505090565b60118181548110151561144357fe5b90600052602060002090016000915054906101000a900473ffffffffffffffffffffffffffffffffffffffff1681565b600f6020528060005260406000206000915090505481565b600080611496613c2e565b6000806114a1613c2e565b600080600080600080600b60008e73ffffffffffffffffffffffffffffffffffffffff1673ffffffffffffffffffffffffffffffffffffffff168152602001908152602001600020600201549550600b60008e73ffffffffffffffffffffffffffffffffffffffff1673ffffffffffffffffffffffffffffffffffffffff168152602001908152602001600020600301549450600b60008e73ffffffffffffffffffffffffffffffffffffffff1673ffffffffffffffffffffffffffffffffffffffff1681526020019081526020016000206004019350600d60008e73ffffffffffffffffffffffffffffffffffffffff1673ffffffffffffffffffffffffffffffffffffffff1681526020019081526020016000206002015492506115c68d612808565b9150600d60008e73ffffffffffffffffffffffffffffffffffffffff1673ffffffffffffffffffffffffffffffffffffffff16815260200190815260200160002060030190508585858585858380548060200260200160405190810160405280929190818152602001828054801561169357602002820191906000526020600020905b8160009054906101000a900473ffffffffffffffffffffffffffffffffffffffff1673ffffffffffffffffffffffffffffffffffffffff1681526020019060010190808311611649575b505050505093508080548060200260200160405190810160405280929190818152602001828054801561171b57602002820191906000526020600020905b8160009054906101000a900473ffffffffffffffffffffffffffffffffffffffff1673ffffffffffffffffffffffffffffffffffffffff16815260200190600101908083116116d1575b505050505090509b509b509b509b509b509b5050505050505091939550919395565b611745613c2e565b60118054806020026020016040519081016040528092919081815260200182805480156117c757602002820191906000526020600020905b8160009054906101000a900473ffffffffffffffffffffffffffffffffffffffff1673ffffffffffffffffffffffffffffffffffffffff168152602001906001019080831161177d575b5050505050905090565b6000806000341415156117e357600080fd5b6008838154811015156117f257fe5b906000526020600020906002020160000160009054906101000a900473ffffffffffffffffffffffffffffffffffffffff169150600a60003373ffffffffffffffffffffffffffffffffffffffff1673ffffffffffffffffffffffffffffffffffffffff16815260200190815260200160002060009054906101000a900460ff16151561187e57600080fd5b60008273ffffffffffffffffffffffffffffffffffffffff16141515156118a457600080fd5b3373ffffffffffffffffffffffffffffffffffffffff168273ffffffffffffffffffffffffffffffffffffffff16141515156118df57600080fd5b600b60003373ffffffffffffffffffffffffffffffffffffffff1673ffffffffffffffffffffffffffffffffffffffff16815260200190815260200160002090508060000160008154809291906001019190505550338160010160006101000a81548173ffffffffffffffffffffffffffffffffffffffff021916908373ffffffffffffffffffffffffffffffffffffffff160217905550806002016000815480929190600101919050555061199c6001826002015460096139d1565b81600301819055508060040180548060010182816119ba9190613c42565b9160005260206000209001600084909190916101000a81548173ffffffffffffffffffffffffffffffffffffffff021916908373ffffffffffffffffffffffffffffffffffffffff1602179055505060018160050160008473ffffffffffffffffffffffffffffffffffffffff1673ffffffffffffffffffffffffffffffffffffffff16815260200190815260200160002060006101000a81548160ff0219169083151502179055506001600c8054806001018281611a799190613c42565b9160005260206000209001600033909190916101000a81548173ffffffffffffffffffffffffffffffffffffffff021916908373ffffffffffffffffffffffffffffffffffffffff1602179055505050611ad38233613a0a565b7f7845b8ad8806c20e29c9d7324b57431f98ecae390bcd677ed79d54fbc7d3dff33383604051808373ffffffffffffffffffffffffffffffffffffffff1673ffffffffffffffffffffffffffffffffffffffff1681526020018273ffffffffffffffffffffffffffffffffffffffff1673ffffffffffffffffffffffffffffffffffffffff1681526020019250505060405180910390a1505050565b6000806000600a60008573ffffffffffffffffffffffffffffffffffffffff1673ffffffffffffffffffffffffffffffffffffffff16815260200190815260200160002060009054906101000a900460ff161515611bcc57600080fd5b600b60003373ffffffffffffffffffffffffffffffffffffffff1673ffffffffffffffffffffffffffffffffffffffff1681526020019081526020016000209150600d60008573ffffffffffffffffffffffffffffffffffffffff1673ffffffffffffffffffffffffffffffffffffffff16815260200190815260200160002090508160050160008573ffffffffffffffffffffffffffffffffffffffff1673ffffffffffffffffffffffffffffffffffffffff16815260200190815260200160002060009054906101000a900460ff1615611d815760008260050160008673ffffffffffffffffffffffffffffffffffffffff1673ffffffffffffffffffffffffffffffffffffffff16815260200190815260200160002060006101000a81548160ff02191690831515021790555081600201600081548092919060019003919050555060008160040160003373ffffffffffffffffffffffffffffffffffffffff1673ffffffffffffffffffffffffffffffffffffffff16815260200190815260200160002060006101000a81548160ff0219169083151502179055508060020160008154809291906001900391905055505b600b60003373ffffffffffffffffffffffffffffffffffffffff1673ffffffffffffffffffffffffffffffffffffffff1681526020019081526020016000206000015492505050919050565b6002600083815260200190815260200160002060020160009054906101000a900473ffffffffffffffffffffffffffffffffffffffff1673ffffffffffffffffffffffffffffffffffffffff163373ffffffffffffffffffffffffffffffffffffffff16141515611e3d57600080fd5b6002600083815260200190815260200160002060010160009054906101000a900473ffffffffffffffffffffffffffffffffffffffff1673ffffffffffffffffffffffffffffffffffffffff163373ffffffffffffffffffffffffffffffffffffffff1614151515611eae57600080fd5b60008110158015611ec0575060058111155b1515611ecb57600080fd5b80600460006002600086815260200190815260200160002060010160009054906101000a900473ffffffffffffffffffffffffffffffffffffffff1673ffffffffffffffffffffffffffffffffffffffff1673ffffffffffffffffffffffffffffffffffffffff168152602001908152602001600020819055505050565b6000600d60008373ffffffffffffffffffffffffffffffffffffffff1673ffffffffffffffffffffffffffffffffffffffff168152602001908152602001600020600301805490509050919050565b6000600b60008373ffffffffffffffffffffffffffffffffffffffff1673ffffffffffffffffffffffffffffffffffffffff168152602001908152602001600020600301549050919050565b611fec613c6e565b600034141515611ffb57600080fd5b600a60003373ffffffffffffffffffffffffffffffffffffffff1673ffffffffffffffffffffffffffffffffffffffff16815260200190815260200160002060009054906101000a900460ff1615151561205457600080fd5b6001600a60003373ffffffffffffffffffffffffffffffffffffffff1673ffffffffffffffffffffffffffffffffffffffff16815260200190815260200160002060006101000a81548160ff02191690831515021790555060408051908101604052803373ffffffffffffffffffffffffffffffffffffffff168152602001838152509050600880548060010182816120ed9190613ca4565b9160005260206000209060020201600083909190915060008201518160000160006101000a81548173ffffffffffffffffffffffffffffffffffffffff021916908373ffffffffffffffffffffffffffffffffffffffff1602179055506020820151816001019080519060200190612166929190613cd6565b50505050600960008154809291906001019190505550600160095403601260003373ffffffffffffffffffffffffffffffffffffffff1673ffffffffffffffffffffffffffffffffffffffff168152602001908152602001600020819055507fe8f84471e30dd45724c20df4d0a852bf7aeb5c3fdb7328f231e08dac15b64f0a3383604051808373ffffffffffffffffffffffffffffffffffffffff1673ffffffffffffffffffffffffffffffffffffffff16815260200180602001828103825283818151815260200191508051906020019080838360005b8381101561225a57808201518184015260208101905061223f565b50505050905090810190601f1680156122875780820380516001836020036101000a031916815260200191505b50935050505060405180910390a1601180548060010182816122a99190613c42565b9160005260206000209001600033909190916101000a81548173ffffffffffffffffffffffffffffffffffffffff021916908373ffffffffffffffffffffffffffffffffffffffff160217905550505050565b60106020528060005260406000206000915090505481565b60088181548110151561232357fe5b90600052602060002090600202016000915090508060000160009054906101000a900473ffffffffffffffffffffffffffffffffffffffff169080600101905082565b6000600354905090565b600760009054906101000a900473ffffffffffffffffffffffffffffffffffffffff1673ffffffffffffffffffffffffffffffffffffffff163373ffffffffffffffffffffffffffffffffffffffff161415156123cc57600080fd5b6000809054906101000a900473ffffffffffffffffffffffffffffffffffffffff1673ffffffffffffffffffffffffffffffffffffffff16ff5b61240e613c2e565b612416613c2e565b600080600a60008673ffffffffffffffffffffffffffffffffffffffff1673ffffffffffffffffffffffffffffffffffffffff16815260200190815260200160002060009054906101000a900460ff16151561247157600080fd5b600d60008673ffffffffffffffffffffffffffffffffffffffff1673ffffffffffffffffffffffffffffffffffffffff1681526020019081526020016000206003019150600b60008673ffffffffffffffffffffffffffffffffffffffff1673ffffffffffffffffffffffffffffffffffffffff168152602001908152602001600020600401905081818180548060200260200160405190810160405280929190818152602001828054801561257c57602002820191906000526020600020905b8160009054906101000a900473ffffffffffffffffffffffffffffffffffffffff1673ffffffffffffffffffffffffffffffffffffffff1681526020019060010190808311612532575b505050505091508080548060200260200160405190810160405280929190818152602001828054801561260457602002820191906000526020600020905b8160009054906101000a900473ffffffffffffffffffffffffffffffffffffffff1673ffffffffffffffffffffffffffffffffffffffff16815260200190600101908083116125ba575b50505050509050935093505050915091565b61261e613c2e565b600d60008373ffffffffffffffffffffffffffffffffffffffff1673ffffffffffffffffffffffffffffffffffffffff1681526020019081526020016000206003018054806020026020016040519081016040528092919081815260200182805480156126e057602002820191906000526020600020905b8160009054906101000a900473ffffffffffffffffffffffffffffffffffffffff1673ffffffffffffffffffffffffffffffffffffffff1681526020019060010190808311612696575b50505050509050919050565b6126f4613d56565b600060088381548110151561270557fe5b90600052602060002090600202016001019050808054600181600116156101000203166002900480601f0160208091040260200160405190810160405280929190818152602001828054600181600116156101000203166002900480156127ad5780601f10612782576101008083540402835291602001916127ad565b820191906000526020600020905b81548152906001019060200180831161279057829003601f168201915b5050505050915050919050565b600080601260008473ffffffffffffffffffffffffffffffffffffffff1673ffffffffffffffffffffffffffffffffffffffff16815260200190815260200160002054905080915050919050565b6000612812613c2e565b6000806000600a60008773ffffffffffffffffffffffffffffffffffffffff1673ffffffffffffffffffffffffffffffffffffffff16815260200190815260200160002060009054906101000a900460ff16151561286f57600080fd5b61287886612616565b9350601060008773ffffffffffffffffffffffffffffffffffffffff1673ffffffffffffffffffffffffffffffffffffffff168152602001908152602001600020549250600f60008773ffffffffffffffffffffffffffffffffffffffff1673ffffffffffffffffffffffffffffffffffffffff1681526020019081526020016000205491508190505b835181101561297657600b6000858381518110151561291d57fe5b9060200190602002015173ffffffffffffffffffffffffffffffffffffffff1673ffffffffffffffffffffffffffffffffffffffff16815260200190815260200160002060030154830192508080600101915050612902565b82601060008873ffffffffffffffffffffffffffffffffffffffff1673ffffffffffffffffffffffffffffffffffffffff168152602001908152602001600020819055508351600f60008873ffffffffffffffffffffffffffffffffffffffff1673ffffffffffffffffffffffffffffffffffffffff1681526020019081526020016000208190555082945050505050919050565b60026020528060005260406000206000915090508060000154908060010160009054906101000a900473ffffffffffffffffffffffffffffffffffffffff16908060020160009054906101000a900473ffffffffffffffffffffffffffffffffffffffff1690806003019080600401908060050154905086565b60036000815480929190600101919050555060c06040519081016040528060035481526020013373ffffffffffffffffffffffffffffffffffffffff168152602001600073ffffffffffffffffffffffffffffffffffffffff168152602001848152602001838152602001828152506002600060035481526020019081526020016000206000820151816000015560208201518160010160006101000a81548173ffffffffffffffffffffffffffffffffffffffff021916908373ffffffffffffffffffffffffffffffffffffffff16021790555060408201518160020160006101000a81548173ffffffffffffffffffffffffffffffffffffffff021916908373ffffffffffffffffffffffffffffffffffffffff1602179055506060820151816003019080519060200190612bbd929190613cd6565b506080820151816004019080519060200190612bda929190613cd6565b5060a082015181600501559050503373ffffffffffffffffffffffffffffffffffffffff166003547f795615f1d4f0e4f6c975e0ede1605f9f7184b7c98e65cea686d1f25b502fa67e85846040518080602001838152602001828103825284818151815260200191508051906020019080838360005b83811015612c6b578082015181840152602081019050612c50565b50505050905090810190601f168015612c985780820380516001836020036101000a031916815260200191505b50935050505060405180910390a3505050565b600080600354111515612cbd57600080fd5b600082118015612ccf57506003548211155b1515612cda57600080fd5b60026000838152602001908152602001600020905060008160020160009054906101000a900473ffffffffffffffffffffffffffffffffffffffff1673ffffffffffffffffffffffffffffffffffffffff16141515612d3857600080fd5b8060010160009054906101000a900473ffffffffffffffffffffffffffffffffffffffff1673ffffffffffffffffffffffffffffffffffffffff163373ffffffffffffffffffffffffffffffffffffffff1614151515612d9757600080fd5b806005015434141515612da957600080fd5b338160020160006101000a81548173ffffffffffffffffffffffffffffffffffffffff021916908373ffffffffffffffffffffffffffffffffffffffff16021790555060008160010160009054906101000a900473ffffffffffffffffffffffffffffffffffffffff1673ffffffffffffffffffffffffffffffffffffffff1614151515612e3657600080fd5b8060010160009054906101000a900473ffffffffffffffffffffffffffffffffffffffff1673ffffffffffffffffffffffffffffffffffffffff166108fc349081150290604051600060405180830381858888f193505050501515612e9a57600080fd5b8060020160009054906101000a900473ffffffffffffffffffffffffffffffffffffffff1673ffffffffffffffffffffffffffffffffffffffff168160010160009054906101000a900473ffffffffffffffffffffffffffffffffffffffff1673ffffffffffffffffffffffffffffffffffffffff167f727072c44d97265938bf1a4def79b99cc438bb4f19a5842bc26d1beea4320099848460030185600501546040518084815260200180602001838152602001828103825284818154600181600116156101000203166002900481526020019150805460018160011615610100020316600290048015612fd05780601f10612fa557610100808354040283529160200191612fd0565b820191906000526020600020905b815481529060010190602001808311612fb357829003601f168201915b505094505050505060405180910390a35050565b612fec613c2e565b600e80548060200260200160405190810160405280929190818152602001828054801561306e57602002820191906000526020600020905b8160009054906101000a900473ffffffffffffffffffffffffffffffffffffffff1673ffffffffffffffffffffffffffffffffffffffff1681526020019060010190808311613024575b5050505050905090565b6000809054906101000a900473ffffffffffffffffffffffffffffffffffffffff1681565b6000600d60008373ffffffffffffffffffffffffffffffffffffffff1673ffffffffffffffffffffffffffffffffffffffff16815260200190815260200160002060040160008473ffffffffffffffffffffffffffffffffffffffff1673ffffffffffffffffffffffffffffffffffffffff16815260200190815260200160002060009054906101000a900460ff16905092915050565b6000803414151561314457600080fd5b8273ffffffffffffffffffffffffffffffffffffffff163373ffffffffffffffffffffffffffffffffffffffff1614151561317e57600080fd5b613187836127ba565b90508160088281548110151561319957fe5b906000526020600020906002020160010190805190602001906131bd929190613d6a565b50505050565b60046020528060005260406000206000915090505481565b60008060006001600660008773ffffffffffffffffffffffffffffffffffffffff1673ffffffffffffffffffffffffffffffffffffffff168152602001908152602001600020541015156132425761323684600260096139d1565b91508184039050613246565b8390505b809250505092915050565b6000600954905090565b6000806002600084815260200190815260200160002060010160009054906101000a900473ffffffffffffffffffffffffffffffffffffffff1691506002600084815260200190815260200160002060020160009054906101000a900473ffffffffffffffffffffffffffffffffffffffff1690508073ffffffffffffffffffffffffffffffffffffffff163373ffffffffffffffffffffffffffffffffffffffff1614151561330a57600080fd5b6001600560008473ffffffffffffffffffffffffffffffffffffffff1673ffffffffffffffffffffffffffffffffffffffff16815260200190815260200160002060006101000a81548160ff021916908315150217905550600660008373ffffffffffffffffffffffffffffffffffffffff1673ffffffffffffffffffffffffffffffffffffffff168152602001908152602001600020600081548092919060010191905055600660008473ffffffffffffffffffffffffffffffffffffffff1673ffffffffffffffffffffffffffffffffffffffff1681526020019081525050505050565b6133f8613c2e565b600c80548060200260200160405190810160405280929190818152602001828054801561347a57602002820191906000526020600020905b8160009054906101000a900473ffffffffffffffffffffffffffffffffffffffff1673ffffffffffffffffffffffffffffffffffffffff1681526020019060010190808311613430575b5050505050905090565b60066020528060005260406000206000915090505481565b600c818154811015156134ab57fe5b90600052602060002090016000915054906101000a900473ffffffffffffffffffffffffffffffffffffffff1681565b6000806000806000806000806000806000600a60008d73ffffffffffffffffffffffffffffffffffffffff1673ffffffffffffffffffffffffffffffffffffffff16815260200190815260200160002060009054906101000a900460ff16151561354457600080fd5b600b60008d73ffffffffffffffffffffffffffffffffffffffff1673ffffffffffffffffffffffffffffffffffffffff168152602001908152602001600020600201549950600d60008d73ffffffffffffffffffffffffffffffffffffffff1673ffffffffffffffffffffffffffffffffffffffff1681526020019081526020016000206002015498506135d78c612808565b975060018a111580156135eb575060018911155b156135fc5760009650869a5061367f565b6136068a8a613be2565b94506136128a8a613bfe565b9350613620858560096139d1565b9250600b60008d73ffffffffffffffffffffffffffffffffffffffff1673ffffffffffffffffffffffffffffffffffffffff16815260200190815260200160002060030154915087905080830296506136798c886131db565b9550859a505b50505050505050505050919050565b600e8181548110151561369d57fe5b90600052602060002090016000915054906101000a900473ffffffffffffffffffffffffffffffffffffffff1681565b60056020528060005260406000206000915054906101000a900460ff1681565b6000600b60008473ffffffffffffffffffffffffffffffffffffffff1673ffffffffffffffffffffffffffffffffffffffff16815260200190815260200160002060050160008373ffffffffffffffffffffffffffffffffffffffff1673ffffffffffffffffffffffffffffffffffffffff16815260200190815260200160002060009054906101000a900460ff16905092915050565b61378c613c2e565b600b60008373ffffffffffffffffffffffffffffffffffffffff1673ffffffffffffffffffffffffffffffffffffffff16815260200190815260200160002060040180548060200260200160405190810160405280929190818152602001828054801561384e57602002820191906000526020600020905b8160009054906101000a900473ffffffffffffffffffffffffffffffffffffffff1673ffffffffffffffffffffffffffffffffffffffff1681526020019060010190808311613804575b50505050509050919050565b6000600b60008373ffffffffffffffffffffffffffffffffffffffff1673ffffffffffffffffffffffffffffffffffffffff168152602001908152602001600020600401805490509050919050565b600760009054906101000a900473ffffffffffffffffffffffffffffffffffffffff1673ffffffffffffffffffffffffffffffffffffffff163373ffffffffffffffffffffffffffffffffffffffff1614151561390557600080fd5b60008173ffffffffffffffffffffffffffffffffffffffff161415151561392b57600080fd5b80600160006101000a81548173ffffffffffffffffffffffffffffffffffffffff021916908373ffffffffffffffffffffffffffffffffffffffff160217905550600160009054906101000a900473ffffffffffffffffffffffffffffffffffffffff166000806101000a81548173ffffffffffffffffffffffffffffffffffffffff021916908373ffffffffffffffffffffffffffffffffffffffff16021790555050565b600080600060018401600a0a86029150600a600586848115156139f057fe5b04018115156139fb57fe5b04905080925050509392505050565b6000600d60008473ffffffffffffffffffffffffffffffffffffffff1673ffffffffffffffffffffffffffffffffffffffff1681526020019081526020016000209050828160010160006101000a81548173ffffffffffffffffffffffffffffffffffffffff021916908373ffffffffffffffffffffffffffffffffffffffff16021790555080600001600081548092919060010191905055508060020160008154809291906001019190505550806003018054806001018281613ace9190613c42565b9160005260206000209001600084909190916101000a81548173ffffffffffffffffffffffffffffffffffffffff021916908373ffffffffffffffffffffffffffffffffffffffff1602179055505060018160040160008473ffffffffffffffffffffffffffffffffffffffff1673ffffffffffffffffffffffffffffffffffffffff16815260200190815260200160002060006101000a81548160ff0219169083151502179055506001600e8054806001018281613b8d9190613c42565b9160005260206000209001600086909190916101000a81548173ffffffffffffffffffffffffffffffffffffffff021916908373ffffffffffffffffffffffffffffffffffffffff1602179055505050505050565b600081831015613bf457829050613bf8565b8190505b92915050565b600081831015613c1057819050613c14565b8290505b92915050565b602060405190810160405280600081525090565b602060405190810160405280600081525090565b815481835581811511613c6957818360005260206000209182019101613c689190613dea565b5b505050565b6040805190810160405280600073ffffffffffffffffffffffffffffffffffffffff168152602001613c9e613e0f565b81525090565b815481835581811511613cd157600202816002028360005260206000209182019101613cd09190613e23565b5b505050565b828054600181600116156101000203166002900490600052602060002090601f016020900481019282601f10613d1757805160ff1916838001178555613d45565b82800160010185558215613d45579182015b82811115613d44578251825591602001919060010190613d29565b5b509050613d529190613dea565b5090565b602060405190810160405280600081525090565b828054600181600116156101000203166002900490600052602060002090601f016020900481019282601f10613dab57805160ff1916838001178555613dd9565b82800160010185558215613dd9579182015b82811115613dd8578251825591602001919060010190613dbd565b5b509050613de69190613dea565b5090565b613e0c91905b80821115613e08576000816000905550600101613df0565b5090565b90565b602060405190810160405280600081525090565b613e7691905b80821115613e7257600080820160006101000a81549073ffffffffffffffffffffffffffffffffffffffff0219169055600182016000613e699190613e79565b50600201613e29565b5090565b90565b50805460018160011615610100020316600290046000825580601f10613e9f5750613ebe565b601f016020900490600052602060002090810190613ebd9190613dea565b5b505600a165627a7a723058204538b96c7ceaaea944822334c31a5249df1da9de7e62fa9ed1b4863966c1e5a10029",
  "source": "pragma solidity ^0.4.18;\n\nimport \"./Ownable.sol\";\nimport \"./Killable.sol\";\nimport \"./MarketPlace.sol\";\n\ncontract Endorsement is Ownable, Killable, MarketPlace {\n\n\taddress owner;\n    \n    struct Participant { \n        address identifier;\n        string name;\n    }\n    \n    struct Endorser {\n\t\tuint index;\n        address sender;\n        uint nEG;\n        uint usedPower;\n        address[] givenTo;\n        mapping(address => bool) hasGivenTo;\n    }\n\n\tstruct Endorsee { \n\t\tuint index;\n\t\taddress receiver;\n\t\tuint nER;\n\t//\tuint receivedPoints;\n\t\taddress[] receivedFrom;\n\t\tmapping(address => bool) hasReceivedFrom;\n\t}\n\tParticipant [] public participants;\n\t\n\tuint numberOfParticipants;\n\tmapping(address => bool) joined;\n\tmapping (address => Endorser) endorsers;\n\taddress[] public endorserAccts;\n\n\tmapping (address => Endorsee ) endorsees;\n\taddress[] public endorseeAccts;\n\n\n\tmapping (address => uint) public prevLength;\n\tmapping (address => uint) public receivedPoints;\n    \n\t// modifiers\n\t// set owner of contract - replace eventually with Ownable contract\n\tmodifier onlyOwner() { \n\t\trequire(msg.sender == owner );\n\t\t_;\n\t}\n\n\t//reject any ether transfer \n\tmodifier HasNoEther( ){ \n\t\trequire(msg.value == 0);\n\t\t_;\n\t}\n\n\t//constructor\n\tfunction Endorsement() public { \n\t\t//EDSToken( );\n\t\towner = msg.sender;\n\t}\n\n\t//event logs\n\tevent LogJoinNetwork(\n\t\taddress _participant, \n\t\tstring _name\n\t);  \n\n\tevent LogEndorse(\n\t\taddress _endorser, \n\t\taddress _endorsee\n\t);\n\n\taddress [] public allParticipants;\n\n\tmapping (address => uint ) participantIndex;\n\n\n\t//Join Network as any user\n\tfunction joinNetwork(string _userName) public HasNoEther {\n\n\t\t//only allow unregistered participant\n\t    require(!joined[msg.sender]);\n\n\t    joined[msg.sender] = true;\n\n\t\t// store senders id and name\n\t    Participant memory newParticipant = Participant({\n\t        identifier: msg.sender,\n\t        name: _userName\n\t    });\n\n\t\t//add new participant to the existing list of joined members\n\t\tparticipants.push(newParticipant);\n\t\tnumberOfParticipants++;\n\t\tparticipantIndex[msg.sender] = numberOfParticipants-1;\n\n\t\tLogJoinNetwork(msg.sender, _userName);\n\n\t\tallParticipants.push(msg.sender);\n\t}\n\n\t//get list of all participants\n\tfunction getAllParticipants() public view returns(address[]) {\n\n\t\treturn allParticipants;\n\t}\n\n\t//get index of participant by address, helper function, view modifier \n\tfunction getParticipantIndex(address _participant) public view returns (uint ) {\n\n\t\tuint userIndex = participantIndex[_participant];\n\t\treturn userIndex;\n\t}\n\n\t//Profile-related changes of participants\n\tfunction getName(uint _index ) public view returns (string ) {\n\n\t\tstring name = participants[_index].name;\n\t\treturn name;\n\t}\n\n\tfunction editProfile(address _participant, \n\t\t\t\t\t\t string _name\n\t\t\t\t\t\t) public HasNoEther {\n\n\t\t//verify editor is same as profile owner\n\t\trequire(msg.sender == _participant);\n\n\t\t//change state\n\t\tuint id = getParticipantIndex(_participant);\n\t\tparticipants[id].name = _name;\n\t}\n\n\t//send Endorsement - from  endorser to endorsee\n\tfunction endorse(uint _index) public HasNoEther { \n\n\t\t// get address of endorsee\n\t    address receiver = participants[_index].identifier;\n\n\t    \n\t\t//verify endorser and endorsee are different and registered \n\t\trequire(joined[msg.sender]);\n\t\trequire(receiver != 0x0);\n\t\trequire(receiver != msg.sender);\n\t    \n\t\t//store and update new endorser information\n\t\tEndorser storage endorser = endorsers[msg.sender];\n\n\t\tendorser.index++;\n\t\tendorser.sender = msg.sender;\n\t\tendorser.nEG++;\n\t\t\n//\t\tif (endorser.nEG >1 ){ \n//\t\t\tendorser.usedPower = Division(1, endorser.nEG,9);\n//\t\t} else {\n//\t\t\tendorser.usedPower = 0;\n//\t\t}\n\t\t\n\t    endorser.usedPower =Division(1,endorser.nEG, 9);\n\t    endorser.givenTo.push(receiver);\n\t    endorser.hasGivenTo[receiver] = true;\n\t    \n\t    endorserAccts.push(msg.sender) - 1;\n\n\t\t//trigger call for updating endorsee information\n\t\tupdateEndorsee(receiver, msg.sender);\n\n\t\t//Log endorsement event\n\t\tLogEndorse(msg.sender, receiver);\n\t}\n\n\t//store and update new endorsee information after transaction call\n\tfunction updateEndorsee(address _receiver, \n\t\t\t\t\t\t\taddress _sender) internal { \n\n\t\tEndorsee storage endorsee = endorsees[_receiver];\n\t\tendorsee.receiver = _receiver;\n\t\tendorsee.index++;\n\t\tendorsee.nER++;\n\t//\tendorsee.receivedPoints = computeReceivedPoints(_receiver);\n\t\tendorsee.receivedFrom.push(_sender);\n\t\tendorsee.hasReceivedFrom[_sender] = true;\n\n\t\tendorseeAccts.push(_receiver) - 1;\n\t}\n\n\t//remove endorsement as an endorser of an endorsee\n\tfunction removeEndorsement(address _endorsee) public returns(uint) { \n\n\t\trequire (joined[_endorsee]);\n\n\t\tEndorser storage endorser = endorsers[msg.sender]; \n\t\tEndorsee storage endorsee = endorsees[_endorsee]; \n\t\t\n\t\t//proceed only if endorsee is in the endorser's list of endorsees\n\t\tif (endorser.hasGivenTo[_endorsee]) { \n\t\t\tendorser.hasGivenTo[_endorsee] = false;\n\t\t\tendorser.nEG--;\n\n\t\t\t//remove endorsee from endorser.givenTo array \n\t\t\tendorsee.hasReceivedFrom[msg.sender] = false;\n\t\t\tendorsee.nER--;\n\n\t\t\t//remove endorser address from endorsee.receivedFrom array\n\t\t}\n\t\treturn endorsers[msg.sender].index;\n\t}\n\n\t//computation of total received points of an endorsee \n\tfunction computeReceivedPoints(address _endorsee) public view returns(uint) { \n\n\t\trequire(joined[_endorsee]);\n\n\t\t//get list of endorsers addresses from whom _endorsee has received eds from\n\t\taddress [] memory receivedFrom = getReceivedFrom(_endorsee);\n\n\t\tuint TRP = receivedPoints[_endorsee];\n\t\tuint len = prevLength[_endorsee]; \n\n\t\tfor (uint i=len; i< receivedFrom.length; i++){\n\t\t\tTRP = TRP + endorsers[receivedFrom[i]].usedPower;\n\t\t}\n\t\treceivedPoints[_endorsee] = TRP;\n\t\tprevLength[_endorsee] = receivedFrom.length;\n\t\treturn TRP;\n\n\n\t\t//aggregate total received points from  the accumulated receivedFrom list\n//\t\tuint receivedPoints;\n//\n//\t\tfor (uint i=0; i<receivedFrom.length; i++) { \n//\t\t\treceivedPoints = receivedPoints + endorsers[receivedFrom[i]].usedPower;\n//\t\t}\n//\n//\t\treturn receivedPoints;\n\t}\n\n\t//computation of total endorsement impact of a participant\n\t//the degree of connection should be strictly greater than 1 to be considered for \n\t//impact computation, else, the impact by default should be ignorant, i.e., 0\n\tfunction computeImpact(address _participant) public view returns (uint) { \n\n\t\trequire (joined[_participant]);\n\n\t\tuint nEG = endorsers[_participant].nEG;\n\t\tuint nER = endorsees[_participant].nER;\n\n\t\tuint _RE = computeReceivedPoints(_participant);\n\n\t\tuint impact;\n\t\tuint totalImpact;\n\n\t\tif (nEG <=1 && nER <=1 ) {\n\t\t\timpact = 0;\n\t\t\treturn impact;\n\t\t\t//return impact and exit here\n\t\t} else { \n\n\t\t\tuint minval = min(nEG,nER);\n\t\t\tuint maxval = max(nEG,nER);\n\n\t\t\tuint ratio = Division(minval, maxval,9);\n\t\t\tuint usedUpByParticipant = endorsers[_participant].usedPower;\n\t\t\tuint RE = _RE; \n\n\t\t\timpact = ratio * RE;\n\t\t}\n\t\t\n\n\n\t\t// call feedback function here\n\t\ttotalImpact = transactionFeedBack(_participant, impact);\n\t\treturn totalImpact;\n\t}\n\n\t//Receive feedback from Transaction Network and penalize the nodes\n\tfunction transactionFeedBack(address _participant, \n\t\t\t\t\t\t\t\t uint _impact ) \n\t\t\t\t\t\t\t\t public returns (uint) {\n\n\t\tif (flagCount[_participant] >= 1) {\n\t\t\t//Decrease the current impact by 50 %\n\t\t\tuint res = Division(_impact,2,9);\n\t\t\tuint penalty = _impact - res ; \n\n\t\t} else {\n\t\t\tpenalty = _impact;\n\t\t\n\t\t}\n\n\t\treturn penalty;\n\t}\n\n\t//Single function to get all the details of a registered participant\n\tfunction getProfile(address _participant) public view returns (\n\t\tuint,\n\t\tuint, \n\t\taddress[], \n\t\tuint, \n\t\tuint, \n\t\taddress[] ) \n\t\t{ \n\n\t\tuint outDegree = endorsers[_participant].nEG;\n\t\tuint usedPower = endorsers[_participant].usedPower;\n\t\taddress[] outConns  = endorsers[_participant].givenTo;\n\t\t\n\t\tuint inDegree =\t endorsees[_participant].nER;\n\t\tuint receivedPoints = computeReceivedPoints(_participant);\n\t\taddress[] inConns   = endorsees[_participant].receivedFrom;\n\n\t\treturn ( \n\t\t\t\toutDegree, \n\t\t\t\tusedPower,\n\t\t\t\toutConns,\n\n\t\t\t\tinDegree,\n\t\t\t\treceivedPoints,\n\t\t\t\tinConns\n\t\t);\n\t}\n\n\t//get connections and degree of connections - helper function\n\tfunction getConnections(address _participant) public view returns (\n\t\taddress [],\n\t\taddress []\n\t){\n\n\t\trequire (joined[_participant]);\n\n\t\taddress [] inConns = endorsees[_participant].receivedFrom;\n\t\taddress [] outConns = endorsers[_participant].givenTo;\n\n\t\treturn (inConns, outConns);\n\t}\n\n\t//count total number of registered participants\n\tfunction getCount( ) public view returns (uint) {\n\n\t\treturn numberOfParticipants;\n\n\t}\n\n\t//return array of all endorser accounts\n\tfunction getEndorsers() view public returns (address []) { \n\n\t    return endorserAccts;\n\n\t}\n\n\t//return the total consumable power used by an endorser\n\tfunction getUsedPower(address _endorser) view public returns(uint) {\n\n\t    return (endorsers[_endorser].usedPower);\n\n\t}\n\n\t//return list of addresses that an endorser has sent endorsement to \n\tfunction getGivenTo(address _endorser) view public returns(address []) {\n\t    return (endorsers[_endorser].givenTo);\n\t}\n\n\t//return number of endorsees an endorser has sent endorsement to\n\tfunction getGivenToCount(address _endorser ) view public returns (uint) {\n\t\treturn (endorsers[_endorser].givenTo).length;\n\t}\n\t\n\t//return a boolean value from the matrix of hasGivenTo, quick access for checking \n\t//if an endorsee's address is in the list of endorsee addresses of the particular endorser.\n\tfunction gethasGivenTo(address _endorser, \n\t\t\t\t\t\t   address _endorsee) view public returns(bool) {\n\t    return (endorsers[_endorser].hasGivenTo[_endorsee]);\n\t}\n\n\t//return an array of all endorsee accounts - front end\n\tfunction getEndorsees() view public returns (address []) { \n\t    return endorseeAccts;\n\t}\n\n\t//return address of all the endorsers for an endorsee, helper function to \n\t//compute total received point\n\tfunction getReceivedFrom(address _endorsee) view public returns(address []) {\n\t    return (endorsees[_endorsee].receivedFrom);\n\t}\n\n\t//count total number of endorser for an address of endorsee\n\tfunction getReceivedFromCount(address _endorsee) view public returns (uint ) {\n\t\treturn (endorsees[_endorsee].receivedFrom).length;\n\t}\n\n\t//return a boolean value from the matrix of hasReceivedFrom, to check if \n\t// an endorser's address is in the list of endorser address of the particular endorsee\n\tfunction gethasReceivedFrom(address _endorser, \n\t\t\t\t\t\t\t\taddress _endorsee) view public returns(bool) {\n\t    return (endorsees[_endorsee].hasReceivedFrom[_endorser]);\n\t}\n\n\t\n\t//some helper  functions for floating point calculation\n\tfunction Division( uint _numerator, \n\t\t\t\t\t  uint _denominator, \n\t\t\t\t\t  uint _precision) internal pure returns (uint _quotient) {\n\n\t\tuint numerator = _numerator * 10 ** (_precision + 1);\n\t\tuint quotient = ((numerator / _denominator) + 5  ) / 10;\n\n\t\treturn (quotient);\t\t\n\t}\n\n\t//some helper maths function to compute max, min value.\n\t//used for computing ratio and ensuring that the ratio is always less than 1.\n\tfunction max (uint x, uint y ) internal pure returns (uint) {\n\t\tif (x < y) {\n\t\t\treturn y;\n\t\t} else  {  \n\t\t\treturn x;\n\t\t}\n\t}\n\n\tfunction min (uint x, uint y ) internal pure returns (uint) { \n\t\tif (x < y) { \n\t\t\treturn x;\n\t\t} else {\n\t\t\treturn y;\n\t\t}\n\t}\n}\n",
  "sourcePath": "/home/sujata/Documents/Masters-Thesis/endorsements/ethereum/contracts/Endorsement.sol",
  "compiler": {
    "name": "solc",
    "version": "0.4.19+commit.c4cbbb05.Emscripten.clang"
  },
  "schemaVersion": "2.0.0",
  "updatedAt": "2018-09-18T14:37:13.300Z"
}