{
  "contractName": "Endorsement",
  "abi": [
    {
      "constant": true,
      "inputs": [],
      "name": "getProductsForSale",
      "outputs": [
        {
          "name": "",
          "type": "uint256[]"
        }
      ],
      "payable": false,
      "stateMutability": "view",
      "type": "function"
    },
    {
      "constant": true,
      "inputs": [
        {
          "name": "",
          "type": "uint256"
        }
      ],
      "name": "allParticipants",
      "outputs": [
        {
          "name": "",
          "type": "address"
        }
      ],
      "payable": false,
      "stateMutability": "view",
      "type": "function"
    },
    {
      "constant": false,
      "inputs": [
        {
          "name": "_productId",
          "type": "uint256"
        },
        {
          "name": "_rating",
          "type": "uint256"
        }
      ],
      "name": "leaveRating",
      "outputs": [],
      "payable": false,
      "stateMutability": "nonpayable",
      "type": "function"
    },
    {
      "constant": true,
      "inputs": [
        {
          "name": "",
          "type": "uint256"
        }
      ],
      "name": "participants",
      "outputs": [
        {
          "name": "identifier",
          "type": "address"
        },
        {
          "name": "name",
          "type": "string"
        }
      ],
      "payable": false,
      "stateMutability": "view",
      "type": "function"
    },
    {
      "constant": true,
      "inputs": [],
      "name": "getNumberOfProducts",
      "outputs": [
        {
          "name": "",
          "type": "uint256"
        }
      ],
      "payable": false,
      "stateMutability": "view",
      "type": "function"
    },
    {
      "constant": false,
      "inputs": [],
      "name": "kill",
      "outputs": [],
      "payable": false,
      "stateMutability": "nonpayable",
      "type": "function"
    },
    {
      "constant": true,
      "inputs": [
        {
          "name": "",
          "type": "uint256"
        }
      ],
      "name": "products",
      "outputs": [
        {
          "name": "id",
          "type": "uint256"
        },
        {
          "name": "seller",
          "type": "address"
        },
        {
          "name": "buyer",
          "type": "address"
        },
        {
          "name": "name",
          "type": "string"
        },
        {
          "name": "description",
          "type": "string"
        },
        {
          "name": "price",
          "type": "uint256"
        }
      ],
      "payable": false,
      "stateMutability": "view",
      "type": "function"
    },
    {
      "constant": false,
      "inputs": [
        {
          "name": "_name",
          "type": "string"
        },
        {
          "name": "_description",
          "type": "string"
        },
        {
          "name": "_price",
          "type": "uint256"
        }
      ],
      "name": "sellProduct",
      "outputs": [],
      "payable": false,
      "stateMutability": "nonpayable",
      "type": "function"
    },
    {
      "constant": false,
      "inputs": [
        {
          "name": "_productId",
          "type": "uint256"
        }
      ],
      "name": "buyProduct",
      "outputs": [],
      "payable": true,
      "stateMutability": "payable",
      "type": "function"
    },
    {
      "constant": true,
      "inputs": [],
      "name": "owner",
      "outputs": [
        {
          "name": "",
          "type": "address"
        }
      ],
      "payable": false,
      "stateMutability": "view",
      "type": "function"
    },
    {
      "constant": true,
      "inputs": [
        {
          "name": "",
          "type": "address"
        }
      ],
      "name": "ratings",
      "outputs": [
        {
          "name": "",
          "type": "uint256"
        }
      ],
      "payable": false,
      "stateMutability": "view",
      "type": "function"
    },
    {
      "constant": false,
      "inputs": [
        {
          "name": "_productId",
          "type": "uint256"
        }
      ],
      "name": "flagSeller",
      "outputs": [],
      "payable": false,
      "stateMutability": "nonpayable",
      "type": "function"
    },
    {
      "constant": true,
      "inputs": [
        {
          "name": "",
          "type": "address"
        }
      ],
      "name": "flagCount",
      "outputs": [
        {
          "name": "",
          "type": "uint256"
        }
      ],
      "payable": false,
      "stateMutability": "view",
      "type": "function"
    },
    {
      "constant": true,
      "inputs": [
        {
          "name": "",
          "type": "uint256"
        }
      ],
      "name": "endorserAccts",
      "outputs": [
        {
          "name": "",
          "type": "address"
        }
      ],
      "payable": false,
      "stateMutability": "view",
      "type": "function"
    },
    {
      "constant": true,
      "inputs": [
        {
          "name": "",
          "type": "uint256"
        }
      ],
      "name": "endorseeAccts",
      "outputs": [
        {
          "name": "",
          "type": "address"
        }
      ],
      "payable": false,
      "stateMutability": "view",
      "type": "function"
    },
    {
      "constant": true,
      "inputs": [
        {
          "name": "",
          "type": "address"
        }
      ],
      "name": "flag",
      "outputs": [
        {
          "name": "",
          "type": "bool"
        }
      ],
      "payable": false,
      "stateMutability": "view",
      "type": "function"
    },
    {
      "constant": false,
      "inputs": [
        {
          "name": "_newOwner",
          "type": "address"
        }
      ],
      "name": "transferOwnership",
      "outputs": [],
      "payable": false,
      "stateMutability": "nonpayable",
      "type": "function"
    },
    {
      "inputs": [],
      "payable": false,
      "stateMutability": "nonpayable",
      "type": "constructor"
    },
    {
      "anonymous": false,
      "inputs": [
        {
          "indexed": false,
          "name": "_participant",
          "type": "address"
        },
        {
          "indexed": false,
          "name": "_name",
          "type": "string"
        }
      ],
      "name": "LogJoinNetwork",
      "type": "event"
    },
    {
      "anonymous": false,
      "inputs": [
        {
          "indexed": false,
          "name": "_endorser",
          "type": "address"
        },
        {
          "indexed": false,
          "name": "_endorsee",
          "type": "address"
        }
      ],
      "name": "LogEndorse",
      "type": "event"
    },
    {
      "anonymous": false,
      "inputs": [
        {
          "indexed": true,
          "name": "_id",
          "type": "uint256"
        },
        {
          "indexed": true,
          "name": "_seller",
          "type": "address"
        },
        {
          "indexed": false,
          "name": "_name",
          "type": "string"
        },
        {
          "indexed": false,
          "name": "_price",
          "type": "uint256"
        }
      ],
      "name": "LogSellProduct",
      "type": "event"
    },
    {
      "anonymous": false,
      "inputs": [
        {
          "indexed": false,
          "name": "_productId",
          "type": "uint256"
        },
        {
          "indexed": true,
          "name": "_seller",
          "type": "address"
        },
        {
          "indexed": true,
          "name": "_buyer",
          "type": "address"
        },
        {
          "indexed": false,
          "name": "_name",
          "type": "string"
        },
        {
          "indexed": false,
          "name": "_price",
          "type": "uint256"
        }
      ],
      "name": "LogBuyProduct",
      "type": "event"
    },
    {
      "anonymous": false,
      "inputs": [
        {
          "indexed": true,
          "name": "oldOwner",
          "type": "address"
        },
        {
          "indexed": true,
          "name": "newOwner",
          "type": "address"
        }
      ],
      "name": "ownershipTransfer",
      "type": "event"
    },
    {
      "constant": false,
      "inputs": [
        {
          "name": "_userName",
          "type": "string"
        }
      ],
      "name": "joinNetwork",
      "outputs": [],
      "payable": false,
      "stateMutability": "nonpayable",
      "type": "function"
    },
    {
      "constant": true,
      "inputs": [],
      "name": "getAllParticipants",
      "outputs": [
        {
          "name": "",
          "type": "address[]"
        }
      ],
      "payable": false,
      "stateMutability": "view",
      "type": "function"
    },
    {
      "constant": true,
      "inputs": [
        {
          "name": "_participant",
          "type": "address"
        }
      ],
      "name": "getParticipantIndex",
      "outputs": [
        {
          "name": "",
          "type": "uint256"
        }
      ],
      "payable": false,
      "stateMutability": "view",
      "type": "function"
    },
    {
      "constant": true,
      "inputs": [
        {
          "name": "_index",
          "type": "uint256"
        }
      ],
      "name": "getName",
      "outputs": [
        {
          "name": "",
          "type": "string"
        }
      ],
      "payable": false,
      "stateMutability": "view",
      "type": "function"
    },
    {
      "constant": false,
      "inputs": [
        {
          "name": "_participant",
          "type": "address"
        },
        {
          "name": "_name",
          "type": "string"
        }
      ],
      "name": "editProfile",
      "outputs": [],
      "payable": false,
      "stateMutability": "nonpayable",
      "type": "function"
    },
    {
      "constant": false,
      "inputs": [
        {
          "name": "_index",
          "type": "uint256"
        }
      ],
      "name": "endorse",
      "outputs": [],
      "payable": false,
      "stateMutability": "nonpayable",
      "type": "function"
    },
    {
      "constant": false,
      "inputs": [
        {
          "name": "_endorsee",
          "type": "address"
        }
      ],
      "name": "removeEndorsement",
      "outputs": [
        {
          "name": "",
          "type": "uint256"
        }
      ],
      "payable": false,
      "stateMutability": "nonpayable",
      "type": "function"
    },
    {
      "constant": true,
      "inputs": [
        {
          "name": "_endorsee",
          "type": "address"
        }
      ],
      "name": "computeReceivedPoints",
      "outputs": [
        {
          "name": "",
          "type": "uint256"
        }
      ],
      "payable": false,
      "stateMutability": "view",
      "type": "function"
    },
    {
      "constant": true,
      "inputs": [
        {
          "name": "_participant",
          "type": "address"
        }
      ],
      "name": "computeImpact",
      "outputs": [
        {
          "name": "",
          "type": "uint256"
        }
      ],
      "payable": false,
      "stateMutability": "view",
      "type": "function"
    },
    {
      "constant": false,
      "inputs": [
        {
          "name": "_participant",
          "type": "address"
        },
        {
          "name": "_impact",
          "type": "uint256"
        }
      ],
      "name": "transactionFeedBack",
      "outputs": [
        {
          "name": "",
          "type": "uint256"
        }
      ],
      "payable": false,
      "stateMutability": "nonpayable",
      "type": "function"
    },
    {
      "constant": true,
      "inputs": [
        {
          "name": "_participant",
          "type": "address"
        }
      ],
      "name": "getProfile",
      "outputs": [
        {
          "name": "",
          "type": "uint256"
        },
        {
          "name": "",
          "type": "uint256"
        },
        {
          "name": "",
          "type": "address[]"
        },
        {
          "name": "",
          "type": "uint256"
        },
        {
          "name": "",
          "type": "uint256"
        },
        {
          "name": "",
          "type": "address[]"
        }
      ],
      "payable": false,
      "stateMutability": "view",
      "type": "function"
    },
    {
      "constant": true,
      "inputs": [
        {
          "name": "_participant",
          "type": "address"
        }
      ],
      "name": "getConnections",
      "outputs": [
        {
          "name": "",
          "type": "address[]"
        },
        {
          "name": "",
          "type": "address[]"
        }
      ],
      "payable": false,
      "stateMutability": "view",
      "type": "function"
    },
    {
      "constant": true,
      "inputs": [],
      "name": "getCount",
      "outputs": [
        {
          "name": "",
          "type": "uint256"
        }
      ],
      "payable": false,
      "stateMutability": "view",
      "type": "function"
    },
    {
      "constant": true,
      "inputs": [],
      "name": "getEndorsers",
      "outputs": [
        {
          "name": "",
          "type": "address[]"
        }
      ],
      "payable": false,
      "stateMutability": "view",
      "type": "function"
    },
    {
      "constant": true,
      "inputs": [
        {
          "name": "_endorser",
          "type": "address"
        }
      ],
      "name": "getUsedPower",
      "outputs": [
        {
          "name": "",
          "type": "uint256"
        }
      ],
      "payable": false,
      "stateMutability": "view",
      "type": "function"
    },
    {
      "constant": true,
      "inputs": [
        {
          "name": "_endorser",
          "type": "address"
        }
      ],
      "name": "getGivenTo",
      "outputs": [
        {
          "name": "",
          "type": "address[]"
        }
      ],
      "payable": false,
      "stateMutability": "view",
      "type": "function"
    },
    {
      "constant": true,
      "inputs": [
        {
          "name": "_endorser",
          "type": "address"
        }
      ],
      "name": "getGivenToCount",
      "outputs": [
        {
          "name": "",
          "type": "uint256"
        }
      ],
      "payable": false,
      "stateMutability": "view",
      "type": "function"
    },
    {
      "constant": true,
      "inputs": [
        {
          "name": "_endorser",
          "type": "address"
        },
        {
          "name": "_endorsee",
          "type": "address"
        }
      ],
      "name": "gethasGivenTo",
      "outputs": [
        {
          "name": "",
          "type": "bool"
        }
      ],
      "payable": false,
      "stateMutability": "view",
      "type": "function"
    },
    {
      "constant": true,
      "inputs": [],
      "name": "getEndorsees",
      "outputs": [
        {
          "name": "",
          "type": "address[]"
        }
      ],
      "payable": false,
      "stateMutability": "view",
      "type": "function"
    },
    {
      "constant": true,
      "inputs": [
        {
          "name": "_endorsee",
          "type": "address"
        }
      ],
      "name": "getReceivedFrom",
      "outputs": [
        {
          "name": "",
          "type": "address[]"
        }
      ],
      "payable": false,
      "stateMutability": "view",
      "type": "function"
    },
    {
      "constant": true,
      "inputs": [
        {
          "name": "_endorsee",
          "type": "address"
        }
      ],
      "name": "getReceivedFromCount",
      "outputs": [
        {
          "name": "",
          "type": "uint256"
        }
      ],
      "payable": false,
      "stateMutability": "view",
      "type": "function"
    },
    {
      "constant": true,
      "inputs": [
        {
          "name": "_endorser",
          "type": "address"
        },
        {
          "name": "_endorsee",
          "type": "address"
        }
      ],
      "name": "gethasReceivedFrom",
      "outputs": [
        {
          "name": "",
          "type": "bool"
        }
      ],
      "payable": false,
      "stateMutability": "view",
      "type": "function"
    }
  ],
  "bytecode": "0x6060604052341561000f57600080fd5b336000806101000a81548173ffffffffffffffffffffffffffffffffffffffff021916908373ffffffffffffffffffffffffffffffffffffffff16021790555033600760006101000a81548173ffffffffffffffffffffffffffffffffffffffff021916908373ffffffffffffffffffffffffffffffffffffffff160217905550613b988061009f6000396000f3006060604052600436106101e2576000357c0100000000000000000000000000000000000000000000000000000000900463ffffffff168062e840bf146101e757806305e33dd0146102515780630f53a470146102b4578063195ec9ee146103a65780631fcfe3eb1461041057806320b2e1cf1461043357806321818ca6146104805780632aec9dde146104ac5780632dd59bd1146104f9578063308d80321461054657806335c1d349146105a35780633ffd81fb1461068f57806341c0e1b5146106b857806346552e61146106cd5780634c070ced146107a35780636b8ff574146108315780636ba16050146108cd57806376f7534d1461091a5780637acc0b20146109675780637d33f01e14610b1d5780638642269e14610bc657806388e2eed514610bde5780638da5cb5b14610c485780638eb467cd14610c9d578063932afd1714610d0d5780639e01dfbb14610d89578063a30ba26c14610dd6578063a87d942c14610e2c578063ad2f41e814610e55578063c253c25c14610e78578063c25d95db14610ee2578063c386a95f14610f2f578063c4ec4b7514610f92578063d55a6ac414610fdf578063dabc1de414611042578063e2d7493214611093578063e4ff3df114611103578063f25cb44714611191578063f2fde38b146111de575b600080fd5b34156101f257600080fd5b6101fa611217565b6040518080602001828103825283818151815260200191508051906020019060200280838360005b8381101561023d578082015181840152602081019050610222565b505050509050019250505060405180910390f35b341561025c57600080fd5b6102726004808035906020019091905050611384565b604051808273ffffffffffffffffffffffffffffffffffffffff1673ffffffffffffffffffffffffffffffffffffffff16815260200191505060405180910390f35b34156102bf57600080fd5b6102eb600480803573ffffffffffffffffffffffffffffffffffffffff169060200190919050506113c3565b604051808781526020018681526020018060200185815260200184815260200180602001838103835287818151815260200191508051906020019060200280838360005b8381101561034a57808201518184015260208101905061032f565b50505050905001838103825284818151815260200191508051906020019060200280838360005b8381101561038c578082015181840152602081019050610371565b505050509050019850505050505050505060405180910390f35b34156103b157600080fd5b6103b9611675565b6040518080602001828103825283818151815260200191508051906020019060200280838360005b838110156103fc5780820151818401526020810190506103e1565b505050509050019250505060405180910390f35b341561041b57600080fd5b6104316004808035906020019091905050611709565b005b341561043e57600080fd5b61046a600480803573ffffffffffffffffffffffffffffffffffffffff16906020019091905050611aa7565b6040518082815260200191505060405180910390f35b341561048b57600080fd5b6104aa6004808035906020019091908035906020019091905050611cad565b005b34156104b757600080fd5b6104e3600480803573ffffffffffffffffffffffffffffffffffffffff16906020019091905050611e29565b6040518082815260200191505060405180910390f35b341561050457600080fd5b610530600480803573ffffffffffffffffffffffffffffffffffffffff16906020019091905050611e78565b6040518082815260200191505060405180910390f35b341561055157600080fd5b6105a1600480803590602001908201803590602001908080601f01602080910402602001604051908101604052809392919081815260200183838082843782019150505050505091905050611ec4565b005b34156105ae57600080fd5b6105c460048080359060200190919050506121dc565b604051808373ffffffffffffffffffffffffffffffffffffffff1673ffffffffffffffffffffffffffffffffffffffff1681526020018060200182810382528381815460018160011615610100020316600290048152602001915080546001816001161561010002031660029004801561067f5780601f106106545761010080835404028352916020019161067f565b820191906000526020600020905b81548152906001019060200180831161066257829003601f168201915b5050935050505060405180910390f35b341561069a57600080fd5b6106a261222e565b6040518082815260200191505060405180910390f35b34156106c357600080fd5b6106cb612238565b005b34156106d857600080fd5b610704600480803573ffffffffffffffffffffffffffffffffffffffff169060200190919050506122ce565b604051808060200180602001838103835285818151815260200191508051906020019060200280838360005b8381101561074b578082015181840152602081019050610730565b50505050905001838103825284818151815260200191508051906020019060200280838360005b8381101561078d578082015181840152602081019050610772565b5050505090500194505050505060405180910390f35b34156107ae57600080fd5b6107da600480803573ffffffffffffffffffffffffffffffffffffffff16906020019091905050612486565b6040518080602001828103825283818151815260200191508051906020019060200280838360005b8381101561081d578082015181840152602081019050610802565b505050509050019250505060405180910390f35b341561083c57600080fd5b610852600480803590602001909190505061255c565b6040518080602001828103825283818151815260200191508051906020019080838360005b83811015610892578082015181840152602081019050610877565b50505050905090810190601f1680156108bf5780820380516001836020036101000a031916815260200191505b509250505060405180910390f35b34156108d857600080fd5b610904600480803573ffffffffffffffffffffffffffffffffffffffff1690602001909190505061262a565b6040518082815260200191505060405180910390f35b341561092557600080fd5b610951600480803573ffffffffffffffffffffffffffffffffffffffff16906020019091905050612678565b6040518082815260200191505060405180910390f35b341561097257600080fd5b6109886004808035906020019091905050612714565b604051808781526020018673ffffffffffffffffffffffffffffffffffffffff1673ffffffffffffffffffffffffffffffffffffffff1681526020018573ffffffffffffffffffffffffffffffffffffffff1673ffffffffffffffffffffffffffffffffffffffff1681526020018060200180602001848152602001838103835286818154600181600116156101000203166002900481526020019150805460018160011615610100020316600290048015610a855780601f10610a5a57610100808354040283529160200191610a85565b820191906000526020600020905b815481529060010190602001808311610a6857829003601f168201915b5050838103825285818154600181600116156101000203166002900481526020019150805460018160011615610100020316600290048015610b085780601f10610add57610100808354040283529160200191610b08565b820191906000526020600020905b815481529060010190602001808311610aeb57829003601f168201915b50509850505050505050505060405180910390f35b3415610b2857600080fd5b610bc4600480803590602001908201803590602001908080601f0160208091040260200160405190810160405280939291908181526020018383808284378201915050505050509190803590602001908201803590602001908080601f0160208091040260200160405190810160405280939291908181526020018383808284378201915050505050509190803590602001909190505061278e565b005b610bdc60048080359060200190919050506129b4565b005b3415610be957600080fd5b610bf1612ced565b6040518080602001828103825283818151815260200191508051906020019060200280838360005b83811015610c34578082015181840152602081019050610c19565b505050509050019250505060405180910390f35b3415610c5357600080fd5b610c5b612d81565b604051808273ffffffffffffffffffffffffffffffffffffffff1673ffffffffffffffffffffffffffffffffffffffff16815260200191505060405180910390f35b3415610ca857600080fd5b610cf3600480803573ffffffffffffffffffffffffffffffffffffffff1690602001909190803573ffffffffffffffffffffffffffffffffffffffff16906020019091905050612da6565b604051808215151515815260200191505060405180910390f35b3415610d1857600080fd5b610d87600480803573ffffffffffffffffffffffffffffffffffffffff1690602001909190803590602001908201803590602001908080601f01602080910402602001604051908101604052809392919081815260200183838082843782019150505050505091905050612e3d565b005b3415610d9457600080fd5b610dc0600480803573ffffffffffffffffffffffffffffffffffffffff16906020019091905050612ecc565b6040518082815260200191505060405180910390f35b3415610de157600080fd5b610e16600480803573ffffffffffffffffffffffffffffffffffffffff16906020019091908035906020019091905050612ee4565b6040518082815260200191505060405180910390f35b3415610e3757600080fd5b610e3f612f54565b6040518082815260200191505060405180910390f35b3415610e6057600080fd5b610e766004808035906020019091905050612f5e565b005b3415610e8357600080fd5b610e8b6130f3565b6040518080602001828103825283818151815260200191508051906020019060200280838360005b83811015610ece578082015181840152602081019050610eb3565b505050509050019250505060405180910390f35b3415610eed57600080fd5b610f19600480803573ffffffffffffffffffffffffffffffffffffffff16906020019091905050613187565b6040518082815260200191505060405180910390f35b3415610f3a57600080fd5b610f50600480803590602001909190505061319f565b604051808273ffffffffffffffffffffffffffffffffffffffff1673ffffffffffffffffffffffffffffffffffffffff16815260200191505060405180910390f35b3415610f9d57600080fd5b610fc9600480803573ffffffffffffffffffffffffffffffffffffffff169060200190919050506131de565b6040518082815260200191505060405180910390f35b3415610fea57600080fd5b6110006004808035906020019091905050613339565b604051808273ffffffffffffffffffffffffffffffffffffffff1673ffffffffffffffffffffffffffffffffffffffff16815260200191505060405180910390f35b341561104d57600080fd5b611079600480803573ffffffffffffffffffffffffffffffffffffffff16906020019091905050613378565b604051808215151515815260200191505060405180910390f35b341561109e57600080fd5b6110e9600480803573ffffffffffffffffffffffffffffffffffffffff1690602001909190803573ffffffffffffffffffffffffffffffffffffffff16906020019091905050613398565b604051808215151515815260200191505060405180910390f35b341561110e57600080fd5b61113a600480803573ffffffffffffffffffffffffffffffffffffffff1690602001909190505061342f565b6040518080602001828103825283818151815260200191508051906020019060200280838360005b8381101561117d578082015181840152602081019050611162565b505050509050019250505060405180910390f35b341561119c57600080fd5b6111c8600480803573ffffffffffffffffffffffffffffffffffffffff16906020019091905050613505565b6040518082815260200191505060405180910390f35b34156111e957600080fd5b611215600480803573ffffffffffffffffffffffffffffffffffffffff16906020019091905050613554565b005b61121f6138c5565b6112276138c5565b6000806112326138c5565b60006003546040518059106112445750595b9080825280602002602001820160405250945060009350600192505b600354831115156113095760006002600085815260200190815260200160002060020160009054906101000a900473ffffffffffffffffffffffffffffffffffffffff1673ffffffffffffffffffffffffffffffffffffffff1614156112fc57600260008481526020019081526020016000206000015485858151811015156112e557fe5b906020019060200201818152505083806001019450505b8280600101935050611260565b836040518059106113175750595b90808252806020026020018201604052509150600190505b838111151561137957848181518110151561134657fe5b90602001906020020151828281518110151561135e57fe5b9060200190602002018181525050808060010191505061132f565b819550505050505090565b600f8181548110151561139357fe5b90600052602060002090016000915054906101000a900473ffffffffffffffffffffffffffffffffffffffff1681565b6000806113ce6138d9565b6000806113d96138d9565b600080600080600080600b60008e73ffffffffffffffffffffffffffffffffffffffff1673ffffffffffffffffffffffffffffffffffffffff168152602001908152602001600020600201549550600b60008e73ffffffffffffffffffffffffffffffffffffffff1673ffffffffffffffffffffffffffffffffffffffff168152602001908152602001600020600301549450600b60008e73ffffffffffffffffffffffffffffffffffffffff1673ffffffffffffffffffffffffffffffffffffffff1681526020019081526020016000206004019350600d60008e73ffffffffffffffffffffffffffffffffffffffff1673ffffffffffffffffffffffffffffffffffffffff1681526020019081526020016000206002015492506114fe8d612678565b9150600d60008e73ffffffffffffffffffffffffffffffffffffffff1673ffffffffffffffffffffffffffffffffffffffff1681526020019081526020016000206003019050858585858585838054806020026020016040519081016040528092919081815260200182805480156115cb57602002820191906000526020600020905b8160009054906101000a900473ffffffffffffffffffffffffffffffffffffffff1673ffffffffffffffffffffffffffffffffffffffff1681526020019060010190808311611581575b505050505093508080548060200260200160405190810160405280929190818152602001828054801561165357602002820191906000526020600020905b8160009054906101000a900473ffffffffffffffffffffffffffffffffffffffff1673ffffffffffffffffffffffffffffffffffffffff1681526020019060010190808311611609575b505050505090509b509b509b509b509b509b5050505050505091939550919395565b61167d6138d9565b600f8054806020026020016040519081016040528092919081815260200182805480156116ff57602002820191906000526020600020905b8160009054906101000a900473ffffffffffffffffffffffffffffffffffffffff1673ffffffffffffffffffffffffffffffffffffffff16815260200190600101908083116116b5575b5050505050905090565b60008060003414151561171b57600080fd5b60088381548110151561172a57fe5b906000526020600020906002020160000160009054906101000a900473ffffffffffffffffffffffffffffffffffffffff16915060008273ffffffffffffffffffffffffffffffffffffffff161415151561178457600080fd5b3373ffffffffffffffffffffffffffffffffffffffff168273ffffffffffffffffffffffffffffffffffffffff16141515156117bf57600080fd5b600a60003373ffffffffffffffffffffffffffffffffffffffff1673ffffffffffffffffffffffffffffffffffffffff16815260200190815260200160002060009054906101000a900460ff16151561181757600080fd5b600b60003373ffffffffffffffffffffffffffffffffffffffff1673ffffffffffffffffffffffffffffffffffffffff16815260200190815260200160002090508060000160008154809291906001019190505550338160010160006101000a81548173ffffffffffffffffffffffffffffffffffffffff021916908373ffffffffffffffffffffffffffffffffffffffff16021790555080600201600081548092919060010191905055506118d460018260020154600961367c565b81600301819055508060040180548060010182816118f291906138ed565b9160005260206000209001600084909190916101000a81548173ffffffffffffffffffffffffffffffffffffffff021916908373ffffffffffffffffffffffffffffffffffffffff1602179055505060018160050160008473ffffffffffffffffffffffffffffffffffffffff1673ffffffffffffffffffffffffffffffffffffffff16815260200190815260200160002060006101000a81548160ff0219169083151502179055506001600c80548060010182816119b191906138ed565b9160005260206000209001600033909190916101000a81548173ffffffffffffffffffffffffffffffffffffffff021916908373ffffffffffffffffffffffffffffffffffffffff1602179055505050611a0b82336136b5565b7f7845b8ad8806c20e29c9d7324b57431f98ecae390bcd677ed79d54fbc7d3dff33383604051808373ffffffffffffffffffffffffffffffffffffffff1673ffffffffffffffffffffffffffffffffffffffff1681526020018273ffffffffffffffffffffffffffffffffffffffff1673ffffffffffffffffffffffffffffffffffffffff1681526020019250505060405180910390a1505050565b6000806000600b60003373ffffffffffffffffffffffffffffffffffffffff1673ffffffffffffffffffffffffffffffffffffffff1681526020019081526020016000209150600d60008573ffffffffffffffffffffffffffffffffffffffff1673ffffffffffffffffffffffffffffffffffffffff16815260200190815260200160002090508160050160008573ffffffffffffffffffffffffffffffffffffffff1673ffffffffffffffffffffffffffffffffffffffff16815260200190815260200160002060009054906101000a900460ff1615611c615760008260050160008673ffffffffffffffffffffffffffffffffffffffff1673ffffffffffffffffffffffffffffffffffffffff16815260200190815260200160002060006101000a81548160ff02191690831515021790555081600201600081548092919060019003919050555060008160040160003373ffffffffffffffffffffffffffffffffffffffff1673ffffffffffffffffffffffffffffffffffffffff16815260200190815260200160002060006101000a81548160ff0219169083151502179055508060020160008154809291906001900391905055505b600b60003373ffffffffffffffffffffffffffffffffffffffff1673ffffffffffffffffffffffffffffffffffffffff1681526020019081526020016000206000015492505050919050565b6002600083815260200190815260200160002060020160009054906101000a900473ffffffffffffffffffffffffffffffffffffffff1673ffffffffffffffffffffffffffffffffffffffff163373ffffffffffffffffffffffffffffffffffffffff16141515611d1d57600080fd5b6002600083815260200190815260200160002060010160009054906101000a900473ffffffffffffffffffffffffffffffffffffffff1673ffffffffffffffffffffffffffffffffffffffff163373ffffffffffffffffffffffffffffffffffffffff1614151515611d8e57600080fd5b60008110158015611da0575060058111155b1515611dab57600080fd5b80600460006002600086815260200190815260200160002060010160009054906101000a900473ffffffffffffffffffffffffffffffffffffffff1673ffffffffffffffffffffffffffffffffffffffff1673ffffffffffffffffffffffffffffffffffffffff168152602001908152602001600020819055505050565b6000600d60008373ffffffffffffffffffffffffffffffffffffffff1673ffffffffffffffffffffffffffffffffffffffff168152602001908152602001600020600301805490509050919050565b6000600b60008373ffffffffffffffffffffffffffffffffffffffff1673ffffffffffffffffffffffffffffffffffffffff168152602001908152602001600020600301549050919050565b611ecc613919565b600034141515611edb57600080fd5b600a60003373ffffffffffffffffffffffffffffffffffffffff1673ffffffffffffffffffffffffffffffffffffffff16815260200190815260200160002060009054906101000a900460ff16151515611f3457600080fd5b6001600a60003373ffffffffffffffffffffffffffffffffffffffff1673ffffffffffffffffffffffffffffffffffffffff16815260200190815260200160002060006101000a81548160ff02191690831515021790555060408051908101604052803373ffffffffffffffffffffffffffffffffffffffff16815260200183815250905060088054806001018281611fcd919061394f565b9160005260206000209060020201600083909190915060008201518160000160006101000a81548173ffffffffffffffffffffffffffffffffffffffff021916908373ffffffffffffffffffffffffffffffffffffffff1602179055506020820151816001019080519060200190612046929190613981565b505050507fe8f84471e30dd45724c20df4d0a852bf7aeb5c3fdb7328f231e08dac15b64f0a3383604051808373ffffffffffffffffffffffffffffffffffffffff1673ffffffffffffffffffffffffffffffffffffffff16815260200180602001828103825283818151815260200191508051906020019080838360005b838110156120df5780820151818401526020810190506120c4565b50505050905090810190601f16801561210c5780820380516001836020036101000a031916815260200191505b50935050505060405180910390a1600960008154809291906001019190505550600160095403601060003373ffffffffffffffffffffffffffffffffffffffff1673ffffffffffffffffffffffffffffffffffffffff16815260200190815260200160002081905550600f805480600101828161218991906138ed565b9160005260206000209001600033909190916101000a81548173ffffffffffffffffffffffffffffffffffffffff021916908373ffffffffffffffffffffffffffffffffffffffff160217905550505050565b6008818154811015156121eb57fe5b90600052602060002090600202016000915090508060000160009054906101000a900473ffffffffffffffffffffffffffffffffffffffff169080600101905082565b6000600354905090565b600760009054906101000a900473ffffffffffffffffffffffffffffffffffffffff1673ffffffffffffffffffffffffffffffffffffffff163373ffffffffffffffffffffffffffffffffffffffff1614151561229457600080fd5b6000809054906101000a900473ffffffffffffffffffffffffffffffffffffffff1673ffffffffffffffffffffffffffffffffffffffff16ff5b6122d66138d9565b6122de6138d9565b600080600d60008673ffffffffffffffffffffffffffffffffffffffff1673ffffffffffffffffffffffffffffffffffffffff1681526020019081526020016000206003019150600b60008673ffffffffffffffffffffffffffffffffffffffff1673ffffffffffffffffffffffffffffffffffffffff16815260200190815260200160002060040190508181818054806020026020016040519081016040528092919081815260200182805480156123ec57602002820191906000526020600020905b8160009054906101000a900473ffffffffffffffffffffffffffffffffffffffff1673ffffffffffffffffffffffffffffffffffffffff16815260200190600101908083116123a2575b505050505091508080548060200260200160405190810160405280929190818152602001828054801561247457602002820191906000526020600020905b8160009054906101000a900473ffffffffffffffffffffffffffffffffffffffff1673ffffffffffffffffffffffffffffffffffffffff168152602001906001019080831161242a575b50505050509050935093505050915091565b61248e6138d9565b600d60008373ffffffffffffffffffffffffffffffffffffffff1673ffffffffffffffffffffffffffffffffffffffff16815260200190815260200160002060030180548060200260200160405190810160405280929190818152602001828054801561255057602002820191906000526020600020905b8160009054906101000a900473ffffffffffffffffffffffffffffffffffffffff1673ffffffffffffffffffffffffffffffffffffffff1681526020019060010190808311612506575b50505050509050919050565b612564613a01565b600060088381548110151561257557fe5b90600052602060002090600202016001019050808054600181600116156101000203166002900480601f01602080910402602001604051908101604052809291908181526020018280546001816001161561010002031660029004801561261d5780601f106125f25761010080835404028352916020019161261d565b820191906000526020600020905b81548152906001019060200180831161260057829003601f168201915b5050505050915050919050565b600080601060008473ffffffffffffffffffffffffffffffffffffffff1673ffffffffffffffffffffffffffffffffffffffff16815260200190815260200160002054905080915050919050565b60006126826138d9565b60008061268e85612486565b9250600090505b825181101561270957600b600084838151811015156126b057fe5b9060200190602002015173ffffffffffffffffffffffffffffffffffffffff1673ffffffffffffffffffffffffffffffffffffffff16815260200190815260200160002060030154820191508080600101915050612695565b819350505050919050565b60026020528060005260406000206000915090508060000154908060010160009054906101000a900473ffffffffffffffffffffffffffffffffffffffff16908060020160009054906101000a900473ffffffffffffffffffffffffffffffffffffffff1690806003019080600401908060050154905086565b60036000815480929190600101919050555060c06040519081016040528060035481526020013373ffffffffffffffffffffffffffffffffffffffff168152602001600073ffffffffffffffffffffffffffffffffffffffff168152602001848152602001838152602001828152506002600060035481526020019081526020016000206000820151816000015560208201518160010160006101000a81548173ffffffffffffffffffffffffffffffffffffffff021916908373ffffffffffffffffffffffffffffffffffffffff16021790555060408201518160020160006101000a81548173ffffffffffffffffffffffffffffffffffffffff021916908373ffffffffffffffffffffffffffffffffffffffff16021790555060608201518160030190805190602001906128c6929190613981565b5060808201518160040190805190602001906128e3929190613981565b5060a082015181600501559050503373ffffffffffffffffffffffffffffffffffffffff166003547f795615f1d4f0e4f6c975e0ede1605f9f7184b7c98e65cea686d1f25b502fa67e85846040518080602001838152602001828103825284818151815260200191508051906020019080838360005b83811015612974578082015181840152602081019050612959565b50505050905090810190601f1680156129a15780820380516001836020036101000a031916815260200191505b50935050505060405180910390a3505050565b6000806003541115156129c657600080fd5b6000821180156129d857506003548211155b15156129e357600080fd5b60026000838152602001908152602001600020905060008160020160009054906101000a900473ffffffffffffffffffffffffffffffffffffffff1673ffffffffffffffffffffffffffffffffffffffff16141515612a4157600080fd5b8060010160009054906101000a900473ffffffffffffffffffffffffffffffffffffffff1673ffffffffffffffffffffffffffffffffffffffff163373ffffffffffffffffffffffffffffffffffffffff1614151515612aa057600080fd5b806005015434141515612ab257600080fd5b338160020160006101000a81548173ffffffffffffffffffffffffffffffffffffffff021916908373ffffffffffffffffffffffffffffffffffffffff16021790555060008160010160009054906101000a900473ffffffffffffffffffffffffffffffffffffffff1673ffffffffffffffffffffffffffffffffffffffff1614151515612b3f57600080fd5b8060010160009054906101000a900473ffffffffffffffffffffffffffffffffffffffff1673ffffffffffffffffffffffffffffffffffffffff166108fc349081150290604051600060405180830381858888f193505050501515612ba357600080fd5b8060020160009054906101000a900473ffffffffffffffffffffffffffffffffffffffff1673ffffffffffffffffffffffffffffffffffffffff168160010160009054906101000a900473ffffffffffffffffffffffffffffffffffffffff1673ffffffffffffffffffffffffffffffffffffffff167f727072c44d97265938bf1a4def79b99cc438bb4f19a5842bc26d1beea4320099848460030185600501546040518084815260200180602001838152602001828103825284818154600181600116156101000203166002900481526020019150805460018160011615610100020316600290048015612cd95780601f10612cae57610100808354040283529160200191612cd9565b820191906000526020600020905b815481529060010190602001808311612cbc57829003601f168201915b505094505050505060405180910390a35050565b612cf56138d9565b600e805480602002602001604051908101604052809291908181526020018280548015612d7757602002820191906000526020600020905b8160009054906101000a900473ffffffffffffffffffffffffffffffffffffffff1673ffffffffffffffffffffffffffffffffffffffff1681526020019060010190808311612d2d575b5050505050905090565b6000809054906101000a900473ffffffffffffffffffffffffffffffffffffffff1681565b6000600d60008373ffffffffffffffffffffffffffffffffffffffff1673ffffffffffffffffffffffffffffffffffffffff16815260200190815260200160002060040160008473ffffffffffffffffffffffffffffffffffffffff1673ffffffffffffffffffffffffffffffffffffffff16815260200190815260200160002060009054906101000a900460ff16905092915050565b60008034141515612e4d57600080fd5b8273ffffffffffffffffffffffffffffffffffffffff163373ffffffffffffffffffffffffffffffffffffffff16141515612e8757600080fd5b612e908361262a565b905081600882815481101515612ea257fe5b90600052602060002090600202016001019080519060200190612ec6929190613a15565b50505050565b60046020528060005260406000206000915090505481565b6000806001600660008673ffffffffffffffffffffffffffffffffffffffff1673ffffffffffffffffffffffffffffffffffffffff16815260200190815260200160002054101515612f4657612f3d836002600961367c565b83039050612f4a565b8290505b8091505092915050565b6000600954905090565b6000806002600084815260200190815260200160002060010160009054906101000a900473ffffffffffffffffffffffffffffffffffffffff1691506002600084815260200190815260200160002060020160009054906101000a900473ffffffffffffffffffffffffffffffffffffffff1690508073ffffffffffffffffffffffffffffffffffffffff163373ffffffffffffffffffffffffffffffffffffffff1614151561300d57600080fd5b6001600560008473ffffffffffffffffffffffffffffffffffffffff1673ffffffffffffffffffffffffffffffffffffffff16815260200190815260200160002060006101000a81548160ff021916908315150217905550600660008373ffffffffffffffffffffffffffffffffffffffff1673ffffffffffffffffffffffffffffffffffffffff168152602001908152602001600020600081548092919060010191905055600660008473ffffffffffffffffffffffffffffffffffffffff1673ffffffffffffffffffffffffffffffffffffffff1681526020019081525050505050565b6130fb6138d9565b600c80548060200260200160405190810160405280929190818152602001828054801561317d57602002820191906000526020600020905b8160009054906101000a900473ffffffffffffffffffffffffffffffffffffffff1673ffffffffffffffffffffffffffffffffffffffff1681526020019060010190808311613133575b5050505050905090565b60066020528060005260406000206000915090505481565b600c818154811015156131ae57fe5b90600052602060002090016000915054906101000a900473ffffffffffffffffffffffffffffffffffffffff1681565b6000806000806000806000806000806000600b60008d73ffffffffffffffffffffffffffffffffffffffff1673ffffffffffffffffffffffffffffffffffffffff168152602001908152602001600020600201549950600d60008d73ffffffffffffffffffffffffffffffffffffffff1673ffffffffffffffffffffffffffffffffffffffff1681526020019081526020016000206002015498506132828c612678565b975060018a11158015613296575060018911155b156132a75760009650869a5061332a565b6132b18a8a61388d565b94506132bd8a8a6138a9565b93506132cb8585600961367c565b9250600b60008d73ffffffffffffffffffffffffffffffffffffffff1673ffffffffffffffffffffffffffffffffffffffff16815260200190815260200160002060030154915087905080830296506133248c88612ee4565b9550859a505b50505050505050505050919050565b600e8181548110151561334857fe5b90600052602060002090016000915054906101000a900473ffffffffffffffffffffffffffffffffffffffff1681565b60056020528060005260406000206000915054906101000a900460ff1681565b6000600b60008473ffffffffffffffffffffffffffffffffffffffff1673ffffffffffffffffffffffffffffffffffffffff16815260200190815260200160002060050160008373ffffffffffffffffffffffffffffffffffffffff1673ffffffffffffffffffffffffffffffffffffffff16815260200190815260200160002060009054906101000a900460ff16905092915050565b6134376138d9565b600b60008373ffffffffffffffffffffffffffffffffffffffff1673ffffffffffffffffffffffffffffffffffffffff1681526020019081526020016000206004018054806020026020016040519081016040528092919081815260200182805480156134f957602002820191906000526020600020905b8160009054906101000a900473ffffffffffffffffffffffffffffffffffffffff1673ffffffffffffffffffffffffffffffffffffffff16815260200190600101908083116134af575b50505050509050919050565b6000600b60008373ffffffffffffffffffffffffffffffffffffffff1673ffffffffffffffffffffffffffffffffffffffff168152602001908152602001600020600401805490509050919050565b600760009054906101000a900473ffffffffffffffffffffffffffffffffffffffff1673ffffffffffffffffffffffffffffffffffffffff163373ffffffffffffffffffffffffffffffffffffffff161415156135b057600080fd5b60008173ffffffffffffffffffffffffffffffffffffffff16141515156135d657600080fd5b80600160006101000a81548173ffffffffffffffffffffffffffffffffffffffff021916908373ffffffffffffffffffffffffffffffffffffffff160217905550600160009054906101000a900473ffffffffffffffffffffffffffffffffffffffff166000806101000a81548173ffffffffffffffffffffffffffffffffffffffff021916908373ffffffffffffffffffffffffffffffffffffffff16021790555050565b600080600060018401600a0a86029150600a6005868481151561369b57fe5b04018115156136a657fe5b04905080925050509392505050565b6000600d60008473ffffffffffffffffffffffffffffffffffffffff1673ffffffffffffffffffffffffffffffffffffffff1681526020019081526020016000209050828160010160006101000a81548173ffffffffffffffffffffffffffffffffffffffff021916908373ffffffffffffffffffffffffffffffffffffffff1602179055508060000160008154809291906001019190505550806002016000815480929190600101919050555080600301805480600101828161377991906138ed565b9160005260206000209001600084909190916101000a81548173ffffffffffffffffffffffffffffffffffffffff021916908373ffffffffffffffffffffffffffffffffffffffff1602179055505060018160040160008473ffffffffffffffffffffffffffffffffffffffff1673ffffffffffffffffffffffffffffffffffffffff16815260200190815260200160002060006101000a81548160ff0219169083151502179055506001600e805480600101828161383891906138ed565b9160005260206000209001600086909190916101000a81548173ffffffffffffffffffffffffffffffffffffffff021916908373ffffffffffffffffffffffffffffffffffffffff1602179055505050505050565b60008183101561389f578290506138a3565b8190505b92915050565b6000818310156138bb578190506138bf565b8290505b92915050565b602060405190810160405280600081525090565b602060405190810160405280600081525090565b815481835581811511613914578183600052602060002091820191016139139190613a95565b5b505050565b6040805190810160405280600073ffffffffffffffffffffffffffffffffffffffff168152602001613949613aba565b81525090565b81548183558181151161397c5760020281600202836000526020600020918201910161397b9190613ace565b5b505050565b828054600181600116156101000203166002900490600052602060002090601f016020900481019282601f106139c257805160ff19168380011785556139f0565b828001600101855582156139f0579182015b828111156139ef5782518255916020019190600101906139d4565b5b5090506139fd9190613a95565b5090565b602060405190810160405280600081525090565b828054600181600116156101000203166002900490600052602060002090601f016020900481019282601f10613a5657805160ff1916838001178555613a84565b82800160010185558215613a84579182015b82811115613a83578251825591602001919060010190613a68565b5b509050613a919190613a95565b5090565b613ab791905b80821115613ab3576000816000905550600101613a9b565b5090565b90565b602060405190810160405280600081525090565b613b2191905b80821115613b1d57600080820160006101000a81549073ffffffffffffffffffffffffffffffffffffffff0219169055600182016000613b149190613b24565b50600201613ad4565b5090565b90565b50805460018160011615610100020316600290046000825580601f10613b4a5750613b69565b601f016020900490600052602060002090810190613b689190613a95565b5b505600a165627a7a7230582018385e82faf1ea36d296d28f98b92910f88fe35414b365fa2a096501e3659e4b0029",
  "source": "pragma solidity ^0.4.18;\n\nimport \"./Ownable.sol\";\nimport \"./Killable.sol\";\nimport \"./MarketPlace.sol\";\n\ncontract Endorsement is Ownable, Killable, MarketPlace {\n\n\taddress owner;\n    \n    struct Participant { \n        address identifier;\n        string name;\n    }\n    \n    struct Endorser {\n\t\tuint index;\n        address sender;\n        uint nEG;\n        uint usedPower;\n        address[] givenTo;\n        mapping(address => bool) hasGivenTo;\n    }\n\n\tstruct Endorsee { \n\t\tuint index;\n\t\taddress receiver;\n\t\tuint nER;\n\t\t//uint receivedPoints;\n\t\taddress[] receivedFrom;\n\t\tmapping(address => bool) hasReceivedFrom;\n\t}\n    \n    Participant [] public participants;\n\t\n\tuint numberOfParticipants;\n    \n    mapping(address => bool) joined;\n    \n    mapping (address => Endorser) endorsers;\n    address[] public endorserAccts;\n\n\tmapping (address => Endorsee ) endorsees;\n\taddress[] public endorseeAccts;\n\n\n\t//mapping (address => uint) public receivedPoints;\n    \n\t// modifiers\n\t// set owner of contract - replace eventually with Ownable contract\n\tmodifier onlyOwner() { \n\t\trequire(msg.sender == owner );\n\t\t_;\n\t}\n\n\t//reject any ether transfer \n\tmodifier HasNoEther( ){ \n\t\trequire (msg.value == 0);\n\t\t_;\n\t}\n\n\t//constructor\n\tfunction Endorsement() public { \n\t\t//EDSToken( );\n\t\towner = msg.sender;\n\t}\n\n\t//event logs\n\tevent LogJoinNetwork(\n\t\taddress _participant, \n\t\tstring _name\n\t);  \n\n\tevent LogEndorse(\n\t\taddress _endorser, \n\t\taddress _endorsee\n\t);\n\n\taddress [] public allParticipants;\n\n\tmapping (address => uint ) participantIndex;\n\n\n\t//Join Network as any user\n\tfunction joinNetwork(string _userName) public HasNoEther {\n\t\t//only allow unregistered participant\n\t    require(!joined[msg.sender]);\n\n\t    joined[msg.sender] = true;\n\n\t\t// store senders id and name\n\t    Participant memory newParticipant = Participant({\n\t        identifier: msg.sender,\n\t        name: _userName\n\t    });\n\n\t\t//add new participant to the existing list of joined members\n\t    participants.push(newParticipant);\n\n\t\tLogJoinNetwork(msg.sender, _userName);\n\n\t\tnumberOfParticipants++;\n\n\t\tparticipantIndex[msg.sender] = numberOfParticipants-1;\n\n\t\tallParticipants.push(msg.sender);\n\t}\n\n\t//get list of all participants\n\tfunction getAllParticipants() public view returns(address[]) {\n\n\t\treturn allParticipants;\n\t}\n\n\t//get index of participant by address, helper function, view modifier \n\tfunction getParticipantIndex(address _participant) public view returns (uint ) {\n\t\tuint userIndex = participantIndex[_participant];\n\t\treturn userIndex;\n\t}\n\n\t//Profile-related changes of participants\n\tfunction getName(uint _index ) public view returns (string ) {\n\t\tstring name = participants[_index].name;\n\t\treturn name;\n\t}\n\n\tfunction editProfile(address _participant, string _name) public HasNoEther {\n\t\t//verify editor is same as profile owner\n\t\trequire(msg.sender == _participant);\n\n\t\t//change state\n\t\tuint id = getParticipantIndex(_participant);\n\t\tparticipants[id].name = _name;\n\t}\n\n\t//send Endorsement - from  endorser to endorsee\n\tfunction endorse(uint _index) public HasNoEther { \n\t\t// get address of endorsee\n\t    address receiver = participants[_index].identifier;\n\t    \n\t\t//verify endorser and endorsee are not equal and are both registered participants \n\t    require(receiver != 0x0);\n\t    require(receiver != msg.sender);\n\t\trequire(joined[msg.sender]);\n\t    \n\t\t//store and update new endorser information\n\t    Endorser storage endorser = endorsers[msg.sender];\n\n\t\tendorser.index++;\n\t    endorser.sender = msg.sender;\n\t    endorser.nEG++;\n\t\t\n//\t\tif (endorser.nEG >1 ){ \n//\t\t\tendorser.usedPower = Division(1, endorser.nEG,9);\n//\t\t} else {\n//\t\t\tendorser.usedPower = 0;\n//\t\t}\n\t\t\n\t    endorser.usedPower =Division(1,endorser.nEG, 9);\n\t    endorser.givenTo.push(receiver);\n\t    endorser.hasGivenTo[receiver] = true;\n\t    \n\t    endorserAccts.push(msg.sender) - 1;\n\n\t\t//trigger call for updating endorsee information\n\t\tupdateEndorsee(receiver, msg.sender);\n\n\t\t//Log endorsement event\n\t\tLogEndorse(msg.sender, receiver);\n\t}\n\n\t//store and update new endorsee information after transaction call\n\tfunction updateEndorsee(address _receiver, address _sender) internal { \n\t\tEndorsee storage endorsee = endorsees[_receiver];\n\t\tendorsee.receiver = _receiver;\n\t\tendorsee.index++;\n\t\tendorsee.nER++;\n\t\tendorsee.receivedFrom.push(_sender);\n\t\tendorsee.hasReceivedFrom[_sender] = true;\n\n\t\tendorseeAccts.push(_receiver) - 1;\n\t}\n\n\t//remove endorsement as an endorser of an endorsee\n\tfunction removeEndorsement(address _endorsee) public returns(uint) { \n\t\tEndorser storage endorser = endorsers[msg.sender]; \n\t\tEndorsee storage endorsee = endorsees[_endorsee]; \n\t\t\n\t\t//proceed only if endorsee is in the endorser's list of endorsees\n\t\tif (endorser.hasGivenTo[_endorsee]) { \n\t\t\tendorser.hasGivenTo[_endorsee] = false;\n\t\t\tendorser.nEG--;\n\n\t\t\t//remove endorsee from endorser.givenTo array \n\t\t\t\n\t\t\tendorsee.hasReceivedFrom[msg.sender] = false;\n\t\t\tendorsee.nER--;\n\n\t\t\t//remove endorser address from endorsee.receivedFrom array\n\t\t}\n\t\treturn endorsers[msg.sender].index;\n\t}\n\n\t//computation of total received points of an endorsee \n\tfunction computeReceivedPoints(address _endorsee) public view returns(uint) { \n\t\t//get list of endorsers addresses from whom _endorsee has received eds from\n\t\taddress [] memory receivedFrom = getReceivedFrom(_endorsee);\n\n\t\t//aggregate total received points from  the accumulated receivedFrom list\n\t\tuint receivedPoints;\n\n\t\tfor (uint i=0; i<receivedFrom.length; i++) { \n\t\t\treceivedPoints = receivedPoints + endorsers[receivedFrom[i]].usedPower;\n\t\t}\n\n\t\treturn receivedPoints;\n\t}\n\n\t//computation of total endorsement impact of a participant\n\t//the degree of connection should be strictly greater than 1 to be considered for \n\t//impact computation, else, the impact by default should be ignorant, i.e., 0\n\tfunction computeImpact(address _participant) public view returns (uint) { \n\t\tuint nEG = endorsers[_participant].nEG;\n\t\tuint nER = endorsees[_participant].nER;\n\t\tuint _RE = computeReceivedPoints(_participant);\n\t\tuint impact;\n\t\tuint totalImpact;\n\n\t\tif (nEG <=1 && nER <=1 ) {\n\t\t\timpact = 0;\n\t\t\treturn impact;\n\t\t\t//return impact and exit here\n\t\t} else { \n\n\t\t\tuint minval = min(nEG,nER);\n\t\t\tuint maxval = max(nEG,nER);\n\n\t\t\tuint ratio = Division(minval, maxval,9);\n\t\t\tuint usedUpByParticipant = endorsers[_participant].usedPower;\n\t\t\tuint RE = _RE; \n\n\t\t\timpact = ratio * RE;\n\t\t}\n\t\t// call feedback function here\n\t\ttotalImpact = transactionFeedBack(_participant, impact);\n\t\treturn totalImpact;\n\t}\n\n\t//Receive feedback from Transaction Network and penalize the nodes\n\tfunction transactionFeedBack(address _participant, uint _impact ) public returns (uint) {\n\n\t\tif (flagCount[_participant] >= 1) {\n\t\t\t//Decrease the current impact by 50 %\n\t\t\tuint penalty = _impact - Division(_impact,2,9) ; \n\n\t\t} else {\n\t\t\tpenalty = _impact;\n\t\t\n\t\t}\n\n\t\treturn penalty;\n\t}\n\n\n\t//Single function to get all the details of a registered participant\n\tfunction getProfile(address _participant) public view returns (\n\t\tuint,\n\t\tuint, \n\t\taddress[], \n\t\tuint, \n\t\tuint, \n\t\taddress[] ) \n\t\t{ \n\n\t\tuint outDegree = endorsers[_participant].nEG;\n\t\tuint usedPower = endorsers[_participant].usedPower;\n\t\taddress[] outConns  = endorsers[_participant].givenTo;\n\t\t\n\t\tuint inDegree =\t endorsees[_participant].nER;\n\t\tuint receivedPoints = computeReceivedPoints(_participant);\n\t\taddress[] inConns   = endorsees[_participant].receivedFrom;\n\n\t\treturn ( \n\t\t\t\toutDegree, \n\t\t\t\tusedPower,\n\t\t\t\toutConns,\n\n\t\t\t\tinDegree,\n\t\t\t\treceivedPoints,\n\t\t\t\tinConns\n\t\t);\n\t}\n\n\t//get connections and degree of connections - helper function\n\tfunction getConnections(address _participant) public view returns (\n\t\taddress [],\n\t\taddress []\n\t){\n\t\taddress [] inConns = endorsees[_participant].receivedFrom;\n\t\taddress [] outConns = endorsers[_participant].givenTo;\n\n\t\treturn (inConns, outConns);\n\t}\n\n\t//count total number of registered participants\n\tfunction getCount( ) public view returns (uint) {\n\t\treturn numberOfParticipants;\n\t}\n\n\t//return array of all endorser accounts\n\tfunction getEndorsers() view public returns (address []) { \n\t    return endorserAccts;\n\t}\n\n\t//return the total consumable power used by an endorser\n\tfunction getUsedPower(address _endorser) view public returns(uint) {\n\t    return (endorsers[_endorser].usedPower);\n\t}\n\n\t//return list of addresses that an endorser has sent endorsement to \n\tfunction getGivenTo(address _endorser) view public returns(address []) {\n\t    return (endorsers[_endorser].givenTo);\n\t}\n\n\t//return number of endorsees an endorser has sent endorsement to\n\tfunction getGivenToCount(address _endorser ) view public returns (uint) {\n\t\treturn (endorsers[_endorser].givenTo).length;\n\t}\n\t\n\t//return a boolean value from the matrix of hasGivenTo, quick access for checking \n\t//if an endorsee's address is in the list of endorsee addresses of the particular endorser.\n\tfunction gethasGivenTo(address _endorser, address _endorsee) view public returns(bool) {\n\t    return (endorsers[_endorser].hasGivenTo[_endorsee]);\n\t}\n\n\t//return an array of all endorsee accounts - front end\n\tfunction getEndorsees() view public returns (address []) { \n\t    return endorseeAccts;\n\t}\n\n\t//return address of all the endorsers for an endorsee, helper function to \n\t//compute total received point\n\tfunction getReceivedFrom(address _endorsee) view public returns(address []) {\n\t    return (endorsees[_endorsee].receivedFrom);\n\t}\n\n\t//count total number of endorser for an address of endorsee\n\tfunction getReceivedFromCount(address _endorsee) view public returns (uint ) {\n\t\treturn (endorsees[_endorsee].receivedFrom).length;\n\t}\n\n\t//return a boolean value from the matrix of hasReceivedFrom, to check if \n\t// an endorser's address is in the list of endorser address of the particular endorsee\n\tfunction gethasReceivedFrom(address _endorser, address _endorsee) view public returns(bool) {\n\t    return (endorsees[_endorsee].hasReceivedFrom[_endorser]);\n\t}\n\n\t\n\t//some helper  functions for floating point calculation\n\tfunction Division( uint _numerator, uint _denominator, uint _precision) internal pure returns (uint _quotient) {\n\t\tuint numerator = _numerator * 10 ** (_precision + 1);\n\t\tuint quotient = ((numerator / _denominator) + 5  ) / 10;\n\n\t\treturn (quotient);\t\t\n\t}\n\n\t//some helper maths function to compute max, min value.\n\t//used for computing ratio and ensuring that the ratio is always less than 1.\n\tfunction max (uint x, uint y ) internal pure returns (uint) {\n\t\tif (x < y) {\n\t\t\treturn y;\n\t\t} else  {  \n\t\t\treturn x;\n\t\t}\n\t}\n\n\tfunction min (uint x, uint y ) internal pure returns (uint) { \n\t\tif (x < y) { \n\t\t\treturn x;\n\t\t} else {\n\t\t\treturn y;\n\t\t}\n\t}\n}\n",
  "sourcePath": "/home/sujata/Documents/Masters-Thesis/endorsements/ethereum/contracts/Endorsement.sol",
  "compiler": {
    "name": "solc",
    "version": "0.4.19+commit.c4cbbb05.Emscripten.clang"
  },
  "schemaVersion": "2.0.0",
  "updatedAt": "2018-07-31T14:57:31.401Z"
}