{
  "contractName": "Endorsement",
  "abi": [
    {
      "constant": true,
      "inputs": [
        {
          "name": "",
          "type": "uint256"
        }
      ],
      "name": "allParticipants",
      "outputs": [
        {
          "name": "",
          "type": "address"
        }
      ],
      "payable": false,
      "stateMutability": "view",
      "type": "function"
    },
    {
      "constant": true,
      "inputs": [
        {
          "name": "",
          "type": "uint256"
        }
      ],
      "name": "participants",
      "outputs": [
        {
          "name": "identifier",
          "type": "address"
        },
        {
          "name": "name",
          "type": "string"
        }
      ],
      "payable": false,
      "stateMutability": "view",
      "type": "function"
    },
    {
      "constant": false,
      "inputs": [],
      "name": "kill",
      "outputs": [],
      "payable": false,
      "stateMutability": "nonpayable",
      "type": "function"
    },
    {
      "constant": true,
      "inputs": [],
      "name": "owner",
      "outputs": [
        {
          "name": "",
          "type": "address"
        }
      ],
      "payable": false,
      "stateMutability": "view",
      "type": "function"
    },
    {
      "constant": true,
      "inputs": [
        {
          "name": "",
          "type": "uint256"
        }
      ],
      "name": "endorserAccts",
      "outputs": [
        {
          "name": "",
          "type": "address"
        }
      ],
      "payable": false,
      "stateMutability": "view",
      "type": "function"
    },
    {
      "constant": true,
      "inputs": [
        {
          "name": "",
          "type": "uint256"
        }
      ],
      "name": "endorseeAccts",
      "outputs": [
        {
          "name": "",
          "type": "address"
        }
      ],
      "payable": false,
      "stateMutability": "view",
      "type": "function"
    },
    {
      "constant": false,
      "inputs": [
        {
          "name": "_newOwner",
          "type": "address"
        }
      ],
      "name": "transferOwnership",
      "outputs": [],
      "payable": false,
      "stateMutability": "nonpayable",
      "type": "function"
    },
    {
      "inputs": [],
      "payable": false,
      "stateMutability": "nonpayable",
      "type": "constructor"
    },
    {
      "anonymous": false,
      "inputs": [
        {
          "indexed": false,
          "name": "_participant",
          "type": "address"
        },
        {
          "indexed": false,
          "name": "_name",
          "type": "string"
        }
      ],
      "name": "LogJoinNetwork",
      "type": "event"
    },
    {
      "anonymous": false,
      "inputs": [
        {
          "indexed": false,
          "name": "_endorser",
          "type": "address"
        },
        {
          "indexed": false,
          "name": "_endorsee",
          "type": "address"
        }
      ],
      "name": "LogEndorse",
      "type": "event"
    },
    {
      "anonymous": false,
      "inputs": [
        {
          "indexed": true,
          "name": "oldOwner",
          "type": "address"
        },
        {
          "indexed": true,
          "name": "newOwner",
          "type": "address"
        }
      ],
      "name": "ownershipTransfer",
      "type": "event"
    },
    {
      "constant": false,
      "inputs": [
        {
          "name": "_userName",
          "type": "string"
        }
      ],
      "name": "joinNetwork",
      "outputs": [],
      "payable": false,
      "stateMutability": "nonpayable",
      "type": "function"
    },
    {
      "constant": true,
      "inputs": [],
      "name": "getAllParticipants",
      "outputs": [
        {
          "name": "",
          "type": "address[]"
        }
      ],
      "payable": false,
      "stateMutability": "view",
      "type": "function"
    },
    {
      "constant": true,
      "inputs": [
        {
          "name": "_participant",
          "type": "address"
        }
      ],
      "name": "getParticipantIndex",
      "outputs": [
        {
          "name": "",
          "type": "uint256"
        }
      ],
      "payable": false,
      "stateMutability": "view",
      "type": "function"
    },
    {
      "constant": true,
      "inputs": [
        {
          "name": "_index",
          "type": "uint256"
        }
      ],
      "name": "getName",
      "outputs": [
        {
          "name": "",
          "type": "string"
        }
      ],
      "payable": false,
      "stateMutability": "view",
      "type": "function"
    },
    {
      "constant": false,
      "inputs": [
        {
          "name": "_participant",
          "type": "address"
        },
        {
          "name": "_name",
          "type": "string"
        }
      ],
      "name": "editProfile",
      "outputs": [],
      "payable": false,
      "stateMutability": "nonpayable",
      "type": "function"
    },
    {
      "constant": false,
      "inputs": [
        {
          "name": "_index",
          "type": "uint256"
        }
      ],
      "name": "endorse",
      "outputs": [],
      "payable": false,
      "stateMutability": "nonpayable",
      "type": "function"
    },
    {
      "constant": false,
      "inputs": [
        {
          "name": "_endorsee",
          "type": "address"
        }
      ],
      "name": "removeEndorsement",
      "outputs": [
        {
          "name": "",
          "type": "uint256"
        }
      ],
      "payable": false,
      "stateMutability": "nonpayable",
      "type": "function"
    },
    {
      "constant": true,
      "inputs": [
        {
          "name": "_endorsee",
          "type": "address"
        }
      ],
      "name": "computeReceivedPoints",
      "outputs": [
        {
          "name": "",
          "type": "uint256"
        }
      ],
      "payable": false,
      "stateMutability": "view",
      "type": "function"
    },
    {
      "constant": true,
      "inputs": [
        {
          "name": "_participant",
          "type": "address"
        }
      ],
      "name": "computeImpact",
      "outputs": [
        {
          "name": "",
          "type": "uint256"
        }
      ],
      "payable": false,
      "stateMutability": "view",
      "type": "function"
    },
    {
      "constant": true,
      "inputs": [
        {
          "name": "_participant",
          "type": "address"
        }
      ],
      "name": "getProfile",
      "outputs": [
        {
          "name": "",
          "type": "uint256"
        },
        {
          "name": "",
          "type": "uint256"
        },
        {
          "name": "",
          "type": "address[]"
        },
        {
          "name": "",
          "type": "uint256"
        },
        {
          "name": "",
          "type": "uint256"
        },
        {
          "name": "",
          "type": "address[]"
        }
      ],
      "payable": false,
      "stateMutability": "view",
      "type": "function"
    },
    {
      "constant": true,
      "inputs": [
        {
          "name": "_participant",
          "type": "address"
        }
      ],
      "name": "getConnections",
      "outputs": [
        {
          "name": "",
          "type": "address[]"
        },
        {
          "name": "",
          "type": "address[]"
        }
      ],
      "payable": false,
      "stateMutability": "view",
      "type": "function"
    },
    {
      "constant": true,
      "inputs": [],
      "name": "getCount",
      "outputs": [
        {
          "name": "",
          "type": "uint256"
        }
      ],
      "payable": false,
      "stateMutability": "view",
      "type": "function"
    },
    {
      "constant": true,
      "inputs": [],
      "name": "getEndorsers",
      "outputs": [
        {
          "name": "",
          "type": "address[]"
        }
      ],
      "payable": false,
      "stateMutability": "view",
      "type": "function"
    },
    {
      "constant": true,
      "inputs": [
        {
          "name": "_endorser",
          "type": "address"
        }
      ],
      "name": "getUsedPower",
      "outputs": [
        {
          "name": "",
          "type": "uint256"
        }
      ],
      "payable": false,
      "stateMutability": "view",
      "type": "function"
    },
    {
      "constant": true,
      "inputs": [
        {
          "name": "_endorser",
          "type": "address"
        }
      ],
      "name": "getGivenTo",
      "outputs": [
        {
          "name": "",
          "type": "address[]"
        }
      ],
      "payable": false,
      "stateMutability": "view",
      "type": "function"
    },
    {
      "constant": true,
      "inputs": [
        {
          "name": "_endorser",
          "type": "address"
        }
      ],
      "name": "getGivenToCount",
      "outputs": [
        {
          "name": "",
          "type": "uint256"
        }
      ],
      "payable": false,
      "stateMutability": "view",
      "type": "function"
    },
    {
      "constant": true,
      "inputs": [
        {
          "name": "_endorser",
          "type": "address"
        },
        {
          "name": "_endorsee",
          "type": "address"
        }
      ],
      "name": "gethasGivenTo",
      "outputs": [
        {
          "name": "",
          "type": "bool"
        }
      ],
      "payable": false,
      "stateMutability": "view",
      "type": "function"
    },
    {
      "constant": true,
      "inputs": [],
      "name": "getEndorsees",
      "outputs": [
        {
          "name": "",
          "type": "address[]"
        }
      ],
      "payable": false,
      "stateMutability": "view",
      "type": "function"
    },
    {
      "constant": true,
      "inputs": [
        {
          "name": "_endorsee",
          "type": "address"
        }
      ],
      "name": "getReceivedFrom",
      "outputs": [
        {
          "name": "",
          "type": "address[]"
        }
      ],
      "payable": false,
      "stateMutability": "view",
      "type": "function"
    },
    {
      "constant": true,
      "inputs": [
        {
          "name": "_endorsee",
          "type": "address"
        }
      ],
      "name": "getReceivedFromCount",
      "outputs": [
        {
          "name": "",
          "type": "uint256"
        }
      ],
      "payable": false,
      "stateMutability": "view",
      "type": "function"
    },
    {
      "constant": true,
      "inputs": [
        {
          "name": "_endorser",
          "type": "address"
        },
        {
          "name": "_endorsee",
          "type": "address"
        }
      ],
      "name": "gethasReceivedFrom",
      "outputs": [
        {
          "name": "",
          "type": "bool"
        }
      ],
      "payable": false,
      "stateMutability": "view",
      "type": "function"
    }
  ],
  "bytecode": "0x6060604052341561000f57600080fd5b336000806101000a81548173ffffffffffffffffffffffffffffffffffffffff021916908373ffffffffffffffffffffffffffffffffffffffff16021790555033600260006101000a81548173ffffffffffffffffffffffffffffffffffffffff021916908373ffffffffffffffffffffffffffffffffffffffff160217905550612b428061009f6000396000f30060606040526004361061016a576000357c0100000000000000000000000000000000000000000000000000000000900463ffffffff16806305e33dd01461016f5780630f53a470146101d2578063195ec9ee146102c45780631fcfe3eb1461032e57806320b2e1cf146103515780632aec9dde1461039e5780632dd59bd1146103eb578063308d80321461043857806335c1d3491461049557806341c0e1b51461058157806346552e61146105965780634c070ced1461066c5780636b8ff574146106fa5780636ba160501461079657806376f7534d146107e357806388e2eed5146108305780638da5cb5b1461089a5780638eb467cd146108ef578063932afd171461095f578063a87d942c146109db578063c253c25c14610a04578063c386a95f14610a6e578063c4ec4b7514610ad1578063d55a6ac414610b1e578063e2d7493214610b81578063e4ff3df114610bf1578063f25cb44714610c7f578063f2fde38b14610ccc575b600080fd5b341561017a57600080fd5b6101906004808035906020019091905050610d05565b604051808273ffffffffffffffffffffffffffffffffffffffff1673ffffffffffffffffffffffffffffffffffffffff16815260200191505060405180910390f35b34156101dd57600080fd5b610209600480803573ffffffffffffffffffffffffffffffffffffffff16906020019091905050610d44565b604051808781526020018681526020018060200185815260200184815260200180602001838103835287818151815260200191508051906020019060200280838360005b8381101561026857808201518184015260208101905061024d565b50505050905001838103825284818151815260200191508051906020019060200280838360005b838110156102aa57808201518184015260208101905061028f565b505050509050019850505050505050505060405180910390f35b34156102cf57600080fd5b6102d7610ff6565b6040518080602001828103825283818151815260200191508051906020019060200280838360005b8381101561031a5780820151818401526020810190506102ff565b505050509050019250505060405180910390f35b341561033957600080fd5b61034f600480803590602001909190505061108a565b005b341561035c57600080fd5b610388600480803573ffffffffffffffffffffffffffffffffffffffff16906020019091905050611428565b6040518082815260200191505060405180910390f35b34156103a957600080fd5b6103d5600480803573ffffffffffffffffffffffffffffffffffffffff1690602001909190505061162e565b6040518082815260200191505060405180910390f35b34156103f657600080fd5b610422600480803573ffffffffffffffffffffffffffffffffffffffff1690602001909190505061167d565b6040518082815260200191505060405180910390f35b341561044357600080fd5b610493600480803590602001908201803590602001908080601f016020809104026020016040519081016040528093929190818152602001838380828437820191505050505050919050506116c9565b005b34156104a057600080fd5b6104b660048080359060200190919050506119e1565b604051808373ffffffffffffffffffffffffffffffffffffffff1673ffffffffffffffffffffffffffffffffffffffff168152602001806020018281038252838181546001816001161561010002031660029004815260200191508054600181600116156101000203166002900480156105715780601f1061054657610100808354040283529160200191610571565b820191906000526020600020905b81548152906001019060200180831161055457829003601f168201915b5050935050505060405180910390f35b341561058c57600080fd5b610594611a33565b005b34156105a157600080fd5b6105cd600480803573ffffffffffffffffffffffffffffffffffffffff16906020019091905050611ac9565b604051808060200180602001838103835285818151815260200191508051906020019060200280838360005b838110156106145780820151818401526020810190506105f9565b50505050905001838103825284818151815260200191508051906020019060200280838360005b8381101561065657808201518184015260208101905061063b565b5050505090500194505050505060405180910390f35b341561067757600080fd5b6106a3600480803573ffffffffffffffffffffffffffffffffffffffff16906020019091905050611c81565b6040518080602001828103825283818151815260200191508051906020019060200280838360005b838110156106e65780820151818401526020810190506106cb565b505050509050019250505060405180910390f35b341561070557600080fd5b61071b6004808035906020019091905050611d57565b6040518080602001828103825283818151815260200191508051906020019080838360005b8381101561075b578082015181840152602081019050610740565b50505050905090810190601f1680156107885780820380516001836020036101000a031916815260200191505b509250505060405180910390f35b34156107a157600080fd5b6107cd600480803573ffffffffffffffffffffffffffffffffffffffff16906020019091905050611e25565b6040518082815260200191505060405180910390f35b34156107ee57600080fd5b61081a600480803573ffffffffffffffffffffffffffffffffffffffff16906020019091905050611e73565b6040518082815260200191505060405180910390f35b341561083b57600080fd5b610843611f0f565b6040518080602001828103825283818151815260200191508051906020019060200280838360005b8381101561088657808201518184015260208101905061086b565b505050509050019250505060405180910390f35b34156108a557600080fd5b6108ad611fa3565b604051808273ffffffffffffffffffffffffffffffffffffffff1673ffffffffffffffffffffffffffffffffffffffff16815260200191505060405180910390f35b34156108fa57600080fd5b610945600480803573ffffffffffffffffffffffffffffffffffffffff1690602001909190803573ffffffffffffffffffffffffffffffffffffffff16906020019091905050611fc8565b604051808215151515815260200191505060405180910390f35b341561096a57600080fd5b6109d9600480803573ffffffffffffffffffffffffffffffffffffffff1690602001909190803590602001908201803590602001908080601f0160208091040260200160405190810160405280939291908181526020018383808284378201915050505050509190505061205f565b005b34156109e657600080fd5b6109ee6120ee565b6040518082815260200191505060405180910390f35b3415610a0f57600080fd5b610a176120f8565b6040518080602001828103825283818151815260200191508051906020019060200280838360005b83811015610a5a578082015181840152602081019050610a3f565b505050509050019250505060405180910390f35b3415610a7957600080fd5b610a8f600480803590602001909190505061218c565b604051808273ffffffffffffffffffffffffffffffffffffffff1673ffffffffffffffffffffffffffffffffffffffff16815260200191505060405180910390f35b3415610adc57600080fd5b610b08600480803573ffffffffffffffffffffffffffffffffffffffff169060200190919050506121cb565b6040518082815260200191505060405180910390f35b3415610b2957600080fd5b610b3f6004808035906020019091905050612317565b604051808273ffffffffffffffffffffffffffffffffffffffff1673ffffffffffffffffffffffffffffffffffffffff16815260200191505060405180910390f35b3415610b8c57600080fd5b610bd7600480803573ffffffffffffffffffffffffffffffffffffffff1690602001909190803573ffffffffffffffffffffffffffffffffffffffff16906020019091905050612356565b604051808215151515815260200191505060405180910390f35b3415610bfc57600080fd5b610c28600480803573ffffffffffffffffffffffffffffffffffffffff169060200190919050506123ed565b6040518080602001828103825283818151815260200191508051906020019060200280838360005b83811015610c6b578082015181840152602081019050610c50565b505050509050019250505060405180910390f35b3415610c8a57600080fd5b610cb6600480803573ffffffffffffffffffffffffffffffffffffffff169060200190919050506124c3565b6040518082815260200191505060405180910390f35b3415610cd757600080fd5b610d03600480803573ffffffffffffffffffffffffffffffffffffffff16906020019091905050612512565b005b600a81815481101515610d1457fe5b90600052602060002090016000915054906101000a900473ffffffffffffffffffffffffffffffffffffffff1681565b600080610d4f612883565b600080610d5a612883565b600080600080600080600660008e73ffffffffffffffffffffffffffffffffffffffff1673ffffffffffffffffffffffffffffffffffffffff168152602001908152602001600020600201549550600660008e73ffffffffffffffffffffffffffffffffffffffff1673ffffffffffffffffffffffffffffffffffffffff168152602001908152602001600020600301549450600660008e73ffffffffffffffffffffffffffffffffffffffff1673ffffffffffffffffffffffffffffffffffffffff1681526020019081526020016000206004019350600860008e73ffffffffffffffffffffffffffffffffffffffff1673ffffffffffffffffffffffffffffffffffffffff168152602001908152602001600020600201549250610e7f8d611e73565b9150600860008e73ffffffffffffffffffffffffffffffffffffffff1673ffffffffffffffffffffffffffffffffffffffff168152602001908152602001600020600301905085858585858583805480602002602001604051908101604052809291908181526020018280548015610f4c57602002820191906000526020600020905b8160009054906101000a900473ffffffffffffffffffffffffffffffffffffffff1673ffffffffffffffffffffffffffffffffffffffff1681526020019060010190808311610f02575b5050505050935080805480602002602001604051908101604052809291908181526020018280548015610fd457602002820191906000526020600020905b8160009054906101000a900473ffffffffffffffffffffffffffffffffffffffff1673ffffffffffffffffffffffffffffffffffffffff1681526020019060010190808311610f8a575b505050505090509b509b509b509b509b509b5050505050505091939550919395565b610ffe612883565b600a80548060200260200160405190810160405280929190818152602001828054801561108057602002820191906000526020600020905b8160009054906101000a900473ffffffffffffffffffffffffffffffffffffffff1673ffffffffffffffffffffffffffffffffffffffff1681526020019060010190808311611036575b5050505050905090565b60008060003414151561109c57600080fd5b6003838154811015156110ab57fe5b906000526020600020906002020160000160009054906101000a900473ffffffffffffffffffffffffffffffffffffffff16915060008273ffffffffffffffffffffffffffffffffffffffff161415151561110557600080fd5b3373ffffffffffffffffffffffffffffffffffffffff168273ffffffffffffffffffffffffffffffffffffffff161415151561114057600080fd5b600560003373ffffffffffffffffffffffffffffffffffffffff1673ffffffffffffffffffffffffffffffffffffffff16815260200190815260200160002060009054906101000a900460ff16151561119857600080fd5b600660003373ffffffffffffffffffffffffffffffffffffffff1673ffffffffffffffffffffffffffffffffffffffff16815260200190815260200160002090508060000160008154809291906001019190505550338160010160006101000a81548173ffffffffffffffffffffffffffffffffffffffff021916908373ffffffffffffffffffffffffffffffffffffffff160217905550806002016000815480929190600101919050555061125560018260020154600961263a565b81600301819055508060040180548060010182816112739190612897565b9160005260206000209001600084909190916101000a81548173ffffffffffffffffffffffffffffffffffffffff021916908373ffffffffffffffffffffffffffffffffffffffff1602179055505060018160050160008473ffffffffffffffffffffffffffffffffffffffff1673ffffffffffffffffffffffffffffffffffffffff16815260200190815260200160002060006101000a81548160ff0219169083151502179055506001600780548060010182816113329190612897565b9160005260206000209001600033909190916101000a81548173ffffffffffffffffffffffffffffffffffffffff021916908373ffffffffffffffffffffffffffffffffffffffff160217905550505061138c8233612673565b7f7845b8ad8806c20e29c9d7324b57431f98ecae390bcd677ed79d54fbc7d3dff33383604051808373ffffffffffffffffffffffffffffffffffffffff1673ffffffffffffffffffffffffffffffffffffffff1681526020018273ffffffffffffffffffffffffffffffffffffffff1673ffffffffffffffffffffffffffffffffffffffff1681526020019250505060405180910390a1505050565b6000806000600660003373ffffffffffffffffffffffffffffffffffffffff1673ffffffffffffffffffffffffffffffffffffffff1681526020019081526020016000209150600860008573ffffffffffffffffffffffffffffffffffffffff1673ffffffffffffffffffffffffffffffffffffffff16815260200190815260200160002090508160050160008573ffffffffffffffffffffffffffffffffffffffff1673ffffffffffffffffffffffffffffffffffffffff16815260200190815260200160002060009054906101000a900460ff16156115e25760008260050160008673ffffffffffffffffffffffffffffffffffffffff1673ffffffffffffffffffffffffffffffffffffffff16815260200190815260200160002060006101000a81548160ff02191690831515021790555081600201600081548092919060019003919050555060008160040160003373ffffffffffffffffffffffffffffffffffffffff1673ffffffffffffffffffffffffffffffffffffffff16815260200190815260200160002060006101000a81548160ff0219169083151502179055508060020160008154809291906001900391905055505b600660003373ffffffffffffffffffffffffffffffffffffffff1673ffffffffffffffffffffffffffffffffffffffff1681526020019081526020016000206000015492505050919050565b6000600860008373ffffffffffffffffffffffffffffffffffffffff1673ffffffffffffffffffffffffffffffffffffffff168152602001908152602001600020600301805490509050919050565b6000600660008373ffffffffffffffffffffffffffffffffffffffff1673ffffffffffffffffffffffffffffffffffffffff168152602001908152602001600020600301549050919050565b6116d16128c3565b6000341415156116e057600080fd5b600560003373ffffffffffffffffffffffffffffffffffffffff1673ffffffffffffffffffffffffffffffffffffffff16815260200190815260200160002060009054906101000a900460ff1615151561173957600080fd5b6001600560003373ffffffffffffffffffffffffffffffffffffffff1673ffffffffffffffffffffffffffffffffffffffff16815260200190815260200160002060006101000a81548160ff02191690831515021790555060408051908101604052803373ffffffffffffffffffffffffffffffffffffffff168152602001838152509050600380548060010182816117d291906128f9565b9160005260206000209060020201600083909190915060008201518160000160006101000a81548173ffffffffffffffffffffffffffffffffffffffff021916908373ffffffffffffffffffffffffffffffffffffffff160217905550602082015181600101908051906020019061184b92919061292b565b505050507fe8f84471e30dd45724c20df4d0a852bf7aeb5c3fdb7328f231e08dac15b64f0a3383604051808373ffffffffffffffffffffffffffffffffffffffff1673ffffffffffffffffffffffffffffffffffffffff16815260200180602001828103825283818151815260200191508051906020019080838360005b838110156118e45780820151818401526020810190506118c9565b50505050905090810190601f1680156119115780820380516001836020036101000a031916815260200191505b50935050505060405180910390a1600460008154809291906001019190505550600160045403600b60003373ffffffffffffffffffffffffffffffffffffffff1673ffffffffffffffffffffffffffffffffffffffff16815260200190815260200160002081905550600a805480600101828161198e9190612897565b9160005260206000209001600033909190916101000a81548173ffffffffffffffffffffffffffffffffffffffff021916908373ffffffffffffffffffffffffffffffffffffffff160217905550505050565b6003818154811015156119f057fe5b90600052602060002090600202016000915090508060000160009054906101000a900473ffffffffffffffffffffffffffffffffffffffff169080600101905082565b600260009054906101000a900473ffffffffffffffffffffffffffffffffffffffff1673ffffffffffffffffffffffffffffffffffffffff163373ffffffffffffffffffffffffffffffffffffffff16141515611a8f57600080fd5b6000809054906101000a900473ffffffffffffffffffffffffffffffffffffffff1673ffffffffffffffffffffffffffffffffffffffff16ff5b611ad1612883565b611ad9612883565b600080600860008673ffffffffffffffffffffffffffffffffffffffff1673ffffffffffffffffffffffffffffffffffffffff1681526020019081526020016000206003019150600660008673ffffffffffffffffffffffffffffffffffffffff1673ffffffffffffffffffffffffffffffffffffffff1681526020019081526020016000206004019050818181805480602002602001604051908101604052809291908181526020018280548015611be757602002820191906000526020600020905b8160009054906101000a900473ffffffffffffffffffffffffffffffffffffffff1673ffffffffffffffffffffffffffffffffffffffff1681526020019060010190808311611b9d575b5050505050915080805480602002602001604051908101604052809291908181526020018280548015611c6f57602002820191906000526020600020905b8160009054906101000a900473ffffffffffffffffffffffffffffffffffffffff1673ffffffffffffffffffffffffffffffffffffffff1681526020019060010190808311611c25575b50505050509050935093505050915091565b611c89612883565b600860008373ffffffffffffffffffffffffffffffffffffffff1673ffffffffffffffffffffffffffffffffffffffff168152602001908152602001600020600301805480602002602001604051908101604052809291908181526020018280548015611d4b57602002820191906000526020600020905b8160009054906101000a900473ffffffffffffffffffffffffffffffffffffffff1673ffffffffffffffffffffffffffffffffffffffff1681526020019060010190808311611d01575b50505050509050919050565b611d5f6129ab565b6000600383815481101515611d7057fe5b90600052602060002090600202016001019050808054600181600116156101000203166002900480601f016020809104026020016040519081016040528092919081815260200182805460018160011615610100020316600290048015611e185780601f10611ded57610100808354040283529160200191611e18565b820191906000526020600020905b815481529060010190602001808311611dfb57829003601f168201915b5050505050915050919050565b600080600b60008473ffffffffffffffffffffffffffffffffffffffff1673ffffffffffffffffffffffffffffffffffffffff16815260200190815260200160002054905080915050919050565b6000611e7d612883565b600080611e8985611c81565b9250600090505b8251811015611f0457600660008483815181101515611eab57fe5b9060200190602002015173ffffffffffffffffffffffffffffffffffffffff1673ffffffffffffffffffffffffffffffffffffffff16815260200190815260200160002060030154820191508080600101915050611e90565b819350505050919050565b611f17612883565b6009805480602002602001604051908101604052809291908181526020018280548015611f9957602002820191906000526020600020905b8160009054906101000a900473ffffffffffffffffffffffffffffffffffffffff1673ffffffffffffffffffffffffffffffffffffffff1681526020019060010190808311611f4f575b5050505050905090565b6000809054906101000a900473ffffffffffffffffffffffffffffffffffffffff1681565b6000600860008373ffffffffffffffffffffffffffffffffffffffff1673ffffffffffffffffffffffffffffffffffffffff16815260200190815260200160002060040160008473ffffffffffffffffffffffffffffffffffffffff1673ffffffffffffffffffffffffffffffffffffffff16815260200190815260200160002060009054906101000a900460ff16905092915050565b6000803414151561206f57600080fd5b8273ffffffffffffffffffffffffffffffffffffffff163373ffffffffffffffffffffffffffffffffffffffff161415156120a957600080fd5b6120b283611e25565b9050816003828154811015156120c457fe5b906000526020600020906002020160010190805190602001906120e89291906129bf565b50505050565b6000600454905090565b612100612883565b600780548060200260200160405190810160405280929190818152602001828054801561218257602002820191906000526020600020905b8160009054906101000a900473ffffffffffffffffffffffffffffffffffffffff1673ffffffffffffffffffffffffffffffffffffffff1681526020019060010190808311612138575b5050505050905090565b60078181548110151561219b57fe5b90600052602060002090016000915054906101000a900473ffffffffffffffffffffffffffffffffffffffff1681565b600080600080600080600080600080600660008c73ffffffffffffffffffffffffffffffffffffffff1673ffffffffffffffffffffffffffffffffffffffff168152602001908152602001600020600201549850600860008c73ffffffffffffffffffffffffffffffffffffffff1673ffffffffffffffffffffffffffffffffffffffff16815260200190815260200160002060020154975061226d8b611e73565b965060018911158015612281575060018811155b156122925760009550859950612309565b61229c898961284b565b94506122a88989612867565b93506122b68585600961263a565b9250600660008c73ffffffffffffffffffffffffffffffffffffffff1673ffffffffffffffffffffffffffffffffffffffff16815260200190815260200160002060030154915086905080830295508599505b505050505050505050919050565b60098181548110151561232657fe5b90600052602060002090016000915054906101000a900473ffffffffffffffffffffffffffffffffffffffff1681565b6000600660008473ffffffffffffffffffffffffffffffffffffffff1673ffffffffffffffffffffffffffffffffffffffff16815260200190815260200160002060050160008373ffffffffffffffffffffffffffffffffffffffff1673ffffffffffffffffffffffffffffffffffffffff16815260200190815260200160002060009054906101000a900460ff16905092915050565b6123f5612883565b600660008373ffffffffffffffffffffffffffffffffffffffff1673ffffffffffffffffffffffffffffffffffffffff1681526020019081526020016000206004018054806020026020016040519081016040528092919081815260200182805480156124b757602002820191906000526020600020905b8160009054906101000a900473ffffffffffffffffffffffffffffffffffffffff1673ffffffffffffffffffffffffffffffffffffffff168152602001906001019080831161246d575b50505050509050919050565b6000600660008373ffffffffffffffffffffffffffffffffffffffff1673ffffffffffffffffffffffffffffffffffffffff168152602001908152602001600020600401805490509050919050565b600260009054906101000a900473ffffffffffffffffffffffffffffffffffffffff1673ffffffffffffffffffffffffffffffffffffffff163373ffffffffffffffffffffffffffffffffffffffff1614151561256e57600080fd5b60008173ffffffffffffffffffffffffffffffffffffffff161415151561259457600080fd5b80600160006101000a81548173ffffffffffffffffffffffffffffffffffffffff021916908373ffffffffffffffffffffffffffffffffffffffff160217905550600160009054906101000a900473ffffffffffffffffffffffffffffffffffffffff166000806101000a81548173ffffffffffffffffffffffffffffffffffffffff021916908373ffffffffffffffffffffffffffffffffffffffff16021790555050565b600080600060018401600a0a86029150600a6005868481151561265957fe5b040181151561266457fe5b04905080925050509392505050565b6000600860008473ffffffffffffffffffffffffffffffffffffffff1673ffffffffffffffffffffffffffffffffffffffff1681526020019081526020016000209050828160010160006101000a81548173ffffffffffffffffffffffffffffffffffffffff021916908373ffffffffffffffffffffffffffffffffffffffff160217905550806000016000815480929190600101919050555080600201600081548092919060010191905055508060030180548060010182816127379190612897565b9160005260206000209001600084909190916101000a81548173ffffffffffffffffffffffffffffffffffffffff021916908373ffffffffffffffffffffffffffffffffffffffff1602179055505060018160040160008473ffffffffffffffffffffffffffffffffffffffff1673ffffffffffffffffffffffffffffffffffffffff16815260200190815260200160002060006101000a81548160ff0219169083151502179055506001600980548060010182816127f69190612897565b9160005260206000209001600086909190916101000a81548173ffffffffffffffffffffffffffffffffffffffff021916908373ffffffffffffffffffffffffffffffffffffffff1602179055505050505050565b60008183101561285d57829050612861565b8190505b92915050565b6000818310156128795781905061287d565b8290505b92915050565b602060405190810160405280600081525090565b8154818355818115116128be578183600052602060002091820191016128bd9190612a3f565b5b505050565b6040805190810160405280600073ffffffffffffffffffffffffffffffffffffffff1681526020016128f3612a64565b81525090565b815481835581811511612926576002028160020283600052602060002091820191016129259190612a78565b5b505050565b828054600181600116156101000203166002900490600052602060002090601f016020900481019282601f1061296c57805160ff191683800117855561299a565b8280016001018555821561299a579182015b8281111561299957825182559160200191906001019061297e565b5b5090506129a79190612a3f565b5090565b602060405190810160405280600081525090565b828054600181600116156101000203166002900490600052602060002090601f016020900481019282601f10612a0057805160ff1916838001178555612a2e565b82800160010185558215612a2e579182015b82811115612a2d578251825591602001919060010190612a12565b5b509050612a3b9190612a3f565b5090565b612a6191905b80821115612a5d576000816000905550600101612a45565b5090565b90565b602060405190810160405280600081525090565b612acb91905b80821115612ac757600080820160006101000a81549073ffffffffffffffffffffffffffffffffffffffff0219169055600182016000612abe9190612ace565b50600201612a7e565b5090565b90565b50805460018160011615610100020316600290046000825580601f10612af45750612b13565b601f016020900490600052602060002090810190612b129190612a3f565b5b505600a165627a7a72305820f662d4cad8a272b3d8c4bced404e36745f548a13102b365437930170bba73b540029",
  "source": "pragma solidity ^0.4.18;\n\nimport \"./Ownable.sol\";\nimport \"./Killable.sol\";\n\ncontract Endorsement is Ownable, Killable {\n\n\taddress owner;\n    \n    struct Participant { \n        address identifier;\n        string name;\n    }\n    \n    struct Endorser {\n\t\tuint index;\n        address sender;\n        uint nEG;\n        uint usedPower;\n        address[] givenTo;\n        mapping(address => bool) hasGivenTo;\n    }\n\n\tstruct Endorsee { \n\t\tuint index;\n\t\taddress receiver;\n\t\tuint nER;\n\t\t//uint receivedPoints;\n\t\taddress[] receivedFrom;\n\t\tmapping(address => bool) hasReceivedFrom;\n\t}\n    \n    Participant [] public participants;\n\t\n\tuint numberOfParticipants;\n    \n    mapping(address => bool) joined;\n    \n    mapping (address => Endorser) endorsers;\n    address[] public endorserAccts;\n\n\tmapping (address => Endorsee ) endorsees;\n\taddress[] public endorseeAccts;\n\n\n\t//mapping (address => uint) public receivedPoints;\n    \n\t// modifiers\n\t// set owner of contract - replace eventually with Ownable contract\n\tmodifier onlyOwner() { \n\t\trequire(msg.sender == owner );\n\t\t_;\n\t}\n\n\t//reject any ether transfer \n\tmodifier HasNoEther( ){ \n\t\trequire (msg.value == 0);\n\t\t_;\n\t}\n\n\t//constructor\n\tfunction Endorsement() public { \n\t\t//EDSToken( );\n\t\towner = msg.sender;\n\t}\n\n\t//event logs\n\tevent LogJoinNetwork(\n\t\taddress _participant, \n\t\tstring _name\n\t);  \n\n\tevent LogEndorse(\n\t\taddress _endorser, \n\t\taddress _endorsee\n\t);\n\n\taddress [] public allParticipants;\n\n\tmapping (address => uint ) participantIndex;\n\n\n\t//Join Network as any user\n\tfunction joinNetwork(string _userName) public HasNoEther {\n\t\t//only allow unregistered participant\n\t    require(!joined[msg.sender]);\n\n\t    joined[msg.sender] = true;\n\n\t\t// store senders id and name\n\t    Participant memory newParticipant = Participant({\n\t        identifier: msg.sender,\n\t        name: _userName\n\t    });\n\n\t\t//add new participant to the existing list of joined members\n\t    participants.push(newParticipant);\n\n\t\tLogJoinNetwork(msg.sender, _userName);\n\n\t\tnumberOfParticipants++;\n\n\t\tparticipantIndex[msg.sender] = numberOfParticipants-1;\n\n\t\tallParticipants.push(msg.sender);\n\t}\n\n\t//get list of all participants\n\tfunction getAllParticipants() public view returns(address[]) {\n\t\treturn allParticipants;\n\t}\n\n\t//get index of participant by address, helper function, view modifier \n\tfunction getParticipantIndex(address _participant) public view returns (uint ) {\n\t\tuint userIndex = participantIndex[_participant];\n\t\treturn userIndex;\n\t}\n\n\t//Profile-related changes of participants\n\tfunction getName(uint _index ) public view returns (string ) {\n\t\tstring name = participants[_index].name;\n\t\treturn name;\n\t}\n\n\tfunction editProfile(address _participant, string _name) public HasNoEther {\n\t\t//verify editor is same as profile owner\n\t\trequire(msg.sender == _participant);\n\n\t\t//change state\n\t\tuint id = getParticipantIndex(_participant);\n\t\tparticipants[id].name = _name;\n\t}\n\n\t//send Endorsement - from  endorser to endorsee\n\tfunction endorse(uint _index) public HasNoEther { \n\t\t// get address of endorsee\n\t    address receiver = participants[_index].identifier;\n\t    \n\t\t//verify endorser and endorsee are not equal and are both registered participants \n\t    require(receiver != 0x0);\n\t    require(receiver != msg.sender);\n\t\trequire(joined[msg.sender]);\n\t    \n\t\t//store and update new endorser information\n\t    Endorser storage endorser = endorsers[msg.sender];\n\n\t\tendorser.index++;\n\t    endorser.sender = msg.sender;\n\t    endorser.nEG++;\n\t\t\n//\t\tif (endorser.nEG >1 ){ \n//\t\t\tendorser.usedPower = Division(1, endorser.nEG,9);\n//\t\t} else {\n//\t\t\tendorser.usedPower = 0;\n//\t\t}\n\t\t\n\t    endorser.usedPower =Division(1,endorser.nEG, 9);\n\t    endorser.givenTo.push(receiver);\n\t    endorser.hasGivenTo[receiver] = true;\n\t    \n\t    endorserAccts.push(msg.sender) - 1;\n\n\t\t//trigger call for updating endorsee information\n\t\tupdateEndorsee(receiver, msg.sender);\n\n\t\t//Log endorsement event\n\t\tLogEndorse(msg.sender, receiver);\n\t}\n\n\t//store and update new endorsee information after transaction call\n\tfunction updateEndorsee(address _receiver, address _sender) internal { \n\t\tEndorsee storage endorsee = endorsees[_receiver];\n\t\tendorsee.receiver = _receiver;\n\t\tendorsee.index++;\n\t\tendorsee.nER++;\n\t\tendorsee.receivedFrom.push(_sender);\n\t\tendorsee.hasReceivedFrom[_sender] = true;\n\n\t\tendorseeAccts.push(_receiver) - 1;\n\t}\n\n\t//remove endorsement as an endorser of an endorsee\n\tfunction removeEndorsement(address _endorsee) public returns(uint) { \n\t\tEndorser storage endorser = endorsers[msg.sender]; \n\t\tEndorsee storage endorsee = endorsees[_endorsee]; \n\t\t\n\t\t//proceed only if endorsee is in the endorser's list of endorsees\n\t\tif (endorser.hasGivenTo[_endorsee]) { \n\t\t\tendorser.hasGivenTo[_endorsee] = false;\n\t\t\tendorser.nEG--;\n\n\t\t\t//remove endorsee from endorser.givenTo array \n\t\t\t\n\t\t\tendorsee.hasReceivedFrom[msg.sender] = false;\n\t\t\tendorsee.nER--;\n\n\t\t\t//remove endorser address from endorsee.receivedFrom array\n\t\t}\n\t\treturn endorsers[msg.sender].index;\n\t}\n\n\t//computation of total received points of an endorsee \n\tfunction computeReceivedPoints(address _endorsee) public view returns(uint) { \n\t\t//get list of endorsers addresses from whom _endorsee has received eds from\n\t\taddress [] memory receivedFrom = getReceivedFrom(_endorsee);\n\n\t\t//aggregate total received points from  the accumulated receivedFrom list\n\t\tuint receivedPoints;\n\n\t\tfor (uint i=0; i<receivedFrom.length; i++) { \n\t\t\treceivedPoints = receivedPoints + endorsers[receivedFrom[i]].usedPower;\n\t\t}\n\n\t\treturn receivedPoints;\n\t}\n\n\t//computation of total endorsement impact of a participant\n\t//the degree of connection should be strictly greater than 1 to be considered for \n\t//impact computation, else, the impact by default should be ignorant, i.e., 0\n\tfunction computeImpact(address _participant) public view returns (uint) { \n\t\tuint nEG = endorsers[_participant].nEG;\n\t\tuint nER = endorsees[_participant].nER;\n\t\tuint _RE = computeReceivedPoints(_participant);\n\t\tuint impact;\n\n\t\tif (nEG <=1 && nER <=1 ) { \n\t\t\timpact = 0;\n\t\t\treturn impact;\n\t\t\t//return impact and exit here\n\t\t} else { \n\n\t\t\tuint minval = min(nEG,nER);\n\t\t\tuint maxval = max(nEG,nER);\n\n\t\t\tuint ratio = Division(minval, maxval,9);\n\t\t\tuint usedUpByParticipant = endorsers[_participant].usedPower;\n\t\t\tuint RE = _RE; \n\n\t\t\timpact = ratio * RE;\n\t\t}\n\t\treturn impact;\n\t}\n\n\t//Receive feedback from Transaction Network and penalize the nodes\n//\tfunction penalizeParticipants(address _malignant) public view {\n//\n//\t\n//\t} \n//\n\n\t//Single function to get all the details of a registered participant\n\tfunction getProfile(address _participant) public view returns (\n\t\tuint,\n\t\tuint, \n\t\taddress[], \n\t\tuint, \n\t\tuint, \n\t\taddress[] ) \n\t\t{ \n\n\t\tuint outDegree = endorsers[_participant].nEG;\n\t\tuint usedPower = endorsers[_participant].usedPower;\n\t\taddress[] outConns  = endorsers[_participant].givenTo;\n\t\t\n\t\tuint inDegree =\t endorsees[_participant].nER;\n\t\tuint receivedPoints = computeReceivedPoints(_participant);\n\t\taddress[] inConns   = endorsees[_participant].receivedFrom;\n\n\t\treturn ( \n\t\t\t\toutDegree, \n\t\t\t\tusedPower,\n\t\t\t\toutConns,\n\n\t\t\t\tinDegree,\n\t\t\t\treceivedPoints,\n\t\t\t\tinConns\n\t\t);\n\t}\n\n\t//get connections and degree of connections - helper function\n\tfunction getConnections(address _participant) public view returns (\n\t\taddress [],\n\t\taddress []\n\t){\n\t\taddress [] inConns = endorsees[_participant].receivedFrom;\n\t\taddress [] outConns = endorsers[_participant].givenTo;\n\n\t\treturn (inConns, outConns);\n\t}\n\n\t//count total number of registered participants\n\tfunction getCount( ) public view returns (uint) {\n\t\treturn numberOfParticipants;\n\t}\n\n\t//return array of all endorser accounts\n\tfunction getEndorsers() view public returns (address []) { \n\t    return endorserAccts;\n\t}\n\n\t//return the total consumable power used by an endorser\n\tfunction getUsedPower(address _endorser) view public returns(uint) {\n\t    return (endorsers[_endorser].usedPower);\n\t}\n\n\t//return list of addresses that an endorser has sent endorsement to \n\tfunction getGivenTo(address _endorser) view public returns(address []) {\n\t    return (endorsers[_endorser].givenTo);\n\t}\n\n\t//return number of endorsees an endorser has sent endorsement to\n\tfunction getGivenToCount(address _endorser ) view public returns (uint) {\n\t\treturn (endorsers[_endorser].givenTo).length;\n\t}\n\t\n\t//return a boolean value from the matrix of hasGivenTo, quick access for checking \n\t//if an endorsee's address is in the list of endorsee addresses of the particular endorser.\n\tfunction gethasGivenTo(address _endorser, address _endorsee) view public returns(bool) {\n\t    return (endorsers[_endorser].hasGivenTo[_endorsee]);\n\t}\n\n\t//return an array of all endorsee accounts - front end\n\tfunction getEndorsees() view public returns (address []) { \n\t    return endorseeAccts;\n\t}\n\n\t//return address of all the endorsers for an endorsee, helper function to \n\t//compute total received point\n\tfunction getReceivedFrom(address _endorsee) view public returns(address []) {\n\t    return (endorsees[_endorsee].receivedFrom);\n\t}\n\n\t//count total number of endorser for an address of endorsee\n\tfunction getReceivedFromCount(address _endorsee) view public returns (uint ) {\n\t\treturn (endorsees[_endorsee].receivedFrom).length;\n\t}\n\n\t//return a boolean value from the matrix of hasReceivedFrom, to check if \n\t// an endorser's address is in the list of endorser address of the particular endorsee\n\tfunction gethasReceivedFrom(address _endorser, address _endorsee) view public returns(bool) {\n\t    return (endorsees[_endorsee].hasReceivedFrom[_endorser]);\n\t}\n\n\t\n\t//some helper  functions for floating point calculation\n\tfunction Division( uint _numerator, uint _denominator, uint _precision) internal pure returns (uint _quotient) {\n\t\tuint numerator = _numerator * 10 ** (_precision + 1);\n\t\tuint quotient = ((numerator / _denominator) + 5  ) / 10;\n\n\t\treturn (quotient);\t\t\n\t}\n\n\t//some helper maths function to compute max, min value.\n\t//used for computing ratio and ensuring that the ratio is always less than 1.\n\tfunction max (uint x, uint y ) internal pure returns (uint) {\n\t\tif (x < y) {\n\t\t\treturn y;\n\t\t} else  {  \n\t\t\treturn x;\n\t\t}\n\t}\n\n\tfunction min (uint x, uint y ) internal pure returns (uint) { \n\t\tif (x < y) { \n\t\t\treturn x;\n\t\t} else {\n\t\t\treturn y;\n\t\t}\n\t}\n}\n",
  "sourcePath": "/home/sujata/Documents/Masters-Thesis/endorsements/ethereum/contracts/Endorsement.sol",
  "compiler": {
    "name": "solc",
    "version": "0.4.19+commit.c4cbbb05.Emscripten.clang"
  },
  "schemaVersion": "2.0.0",
  "updatedAt": "2018-07-31T13:11:35.093Z"
}