{
  "contractName": "Graph",
  "abi": [
    {
      "constant": false,
      "inputs": [
        {
          "name": "_node",
          "type": "address"
        }
      ],
      "name": "netFlow",
      "outputs": [],
      "payable": false,
      "stateMutability": "nonpayable",
      "type": "function"
    }
  ],
  "bytecode": "0x6060604052341561000f57600080fd5b60af8061001d6000396000f300606060405260043610603f576000357c0100000000000000000000000000000000000000000000000000000000900463ffffffff168063dcc1b4e7146044575b600080fd5b3415604e57600080fd5b6078600480803573ffffffffffffffffffffffffffffffffffffffff16906020019091905050607a565b005b600033905050505600a165627a7a72305820e25e227d2dcd66f250a55fdc466b1deac20983fca7355ce47313d1c7ac2313b90029",
  "source": "pragma solidity ^0.4.18;\n\ncontract Graph {\n\tstruct nodes {\n\t\tuint inDegree;\n\t\tuint outDegree;\n\t\tuint adjacentNodes;\n\t}\n\n\n\tfunction netFlow(address _node) {\n\t\t// to check if node 'A' is honest \n\t\t// verify if adjacent of - adjacent nodes of 'A' is not just adj(A) \n\t\taddress node = msg.sender;\n\t\n\t}\n\n}\n",
  "sourcePath": "/home/sujata/Documents/Masters-Thesis/endorsements/ethereum/contracts/graph.sol",
  "compiler": {
    "name": "solc",
    "version": "0.4.19+commit.c4cbbb05.Emscripten.clang"
  },
  "schemaVersion": "2.0.0",
  "updatedAt": "2018-07-31T09:44:15.474Z"
}