{
  "contractName": "MarketPlace",
  "abi": [
    {
      "constant": true,
      "inputs": [
        {
          "name": "",
          "type": "uint256"
        }
      ],
      "name": "products",
      "outputs": [
        {
          "name": "id",
          "type": "uint256"
        },
        {
          "name": "seller",
          "type": "address"
        },
        {
          "name": "buyer",
          "type": "address"
        },
        {
          "name": "name",
          "type": "string"
        },
        {
          "name": "description",
          "type": "string"
        },
        {
          "name": "price",
          "type": "uint256"
        },
        {
          "name": "rating",
          "type": "uint256"
        }
      ],
      "payable": false,
      "stateMutability": "view",
      "type": "function"
    },
    {
      "anonymous": false,
      "inputs": [
        {
          "indexed": true,
          "name": "_id",
          "type": "uint256"
        },
        {
          "indexed": true,
          "name": "_seller",
          "type": "address"
        },
        {
          "indexed": false,
          "name": "_name",
          "type": "string"
        },
        {
          "indexed": false,
          "name": "_price",
          "type": "uint256"
        }
      ],
      "name": "LogSellProduct",
      "type": "event"
    },
    {
      "anonymous": false,
      "inputs": [
        {
          "indexed": false,
          "name": "_productId",
          "type": "uint256"
        },
        {
          "indexed": true,
          "name": "_seller",
          "type": "address"
        },
        {
          "indexed": true,
          "name": "_buyer",
          "type": "address"
        },
        {
          "indexed": false,
          "name": "_name",
          "type": "string"
        },
        {
          "indexed": false,
          "name": "_price",
          "type": "uint256"
        }
      ],
      "name": "LogBuyProduct",
      "type": "event"
    },
    {
      "anonymous": false,
      "inputs": [
        {
          "indexed": false,
          "name": "_buyer",
          "type": "address"
        },
        {
          "indexed": false,
          "name": "_productId",
          "type": "uint256"
        },
        {
          "indexed": false,
          "name": "rating",
          "type": "uint256"
        }
      ],
      "name": "LogFeedBack",
      "type": "event"
    },
    {
      "constant": false,
      "inputs": [
        {
          "name": "_name",
          "type": "string"
        },
        {
          "name": "_description",
          "type": "string"
        },
        {
          "name": "_price",
          "type": "uint256"
        }
      ],
      "name": "sellProduct",
      "outputs": [],
      "payable": false,
      "stateMutability": "nonpayable",
      "type": "function"
    },
    {
      "constant": true,
      "inputs": [],
      "name": "getNumberOfProducts",
      "outputs": [
        {
          "name": "",
          "type": "uint256"
        }
      ],
      "payable": false,
      "stateMutability": "view",
      "type": "function"
    },
    {
      "constant": true,
      "inputs": [],
      "name": "getProductsForSale",
      "outputs": [
        {
          "name": "",
          "type": "uint256[]"
        }
      ],
      "payable": false,
      "stateMutability": "view",
      "type": "function"
    },
    {
      "constant": false,
      "inputs": [
        {
          "name": "_productId",
          "type": "uint256"
        }
      ],
      "name": "buyProduct",
      "outputs": [],
      "payable": true,
      "stateMutability": "payable",
      "type": "function"
    },
    {
      "constant": true,
      "inputs": [
        {
          "name": "_productId",
          "type": "uint256"
        },
        {
          "name": "_rating",
          "type": "uint256"
        }
      ],
      "name": "feedBack",
      "outputs": [],
      "payable": false,
      "stateMutability": "view",
      "type": "function"
    }
  ],
  "bytecode": "0x6060604052341561000f57600080fd5b610cf68061001e6000396000f300606060405260043610610077576000357c0100000000000000000000000000000000000000000000000000000000900463ffffffff168062e840bf1461007c5780633ffd81fb146100e65780637acc0b201461010f5780637d33f01e146102cc5780638642269e14610375578063d265a7721461038d575b600080fd5b341561008757600080fd5b61008f6103b9565b6040518080602001828103825283818151815260200191508051906020019060200280838360005b838110156100d25780820151818401526020810190506100b7565b505050509050019250505060405180910390f35b34156100f157600080fd5b6100f9610524565b6040518082815260200191505060405180910390f35b341561011a57600080fd5b610130600480803590602001909190505061052e565b604051808881526020018773ffffffffffffffffffffffffffffffffffffffff1673ffffffffffffffffffffffffffffffffffffffff1681526020018673ffffffffffffffffffffffffffffffffffffffff1673ffffffffffffffffffffffffffffffffffffffff16815260200180602001806020018581526020018481526020018381038352878181546001816001161561010002031660029004815260200191508054600181600116156101000203166002900480156102335780601f1061020857610100808354040283529160200191610233565b820191906000526020600020905b81548152906001019060200180831161021657829003601f168201915b50508381038252868181546001816001161561010002031660029004815260200191508054600181600116156101000203166002900480156102b65780601f1061028b576101008083540402835291602001916102b6565b820191906000526020600020905b81548152906001019060200180831161029957829003601f168201915b5050995050505050505050505060405180910390f35b34156102d757600080fd5b610373600480803590602001908201803590602001908080601f0160208091040260200160405190810160405280939291908181526020018383808284378201915050505050509190803590602001908201803590602001908080601f016020809104026020016040519081016040528093929190818152602001838380828437820191505050505050919080359060200190919050506105ae565b005b61038b60048080359060200190919050506107e4565b005b341561039857600080fd5b6103b76004808035906020019091908035906020019091905050610b1c565b005b6103c1610c11565b6103c9610c11565b6000806103d4610c11565b60006001546040518059106103e65750595b9080825280602002602001820160405250945060009350600192505b600154831115156104a957600080600085815260200190815260200160002060020160009054906101000a900473ffffffffffffffffffffffffffffffffffffffff1673ffffffffffffffffffffffffffffffffffffffff16141561049c5760008084815260200190815260200160002060000154858581518110151561048557fe5b906020019060200201818152505083806001019450505b8280600101935050610402565b836040518059106104b75750595b90808252806020026020018201604052509150600190505b83811115156105195784818151811015156104e657fe5b9060200190602002015182828151811015156104fe57fe5b906020019060200201818152505080806001019150506104cf565b819550505050505090565b6000600154905090565b60006020528060005260406000206000915090508060000154908060010160009054906101000a900473ffffffffffffffffffffffffffffffffffffffff16908060020160009054906101000a900473ffffffffffffffffffffffffffffffffffffffff1690806003019080600401908060050154908060060154905087565b60016000815480929190600101919050555060e06040519081016040528060015481526020013373ffffffffffffffffffffffffffffffffffffffff168152602001600073ffffffffffffffffffffffffffffffffffffffff168152602001848152602001838152602001828152602001600081525060008060015481526020019081526020016000206000820151816000015560208201518160010160006101000a81548173ffffffffffffffffffffffffffffffffffffffff021916908373ffffffffffffffffffffffffffffffffffffffff16021790555060408201518160020160006101000a81548173ffffffffffffffffffffffffffffffffffffffff021916908373ffffffffffffffffffffffffffffffffffffffff16021790555060608201518160030190805190602001906106ec929190610c25565b506080820151816004019080519060200190610709929190610c25565b5060a0820151816005015560c082015181600601559050503373ffffffffffffffffffffffffffffffffffffffff166001547f795615f1d4f0e4f6c975e0ede1605f9f7184b7c98e65cea686d1f25b502fa67e85846040518080602001838152602001828103825284818151815260200191508051906020019080838360005b838110156107a4578082015181840152602081019050610789565b50505050905090810190601f1680156107d15780820380516001836020036101000a031916815260200191505b50935050505060405180910390a3505050565b6000806001541115156107f657600080fd5b60008211801561080857506001548211155b151561081357600080fd5b600080838152602001908152602001600020905060008160020160009054906101000a900473ffffffffffffffffffffffffffffffffffffffff1673ffffffffffffffffffffffffffffffffffffffff1614151561087057600080fd5b8060010160009054906101000a900473ffffffffffffffffffffffffffffffffffffffff1673ffffffffffffffffffffffffffffffffffffffff163373ffffffffffffffffffffffffffffffffffffffff16141515156108cf57600080fd5b8060050154341415156108e157600080fd5b338160020160006101000a81548173ffffffffffffffffffffffffffffffffffffffff021916908373ffffffffffffffffffffffffffffffffffffffff16021790555060008160010160009054906101000a900473ffffffffffffffffffffffffffffffffffffffff1673ffffffffffffffffffffffffffffffffffffffff161415151561096e57600080fd5b8060010160009054906101000a900473ffffffffffffffffffffffffffffffffffffffff1673ffffffffffffffffffffffffffffffffffffffff166108fc349081150290604051600060405180830381858888f1935050505015156109d257600080fd5b8060020160009054906101000a900473ffffffffffffffffffffffffffffffffffffffff1673ffffffffffffffffffffffffffffffffffffffff168160010160009054906101000a900473ffffffffffffffffffffffffffffffffffffffff1673ffffffffffffffffffffffffffffffffffffffff167f727072c44d97265938bf1a4def79b99cc438bb4f19a5842bc26d1beea4320099848460030185600501546040518084815260200180602001838152602001828103825284818154600181600116156101000203166002900481526020019150805460018160011615610100020316600290048015610b085780601f10610add57610100808354040283529160200191610b08565b820191906000526020600020905b815481529060010190602001808311610aeb57829003601f168201915b505094505050505060405180910390a35050565b600080600084815260200190815260200160002090508060020160009054906101000a900473ffffffffffffffffffffffffffffffffffffffff1673ffffffffffffffffffffffffffffffffffffffff163373ffffffffffffffffffffffffffffffffffffffff16141515610b9057600080fd5b8181600601819055507fd2623b20448f9b520ff07054e9ed1ff63602fc4e87e766213fd0fcb6853dd011338484604051808473ffffffffffffffffffffffffffffffffffffffff1673ffffffffffffffffffffffffffffffffffffffff168152602001838152602001828152602001935050505060405180910390a1505050565b602060405190810160405280600081525090565b828054600181600116156101000203166002900490600052602060002090601f016020900481019282601f10610c6657805160ff1916838001178555610c94565b82800160010185558215610c94579182015b82811115610c93578251825591602001919060010190610c78565b5b509050610ca19190610ca5565b5090565b610cc791905b80821115610cc3576000816000905550600101610cab565b5090565b905600a165627a7a72305820ce992e6cc8a26bcc7c07665ae0d222c3200154554940ce5eb18afa2de419e52f0029",
  "source": "pragma solidity ^0.4.18;\n\ncontract MarketPlace {\n\t\n\tstruct Product { \n\t\tuint id;\n\t\taddress seller;\n\t\taddress buyer;\n\t\tstring name;\n\t\tstring description;\n\t\tuint price;\n\n\t\t//feedback rating from 0 - 5 \n\t\tuint rating;\n\t}\n\n\t//store list of products accessible through uint key\n\tmapping(uint => Product) public products;\n\tuint productCounter;\n\n\t//events - informative message stored in each ethereum block transaction log\n\t//trigger events from contract to notify watchers that something just happened\n\t//associated to address of contract that triggered it\n\n\tevent LogSellProduct(\n\t\tuint indexed _id,\n\t\taddress indexed _seller, \n\t\tstring _name, \n\t\tuint _price \n\t);\n\n\tevent LogBuyProduct(\n\t\tuint _productId,\n\t\taddress indexed _seller,\n\t\taddress indexed _buyer,\n\t\tstring _name,\n\t\tuint _price\n\t);\n\n\tevent LogFeedBack(\n\t\taddress _buyer,\n\t\tuint _productId,\n\t\tuint rating\n\t);\n\n\t// sell product\n\tfunction sellProduct(string _name, string _description, uint _price) public { \n\n\t\tproductCounter++;\n\n\t\t//storing the product\n\t\tproducts[productCounter] = Product ( \n\t\t\tproductCounter,\n\t\t\tmsg.sender,\n\t\t\t0x0,\n\t\t\t_name,\n\t\t\t_description,\n\t\t\t_price,\n\t\t\t0\n\t\t);\n\t\t\n\t\tLogSellProduct(productCounter, msg.sender, _name, _price);\n\t}\n\n\t//get number of products\n\tfunction getNumberOfProducts(  ) public view returns (uint ) { \n\t\treturn productCounter;\n\t}\n\n\t//get product that has not been sold yet\n\tfunction getProductsForSale( ) public view returns (uint [] ) {\n\t\t//productIds cannot have more identifiers than number we have in contract\n\t\tuint [] memory productIds = new uint[] (productCounter);\n\n\t\tuint numberOfProductsForSale = 0;\n\n\t\tfor (uint i=1;i <= productCounter; i++ ) {  \n\t\t\tif(products[i].buyer == 0x0){\n\t\t\t\tproductIds[numberOfProductsForSale]  = products[i].id;\n\t\t\t\tnumberOfProductsForSale++;\n\t\t\t}\n\t\t}\n\n\t\t//copy productIds array into smaller for sale array\n\t\tuint[] memory forSale =  new uint[] (numberOfProductsForSale );\n\n\t\tfor(uint j=1; j<= numberOfProductsForSale; j++ ) {  \n\t\t\tforSale[j] = productIds[j];\n\t\t}\n\n\t\treturn forSale;\n\t}\n\n\tfunction buyProduct(uint _productId ) payable public { \n\t\t//at least one product exists\n\t\trequire(productCounter > 0  );\n\n\t\trequire(_productId > 0 && _productId <= productCounter);\n\n\t\t//retrieve product from mapping\n\t\tProduct storage product = products[_productId];\n\n\t\trequire(product.buyer == 0x0);\n\n\t\trequire(msg.sender != product.seller);\n\t\trequire(msg.value == product.price);\n\n\t\tproduct.buyer = msg.sender;\n\t\trequire(product.seller != 0x0);\n\t\tproduct.seller.transfer(msg.value);\n\n\t\tLogBuyProduct(_productId, product.seller, product.buyer, product.name, product.price );\n\t}\n\n\tfunction feedBack(uint _productId, uint _rating) public view {\n\t\tProduct storage prod = products[_productId];\n\n\t\trequire(msg.sender == prod.buyer);\n\t\t//require(_seller == product.seller);\n\n\t\t//update the value of rating for the product\n\t\tprod.rating = _rating;\n\n\t\tLogFeedBack(msg.sender, _productId, _rating );\n\n\t}\n}\n\n\n",
  "sourcePath": "/home/sujata/Documents/Masters-Thesis/endorsements/ethereum/contracts/MarketPlace.sol",
  "compiler": {
    "name": "solc",
    "version": "0.4.19+commit.c4cbbb05.Emscripten.clang"
  },
  "schemaVersion": "2.0.0",
  "updatedAt": "2018-07-31T09:44:15.914Z"
}