{
  "contractName": "MarketPlace",
  "abi": [
    {
      "constant": true,
      "inputs": [
        {
          "name": "",
          "type": "uint256"
        }
      ],
      "name": "products",
      "outputs": [
        {
          "name": "id",
          "type": "uint256"
        },
        {
          "name": "seller",
          "type": "address"
        },
        {
          "name": "buyer",
          "type": "address"
        },
        {
          "name": "name",
          "type": "string"
        },
        {
          "name": "description",
          "type": "string"
        },
        {
          "name": "price",
          "type": "uint256"
        }
      ],
      "payable": false,
      "stateMutability": "view",
      "type": "function"
    },
    {
      "constant": true,
      "inputs": [
        {
          "name": "",
          "type": "address"
        }
      ],
      "name": "ratings",
      "outputs": [
        {
          "name": "",
          "type": "uint256"
        }
      ],
      "payable": false,
      "stateMutability": "view",
      "type": "function"
    },
    {
      "constant": true,
      "inputs": [
        {
          "name": "",
          "type": "address"
        }
      ],
      "name": "flagCount",
      "outputs": [
        {
          "name": "",
          "type": "uint256"
        }
      ],
      "payable": false,
      "stateMutability": "view",
      "type": "function"
    },
    {
      "constant": true,
      "inputs": [
        {
          "name": "",
          "type": "address"
        }
      ],
      "name": "flag",
      "outputs": [
        {
          "name": "",
          "type": "bool"
        }
      ],
      "payable": false,
      "stateMutability": "view",
      "type": "function"
    },
    {
      "anonymous": false,
      "inputs": [
        {
          "indexed": true,
          "name": "_id",
          "type": "uint256"
        },
        {
          "indexed": true,
          "name": "_seller",
          "type": "address"
        },
        {
          "indexed": false,
          "name": "_name",
          "type": "string"
        },
        {
          "indexed": false,
          "name": "_price",
          "type": "uint256"
        }
      ],
      "name": "LogSellProduct",
      "type": "event"
    },
    {
      "anonymous": false,
      "inputs": [
        {
          "indexed": false,
          "name": "_productId",
          "type": "uint256"
        },
        {
          "indexed": true,
          "name": "_seller",
          "type": "address"
        },
        {
          "indexed": true,
          "name": "_buyer",
          "type": "address"
        },
        {
          "indexed": false,
          "name": "_name",
          "type": "string"
        },
        {
          "indexed": false,
          "name": "_price",
          "type": "uint256"
        }
      ],
      "name": "LogBuyProduct",
      "type": "event"
    },
    {
      "constant": false,
      "inputs": [
        {
          "name": "_name",
          "type": "string"
        },
        {
          "name": "_description",
          "type": "string"
        },
        {
          "name": "_price",
          "type": "uint256"
        }
      ],
      "name": "sellProduct",
      "outputs": [],
      "payable": false,
      "stateMutability": "nonpayable",
      "type": "function"
    },
    {
      "constant": true,
      "inputs": [],
      "name": "getNumberOfProducts",
      "outputs": [
        {
          "name": "",
          "type": "uint256"
        }
      ],
      "payable": false,
      "stateMutability": "view",
      "type": "function"
    },
    {
      "constant": true,
      "inputs": [],
      "name": "getProductsForSale",
      "outputs": [
        {
          "name": "",
          "type": "uint256[]"
        }
      ],
      "payable": false,
      "stateMutability": "view",
      "type": "function"
    },
    {
      "constant": false,
      "inputs": [
        {
          "name": "_productId",
          "type": "uint256"
        }
      ],
      "name": "buyProduct",
      "outputs": [],
      "payable": true,
      "stateMutability": "payable",
      "type": "function"
    },
    {
      "constant": false,
      "inputs": [
        {
          "name": "_productId",
          "type": "uint256"
        },
        {
          "name": "_rating",
          "type": "uint256"
        }
      ],
      "name": "leaveRating",
      "outputs": [],
      "payable": false,
      "stateMutability": "nonpayable",
      "type": "function"
    },
    {
      "constant": false,
      "inputs": [
        {
          "name": "_productId",
          "type": "uint256"
        }
      ],
      "name": "flagSeller",
      "outputs": [],
      "payable": false,
      "stateMutability": "nonpayable",
      "type": "function"
    }
  ],
  "bytecode": "0x6060604052341561000f57600080fd5b6110798061001e6000396000f3006060604052600436106100a3576000357c0100000000000000000000000000000000000000000000000000000000900463ffffffff168062e840bf146100a857806321818ca6146101125780633ffd81fb1461013e5780637acc0b20146101675780637d33f01e1461031d5780638642269e146103c65780639e01dfbb146103de578063ad2f41e81461042b578063c25d95db1461044e578063dabc1de41461049b575b600080fd5b34156100b357600080fd5b6100bb6104ec565b6040518080602001828103825283818151815260200191508051906020019060200280838360005b838110156100fe5780820151818401526020810190506100e3565b505050509050019250505060405180910390f35b341561011d57600080fd5b61013c6004808035906020019091908035906020019091905050610657565b005b341561014957600080fd5b6101516107d0565b6040518082815260200191505060405180910390f35b341561017257600080fd5b61018860048080359060200190919050506107da565b604051808781526020018673ffffffffffffffffffffffffffffffffffffffff1673ffffffffffffffffffffffffffffffffffffffff1681526020018573ffffffffffffffffffffffffffffffffffffffff1673ffffffffffffffffffffffffffffffffffffffff16815260200180602001806020018481526020018381038352868181546001816001161561010002031660029004815260200191508054600181600116156101000203166002900480156102855780601f1061025a57610100808354040283529160200191610285565b820191906000526020600020905b81548152906001019060200180831161026857829003601f168201915b50508381038252858181546001816001161561010002031660029004815260200191508054600181600116156101000203166002900480156103085780601f106102dd57610100808354040283529160200191610308565b820191906000526020600020905b8154815290600101906020018083116102eb57829003601f168201915b50509850505050505050505060405180910390f35b341561032857600080fd5b6103c4600480803590602001908201803590602001908080601f0160208091040260200160405190810160405280939291908181526020018383808284378201915050505050509190803590602001908201803590602001908080601f01602080910402602001604051908101604052809392919081815260200183838082843782019150505050505091908035906020019091905050610854565b005b6103dc6004808035906020019091905050610a79565b005b34156103e957600080fd5b610415600480803573ffffffffffffffffffffffffffffffffffffffff16906020019091905050610db1565b6040518082815260200191505060405180910390f35b341561043657600080fd5b61044c6004808035906020019091905050610dc9565b005b341561045957600080fd5b610485600480803573ffffffffffffffffffffffffffffffffffffffff16906020019091905050610f5c565b6040518082815260200191505060405180910390f35b34156104a657600080fd5b6104d2600480803573ffffffffffffffffffffffffffffffffffffffff16906020019091905050610f74565b604051808215151515815260200191505060405180910390f35b6104f4610f94565b6104fc610f94565b600080610507610f94565b60006001546040518059106105195750595b9080825280602002602001820160405250945060009350600192505b600154831115156105dc57600080600085815260200190815260200160002060020160009054906101000a900473ffffffffffffffffffffffffffffffffffffffff1673ffffffffffffffffffffffffffffffffffffffff1614156105cf576000808481526020019081526020016000206000015485858151811015156105b857fe5b906020019060200201818152505083806001019450505b8280600101935050610535565b836040518059106105ea5750595b90808252806020026020018201604052509150600190505b838111151561064c57848181518110151561061957fe5b90602001906020020151828281518110151561063157fe5b90602001906020020181815250508080600101915050610602565b819550505050505090565b60008083815260200190815260200160002060020160009054906101000a900473ffffffffffffffffffffffffffffffffffffffff1673ffffffffffffffffffffffffffffffffffffffff163373ffffffffffffffffffffffffffffffffffffffff161415156106c657600080fd5b60008083815260200190815260200160002060010160009054906101000a900473ffffffffffffffffffffffffffffffffffffffff1673ffffffffffffffffffffffffffffffffffffffff163373ffffffffffffffffffffffffffffffffffffffff161415151561073657600080fd5b60008110158015610748575060058111155b151561075357600080fd5b806002600080600086815260200190815260200160002060010160009054906101000a900473ffffffffffffffffffffffffffffffffffffffff1673ffffffffffffffffffffffffffffffffffffffff1673ffffffffffffffffffffffffffffffffffffffff168152602001908152602001600020819055505050565b6000600154905090565b60006020528060005260406000206000915090508060000154908060010160009054906101000a900473ffffffffffffffffffffffffffffffffffffffff16908060020160009054906101000a900473ffffffffffffffffffffffffffffffffffffffff1690806003019080600401908060050154905086565b60016000815480929190600101919050555060c06040519081016040528060015481526020013373ffffffffffffffffffffffffffffffffffffffff168152602001600073ffffffffffffffffffffffffffffffffffffffff1681526020018481526020018381526020018281525060008060015481526020019081526020016000206000820151816000015560208201518160010160006101000a81548173ffffffffffffffffffffffffffffffffffffffff021916908373ffffffffffffffffffffffffffffffffffffffff16021790555060408201518160020160006101000a81548173ffffffffffffffffffffffffffffffffffffffff021916908373ffffffffffffffffffffffffffffffffffffffff160217905550606082015181600301908051906020019061098b929190610fa8565b5060808201518160040190805190602001906109a8929190610fa8565b5060a082015181600501559050503373ffffffffffffffffffffffffffffffffffffffff166001547f795615f1d4f0e4f6c975e0ede1605f9f7184b7c98e65cea686d1f25b502fa67e85846040518080602001838152602001828103825284818151815260200191508051906020019080838360005b83811015610a39578082015181840152602081019050610a1e565b50505050905090810190601f168015610a665780820380516001836020036101000a031916815260200191505b50935050505060405180910390a3505050565b600080600154111515610a8b57600080fd5b600082118015610a9d57506001548211155b1515610aa857600080fd5b600080838152602001908152602001600020905060008160020160009054906101000a900473ffffffffffffffffffffffffffffffffffffffff1673ffffffffffffffffffffffffffffffffffffffff16141515610b0557600080fd5b8060010160009054906101000a900473ffffffffffffffffffffffffffffffffffffffff1673ffffffffffffffffffffffffffffffffffffffff163373ffffffffffffffffffffffffffffffffffffffff1614151515610b6457600080fd5b806005015434141515610b7657600080fd5b338160020160006101000a81548173ffffffffffffffffffffffffffffffffffffffff021916908373ffffffffffffffffffffffffffffffffffffffff16021790555060008160010160009054906101000a900473ffffffffffffffffffffffffffffffffffffffff1673ffffffffffffffffffffffffffffffffffffffff1614151515610c0357600080fd5b8060010160009054906101000a900473ffffffffffffffffffffffffffffffffffffffff1673ffffffffffffffffffffffffffffffffffffffff166108fc349081150290604051600060405180830381858888f193505050501515610c6757600080fd5b8060020160009054906101000a900473ffffffffffffffffffffffffffffffffffffffff1673ffffffffffffffffffffffffffffffffffffffff168160010160009054906101000a900473ffffffffffffffffffffffffffffffffffffffff1673ffffffffffffffffffffffffffffffffffffffff167f727072c44d97265938bf1a4def79b99cc438bb4f19a5842bc26d1beea4320099848460030185600501546040518084815260200180602001838152602001828103825284818154600181600116156101000203166002900481526020019150805460018160011615610100020316600290048015610d9d5780601f10610d7257610100808354040283529160200191610d9d565b820191906000526020600020905b815481529060010190602001808311610d8057829003601f168201915b505094505050505060405180910390a35050565b60026020528060005260406000206000915090505481565b60008060008084815260200190815260200160002060010160009054906101000a900473ffffffffffffffffffffffffffffffffffffffff16915060008084815260200190815260200160002060020160009054906101000a900473ffffffffffffffffffffffffffffffffffffffff1690508073ffffffffffffffffffffffffffffffffffffffff163373ffffffffffffffffffffffffffffffffffffffff16141515610e7657600080fd5b6001600360008473ffffffffffffffffffffffffffffffffffffffff1673ffffffffffffffffffffffffffffffffffffffff16815260200190815260200160002060006101000a81548160ff021916908315150217905550600460008373ffffffffffffffffffffffffffffffffffffffff1673ffffffffffffffffffffffffffffffffffffffff168152602001908152602001600020600081548092919060010191905055600460008473ffffffffffffffffffffffffffffffffffffffff1673ffffffffffffffffffffffffffffffffffffffff1681526020019081525050505050565b60046020528060005260406000206000915090505481565b60036020528060005260406000206000915054906101000a900460ff1681565b602060405190810160405280600081525090565b828054600181600116156101000203166002900490600052602060002090601f016020900481019282601f10610fe957805160ff1916838001178555611017565b82800160010185558215611017579182015b82811115611016578251825591602001919060010190610ffb565b5b5090506110249190611028565b5090565b61104a91905b8082111561104657600081600090555060010161102e565b5090565b905600a165627a7a72305820b7b943461b877e2b1eb4c4e7e567e56672091bd4225eae89209c6d327a85cbf70029",
  "source": "pragma solidity ^0.4.18;\n\ncontract MarketPlace {\n\t\n\tstruct Product { \n\t\tuint id;\n\t\taddress seller;\n\t\taddress buyer;\n\t\tstring name;\n\t\tstring description;\n\t\tuint price;\n\n\t\t//feedback rating from 0 - 5 \n\t\t//uint rating;\n\t}\n\n\t//store list of products accessible through uint key\n\tmapping(uint => Product) public products;\n\tuint productCounter;\n\n\t//ratings \n\tmapping(address => uint) public ratings;\n\n\t//flags\n\tmapping(address => bool) public flag;\n\tmapping(address => uint) public flagCount;\n\n\n\t//events - informative message stored in each ethereum block transaction log\n\t//trigger events from contract to notify watchers that something just happened\n\t//associated to address of contract that triggered it\n\n\tevent LogSellProduct(\n\t\tuint indexed _id,\n\t\taddress indexed _seller, \n\t\tstring _name, \n\t\tuint _price \n\t);\n\n\tevent LogBuyProduct(\n\t\tuint _productId,\n\t\taddress indexed _seller,\n\t\taddress indexed _buyer,\n\t\tstring _name,\n\t\tuint _price\n\t);\n\n\n\t// sell product\n\tfunction sellProduct(string _name, string _description, uint _price) public { \n\n\t\tproductCounter++;\n\n\t\t//storing the product\n\t\tproducts[productCounter] = Product ( \n\t\t\tproductCounter,\n\t\t\tmsg.sender,\n\t\t\t0x0,\n\t\t\t_name,\n\t\t\t_description,\n\t\t\t_price\n\t\t);\n\t\t\n\t\tLogSellProduct(productCounter, msg.sender, _name, _price);\n\t}\n\n\t//get number of products\n\tfunction getNumberOfProducts(  ) public view returns (uint ) { \n\t\treturn productCounter;\n\t}\n\n\t//get product that has not been sold yet\n\tfunction getProductsForSale( ) public view returns (uint [] ) {\n\t\t//productIds cannot have more identifiers than number we have in contract\n\t\tuint [] memory productIds = new uint[] (productCounter);\n\n\t\tuint numberOfProductsForSale = 0;\n\n\t\tfor (uint i=1;i <= productCounter; i++ ) {  \n\t\t\tif(products[i].buyer == 0x0){\n\t\t\t\tproductIds[numberOfProductsForSale]  = products[i].id;\n\t\t\t\tnumberOfProductsForSale++;\n\t\t\t}\n\t\t}\n\n\t\t//copy productIds array into smaller for sale array\n\t\tuint[] memory forSale =  new uint[] (numberOfProductsForSale );\n\n\t\tfor(uint j=1; j<= numberOfProductsForSale; j++ ) {  \n\t\t\tforSale[j] = productIds[j];\n\t\t}\n\n\t\treturn forSale;\n\t}\n\n\tfunction buyProduct(uint _productId ) payable public { \n\t\t//at least one product exists\n\t\trequire(productCounter > 0  );\n\n\t\trequire(_productId > 0 && _productId <= productCounter);\n\n\t\t//retrieve product from mapping\n\t\tProduct storage product = products[_productId];\n\n\t\trequire(product.buyer == 0x0);\n\n\t\trequire(msg.sender != product.seller);\n\t\trequire(msg.value == product.price);\n\n\t\tproduct.buyer = msg.sender;\n\t\trequire(product.seller != 0x0);\n\t\tproduct.seller.transfer(msg.value);\n\n\t\tLogBuyProduct(_productId, product.seller, product.buyer, product.name, product.price );\n\t}\n\n\t//leave rating for the seller as a buyer\n\tfunction leaveRating(uint _productId, uint _rating ) public {\n\t\t//only buyer can rate the product\n\t\trequire(msg.sender == products[_productId].buyer);\n\t\trequire(msg.sender != products[_productId].seller);\n\t\trequire(_rating >= 0 && _rating <= 5);\n\n\t\tratings[products[_productId].seller] = _rating;\n\t}\n\n\tfunction flagSeller(uint _productId ) public { \n\t\taddress seller = products[_productId].seller;\n\t\taddress buyer = products[_productId].buyer;\n\n\t\trequire(msg.sender == buyer );\n\n\t\tflag[seller] = true;\n\t\tflagCount[seller] == flagCount[seller]++;\n\n\t\t//if flagCount is more than 5, eliminate the seller\n\t}\n\n}\n\n\n",
  "sourcePath": "/home/sujata/Documents/Masters-Thesis/endorsements/ethereum/contracts/MarketPlace.sol",
  "compiler": {
    "name": "solc",
    "version": "0.4.19+commit.c4cbbb05.Emscripten.clang"
  },
  "schemaVersion": "2.0.0",
  "updatedAt": "2018-09-18T14:37:13.291Z"
}